{
  "contractName": "ERC165",
  "abi": [
    {
      "inputs": [
        {
          "internalType": "bytes4",
          "name": "interfaceID",
          "type": "bytes4"
        }
      ],
      "name": "supportsInterface",
      "outputs": [
        {
          "internalType": "bool",
          "name": "",
          "type": "bool"
        }
      ],
      "stateMutability": "view",
      "type": "function"
    }
  ],
  "bytecode": "0x608060405234801561001057600080fd5b5060c78061001f6000396000f3fe6080604052348015600f57600080fd5b506004361060285760003560e01c806301ffc9a714602d575b600080fd5b604e60383660046062565b6001600160e01b0319166301ffc9a760e01b1490565b604051901515815260200160405180910390f35b600060208284031215607357600080fd5b81356001600160e01b031981168114608a57600080fd5b939250505056fea264697066735822122065a70ee57ed8770f8e4711a9ae7cdad9a16c61221e993615867e42fa2000020364736f6c63430008110033",
  "immutableReferences": {},
  "source": "// SPDX-License-Identifier: MIT\npragma solidity ^0.8.0;\n\nimport \"./IERC165.sol\";\n\n// byte 함수 변환의 지문 데이터 계약 추적을 위함\n/* ERC165 표준 : 우리의 계약 데이터가 다른 interface에서 생성된 데이터와 일치하는지 확인 \n    >> 코드 바이팅으로 코드가 몇 바이트를 차지하는지 비교\n\n*/\ncontract ERC165 is IERC165 {\n    function supportsInterface(bytes4 interfaceID)\n        public\n        view\n        virtual\n        override\n        returns (bool)\n    {\n        // return _supportInterfaces[interfaceID];\n        return interfaceID == type(IERC165).interfaceId;\n    }\n}\n",
  "sourcePath": "/Users/kimyuri/SSAFY/projects/pjt2/repo/S07P22E206/smart-contracts/src/contracts/utils/introspection/ERC165.sol",
  "compiler": {
    "name": "solc",
    "version": "0.8.17+commit.8df45f5f.Emscripten.clang"
  },
  "schemaVersion": "3.4.9",
  "updatedAt": "2022-09-16T07:09:26.368Z",
  "devdoc": {
    "kind": "dev",
    "methods": {},
    "version": 1
  },
  "userdoc": {
    "kind": "user",
    "methods": {},
    "version": 1
  }
}