{
  "contractName": "ERC721Enumerable",
  "abi": [
    {
      "inputs": [],
      "stateMutability": "nonpayable",
      "type": "constructor"
    },
    {
      "anonymous": false,
      "inputs": [
        {
          "indexed": true,
          "internalType": "address",
          "name": "owner",
          "type": "address"
        },
        {
          "indexed": true,
          "internalType": "address",
          "name": "approved",
          "type": "address"
        },
        {
          "indexed": true,
          "internalType": "uint256",
          "name": "tokenId",
          "type": "uint256"
        }
      ],
      "name": "Approval",
      "type": "event"
    },
    {
      "anonymous": false,
      "inputs": [
        {
          "indexed": true,
          "internalType": "address",
          "name": "owner",
          "type": "address"
        },
        {
          "indexed": true,
          "internalType": "address",
          "name": "operator",
          "type": "address"
        },
        {
          "indexed": false,
          "internalType": "bool",
          "name": "approved",
          "type": "bool"
        }
      ],
      "name": "ApprovalForAll",
      "type": "event"
    },
    {
      "anonymous": false,
      "inputs": [
        {
          "indexed": true,
          "internalType": "address",
          "name": "from",
          "type": "address"
        },
        {
          "indexed": true,
          "internalType": "address",
          "name": "to",
          "type": "address"
        },
        {
          "indexed": true,
          "internalType": "uint256",
          "name": "tokenId",
          "type": "uint256"
        }
      ],
      "name": "Transfer",
      "type": "event"
    },
    {
      "inputs": [
        {
          "internalType": "address",
          "name": "_to",
          "type": "address"
        },
        {
          "internalType": "uint256",
          "name": "tokenId",
          "type": "uint256"
        }
      ],
      "name": "approve",
      "outputs": [],
      "stateMutability": "nonpayable",
      "type": "function"
    },
    {
      "inputs": [
        {
          "internalType": "address",
          "name": "owner",
          "type": "address"
        }
      ],
      "name": "balanceOf",
      "outputs": [
        {
          "internalType": "uint256",
          "name": "",
          "type": "uint256"
        }
      ],
      "stateMutability": "view",
      "type": "function"
    },
    {
      "inputs": [
        {
          "internalType": "uint256",
          "name": "tokenId",
          "type": "uint256"
        }
      ],
      "name": "getApproved",
      "outputs": [
        {
          "internalType": "address",
          "name": "",
          "type": "address"
        }
      ],
      "stateMutability": "view",
      "type": "function"
    },
    {
      "inputs": [
        {
          "internalType": "address",
          "name": "owner",
          "type": "address"
        },
        {
          "internalType": "address",
          "name": "operator",
          "type": "address"
        }
      ],
      "name": "isApprovedForAll",
      "outputs": [
        {
          "internalType": "bool",
          "name": "",
          "type": "bool"
        }
      ],
      "stateMutability": "view",
      "type": "function"
    },
    {
      "inputs": [
        {
          "internalType": "uint256",
          "name": "_tokenId",
          "type": "uint256"
        }
      ],
      "name": "ownerOf",
      "outputs": [
        {
          "internalType": "address",
          "name": "",
          "type": "address"
        }
      ],
      "stateMutability": "view",
      "type": "function"
    },
    {
      "inputs": [
        {
          "internalType": "address",
          "name": "from",
          "type": "address"
        },
        {
          "internalType": "address",
          "name": "to",
          "type": "address"
        },
        {
          "internalType": "uint256",
          "name": "tokenId",
          "type": "uint256"
        }
      ],
      "name": "safeTransferFrom",
      "outputs": [],
      "stateMutability": "nonpayable",
      "type": "function"
    },
    {
      "inputs": [
        {
          "internalType": "address",
          "name": "from",
          "type": "address"
        },
        {
          "internalType": "address",
          "name": "to",
          "type": "address"
        },
        {
          "internalType": "uint256",
          "name": "tokenId",
          "type": "uint256"
        },
        {
          "internalType": "bytes",
          "name": "data",
          "type": "bytes"
        }
      ],
      "name": "safeTransferFrom",
      "outputs": [],
      "stateMutability": "nonpayable",
      "type": "function"
    },
    {
      "inputs": [
        {
          "internalType": "address",
          "name": "operator",
          "type": "address"
        },
        {
          "internalType": "bool",
          "name": "_approved",
          "type": "bool"
        }
      ],
      "name": "setApprovalForAll",
      "outputs": [],
      "stateMutability": "nonpayable",
      "type": "function"
    },
    {
      "inputs": [
        {
          "internalType": "address",
          "name": "_from",
          "type": "address"
        },
        {
          "internalType": "address",
          "name": "_to",
          "type": "address"
        },
        {
          "internalType": "uint256",
          "name": "_tokenId",
          "type": "uint256"
        }
      ],
      "name": "transferFrom",
      "outputs": [],
      "stateMutability": "nonpayable",
      "type": "function"
    },
    {
      "inputs": [
        {
          "internalType": "address",
          "name": "_address",
          "type": "address"
        }
      ],
      "name": "getOwnedTokens",
      "outputs": [
        {
          "internalType": "uint256[]",
          "name": "",
          "type": "uint256[]"
        }
      ],
      "stateMutability": "view",
      "type": "function"
    },
    {
      "inputs": [
        {
          "internalType": "address",
          "name": "_from",
          "type": "address"
        },
        {
          "internalType": "address",
          "name": "_to",
          "type": "address"
        },
        {
          "internalType": "uint256",
          "name": "_tokenId",
          "type": "uint256"
        }
      ],
      "name": "_transferNG",
      "outputs": [],
      "stateMutability": "nonpayable",
      "type": "function"
    },
    {
      "inputs": [
        {
          "internalType": "uint256",
          "name": "_tokenId",
          "type": "uint256"
        }
      ],
      "name": "getIndexFromTokenId",
      "outputs": [
        {
          "internalType": "uint256",
          "name": "",
          "type": "uint256"
        }
      ],
      "stateMutability": "view",
      "type": "function"
    },
    {
      "inputs": [
        {
          "internalType": "bytes4",
          "name": "interfaceId",
          "type": "bytes4"
        }
      ],
      "name": "supportsInterface",
      "outputs": [
        {
          "internalType": "bool",
          "name": "",
          "type": "bool"
        }
      ],
      "stateMutability": "view",
      "type": "function"
    },
    {
      "inputs": [],
      "name": "totalSupply",
      "outputs": [
        {
          "internalType": "uint256",
          "name": "",
          "type": "uint256"
        }
      ],
      "stateMutability": "view",
      "type": "function"
    },
    {
      "inputs": [
        {
          "internalType": "uint256",
          "name": "index",
          "type": "uint256"
        }
      ],
      "name": "tokenByIndex",
      "outputs": [
        {
          "internalType": "uint256",
          "name": "",
          "type": "uint256"
        }
      ],
      "stateMutability": "view",
      "type": "function"
    },
    {
      "inputs": [
        {
          "internalType": "address",
          "name": "owner",
          "type": "address"
        },
        {
          "internalType": "uint256",
          "name": "index",
          "type": "uint256"
        }
      ],
      "name": "tokenOfOwnerByIndex",
      "outputs": [
        {
          "internalType": "uint256",
          "name": "",
          "type": "uint256"
        }
      ],
      "stateMutability": "view",
      "type": "function"
    }
  ],
  "bytecode": "0x608060405234801561001057600080fd5b506111af806100206000396000f3fe608060405234801561001057600080fd5b50600436106101005760003560e01c80636352211e11610097578063a8a07b3611610066578063a8a07b361461022d578063b88d4fde1461024d578063d9d6165514610260578063e985e9c51461028057600080fd5b80636352211e146101e157806370a08231146101f45780638d7b0e3214610207578063a22cb4651461021a57600080fd5b806323b872dd116100d357806323b872dd146101955780632f745c59146101a857806342842e0e146101bb5780634f6ccce7146101ce57600080fd5b806301ffc9a714610105578063081812fc1461012d578063095ea7b31461016e57806318160ddd14610183575b600080fd5b610118610113366004610cfb565b6102bc565b60405190151581526020015b60405180910390f35b61015661013b366004610d1f565b6000908152600260205260409020546001600160a01b031690565b6040516001600160a01b039091168152602001610124565b61018161017c366004610d54565b6102e7565b005b6004545b604051908152602001610124565b6101816101a3366004610d7e565b61043e565b6101876101b6366004610d54565b610474565b6101816101c9366004610d7e565b61050a565b6101876101dc366004610d1f565b610525565b6101566101ef366004610d1f565b6105a3565b610187610202366004610dba565b6105d8565b610181610215366004610d7e565b61061c565b610181610228366004610dd5565b61080c565b61018761023b366004610d1f565b60009081526005602052604090205490565b61018161025b366004610e27565b6108c6565b61027361026e366004610dba565b6108f8565b6040516101249190610f03565b61011861028e366004610f47565b6001600160a01b03918216600090815260036020908152604080832093909416825291909152205460ff1690565b60006001600160e01b0319821663780e9d6360e01b14806102e157506102e182610964565b92915050565b60006102f2826105a3565b9050806001600160a01b0316836001600160a01b0316036103645760405162461bcd60e51b815260206004820152602160248201527f4572726f72202d20617070726f76616c20746f2063757272656e74206f776e656044820152603960f91b60648201526084015b60405180910390fd5b336001600160a01b03821614806103805750610380813361028e565b6103e25760405162461bcd60e51b815260206004820152602d60248201527f43616c6c6572206973206e6f7420746f6b656e206f776e6572206f722061707060448201526c1c9bdd995908199bdc88185b1b609a1b606482015260840161035b565b60008281526002602052604080822080546001600160a01b0319166001600160a01b0387811691821790925591518593918516917f8c5be1e5ebec7d5bd14f71427d1e84f3dd0314c0f7b2291e5b200ac8c7c3b92591a4505050565b6104483382610999565b6104645760405162461bcd60e51b815260040161035b90610f7a565b61046f838383610a42565b505050565b600061047f836105d8565b82106104cd5760405162461bcd60e51b815260206004820152601d60248201527f6f776e657220696e646578206973206f7574206f6620626f756e647321000000604482015260640161035b565b6001600160a01b03831660009081526006602052604090208054839081106104f7576104f7610fbf565b9060005260206000200154905092915050565b61046f838383604051806020016040528060008152506108c6565b600061053060045490565b821061057e5760405162461bcd60e51b815260206004820152601e60248201527f676c6f62616c20696e646578206973206f7574206f6620626f756e6473210000604482015260640161035b565b6004828154811061059157610591610fbf565b90600052602060002001549050919050565b6000818152602081905260408120546001600160a01b0316806102e15760405162461bcd60e51b815260040161035b90610fd5565b60006001600160a01b0382166106005760405162461bcd60e51b815260040161035b90610fd5565b506001600160a01b031660009081526001602052604090205490565b61062783838361043e565b6000818152600760209081526040808320546001600160a01b0387168452600690925290912080548290811061065f5761065f610fbf565b6000918252602082200155805b6001600160a01b0385166000908152600660205260409020546106919060019061102d565b811015610787576001600160a01b03851660009081526006602052604090206106bb826001611040565b815481106106cb576106cb610fbf565b906000526020600020015460066000876001600160a01b03166001600160a01b03168152602001908152602001600020828154811061070c5761070c610fbf565b60009182526020808320909101929092556001600160a01b038716815260069091526040812080548390811061074457610744610fbf565b60009182526020808320909101548083526007909152604082208054919350909161076e83611053565b919050555050808061077f9061106a565b91505061066c565b506001600160a01b03841660009081526006602052604090208054806107af576107af611083565b6001900381819060005260206000200160009055905561080683836001600160a01b039091166000908152600660209081526040808320805460018101825581855283852001859055549383526007909152902055565b50505050565b336001600160a01b03831681036108595760405162461bcd60e51b815260206004820152601160248201527030b8383937bb32903a379031b0b63632b960791b604482015260640161035b565b6001600160a01b03818116600081815260036020908152604080832094881680845294825291829020805460ff191687151590811790915591519182527f17307eab39ab6107e8899845ad3d59bd9653f200f220920489ca2b5937696c31910160405180910390a3505050565b6108d03383610999565b6108ec5760405162461bcd60e51b815260040161035b90610f7a565b61080684848484610bae565b6001600160a01b03811660009081526006602090815260409182902080548351818402810184019094528084526060939283018282801561095857602002820191906000526020600020905b815481526020019060010190808311610944575b50505050509050919050565b60006001600160e01b031982166380ac58cd60e01b14806102e157506301ffc9a760e01b6001600160e01b03198316146102e1565b6000818152602081905260408120546001600160a01b03166109f45760405162461bcd60e51b81526020600482015260146024820152731d1bdad95b88191bdcd9481b9bdd08195e1a5cdd60621b604482015260640161035b565b60006109ff836105a3565b9050806001600160a01b0316846001600160a01b03161480610a3a57506000838152600260205260409020546001600160a01b038581169116145b949350505050565b826001600160a01b0316610a55826105a3565b6001600160a01b031614610ac85760405162461bcd60e51b815260206004820152603460248201527f547279696e6720746f207472616e73666572206120746f6b656e20746865206160448201527364647265737320646f6573206e6f74206f776e2160601b606482015260840161035b565b6001600160a01b038216610b325760405162461bcd60e51b815260206004820152602b60248201527f4572726f72202d20455243373231205472616e7366657220746f20746865207a60448201526a65726f206164647265737360a81b606482015260840161035b565b6001600160a01b0380841660008181526001602081815260408084208054600019019055948716808452858420805490930190925585835282905283822080546001600160a01b031916821790559251849392917fddf252ad1be2c89b69c2b068fc378daa952ba7f163c4a11628f55a4df523b3ef91a4505050565b610bb9848484610a42565b610bc584848484610be1565b6108065760405162461bcd60e51b815260040161035b90611099565b60006001600160a01b0384163b15610cd757604051630a85bd0160e11b81526001600160a01b0385169063150b7a0290610c259033908990889088906004016110eb565b6020604051808303816000875af1925050508015610c60575060408051601f3d908101601f19168201909252610c5d9181019061115c565b60015b610cbd573d808015610c8e576040519150601f19603f3d011682016040523d82523d6000602084013e610c93565b606091505b508051600003610cb55760405162461bcd60e51b815260040161035b90611099565b805181602001fd5b6001600160e01b031916630a85bd0160e11b149050610a3a565b506001949350505050565b6001600160e01b031981168114610cf857600080fd5b50565b600060208284031215610d0d57600080fd5b8135610d1881610ce2565b9392505050565b600060208284031215610d3157600080fd5b5035919050565b80356001600160a01b0381168114610d4f57600080fd5b919050565b60008060408385031215610d6757600080fd5b610d7083610d38565b946020939093013593505050565b600080600060608486031215610d9357600080fd5b610d9c84610d38565b9250610daa60208501610d38565b9150604084013590509250925092565b600060208284031215610dcc57600080fd5b610d1882610d38565b60008060408385031215610de857600080fd5b610df183610d38565b915060208301358015158114610e0657600080fd5b809150509250929050565b634e487b7160e01b600052604160045260246000fd5b60008060008060808587031215610e3d57600080fd5b610e4685610d38565b9350610e5460208601610d38565b925060408501359150606085013567ffffffffffffffff80821115610e7857600080fd5b818701915087601f830112610e8c57600080fd5b813581811115610e9e57610e9e610e11565b604051601f8201601f19908116603f01168101908382118183101715610ec657610ec6610e11565b816040528281528a6020848701011115610edf57600080fd5b82602086016020830137600060208483010152809550505050505092959194509250565b6020808252825182820181905260009190848201906040850190845b81811015610f3b57835183529284019291840191600101610f1f565b50909695505050505050565b60008060408385031215610f5a57600080fd5b610f6383610d38565b9150610f7160208401610d38565b90509250929050565b60208082526025908201527f73656e646572206973206e6f7420746f6b656e204f776e6572206f72204170706040820152641c9bdd995960da1b606082015260800190565b634e487b7160e01b600052603260045260246000fd5b60208082526022908201527f6f776e657220717565727920666f72206e6f6e2d6578697374656e7420746f6b60408201526132b760f11b606082015260800190565b634e487b7160e01b600052601160045260246000fd5b818103818111156102e1576102e1611017565b808201808211156102e1576102e1611017565b60008161106257611062611017565b506000190190565b60006001820161107c5761107c611017565b5060010190565b634e487b7160e01b600052603160045260246000fd5b60208082526032908201527f4552433732313a207472616e7366657220746f206e6f6e20455243373231526560408201527131b2b4bb32b91034b6b83632b6b2b73a32b960711b606082015260800190565b600060018060a01b038087168352602081871681850152856040850152608060608501528451915081608085015260005b828110156111385785810182015185820160a00152810161111c565b5050600060a0828501015260a0601f19601f83011684010191505095945050505050565b60006020828403121561116e57600080fd5b8151610d1881610ce256fea2646970667358221220590cb285d0926c9b793327c999e1a3a133ae5f74201237b0391595b698fe886d64736f6c63430008110033",
  "immutableReferences": {},
  "source": "// SPDX-License-Identifier: MIT\r\npragma solidity ^0.8.0;\r\n\r\nimport \"../ERC721.sol\";\r\nimport \"./IERC721Enumerable.sol\";\r\n\r\ncontract ERC721Enumerable is IERC721Enumerable, ERC721 {\r\n    // index ID       \r\n    uint256[] private _allTokens;\r\n\r\n    // tokenId to position in _allTokens\r\n    mapping(uint256 => uint256) private _allTokensIndex;\r\n\r\n    // owner to list of all owner token ids\r\n    mapping(address => uint256[]) private _ownedTokens;\r\n\r\n    // token ID index to owner tokens list\r\n    mapping(uint256 => uint256) private _ownedTokensIndex;\r\n\r\n    constructor() {}\r\n\r\n    //ng) msg.sender    \r\n    function getOwnedTokens(address _address)\r\n        public\r\n        view\r\n        returns (uint256[] memory)\r\n    {\r\n        return _ownedTokens[_address];\r\n    }\r\n\r\n    function _transferNG(\r\n        address _from,\r\n        address _to,\r\n        uint256 _tokenId\r\n    ) public {\r\n        transferFrom(_from, _to, _tokenId);\r\n\r\n        uint256 index = _ownedTokensIndex[_tokenId];\r\n        // delete ,       >>      0  \r\n        delete _ownedTokens[_from][index];\r\n        //     shifting\r\n        for (uint256 i = index; i < _ownedTokens[_from].length - 1; i++) {\r\n            _ownedTokens[_from][i] = _ownedTokens[_from][i + 1];\r\n            uint256 tokenid = _ownedTokens[_from][i];\r\n            _ownedTokensIndex[tokenid]--;\r\n        }\r\n        _ownedTokens[_from].pop();\r\n\r\n        _addTokensToOwnerEnumeration(_to, _tokenId);\r\n        // _ownedTokens[_to].push(_tokenId);\r\n        // _ownedTokensIndex[_tokenId] = _ownedTokens[_to].length - 1;\r\n    }\r\n\r\n    //NG _allTokensIndex    (function transfer)\r\n    function getIndexFromTokenId(uint256 _tokenId)\r\n        public\r\n        view\r\n        returns (uint256)\r\n    {\r\n        return _allTokensIndex[_tokenId];\r\n    }\r\n\r\n    // ERC165  Overriding from ERC721\r\n    function supportsInterface(bytes4 interfaceId)\r\n        public\r\n        view\r\n        virtual\r\n        override(ERC721)\r\n        returns (bool)\r\n    {\r\n        return\r\n            interfaceId == type(IERC721Enumerable).interfaceId ||\r\n            super.supportsInterface(interfaceId);\r\n    }\r\n\r\n    //    return\r\n    function totalSupply() public view override returns (uint256) {\r\n        return _allTokens.length;\r\n    }\r\n\r\n    // index   token address return\r\n    function tokenByIndex(uint256 index)\r\n        external\r\n        view\r\n        override\r\n        returns (uint256)\r\n    {\r\n        require(index < totalSupply(), \"global index is out of bounds!\");\r\n        return _allTokens[index];\r\n    }\r\n\r\n    // owner    index  tokenId return\r\n    function tokenOfOwnerByIndex(address owner, uint256 index)\r\n        external\r\n        view\r\n        override\r\n        returns (uint256)\r\n    {\r\n        require(index < balanceOf(owner), \"owner index is out of bounds!\");\r\n        return _ownedTokens[owner][index];\r\n    }\r\n\r\n    //     \r\n    function _mint(address to, uint256 tokenId) internal override(ERC721) {\r\n        super._mint(to, tokenId);\r\n        //  1. add tokens to the owner:  \r\n        //    ->     \r\n        _addTokensToOwnerEnumeration(to, tokenId);\r\n\r\n        //  2. all tokens to our totalsupply - to allTokens:   \r\n        //    -> allTokens    \r\n        _addTokensToAllTokenEnumeration(tokenId);\r\n    }\r\n\r\n    // add tokens to the _allTokens array and set the position of the tokens indexes.\r\n    function _addTokensToAllTokenEnumeration(uint256 tokenId) private {\r\n        // _allTokensIndex[tokenId]: tokenId   \r\n        _allTokensIndex[tokenId] = _allTokens.length;\r\n        _allTokens.push(tokenId);\r\n\r\n        //      tokenID      .\r\n    }\r\n\r\n    function _addTokensToOwnerEnumeration(address to, uint256 tokenId) private {\r\n        // EXERCISE - CHALLENGE - DO THESE THREE THINGS:\r\n        // 1. add address and token id to the _ownedTokens\r\n        // 2. _ownedTokensIndex tokenId set to address of ownedTokens position\r\n        // 3. we want to execute the function with minting\r\n        _ownedTokens[to].push(tokenId);\r\n        _ownedTokensIndex[tokenId] = _ownedTokens[to].length;\r\n    }\r\n}\r\n",
  "sourcePath": "C:\\Users\\SSAFY\\Desktop\\PJT_NG\\S07P22E206\\smart-contracts\\src\\contracts\\tokens\\ERC721\\extensions\\ERC721Enumerable.sol",
  "compiler": {
    "name": "solc",
    "version": "0.8.17+commit.8df45f5f.Emscripten.clang"
  },
  "schemaVersion": "3.4.9",
  "updatedAt": "2022-09-30T09:26:54.325Z",
  "devdoc": {
    "kind": "dev",
    "methods": {
      "balanceOf(address)": {
        "details": "Returns the number of tokens in ``owner``'s account."
      },
      "getApproved(uint256)": {
        "details": "Returns the account approved for `tokenId` token. Requirements: - `tokenId` must exist."
      },
      "isApprovedForAll(address,address)": {
        "details": "Returns if the `operator` is allowed to manage all of the assets of `owner`. See {setApprovalForAll}"
      },
      "safeTransferFrom(address,address,uint256)": {
        "details": "Safely transfers `tokenId` token from `from` to `to`, checking first that contract recipients are aware of the ERC721 protocol to prevent tokens from being forever locked. Requirements: - `from` cannot be the zero address. - `to` cannot be the zero address. - `tokenId` token must exist and be owned by `from`. - If the caller is not `from`, it must be have been allowed to move this token by either {approve} or {setApprovalForAll}. - If `to` refers to a smart contract, it must implement {IERC721Receiver-onERC721Received}, which is called upon a safe transfer. Emits a {Transfer} event."
      },
      "safeTransferFrom(address,address,uint256,bytes)": {
        "details": "Safely transfers `tokenId` token from `from` to `to`. Requirements: - `from` cannot be the zero address. - `to` cannot be the zero address. - `tokenId` token must exist and be owned by `from`. - If the caller is not `from`, it must be approved to move this token by either {approve} or {setApprovalForAll}. - If `to` refers to a smart contract, it must implement {IERC721Receiver-onERC721Received}, which is called upon a safe transfer. Emits a {Transfer} event."
      },
      "setApprovalForAll(address,bool)": {
        "details": "Approve or remove `operator` as an operator for the caller. Operators can call {transferFrom} or {safeTransferFrom} for any token owned by the caller. Requirements: - The `operator` cannot be the caller. Emits an {ApprovalForAll} event."
      }
    },
    "version": 1
  },
  "userdoc": {
    "kind": "user",
    "methods": {},
    "version": 1
  }
}