{
  "contractName": "ERC721Connector",
  "abi": [
    {
      "inputs": [
        {
          "internalType": "string",
          "name": "name",
          "type": "string"
        },
        {
          "internalType": "string",
          "name": "symbol",
          "type": "string"
        }
      ],
      "stateMutability": "nonpayable",
      "type": "constructor"
    },
    {
      "anonymous": false,
      "inputs": [
        {
          "indexed": true,
          "internalType": "address",
          "name": "owner",
          "type": "address"
        },
        {
          "indexed": true,
          "internalType": "address",
          "name": "approved",
          "type": "address"
        },
        {
          "indexed": true,
          "internalType": "uint256",
          "name": "tokenId",
          "type": "uint256"
        }
      ],
      "name": "Approval",
      "type": "event"
    },
    {
      "anonymous": false,
      "inputs": [
        {
          "indexed": true,
          "internalType": "address",
          "name": "owner",
          "type": "address"
        },
        {
          "indexed": true,
          "internalType": "address",
          "name": "operator",
          "type": "address"
        },
        {
          "indexed": false,
          "internalType": "bool",
          "name": "approved",
          "type": "bool"
        }
      ],
      "name": "ApprovalForAll",
      "type": "event"
    },
    {
      "anonymous": false,
      "inputs": [
        {
          "indexed": true,
          "internalType": "address",
          "name": "from",
          "type": "address"
        },
        {
          "indexed": true,
          "internalType": "address",
          "name": "to",
          "type": "address"
        },
        {
          "indexed": true,
          "internalType": "uint256",
          "name": "tokenId",
          "type": "uint256"
        }
      ],
      "name": "Transfer",
      "type": "event"
    },
    {
      "inputs": [
        {
          "internalType": "address",
          "name": "_from",
          "type": "address"
        },
        {
          "internalType": "address",
          "name": "_to",
          "type": "address"
        },
        {
          "internalType": "uint256",
          "name": "_tokenId",
          "type": "uint256"
        }
      ],
      "name": "_transferNG",
      "outputs": [],
      "stateMutability": "nonpayable",
      "type": "function"
    },
    {
      "inputs": [
        {
          "internalType": "address",
          "name": "_to",
          "type": "address"
        },
        {
          "internalType": "uint256",
          "name": "tokenId",
          "type": "uint256"
        }
      ],
      "name": "approve",
      "outputs": [],
      "stateMutability": "nonpayable",
      "type": "function"
    },
    {
      "inputs": [
        {
          "internalType": "address",
          "name": "owner",
          "type": "address"
        }
      ],
      "name": "balanceOf",
      "outputs": [
        {
          "internalType": "uint256",
          "name": "",
          "type": "uint256"
        }
      ],
      "stateMutability": "view",
      "type": "function"
    },
    {
      "inputs": [
        {
          "internalType": "uint256",
          "name": "tokenId",
          "type": "uint256"
        }
      ],
      "name": "getApproved",
      "outputs": [
        {
          "internalType": "address",
          "name": "",
          "type": "address"
        }
      ],
      "stateMutability": "view",
      "type": "function"
    },
    {
      "inputs": [
        {
          "internalType": "uint256",
          "name": "_tokenId",
          "type": "uint256"
        }
      ],
      "name": "getIndexFromTokenId",
      "outputs": [
        {
          "internalType": "uint256",
          "name": "",
          "type": "uint256"
        }
      ],
      "stateMutability": "view",
      "type": "function"
    },
    {
      "inputs": [
        {
          "internalType": "address",
          "name": "_address",
          "type": "address"
        }
      ],
      "name": "getOwnedTokens",
      "outputs": [
        {
          "internalType": "uint256[]",
          "name": "",
          "type": "uint256[]"
        }
      ],
      "stateMutability": "view",
      "type": "function"
    },
    {
      "inputs": [
        {
          "internalType": "address",
          "name": "owner",
          "type": "address"
        },
        {
          "internalType": "address",
          "name": "operator",
          "type": "address"
        }
      ],
      "name": "isApprovedForAll",
      "outputs": [
        {
          "internalType": "bool",
          "name": "",
          "type": "bool"
        }
      ],
      "stateMutability": "view",
      "type": "function"
    },
    {
      "inputs": [],
      "name": "name",
      "outputs": [
        {
          "internalType": "string",
          "name": "",
          "type": "string"
        }
      ],
      "stateMutability": "view",
      "type": "function"
    },
    {
      "inputs": [
        {
          "internalType": "uint256",
          "name": "_tokenId",
          "type": "uint256"
        }
      ],
      "name": "ownerOf",
      "outputs": [
        {
          "internalType": "address",
          "name": "",
          "type": "address"
        }
      ],
      "stateMutability": "view",
      "type": "function"
    },
    {
      "inputs": [
        {
          "internalType": "address",
          "name": "from",
          "type": "address"
        },
        {
          "internalType": "address",
          "name": "to",
          "type": "address"
        },
        {
          "internalType": "uint256",
          "name": "tokenId",
          "type": "uint256"
        }
      ],
      "name": "safeTransferFrom",
      "outputs": [],
      "stateMutability": "nonpayable",
      "type": "function"
    },
    {
      "inputs": [
        {
          "internalType": "address",
          "name": "from",
          "type": "address"
        },
        {
          "internalType": "address",
          "name": "to",
          "type": "address"
        },
        {
          "internalType": "uint256",
          "name": "tokenId",
          "type": "uint256"
        },
        {
          "internalType": "bytes",
          "name": "data",
          "type": "bytes"
        }
      ],
      "name": "safeTransferFrom",
      "outputs": [],
      "stateMutability": "nonpayable",
      "type": "function"
    },
    {
      "inputs": [
        {
          "internalType": "address",
          "name": "operator",
          "type": "address"
        },
        {
          "internalType": "bool",
          "name": "_approved",
          "type": "bool"
        }
      ],
      "name": "setApprovalForAll",
      "outputs": [],
      "stateMutability": "nonpayable",
      "type": "function"
    },
    {
      "inputs": [],
      "name": "symbol",
      "outputs": [
        {
          "internalType": "string",
          "name": "",
          "type": "string"
        }
      ],
      "stateMutability": "view",
      "type": "function"
    },
    {
      "inputs": [
        {
          "internalType": "uint256",
          "name": "index",
          "type": "uint256"
        }
      ],
      "name": "tokenByIndex",
      "outputs": [
        {
          "internalType": "uint256",
          "name": "",
          "type": "uint256"
        }
      ],
      "stateMutability": "view",
      "type": "function"
    },
    {
      "inputs": [
        {
          "internalType": "address",
          "name": "owner",
          "type": "address"
        },
        {
          "internalType": "uint256",
          "name": "index",
          "type": "uint256"
        }
      ],
      "name": "tokenOfOwnerByIndex",
      "outputs": [
        {
          "internalType": "uint256",
          "name": "",
          "type": "uint256"
        }
      ],
      "stateMutability": "view",
      "type": "function"
    },
    {
      "inputs": [
        {
          "internalType": "uint256",
          "name": "tokenId",
          "type": "uint256"
        }
      ],
      "name": "tokenURI",
      "outputs": [
        {
          "internalType": "string",
          "name": "",
          "type": "string"
        }
      ],
      "stateMutability": "view",
      "type": "function"
    },
    {
      "inputs": [],
      "name": "totalSupply",
      "outputs": [
        {
          "internalType": "uint256",
          "name": "",
          "type": "uint256"
        }
      ],
      "stateMutability": "view",
      "type": "function"
    },
    {
      "inputs": [
        {
          "internalType": "address",
          "name": "_from",
          "type": "address"
        },
        {
          "internalType": "address",
          "name": "_to",
          "type": "address"
        },
        {
          "internalType": "uint256",
          "name": "_tokenId",
          "type": "uint256"
        }
      ],
      "name": "transferFrom",
      "outputs": [],
      "stateMutability": "nonpayable",
      "type": "function"
    },
    {
      "inputs": [
        {
          "internalType": "bytes4",
          "name": "interfaceId",
          "type": "bytes4"
        }
      ],
      "name": "supportsInterface",
      "outputs": [
        {
          "internalType": "bool",
          "name": "",
          "type": "bool"
        }
      ],
      "stateMutability": "view",
      "type": "function"
    }
  ],
  "bytecode": "0x60806040523480156200001157600080fd5b506040516200174738038062001747833981016040819052620000349162000123565b818160006200004483826200021c565b5060016200005382826200021c565b5050505050620002e8565b634e487b7160e01b600052604160045260246000fd5b600082601f8301126200008657600080fd5b81516001600160401b0380821115620000a357620000a36200005e565b604051601f8301601f19908116603f01168101908282118183101715620000ce57620000ce6200005e565b81604052838152602092508683858801011115620000eb57600080fd5b600091505b838210156200010f5785820183015181830184015290820190620000f0565b600093810190920192909252949350505050565b600080604083850312156200013757600080fd5b82516001600160401b03808211156200014f57600080fd5b6200015d8683870162000074565b935060208501519150808211156200017457600080fd5b50620001838582860162000074565b9150509250929050565b600181811c90821680620001a257607f821691505b602082108103620001c357634e487b7160e01b600052602260045260246000fd5b50919050565b601f8211156200021757600081815260208120601f850160051c81016020861015620001f25750805b601f850160051c820191505b818110156200021357828155600101620001fe565b5050505b505050565b81516001600160401b038111156200023857620002386200005e565b62000250816200024984546200018d565b84620001c9565b602080601f8311600181146200028857600084156200026f5750858301515b600019600386901b1c1916600185901b17855562000213565b600085815260208120601f198616915b82811015620002b95788860151825594840194600190910190840162000298565b5085821015620002d85787850151600019600388901b60f8161c191681555b5050505050600190811b01905550565b61144f80620002f86000396000f3fe608060405234801561001057600080fd5b50600436106101215760003560e01c80636352211e116100ad578063a8a07b3611610071578063a8a07b361461026b578063b88d4fde1461028b578063c87b56dd1461029e578063d9d61655146102b1578063e985e9c5146102d157600080fd5b80636352211e1461021757806370a082311461022a5780638d7b0e321461023d57806395d89b4114610250578063a22cb4651461025857600080fd5b806318160ddd116100f457806318160ddd146101b957806323b872dd146101cb5780632f745c59146101de57806342842e0e146101f15780634f6ccce71461020457600080fd5b806301ffc9a71461012657806306fdde031461014e578063081812fc14610163578063095ea7b3146101a4575b600080fd5b610139610134366004610efb565b61030d565b60405190151581526020015b60405180910390f35b61015661031e565b6040516101459190610f68565b61018c610171366004610f7b565b6000908152600460205260409020546001600160a01b031690565b6040516001600160a01b039091168152602001610145565b6101b76101b2366004610fb0565b6103b0565b005b6006545b604051908152602001610145565b6101b76101d9366004610fda565b610507565b6101bd6101ec366004610fb0565b61053d565b6101b76101ff366004610fda565b6105d3565b6101bd610212366004610f7b565b6105ee565b61018c610225366004610f7b565b61066c565b6101bd610238366004611016565b6106a1565b6101b761024b366004610fda565b6106e5565b6101566108d7565b6101b7610266366004611031565b6108e6565b6101bd610279366004610f7b565b60009081526007602052604090205490565b6101b7610299366004611083565b6109a0565b6101566102ac366004610f7b565b6109d2565b6102c46102bf366004611016565b6109fc565b604051610145919061115f565b6101396102df3660046111a3565b6001600160a01b03918216600090815260056020908152604080832093909416825291909152205460ff1690565b600061031882610a68565b92915050565b60606000805461032d906111d6565b80601f0160208091040260200160405190810160405280929190818152602001828054610359906111d6565b80156103a65780601f1061037b576101008083540402835291602001916103a6565b820191906000526020600020905b81548152906001019060200180831161038957829003601f168201915b5050505050905090565b60006103bb8261066c565b9050806001600160a01b0316836001600160a01b03160361042d5760405162461bcd60e51b815260206004820152602160248201527f4572726f72202d20617070726f76616c20746f2063757272656e74206f776e656044820152603960f91b60648201526084015b60405180910390fd5b336001600160a01b0382161480610449575061044981336102df565b6104ab5760405162461bcd60e51b815260206004820152602d60248201527f43616c6c6572206973206e6f7420746f6b656e206f776e6572206f722061707060448201526c1c9bdd995908199bdc88185b1b609a1b6064820152608401610424565b60008281526004602052604080822080546001600160a01b0319166001600160a01b0387811691821790925591518593918516917f8c5be1e5ebec7d5bd14f71427d1e84f3dd0314c0f7b2291e5b200ac8c7c3b92591a4505050565b6105113382610a8d565b61052d5760405162461bcd60e51b815260040161042490611210565b610538838383610b36565b505050565b6000610548836106a1565b82106105965760405162461bcd60e51b815260206004820152601d60248201527f6f776e657220696e646578206973206f7574206f6620626f756e6473210000006044820152606401610424565b6001600160a01b03831660009081526008602052604090208054839081106105c0576105c0611255565b9060005260206000200154905092915050565b610538838383604051806020016040528060008152506109a0565b60006105f960065490565b82106106475760405162461bcd60e51b815260206004820152601e60248201527f676c6f62616c20696e646578206973206f7574206f6620626f756e64732100006044820152606401610424565b6006828154811061065a5761065a611255565b90600052602060002001549050919050565b6000818152600260205260408120546001600160a01b0316806103185760405162461bcd60e51b81526004016104249061126b565b60006001600160a01b0382166106c95760405162461bcd60e51b81526004016104249061126b565b506001600160a01b031660009081526003602052604090205490565b6106f0838383610507565b6000818152600960209081526040808320546001600160a01b0387168452600890925290912080548290811061072857610728611255565b6000918252602082200155805b6001600160a01b03851660009081526008602052604090205461075a906001906112c3565b811015610850576001600160a01b03851660009081526008602052604090206107848260016112d6565b8154811061079457610794611255565b906000526020600020015460086000876001600160a01b03166001600160a01b0316815260200190815260200160002082815481106107d5576107d5611255565b60009182526020808320909101929092556001600160a01b038716815260089091526040812080548390811061080d5761080d611255565b600091825260208083209091015480835260099091526040822080549193509091610837836112e9565b919050555050808061084890611300565b915050610735565b506001600160a01b038416600090815260086020526040902080548061087857610878611319565b600190038181906000526020600020016000905590556108d183836001600160a01b0390911660009081526008602081815260408084208054868652600984529185208290559282526001810183559183529091200155565b50505050565b60606001805461032d906111d6565b336001600160a01b03831681036109335760405162461bcd60e51b815260206004820152601160248201527030b8383937bb32903a379031b0b63632b960791b6044820152606401610424565b6001600160a01b03818116600081815260056020908152604080832094881680845294825291829020805460ff191687151590811790915591519182527f17307eab39ab6107e8899845ad3d59bd9653f200f220920489ca2b5937696c31910160405180910390a3505050565b6109aa3383610a8d565b6109c65760405162461bcd60e51b815260040161042490611210565b6108d184848484610ca3565b604080516020810190915260008152606090604051806020016040528060008152505b9392505050565b6001600160a01b038116600090815260086020908152604091829020805483518184028101840190945280845260609392830182828015610a5c57602002820191906000526020600020905b815481526020019060010190808311610a48575b50505050509050919050565b60006001600160e01b0319821663780e9d6360e01b1480610318575061031882610dac565b6000818152600260205260408120546001600160a01b0316610ae85760405162461bcd60e51b81526020600482015260146024820152731d1bdad95b88191bdcd9481b9bdd08195e1a5cdd60621b6044820152606401610424565b6000610af38361066c565b9050806001600160a01b0316846001600160a01b03161480610b2e57506000838152600460205260409020546001600160a01b038581169116145b949350505050565b826001600160a01b0316610b498261066c565b6001600160a01b031614610bbc5760405162461bcd60e51b815260206004820152603460248201527f547279696e6720746f207472616e73666572206120746f6b656e20746865206160448201527364647265737320646f6573206e6f74206f776e2160601b6064820152608401610424565b6001600160a01b038216610c265760405162461bcd60e51b815260206004820152602b60248201527f4572726f72202d20455243373231205472616e7366657220746f20746865207a60448201526a65726f206164647265737360a81b6064820152608401610424565b6001600160a01b038084166000818152600360209081526040808320805460001901905593861680835284832080546001019055858352600290915283822080546001600160a01b031916821790559251849392917fddf252ad1be2c89b69c2b068fc378daa952ba7f163c4a11628f55a4df523b3ef91a4505050565b610cae848484610b36565b610cba84848484610de1565b6108d15760405162461bcd60e51b81526004016104249061132f565b8115610cfc5780610ce681611300565b9150610cf59050600a83611397565b9150610cd6565b60008167ffffffffffffffff811115610d1757610d1761106d565b6040519080825280601f01601f191660200182016040528015610d41576020820181803683370190505b5090505b8415610b2e57610d566001836112c3565b9150610d63600a866113ab565b610d6e9060306112d6565b60f81b818381518110610d8357610d83611255565b60200101906001600160f81b031916908160001a905350610da5600a86611397565b9450610d45565b60006001600160e01b031982166380ac58cd60e01b148061031857506301ffc9a760e01b6001600160e01b0319831614610318565b60006001600160a01b0384163b15610ed757604051630a85bd0160e11b81526001600160a01b0385169063150b7a0290610e259033908990889088906004016113bf565b6020604051808303816000875af1925050508015610e60575060408051601f3d908101601f19168201909252610e5d918101906113fc565b60015b610ebd573d808015610e8e576040519150601f19603f3d011682016040523d82523d6000602084013e610e93565b606091505b508051600003610eb55760405162461bcd60e51b81526004016104249061132f565b805181602001fd5b6001600160e01b031916630a85bd0160e11b149050610b2e565b506001949350505050565b6001600160e01b031981168114610ef857600080fd5b50565b600060208284031215610f0d57600080fd5b81356109f581610ee2565b60005b83811015610f33578181015183820152602001610f1b565b50506000910152565b60008151808452610f54816020860160208601610f18565b601f01601f19169290920160200192915050565b6020815260006109f56020830184610f3c565b600060208284031215610f8d57600080fd5b5035919050565b80356001600160a01b0381168114610fab57600080fd5b919050565b60008060408385031215610fc357600080fd5b610fcc83610f94565b946020939093013593505050565b600080600060608486031215610fef57600080fd5b610ff884610f94565b925061100660208501610f94565b9150604084013590509250925092565b60006020828403121561102857600080fd5b6109f582610f94565b6000806040838503121561104457600080fd5b61104d83610f94565b91506020830135801515811461106257600080fd5b809150509250929050565b634e487b7160e01b600052604160045260246000fd5b6000806000806080858703121561109957600080fd5b6110a285610f94565b93506110b060208601610f94565b925060408501359150606085013567ffffffffffffffff808211156110d457600080fd5b818701915087601f8301126110e857600080fd5b8135818111156110fa576110fa61106d565b604051601f8201601f19908116603f011681019083821181831017156111225761112261106d565b816040528281528a602084870101111561113b57600080fd5b82602086016020830137600060208483010152809550505050505092959194509250565b6020808252825182820181905260009190848201906040850190845b818110156111975783518352928401929184019160010161117b565b50909695505050505050565b600080604083850312156111b657600080fd5b6111bf83610f94565b91506111cd60208401610f94565b90509250929050565b600181811c908216806111ea57607f821691505b60208210810361120a57634e487b7160e01b600052602260045260246000fd5b50919050565b60208082526025908201527f73656e646572206973206e6f7420746f6b656e204f776e6572206f72204170706040820152641c9bdd995960da1b606082015260800190565b634e487b7160e01b600052603260045260246000fd5b60208082526022908201527f6f776e657220717565727920666f72206e6f6e2d6578697374656e7420746f6b60408201526132b760f11b606082015260800190565b634e487b7160e01b600052601160045260246000fd5b81810381811115610318576103186112ad565b80820180821115610318576103186112ad565b6000816112f8576112f86112ad565b506000190190565b600060018201611312576113126112ad565b5060010190565b634e487b7160e01b600052603160045260246000fd5b60208082526032908201527f4552433732313a207472616e7366657220746f206e6f6e20455243373231526560408201527131b2b4bb32b91034b6b83632b6b2b73a32b960711b606082015260800190565b634e487b7160e01b600052601260045260246000fd5b6000826113a6576113a6611381565b500490565b6000826113ba576113ba611381565b500690565b6001600160a01b03858116825284166020820152604081018390526080606082018190526000906113f290830184610f3c565b9695505050505050565b60006020828403121561140e57600080fd5b81516109f581610ee256fea26469706673582212203872248895e3934e4488844e04549a198c43054a6ab736f4a217ec916ab92bc664736f6c63430008110033",
  "immutableReferences": {},
  "source": "// SPDX-License-Identifier: MIT\npragma solidity ^0.8.0;\n\nimport \"./extensions/ERC721Metadata.sol\";\nimport \"./extensions/ERC721Enumerable.sol\";\n\ncontract ERC721Connector is ERC721Metadata, ERC721Enumerable {\n    //    ,    \n\n    constructor(string memory name, string memory symbol)\n        ERC721Metadata(name, symbol)\n    {}\n\n    function supportsInterface(bytes4 interfaceId)\n        public\n        view\n        virtual\n        override(ERC721Enumerable, ERC165)\n        returns (bool)\n    {\n        return super.supportsInterface(interfaceId);\n    }\n}\n",
  "sourcePath": "/Users/kimyuri/SSAFY/projects/pjt2/repo/S07P22E206/smart-contracts/src/contracts/tokens/ERC721/ERC721Connector.sol",
  "compiler": {
    "name": "solc",
    "version": "0.8.17+commit.8df45f5f.Emscripten.clang"
  },
  "schemaVersion": "3.4.9",
  "updatedAt": "2022-10-06T21:37:54.631Z",
  "devdoc": {
    "kind": "dev",
    "methods": {
      "balanceOf(address)": {
        "details": "Returns the number of tokens in ``owner``'s account."
      },
      "getApproved(uint256)": {
        "details": "Returns the account approved for `tokenId` token. Requirements: - `tokenId` must exist."
      },
      "isApprovedForAll(address,address)": {
        "details": "Returns if the `operator` is allowed to manage all of the assets of `owner`. See {setApprovalForAll}"
      },
      "safeTransferFrom(address,address,uint256)": {
        "details": "Safely transfers `tokenId` token from `from` to `to`, checking first that contract recipients are aware of the ERC721 protocol to prevent tokens from being forever locked. Requirements: - `from` cannot be the zero address. - `to` cannot be the zero address. - `tokenId` token must exist and be owned by `from`. - If the caller is not `from`, it must be have been allowed to move this token by either {approve} or {setApprovalForAll}. - If `to` refers to a smart contract, it must implement {IERC721Receiver-onERC721Received}, which is called upon a safe transfer. Emits a {Transfer} event."
      },
      "safeTransferFrom(address,address,uint256,bytes)": {
        "details": "Safely transfers `tokenId` token from `from` to `to`. Requirements: - `from` cannot be the zero address. - `to` cannot be the zero address. - `tokenId` token must exist and be owned by `from`. - If the caller is not `from`, it must be approved to move this token by either {approve} or {setApprovalForAll}. - If `to` refers to a smart contract, it must implement {IERC721Receiver-onERC721Received}, which is called upon a safe transfer. Emits a {Transfer} event."
      },
      "setApprovalForAll(address,bool)": {
        "details": "Approve or remove `operator` as an operator for the caller. Operators can call {transferFrom} or {safeTransferFrom} for any token owned by the caller. Requirements: - The `operator` cannot be the caller. Emits an {ApprovalForAll} event."
      }
    },
    "version": 1
  },
  "userdoc": {
    "kind": "user",
    "methods": {},
    "version": 1
  }
}