{
  "contractName": "ERC721Connector",
  "abi": [
    {
      "inputs": [
        {
          "internalType": "string",
          "name": "name",
          "type": "string"
        },
        {
          "internalType": "string",
          "name": "symbol",
          "type": "string"
        }
      ],
      "stateMutability": "nonpayable",
      "type": "constructor"
    },
    {
      "anonymous": false,
      "inputs": [
        {
          "indexed": true,
          "internalType": "address",
          "name": "owner",
          "type": "address"
        },
        {
          "indexed": true,
          "internalType": "address",
          "name": "approved",
          "type": "address"
        },
        {
          "indexed": true,
          "internalType": "uint256",
          "name": "tokenId",
          "type": "uint256"
        }
      ],
      "name": "Approval",
      "type": "event"
    },
    {
      "anonymous": false,
      "inputs": [
        {
          "indexed": true,
          "internalType": "address",
          "name": "owner",
          "type": "address"
        },
        {
          "indexed": true,
          "internalType": "address",
          "name": "operator",
          "type": "address"
        },
        {
          "indexed": false,
          "internalType": "bool",
          "name": "approved",
          "type": "bool"
        }
      ],
      "name": "ApprovalForAll",
      "type": "event"
    },
    {
      "anonymous": false,
      "inputs": [
        {
          "indexed": true,
          "internalType": "address",
          "name": "from",
          "type": "address"
        },
        {
          "indexed": true,
          "internalType": "address",
          "name": "to",
          "type": "address"
        },
        {
          "indexed": true,
          "internalType": "uint256",
          "name": "tokenId",
          "type": "uint256"
        }
      ],
      "name": "Transfer",
      "type": "event"
    },
    {
      "inputs": [
        {
          "internalType": "address",
          "name": "_from",
          "type": "address"
        },
        {
          "internalType": "address",
          "name": "_to",
          "type": "address"
        },
        {
          "internalType": "uint256",
          "name": "_tokenId",
          "type": "uint256"
        }
      ],
      "name": "_transferNG",
      "outputs": [],
      "stateMutability": "nonpayable",
      "type": "function"
    },
    {
      "inputs": [
        {
          "internalType": "address",
          "name": "_to",
          "type": "address"
        },
        {
          "internalType": "uint256",
          "name": "tokenId",
          "type": "uint256"
        }
      ],
      "name": "approve",
      "outputs": [],
      "stateMutability": "nonpayable",
      "type": "function"
    },
    {
      "inputs": [
        {
          "internalType": "address",
          "name": "owner",
          "type": "address"
        }
      ],
      "name": "balanceOf",
      "outputs": [
        {
          "internalType": "uint256",
          "name": "",
          "type": "uint256"
        }
      ],
      "stateMutability": "view",
      "type": "function"
    },
    {
      "inputs": [
        {
          "internalType": "uint256",
          "name": "tokenId",
          "type": "uint256"
        }
      ],
      "name": "getApproved",
      "outputs": [
        {
          "internalType": "address",
          "name": "",
          "type": "address"
        }
      ],
      "stateMutability": "view",
      "type": "function"
    },
    {
      "inputs": [
        {
          "internalType": "uint256",
          "name": "_tokenId",
          "type": "uint256"
        }
      ],
      "name": "getIndexFromTokenId",
      "outputs": [
        {
          "internalType": "uint256",
          "name": "",
          "type": "uint256"
        }
      ],
      "stateMutability": "view",
      "type": "function"
    },
    {
      "inputs": [
        {
          "internalType": "address",
          "name": "_address",
          "type": "address"
        }
      ],
      "name": "getOwnedTokens",
      "outputs": [
        {
          "internalType": "uint256[]",
          "name": "",
          "type": "uint256[]"
        }
      ],
      "stateMutability": "view",
      "type": "function"
    },
    {
      "inputs": [
        {
          "internalType": "address",
          "name": "owner",
          "type": "address"
        },
        {
          "internalType": "address",
          "name": "operator",
          "type": "address"
        }
      ],
      "name": "isApprovedForAll",
      "outputs": [
        {
          "internalType": "bool",
          "name": "",
          "type": "bool"
        }
      ],
      "stateMutability": "view",
      "type": "function"
    },
    {
      "inputs": [],
      "name": "name",
      "outputs": [
        {
          "internalType": "string",
          "name": "",
          "type": "string"
        }
      ],
      "stateMutability": "view",
      "type": "function"
    },
    {
      "inputs": [
        {
          "internalType": "uint256",
          "name": "_tokenId",
          "type": "uint256"
        }
      ],
      "name": "ownerOf",
      "outputs": [
        {
          "internalType": "address",
          "name": "",
          "type": "address"
        }
      ],
      "stateMutability": "view",
      "type": "function"
    },
    {
      "inputs": [
        {
          "internalType": "address",
          "name": "from",
          "type": "address"
        },
        {
          "internalType": "address",
          "name": "to",
          "type": "address"
        },
        {
          "internalType": "uint256",
          "name": "tokenId",
          "type": "uint256"
        }
      ],
      "name": "safeTransferFrom",
      "outputs": [],
      "stateMutability": "nonpayable",
      "type": "function"
    },
    {
      "inputs": [
        {
          "internalType": "address",
          "name": "from",
          "type": "address"
        },
        {
          "internalType": "address",
          "name": "to",
          "type": "address"
        },
        {
          "internalType": "uint256",
          "name": "tokenId",
          "type": "uint256"
        },
        {
          "internalType": "bytes",
          "name": "data",
          "type": "bytes"
        }
      ],
      "name": "safeTransferFrom",
      "outputs": [],
      "stateMutability": "nonpayable",
      "type": "function"
    },
    {
      "inputs": [
        {
          "internalType": "address",
          "name": "operator",
          "type": "address"
        },
        {
          "internalType": "bool",
          "name": "_approved",
          "type": "bool"
        }
      ],
      "name": "setApprovalForAll",
      "outputs": [],
      "stateMutability": "nonpayable",
      "type": "function"
    },
    {
      "inputs": [],
      "name": "symbol",
      "outputs": [
        {
          "internalType": "string",
          "name": "",
          "type": "string"
        }
      ],
      "stateMutability": "view",
      "type": "function"
    },
    {
      "inputs": [
        {
          "internalType": "uint256",
          "name": "index",
          "type": "uint256"
        }
      ],
      "name": "tokenByIndex",
      "outputs": [
        {
          "internalType": "uint256",
          "name": "",
          "type": "uint256"
        }
      ],
      "stateMutability": "view",
      "type": "function"
    },
    {
      "inputs": [
        {
          "internalType": "address",
          "name": "owner",
          "type": "address"
        },
        {
          "internalType": "uint256",
          "name": "index",
          "type": "uint256"
        }
      ],
      "name": "tokenOfOwnerByIndex",
      "outputs": [
        {
          "internalType": "uint256",
          "name": "",
          "type": "uint256"
        }
      ],
      "stateMutability": "view",
      "type": "function"
    },
    {
      "inputs": [
        {
          "internalType": "uint256",
          "name": "tokenId",
          "type": "uint256"
        }
      ],
      "name": "tokenURI",
      "outputs": [
        {
          "internalType": "string",
          "name": "",
          "type": "string"
        }
      ],
      "stateMutability": "view",
      "type": "function"
    },
    {
      "inputs": [],
      "name": "totalSupply",
      "outputs": [
        {
          "internalType": "uint256",
          "name": "",
          "type": "uint256"
        }
      ],
      "stateMutability": "view",
      "type": "function"
    },
    {
      "inputs": [
        {
          "internalType": "address",
          "name": "_from",
          "type": "address"
        },
        {
          "internalType": "address",
          "name": "_to",
          "type": "address"
        },
        {
          "internalType": "uint256",
          "name": "_tokenId",
          "type": "uint256"
        }
      ],
      "name": "transferFrom",
      "outputs": [],
      "stateMutability": "nonpayable",
      "type": "function"
    },
    {
      "inputs": [
        {
          "internalType": "bytes4",
          "name": "interfaceId",
          "type": "bytes4"
        }
      ],
      "name": "supportsInterface",
      "outputs": [
        {
          "internalType": "bool",
          "name": "",
          "type": "bool"
        }
      ],
      "stateMutability": "view",
      "type": "function"
    }
  ],
  "bytecode": "0x60806040523480156200001157600080fd5b506040516200174538038062001745833981016040819052620000349162000123565b818160006200004483826200021c565b5060016200005382826200021c565b5050505050620002e8565b634e487b7160e01b600052604160045260246000fd5b600082601f8301126200008657600080fd5b81516001600160401b0380821115620000a357620000a36200005e565b604051601f8301601f19908116603f01168101908282118183101715620000ce57620000ce6200005e565b81604052838152602092508683858801011115620000eb57600080fd5b600091505b838210156200010f5785820183015181830184015290820190620000f0565b600093810190920192909252949350505050565b600080604083850312156200013757600080fd5b82516001600160401b03808211156200014f57600080fd5b6200015d8683870162000074565b935060208501519150808211156200017457600080fd5b50620001838582860162000074565b9150509250929050565b600181811c90821680620001a257607f821691505b602082108103620001c357634e487b7160e01b600052602260045260246000fd5b50919050565b601f8211156200021757600081815260208120601f850160051c81016020861015620001f25750805b601f850160051c820191505b818110156200021357828155600101620001fe565b5050505b505050565b81516001600160401b038111156200023857620002386200005e565b62000250816200024984546200018d565b84620001c9565b602080601f8311600181146200028857600084156200026f5750858301515b600019600386901b1c1916600185901b17855562000213565b600085815260208120601f198616915b82811015620002b95788860151825594840194600190910190840162000298565b5085821015620002d85787850151600019600388901b60f8161c191681555b5050505050600190811b01905550565b61144d80620002f86000396000f3fe608060405234801561001057600080fd5b50600436106101215760003560e01c80636352211e116100ad578063a8a07b3611610071578063a8a07b361461026b578063b88d4fde1461028b578063c87b56dd1461029e578063d9d61655146102b1578063e985e9c5146102d157600080fd5b80636352211e1461021757806370a082311461022a5780638d7b0e321461023d57806395d89b4114610250578063a22cb4651461025857600080fd5b806318160ddd116100f457806318160ddd146101b957806323b872dd146101cb5780632f745c59146101de57806342842e0e146101f15780634f6ccce71461020457600080fd5b806301ffc9a71461012657806306fdde031461014e578063081812fc14610163578063095ea7b3146101a4575b600080fd5b610139610134366004610ef9565b61030d565b60405190151581526020015b60405180910390f35b61015661031e565b6040516101459190610f66565b61018c610171366004610f79565b6000908152600460205260409020546001600160a01b031690565b6040516001600160a01b039091168152602001610145565b6101b76101b2366004610fae565b6103b0565b005b6006545b604051908152602001610145565b6101b76101d9366004610fd8565b610507565b6101bd6101ec366004610fae565b61053d565b6101b76101ff366004610fd8565b6105d3565b6101bd610212366004610f79565b6105ee565b61018c610225366004610f79565b61066c565b6101bd610238366004611014565b6106a1565b6101b761024b366004610fd8565b6106e5565b6101566108d5565b6101b761026636600461102f565b6108e4565b6101bd610279366004610f79565b60009081526007602052604090205490565b6101b7610299366004611081565b61099e565b6101566102ac366004610f79565b6109d0565b6102c46102bf366004611014565b6109fa565b604051610145919061115d565b6101396102df3660046111a1565b6001600160a01b03918216600090815260056020908152604080832093909416825291909152205460ff1690565b600061031882610a66565b92915050565b60606000805461032d906111d4565b80601f0160208091040260200160405190810160405280929190818152602001828054610359906111d4565b80156103a65780601f1061037b576101008083540402835291602001916103a6565b820191906000526020600020905b81548152906001019060200180831161038957829003601f168201915b5050505050905090565b60006103bb8261066c565b9050806001600160a01b0316836001600160a01b03160361042d5760405162461bcd60e51b815260206004820152602160248201527f4572726f72202d20617070726f76616c20746f2063757272656e74206f776e656044820152603960f91b60648201526084015b60405180910390fd5b336001600160a01b0382161480610449575061044981336102df565b6104ab5760405162461bcd60e51b815260206004820152602d60248201527f43616c6c6572206973206e6f7420746f6b656e206f776e6572206f722061707060448201526c1c9bdd995908199bdc88185b1b609a1b6064820152608401610424565b60008281526004602052604080822080546001600160a01b0319166001600160a01b0387811691821790925591518593918516917f8c5be1e5ebec7d5bd14f71427d1e84f3dd0314c0f7b2291e5b200ac8c7c3b92591a4505050565b6105113382610a8b565b61052d5760405162461bcd60e51b81526004016104249061120e565b610538838383610b34565b505050565b6000610548836106a1565b82106105965760405162461bcd60e51b815260206004820152601d60248201527f6f776e657220696e646578206973206f7574206f6620626f756e6473210000006044820152606401610424565b6001600160a01b03831660009081526008602052604090208054839081106105c0576105c0611253565b9060005260206000200154905092915050565b6105388383836040518060200160405280600081525061099e565b60006105f960065490565b82106106475760405162461bcd60e51b815260206004820152601e60248201527f676c6f62616c20696e646578206973206f7574206f6620626f756e64732100006044820152606401610424565b6006828154811061065a5761065a611253565b90600052602060002001549050919050565b6000818152600260205260408120546001600160a01b0316806103185760405162461bcd60e51b815260040161042490611269565b60006001600160a01b0382166106c95760405162461bcd60e51b815260040161042490611269565b506001600160a01b031660009081526003602052604090205490565b6106f0838383610507565b6000818152600960209081526040808320546001600160a01b0387168452600890925290912080548290811061072857610728611253565b6000918252602082200155805b6001600160a01b03851660009081526008602052604090205461075a906001906112c1565b811015610850576001600160a01b03851660009081526008602052604090206107848260016112d4565b8154811061079457610794611253565b906000526020600020015460086000876001600160a01b03166001600160a01b0316815260200190815260200160002082815481106107d5576107d5611253565b60009182526020808320909101929092556001600160a01b038716815260089091526040812080548390811061080d5761080d611253565b600091825260208083209091015480835260099091526040822080549193509091610837836112e7565b9190505550508080610848906112fe565b915050610735565b506001600160a01b038416600090815260086020526040902080548061087857610878611317565b600190038181906000526020600020016000905590556108cf83836001600160a01b039091166000908152600860209081526040808320805460018101825581855283852001859055549383526009909152902055565b50505050565b60606001805461032d906111d4565b336001600160a01b03831681036109315760405162461bcd60e51b815260206004820152601160248201527030b8383937bb32903a379031b0b63632b960791b6044820152606401610424565b6001600160a01b03818116600081815260056020908152604080832094881680845294825291829020805460ff191687151590811790915591519182527f17307eab39ab6107e8899845ad3d59bd9653f200f220920489ca2b5937696c31910160405180910390a3505050565b6109a83383610a8b565b6109c45760405162461bcd60e51b81526004016104249061120e565b6108cf84848484610ca1565b604080516020810190915260008152606090604051806020016040528060008152505b9392505050565b6001600160a01b038116600090815260086020908152604091829020805483518184028101840190945280845260609392830182828015610a5a57602002820191906000526020600020905b815481526020019060010190808311610a46575b50505050509050919050565b60006001600160e01b0319821663780e9d6360e01b1480610318575061031882610daa565b6000818152600260205260408120546001600160a01b0316610ae65760405162461bcd60e51b81526020600482015260146024820152731d1bdad95b88191bdcd9481b9bdd08195e1a5cdd60621b6044820152606401610424565b6000610af18361066c565b9050806001600160a01b0316846001600160a01b03161480610b2c57506000838152600460205260409020546001600160a01b038581169116145b949350505050565b826001600160a01b0316610b478261066c565b6001600160a01b031614610bba5760405162461bcd60e51b815260206004820152603460248201527f547279696e6720746f207472616e73666572206120746f6b656e20746865206160448201527364647265737320646f6573206e6f74206f776e2160601b6064820152608401610424565b6001600160a01b038216610c245760405162461bcd60e51b815260206004820152602b60248201527f4572726f72202d20455243373231205472616e7366657220746f20746865207a60448201526a65726f206164647265737360a81b6064820152608401610424565b6001600160a01b038084166000818152600360209081526040808320805460001901905593861680835284832080546001019055858352600290915283822080546001600160a01b031916821790559251849392917fddf252ad1be2c89b69c2b068fc378daa952ba7f163c4a11628f55a4df523b3ef91a4505050565b610cac848484610b34565b610cb884848484610ddf565b6108cf5760405162461bcd60e51b81526004016104249061132d565b8115610cfa5780610ce4816112fe565b9150610cf39050600a83611395565b9150610cd4565b60008167ffffffffffffffff811115610d1557610d1561106b565b6040519080825280601f01601f191660200182016040528015610d3f576020820181803683370190505b5090505b8415610b2c57610d546001836112c1565b9150610d61600a866113a9565b610d6c9060306112d4565b60f81b818381518110610d8157610d81611253565b60200101906001600160f81b031916908160001a905350610da3600a86611395565b9450610d43565b60006001600160e01b031982166380ac58cd60e01b148061031857506301ffc9a760e01b6001600160e01b0319831614610318565b60006001600160a01b0384163b15610ed557604051630a85bd0160e11b81526001600160a01b0385169063150b7a0290610e239033908990889088906004016113bd565b6020604051808303816000875af1925050508015610e5e575060408051601f3d908101601f19168201909252610e5b918101906113fa565b60015b610ebb573d808015610e8c576040519150601f19603f3d011682016040523d82523d6000602084013e610e91565b606091505b508051600003610eb35760405162461bcd60e51b81526004016104249061132d565b805181602001fd5b6001600160e01b031916630a85bd0160e11b149050610b2c565b506001949350505050565b6001600160e01b031981168114610ef657600080fd5b50565b600060208284031215610f0b57600080fd5b81356109f381610ee0565b60005b83811015610f31578181015183820152602001610f19565b50506000910152565b60008151808452610f52816020860160208601610f16565b601f01601f19169290920160200192915050565b6020815260006109f36020830184610f3a565b600060208284031215610f8b57600080fd5b5035919050565b80356001600160a01b0381168114610fa957600080fd5b919050565b60008060408385031215610fc157600080fd5b610fca83610f92565b946020939093013593505050565b600080600060608486031215610fed57600080fd5b610ff684610f92565b925061100460208501610f92565b9150604084013590509250925092565b60006020828403121561102657600080fd5b6109f382610f92565b6000806040838503121561104257600080fd5b61104b83610f92565b91506020830135801515811461106057600080fd5b809150509250929050565b634e487b7160e01b600052604160045260246000fd5b6000806000806080858703121561109757600080fd5b6110a085610f92565b93506110ae60208601610f92565b925060408501359150606085013567ffffffffffffffff808211156110d257600080fd5b818701915087601f8301126110e657600080fd5b8135818111156110f8576110f861106b565b604051601f8201601f19908116603f011681019083821181831017156111205761112061106b565b816040528281528a602084870101111561113957600080fd5b82602086016020830137600060208483010152809550505050505092959194509250565b6020808252825182820181905260009190848201906040850190845b8181101561119557835183529284019291840191600101611179565b50909695505050505050565b600080604083850312156111b457600080fd5b6111bd83610f92565b91506111cb60208401610f92565b90509250929050565b600181811c908216806111e857607f821691505b60208210810361120857634e487b7160e01b600052602260045260246000fd5b50919050565b60208082526025908201527f73656e646572206973206e6f7420746f6b656e204f776e6572206f72204170706040820152641c9bdd995960da1b606082015260800190565b634e487b7160e01b600052603260045260246000fd5b60208082526022908201527f6f776e657220717565727920666f72206e6f6e2d6578697374656e7420746f6b60408201526132b760f11b606082015260800190565b634e487b7160e01b600052601160045260246000fd5b81810381811115610318576103186112ab565b80820180821115610318576103186112ab565b6000816112f6576112f66112ab565b506000190190565b600060018201611310576113106112ab565b5060010190565b634e487b7160e01b600052603160045260246000fd5b60208082526032908201527f4552433732313a207472616e7366657220746f206e6f6e20455243373231526560408201527131b2b4bb32b91034b6b83632b6b2b73a32b960711b606082015260800190565b634e487b7160e01b600052601260045260246000fd5b6000826113a4576113a461137f565b500490565b6000826113b8576113b861137f565b500690565b6001600160a01b03858116825284166020820152604081018390526080606082018190526000906113f090830184610f3a565b9695505050505050565b60006020828403121561140c57600080fd5b81516109f381610ee056fea2646970667358221220b954165cf93a3e006d6871e6e6e4312bf7c9d7c201808710ae45c685b1fa7ef564736f6c63430008110033",
  "immutableReferences": {},
  "source": "// SPDX-License-Identifier: MIT\r\npragma solidity ^0.8.0;\r\n\r\nimport \"./extensions/ERC721Metadata.sol\";\r\nimport \"./extensions/ERC721Enumerable.sol\";\r\n\r\ncontract ERC721Connector is ERC721Metadata, ERC721Enumerable {\r\n    //    ,    \r\n\r\n    constructor(string memory name, string memory symbol)\r\n        ERC721Metadata(name, symbol)\r\n    {}\r\n\r\n    function supportsInterface(bytes4 interfaceId)\r\n        public\r\n        view\r\n        virtual\r\n        override(ERC721Enumerable, ERC165)\r\n        returns (bool)\r\n    {\r\n        return super.supportsInterface(interfaceId);\r\n    }\r\n}\r\n",
  "sourcePath": "C:\\Users\\SSAFY\\Desktop\\PJT_NG\\S07P22E206\\smart-contracts\\src\\contracts\\tokens\\ERC721\\ERC721Connector.sol",
  "compiler": {
    "name": "solc",
    "version": "0.8.17+commit.8df45f5f.Emscripten.clang"
  },
  "schemaVersion": "3.4.9",
  "updatedAt": "2022-09-30T09:26:54.314Z",
  "devdoc": {
    "kind": "dev",
    "methods": {
      "balanceOf(address)": {
        "details": "Returns the number of tokens in ``owner``'s account."
      },
      "getApproved(uint256)": {
        "details": "Returns the account approved for `tokenId` token. Requirements: - `tokenId` must exist."
      },
      "isApprovedForAll(address,address)": {
        "details": "Returns if the `operator` is allowed to manage all of the assets of `owner`. See {setApprovalForAll}"
      },
      "safeTransferFrom(address,address,uint256)": {
        "details": "Safely transfers `tokenId` token from `from` to `to`, checking first that contract recipients are aware of the ERC721 protocol to prevent tokens from being forever locked. Requirements: - `from` cannot be the zero address. - `to` cannot be the zero address. - `tokenId` token must exist and be owned by `from`. - If the caller is not `from`, it must be have been allowed to move this token by either {approve} or {setApprovalForAll}. - If `to` refers to a smart contract, it must implement {IERC721Receiver-onERC721Received}, which is called upon a safe transfer. Emits a {Transfer} event."
      },
      "safeTransferFrom(address,address,uint256,bytes)": {
        "details": "Safely transfers `tokenId` token from `from` to `to`. Requirements: - `from` cannot be the zero address. - `to` cannot be the zero address. - `tokenId` token must exist and be owned by `from`. - If the caller is not `from`, it must be approved to move this token by either {approve} or {setApprovalForAll}. - If `to` refers to a smart contract, it must implement {IERC721Receiver-onERC721Received}, which is called upon a safe transfer. Emits a {Transfer} event."
      },
      "setApprovalForAll(address,bool)": {
        "details": "Approve or remove `operator` as an operator for the caller. Operators can call {transferFrom} or {safeTransferFrom} for any token owned by the caller. Requirements: - The `operator` cannot be the caller. Emits an {ApprovalForAll} event."
      }
    },
    "version": 1
  },
  "userdoc": {
    "kind": "user",
    "methods": {},
    "version": 1
  }
}