{
  "contractName": "ERC721Connector",
  "abi": [
    {
      "inputs": [
        {
          "internalType": "string",
          "name": "name",
          "type": "string"
        },
        {
          "internalType": "string",
          "name": "symbol",
          "type": "string"
        }
      ],
      "stateMutability": "nonpayable",
      "type": "constructor"
    },
    {
      "anonymous": false,
      "inputs": [
        {
          "indexed": true,
          "internalType": "address",
          "name": "owner",
          "type": "address"
        },
        {
          "indexed": true,
          "internalType": "address",
          "name": "approved",
          "type": "address"
        },
        {
          "indexed": true,
          "internalType": "uint256",
          "name": "tokenId",
          "type": "uint256"
        }
      ],
      "name": "Approval",
      "type": "event"
    },
    {
      "anonymous": false,
      "inputs": [
        {
          "indexed": true,
          "internalType": "address",
          "name": "owner",
          "type": "address"
        },
        {
          "indexed": true,
          "internalType": "address",
          "name": "operator",
          "type": "address"
        },
        {
          "indexed": false,
          "internalType": "bool",
          "name": "approved",
          "type": "bool"
        }
      ],
      "name": "ApprovalForAll",
      "type": "event"
    },
    {
      "anonymous": false,
      "inputs": [
        {
          "indexed": true,
          "internalType": "address",
          "name": "from",
          "type": "address"
        },
        {
          "indexed": true,
          "internalType": "address",
          "name": "to",
          "type": "address"
        },
        {
          "indexed": true,
          "internalType": "uint256",
          "name": "tokenId",
          "type": "uint256"
        }
      ],
      "name": "Transfer",
      "type": "event"
    },
    {
      "inputs": [
        {
          "internalType": "address",
          "name": "_to",
          "type": "address"
        },
        {
          "internalType": "uint256",
          "name": "tokenId",
          "type": "uint256"
        }
      ],
      "name": "approve",
      "outputs": [],
      "stateMutability": "nonpayable",
      "type": "function"
    },
    {
      "inputs": [
        {
          "internalType": "address",
          "name": "owner",
          "type": "address"
        }
      ],
      "name": "balanceOf",
      "outputs": [
        {
          "internalType": "uint256",
          "name": "",
          "type": "uint256"
        }
      ],
      "stateMutability": "view",
      "type": "function"
    },
    {
      "inputs": [
        {
          "internalType": "uint256",
          "name": "tokenId",
          "type": "uint256"
        }
      ],
      "name": "getApproved",
      "outputs": [
        {
          "internalType": "address",
          "name": "",
          "type": "address"
        }
      ],
      "stateMutability": "view",
      "type": "function"
    },
    {
      "inputs": [
        {
          "internalType": "address",
          "name": "owner",
          "type": "address"
        },
        {
          "internalType": "address",
          "name": "operator",
          "type": "address"
        }
      ],
      "name": "isApprovedForAll",
      "outputs": [
        {
          "internalType": "bool",
          "name": "",
          "type": "bool"
        }
      ],
      "stateMutability": "view",
      "type": "function"
    },
    {
      "inputs": [],
      "name": "name",
      "outputs": [
        {
          "internalType": "string",
          "name": "",
          "type": "string"
        }
      ],
      "stateMutability": "view",
      "type": "function"
    },
    {
      "inputs": [
        {
          "internalType": "uint256",
          "name": "_tokenId",
          "type": "uint256"
        }
      ],
      "name": "ownerOf",
      "outputs": [
        {
          "internalType": "address",
          "name": "",
          "type": "address"
        }
      ],
      "stateMutability": "view",
      "type": "function"
    },
    {
      "inputs": [
        {
          "internalType": "address",
          "name": "from",
          "type": "address"
        },
        {
          "internalType": "address",
          "name": "to",
          "type": "address"
        },
        {
          "internalType": "uint256",
          "name": "tokenId",
          "type": "uint256"
        }
      ],
      "name": "safeTransferFrom",
      "outputs": [],
      "stateMutability": "nonpayable",
      "type": "function"
    },
    {
      "inputs": [
        {
          "internalType": "address",
          "name": "from",
          "type": "address"
        },
        {
          "internalType": "address",
          "name": "to",
          "type": "address"
        },
        {
          "internalType": "uint256",
          "name": "tokenId",
          "type": "uint256"
        },
        {
          "internalType": "bytes",
          "name": "data",
          "type": "bytes"
        }
      ],
      "name": "safeTransferFrom",
      "outputs": [],
      "stateMutability": "nonpayable",
      "type": "function"
    },
    {
      "inputs": [
        {
          "internalType": "address",
          "name": "operator",
          "type": "address"
        },
        {
          "internalType": "bool",
          "name": "_approved",
          "type": "bool"
        }
      ],
      "name": "setApprovalForAll",
      "outputs": [],
      "stateMutability": "nonpayable",
      "type": "function"
    },
    {
      "inputs": [],
      "name": "symbol",
      "outputs": [
        {
          "internalType": "string",
          "name": "",
          "type": "string"
        }
      ],
      "stateMutability": "view",
      "type": "function"
    },
    {
      "inputs": [
        {
          "internalType": "uint256",
          "name": "index",
          "type": "uint256"
        }
      ],
      "name": "tokenByIndex",
      "outputs": [
        {
          "internalType": "uint256",
          "name": "",
          "type": "uint256"
        }
      ],
      "stateMutability": "view",
      "type": "function"
    },
    {
      "inputs": [
        {
          "internalType": "address",
          "name": "owner",
          "type": "address"
        },
        {
          "internalType": "uint256",
          "name": "index",
          "type": "uint256"
        }
      ],
      "name": "tokenOfOwnerByIndex",
      "outputs": [
        {
          "internalType": "uint256",
          "name": "",
          "type": "uint256"
        }
      ],
      "stateMutability": "view",
      "type": "function"
    },
    {
      "inputs": [
        {
          "internalType": "uint256",
          "name": "tokenId",
          "type": "uint256"
        }
      ],
      "name": "tokenURI",
      "outputs": [
        {
          "internalType": "string",
          "name": "",
          "type": "string"
        }
      ],
      "stateMutability": "view",
      "type": "function"
    },
    {
      "inputs": [],
      "name": "totalSupply",
      "outputs": [
        {
          "internalType": "uint256",
          "name": "",
          "type": "uint256"
        }
      ],
      "stateMutability": "view",
      "type": "function"
    },
    {
      "inputs": [
        {
          "internalType": "address",
          "name": "_from",
          "type": "address"
        },
        {
          "internalType": "address",
          "name": "_to",
          "type": "address"
        },
        {
          "internalType": "uint256",
          "name": "_tokenId",
          "type": "uint256"
        }
      ],
      "name": "transferFrom",
      "outputs": [],
      "stateMutability": "nonpayable",
      "type": "function"
    },
    {
      "inputs": [
        {
          "internalType": "bytes4",
          "name": "interfaceId",
          "type": "bytes4"
        }
      ],
      "name": "supportsInterface",
      "outputs": [
        {
          "internalType": "bool",
          "name": "",
          "type": "bool"
        }
      ],
      "stateMutability": "view",
      "type": "function"
    }
  ],
  "bytecode": "0x60806040523480156200001157600080fd5b506040516200144e3803806200144e833981016040819052620000349162000123565b818160006200004483826200021c565b5060016200005382826200021c565b5050505050620002e8565b634e487b7160e01b600052604160045260246000fd5b600082601f8301126200008657600080fd5b81516001600160401b0380821115620000a357620000a36200005e565b604051601f8301601f19908116603f01168101908282118183101715620000ce57620000ce6200005e565b81604052838152602092508683858801011115620000eb57600080fd5b600091505b838210156200010f5785820183015181830184015290820190620000f0565b600093810190920192909252949350505050565b600080604083850312156200013757600080fd5b82516001600160401b03808211156200014f57600080fd5b6200015d8683870162000074565b935060208501519150808211156200017457600080fd5b50620001838582860162000074565b9150509250929050565b600181811c90821680620001a257607f821691505b602082108103620001c357634e487b7160e01b600052602260045260246000fd5b50919050565b601f8211156200021757600081815260208120601f850160051c81016020861015620001f25750805b601f850160051c820191505b818110156200021357828155600101620001fe565b5050505b505050565b81516001600160401b038111156200023857620002386200005e565b62000250816200024984546200018d565b84620001c9565b602080601f8311600181146200028857600084156200026f5750858301515b600019600386901b1c1916600185901b17855562000213565b600085815260208120601f198616915b82811015620002b95788860151825594840194600190910190840162000298565b5085821015620002d85787850151600019600388901b60f8161c191681555b5050505050600190811b01905550565b61115680620002f86000396000f3fe608060405234801561001057600080fd5b50600436106101005760003560e01c80634f6ccce711610097578063a22cb46511610066578063a22cb46514610224578063b88d4fde14610237578063c87b56dd1461024a578063e985e9c51461025d57600080fd5b80634f6ccce7146101e35780636352211e146101f657806370a082311461020957806395d89b411461021c57600080fd5b806318160ddd116100d357806318160ddd1461019857806323b872dd146101aa5780632f745c59146101bd57806342842e0e146101d057600080fd5b806301ffc9a71461010557806306fdde031461012d578063081812fc14610142578063095ea7b314610183575b600080fd5b610118610113366004610c2e565b610299565b60405190151581526020015b60405180910390f35b6101356102aa565b6040516101249190610c9b565b61016b610150366004610cae565b6000908152600460205260409020546001600160a01b031690565b6040516001600160a01b039091168152602001610124565b610196610191366004610ce3565b61033c565b005b6006545b604051908152602001610124565b6101966101b8366004610d0d565b610493565b61019c6101cb366004610ce3565b6104c9565b6101966101de366004610d0d565b61055f565b61019c6101f1366004610cae565b61057a565b61016b610204366004610cae565b6105f8565b61019c610217366004610d49565b61062d565b610135610671565b610196610232366004610d64565b610680565b610196610245366004610db6565b61073a565b610135610258366004610cae565b610772565b61011861026b366004610e92565b6001600160a01b03918216600090815260056020908152604080832093909416825291909152205460ff1690565b60006102a48261079c565b92915050565b6060600080546102b990610ec5565b80601f01602080910402602001604051908101604052809291908181526020018280546102e590610ec5565b80156103325780601f1061030757610100808354040283529160200191610332565b820191906000526020600020905b81548152906001019060200180831161031557829003601f168201915b5050505050905090565b6000610347826105f8565b9050806001600160a01b0316836001600160a01b0316036103b95760405162461bcd60e51b815260206004820152602160248201527f4572726f72202d20617070726f76616c20746f2063757272656e74206f776e656044820152603960f91b60648201526084015b60405180910390fd5b336001600160a01b03821614806103d557506103d5813361026b565b6104375760405162461bcd60e51b815260206004820152602d60248201527f43616c6c6572206973206e6f7420746f6b656e206f776e6572206f722061707060448201526c1c9bdd995908199bdc88185b1b609a1b60648201526084016103b0565b60008281526004602052604080822080546001600160a01b0319166001600160a01b0387811691821790925591518593918516917f8c5be1e5ebec7d5bd14f71427d1e84f3dd0314c0f7b2291e5b200ac8c7c3b92591a4505050565b61049d33826107c1565b6104b95760405162461bcd60e51b81526004016103b090610eff565b6104c483838361086a565b505050565b60006104d48361062d565b82106105225760405162461bcd60e51b815260206004820152601d60248201527f6f776e657220696e646578206973206f7574206f6620626f756e64732100000060448201526064016103b0565b6001600160a01b038316600090815260086020526040902080548390811061054c5761054c610f44565b9060005260206000200154905092915050565b6104c48383836040518060200160405280600081525061073a565b600061058560065490565b82106105d35760405162461bcd60e51b815260206004820152601e60248201527f676c6f62616c20696e646578206973206f7574206f6620626f756e647321000060448201526064016103b0565b600682815481106105e6576105e6610f44565b90600052602060002001549050919050565b6000818152600260205260408120546001600160a01b0316806102a45760405162461bcd60e51b81526004016103b090610f5a565b60006001600160a01b0382166106555760405162461bcd60e51b81526004016103b090610f5a565b506001600160a01b031660009081526003602052604090205490565b6060600180546102b990610ec5565b336001600160a01b03831681036106cd5760405162461bcd60e51b815260206004820152601160248201527030b8383937bb32903a379031b0b63632b960791b60448201526064016103b0565b6001600160a01b03818116600081815260056020908152604080832094881680845294825291829020805460ff191687151590811790915591519182527f17307eab39ab6107e8899845ad3d59bd9653f200f220920489ca2b5937696c31910160405180910390a3505050565b61074433836107c1565b6107605760405162461bcd60e51b81526004016103b090610eff565b61076c848484846109d6565b50505050565b604080516020810190915260008152606090604051806020016040528060008152505b9392505050565b60006001600160e01b0319821663780e9d6360e01b14806102a457506102a482610adf565b6000818152600260205260408120546001600160a01b031661081c5760405162461bcd60e51b81526020600482015260146024820152731d1bdad95b88191bdcd9481b9bdd08195e1a5cdd60621b60448201526064016103b0565b6000610827836105f8565b9050806001600160a01b0316846001600160a01b0316148061086257506000838152600460205260409020546001600160a01b038581169116145b949350505050565b826001600160a01b031661087d826105f8565b6001600160a01b0316146108a35760405162461bcd60e51b81526004016103b090610f9c565b6001600160a01b03821661090d5760405162461bcd60e51b815260206004820152602b60248201527f4572726f72202d20455243373231205472616e7366657220746f20746865207a60448201526a65726f206164647265737360a81b60648201526084016103b0565b826001600160a01b0316610920826105f8565b6001600160a01b0316146109465760405162461bcd60e51b81526004016103b090610f9c565b600081815260046020908152604080832080546001600160a01b03199081169091556001600160a01b0387811680865260038552838620805460001901905590871680865283862080546001019055868652600290945282852080549092168417909155905184937fddf252ad1be2c89b69c2b068fc378daa952ba7f163c4a11628f55a4df523b3ef91a4505050565b6109e184848461086a565b6109ed84848484610b14565b61076c5760405162461bcd60e51b81526004016103b090610fe1565b8115610a2f5780610a1981611049565b9150610a289050600a83611078565b9150610a09565b60008167ffffffffffffffff811115610a4a57610a4a610da0565b6040519080825280601f01601f191660200182016040528015610a74576020820181803683370190505b5090505b841561086257610a8960018361108c565b9150610a96600a8661109f565b610aa19060306110b3565b60f81b818381518110610ab657610ab6610f44565b60200101906001600160f81b031916908160001a905350610ad8600a86611078565b9450610a78565b60006001600160e01b031982166380ac58cd60e01b14806102a457506301ffc9a760e01b6001600160e01b03198316146102a4565b60006001600160a01b0384163b15610c0a57604051630a85bd0160e11b81526001600160a01b0385169063150b7a0290610b589033908990889088906004016110c6565b6020604051808303816000875af1925050508015610b93575060408051601f3d908101601f19168201909252610b9091810190611103565b60015b610bf0573d808015610bc1576040519150601f19603f3d011682016040523d82523d6000602084013e610bc6565b606091505b508051600003610be85760405162461bcd60e51b81526004016103b090610fe1565b805181602001fd5b6001600160e01b031916630a85bd0160e11b149050610862565b506001949350505050565b6001600160e01b031981168114610c2b57600080fd5b50565b600060208284031215610c4057600080fd5b813561079581610c15565b60005b83811015610c66578181015183820152602001610c4e565b50506000910152565b60008151808452610c87816020860160208601610c4b565b601f01601f19169290920160200192915050565b6020815260006107956020830184610c6f565b600060208284031215610cc057600080fd5b5035919050565b80356001600160a01b0381168114610cde57600080fd5b919050565b60008060408385031215610cf657600080fd5b610cff83610cc7565b946020939093013593505050565b600080600060608486031215610d2257600080fd5b610d2b84610cc7565b9250610d3960208501610cc7565b9150604084013590509250925092565b600060208284031215610d5b57600080fd5b61079582610cc7565b60008060408385031215610d7757600080fd5b610d8083610cc7565b915060208301358015158114610d9557600080fd5b809150509250929050565b634e487b7160e01b600052604160045260246000fd5b60008060008060808587031215610dcc57600080fd5b610dd585610cc7565b9350610de360208601610cc7565b925060408501359150606085013567ffffffffffffffff80821115610e0757600080fd5b818701915087601f830112610e1b57600080fd5b813581811115610e2d57610e2d610da0565b604051601f8201601f19908116603f01168101908382118183101715610e5557610e55610da0565b816040528281528a6020848701011115610e6e57600080fd5b82602086016020830137600060208483010152809550505050505092959194509250565b60008060408385031215610ea557600080fd5b610eae83610cc7565b9150610ebc60208401610cc7565b90509250929050565b600181811c90821680610ed957607f821691505b602082108103610ef957634e487b7160e01b600052602260045260246000fd5b50919050565b60208082526025908201527f73656e646572206973206e6f7420746f6b656e204f776e6572206f72204170706040820152641c9bdd995960da1b606082015260800190565b634e487b7160e01b600052603260045260246000fd5b60208082526022908201527f6f776e657220717565727920666f72206e6f6e2d6578697374656e7420746f6b60408201526132b760f11b606082015260800190565b60208082526025908201527f4552433732313a207472616e736665722066726f6d20696e636f72726563742060408201526437bbb732b960d91b606082015260800190565b60208082526032908201527f4552433732313a207472616e7366657220746f206e6f6e20455243373231526560408201527131b2b4bb32b91034b6b83632b6b2b73a32b960711b606082015260800190565b634e487b7160e01b600052601160045260246000fd5b60006001820161105b5761105b611033565b5060010190565b634e487b7160e01b600052601260045260246000fd5b60008261108757611087611062565b500490565b818103818111156102a4576102a4611033565b6000826110ae576110ae611062565b500690565b808201808211156102a4576102a4611033565b6001600160a01b03858116825284166020820152604081018390526080606082018190526000906110f990830184610c6f565b9695505050505050565b60006020828403121561111557600080fd5b815161079581610c1556fea2646970667358221220f0a7b98779d930417a0328805dfa3f5bbae5e97983b6d42c41fe926d0b7ccd8d64736f6c63430008110033",
  "immutableReferences": {},
  "source": "// SPDX-License-Identifier: MIT\npragma solidity ^0.8.0;\n\nimport \"./extensions/ERC721Metadata.sol\";\nimport \"./extensions/ERC721Enumerable.sol\";\n\ncontract ERC721Connector is ERC721Metadata, ERC721Enumerable {\n    //    ,    \n\n    constructor(string memory name, string memory symbol)\n        ERC721Metadata(name, symbol)\n    {}\n\n    function supportsInterface(bytes4 interfaceId)\n        public\n        view\n        virtual\n        override(ERC721Enumerable, ERC165)\n        returns (bool)\n    {\n        return super.supportsInterface(interfaceId);\n    }\n}\n",
  "sourcePath": "/Users/kimyuri/SSAFY/projects/pjt2/repo/S07P22E206/smart-contracts/src/contracts/tokens/ERC721/ERC721Connector.sol",
  "compiler": {
    "name": "solc",
    "version": "0.8.17+commit.8df45f5f.Emscripten.clang"
  },
  "schemaVersion": "3.4.9",
  "updatedAt": "2022-09-19T04:31:41.341Z",
  "devdoc": {
    "kind": "dev",
    "methods": {
      "balanceOf(address)": {
        "details": "Returns the number of tokens in ``owner``'s account."
      },
      "getApproved(uint256)": {
        "details": "Returns the account approved for `tokenId` token. Requirements: - `tokenId` must exist."
      },
      "isApprovedForAll(address,address)": {
        "details": "Returns if the `operator` is allowed to manage all of the assets of `owner`. See {setApprovalForAll}"
      },
      "safeTransferFrom(address,address,uint256)": {
        "details": "Safely transfers `tokenId` token from `from` to `to`, checking first that contract recipients are aware of the ERC721 protocol to prevent tokens from being forever locked. Requirements: - `from` cannot be the zero address. - `to` cannot be the zero address. - `tokenId` token must exist and be owned by `from`. - If the caller is not `from`, it must be have been allowed to move this token by either {approve} or {setApprovalForAll}. - If `to` refers to a smart contract, it must implement {IERC721Receiver-onERC721Received}, which is called upon a safe transfer. Emits a {Transfer} event."
      },
      "safeTransferFrom(address,address,uint256,bytes)": {
        "details": "Safely transfers `tokenId` token from `from` to `to`. Requirements: - `from` cannot be the zero address. - `to` cannot be the zero address. - `tokenId` token must exist and be owned by `from`. - If the caller is not `from`, it must be approved to move this token by either {approve} or {setApprovalForAll}. - If `to` refers to a smart contract, it must implement {IERC721Receiver-onERC721Received}, which is called upon a safe transfer. Emits a {Transfer} event."
      },
      "setApprovalForAll(address,bool)": {
        "details": "Approve or remove `operator` as an operator for the caller. Operators can call {transferFrom} or {safeTransferFrom} for any token owned by the caller. Requirements: - The `operator` cannot be the caller. Emits an {ApprovalForAll} event."
      }
    },
    "version": 1
  },
  "userdoc": {
    "kind": "user",
    "methods": {},
    "version": 1
  }
}