{
  "contractName": "ERC721Metadata",
  "abi": [
    {
      "inputs": [
        {
          "internalType": "string",
          "name": "named",
          "type": "string"
        },
        {
          "internalType": "string",
          "name": "symbolified",
          "type": "string"
        }
      ],
      "stateMutability": "nonpayable",
      "type": "constructor"
    },
    {
      "inputs": [
        {
          "internalType": "bytes4",
          "name": "interfaceID",
          "type": "bytes4"
        }
      ],
      "name": "supportsInterface",
      "outputs": [
        {
          "internalType": "bool",
          "name": "",
          "type": "bool"
        }
      ],
      "stateMutability": "view",
      "type": "function"
    },
    {
      "inputs": [],
      "name": "name",
      "outputs": [
        {
          "internalType": "string",
          "name": "",
          "type": "string"
        }
      ],
      "stateMutability": "view",
      "type": "function"
    },
    {
      "inputs": [],
      "name": "symbol",
      "outputs": [
        {
          "internalType": "string",
          "name": "",
          "type": "string"
        }
      ],
      "stateMutability": "view",
      "type": "function"
    },
    {
      "inputs": [
        {
          "internalType": "uint256",
          "name": "tokenId",
          "type": "uint256"
        }
      ],
      "name": "tokenURI",
      "outputs": [
        {
          "internalType": "string",
          "name": "",
          "type": "string"
        }
      ],
      "stateMutability": "view",
      "type": "function"
    }
  ],
  "bytecode": "0x608060405234801561001057600080fd5b506040516106f73803806106f783398101604081905261002f9161010b565b600061003b83826101f7565b50600161004882826101f7565b5050506102b6565b634e487b7160e01b600052604160045260246000fd5b600082601f83011261007757600080fd5b81516001600160401b038082111561009157610091610050565b604051601f8301601f19908116603f011681019082821181831017156100b9576100b9610050565b816040528381526020925086838588010111156100d557600080fd5b600091505b838210156100f757858201830151818301840152908201906100da565b600093810190920192909252949350505050565b6000806040838503121561011e57600080fd5b82516001600160401b038082111561013557600080fd5b61014186838701610066565b9350602085015191508082111561015757600080fd5b5061016485828601610066565b9150509250929050565b600181811c9082168061018257607f821691505b6020821081036101a257634e487b7160e01b600052602260045260246000fd5b50919050565b601f8211156101f257600081815260208120601f850160051c810160208610156101cf5750805b601f850160051c820191505b818110156101ee578281556001016101db565b5050505b505050565b81516001600160401b0381111561021057610210610050565b6102248161021e845461016e565b846101a8565b602080601f83116001811461025957600084156102415750858301515b600019600386901b1c1916600185901b1785556101ee565b600085815260208120601f198616915b8281101561028857888601518255948401946001909101908401610269565b50858210156102a65787850151600019600388901b60f8161c191681555b5050505050600190811b01905550565b610432806102c56000396000f3fe608060405234801561001057600080fd5b506004361061004c5760003560e01c806301ffc9a71461005157806306fdde031461008a57806395d89b411461009f578063c87b56dd146100a7575b600080fd5b61007561005f366004610263565b6001600160e01b0319166301ffc9a760e01b1490565b60405190151581526020015b60405180910390f35b6100926100ba565b60405161008191906102b1565b61009261014c565b6100926100b53660046102e4565b61015b565b6060600080546100c9906102fd565b80601f01602080910402602001604051908101604052809291908181526020018280546100f5906102fd565b80156101425780601f1061011757610100808354040283529160200191610142565b820191906000526020600020905b81548152906001019060200180831161012557829003601f168201915b5050505050905090565b6060600180546100c9906102fd565b604080516020810190915260008152606090604051806020016040528060008152505b9392505050565b81156101ab57806101958161034d565b91506101a49050600a8361037c565b9150610185565b60008167ffffffffffffffff8111156101c6576101c6610390565b6040519080825280601f01601f1916602001820160405280156101f0576020820181803683370190505b5090505b841561025b576102056001836103a6565b9150610212600a866103bf565b61021d9060306103d3565b60f81b818381518110610232576102326103e6565b60200101906001600160f81b031916908160001a905350610254600a8661037c565b94506101f4565b949350505050565b60006020828403121561027557600080fd5b81356001600160e01b03198116811461017e57600080fd5b60005b838110156102a8578181015183820152602001610290565b50506000910152565b60208152600082518060208401526102d081604085016020870161028d565b601f01601f19169190910160400192915050565b6000602082840312156102f657600080fd5b5035919050565b600181811c9082168061031157607f821691505b60208210810361033157634e487b7160e01b600052602260045260246000fd5b50919050565b634e487b7160e01b600052601160045260246000fd5b60006001820161035f5761035f610337565b5060010190565b634e487b7160e01b600052601260045260246000fd5b60008261038b5761038b610366565b500490565b634e487b7160e01b600052604160045260246000fd5b818103818111156103b9576103b9610337565b92915050565b6000826103ce576103ce610366565b500690565b808201808211156103b9576103b9610337565b634e487b7160e01b600052603260045260246000fdfea264697066735822122020f0a85743c3c64ee059fdcc95a49293edcf4526523ad036537efea48a13f04a64736f6c63430008110033",
  "immutableReferences": {},
  "source": "// SPDX-License-Identifier: MIT\npragma solidity ^0.8.0;\n\nimport \"./IERC721Metadata.sol\";\nimport \"../../../utils/introspection/ERC165.sol\";\nimport \"../../../utils/Strings.sol\";\n\ncontract ERC721Metadata is IERC721Metadata, ERC165 {\n    using Strings for uint256;\n\n    string private _name;\n    string private _symbol;\n\n    constructor(string memory named, string memory symbolified) {\n        _name = named;\n        _symbol = symbolified;\n    }\n\n    function name() external view override returns (string memory) {\n        return _name;\n    }\n\n    function symbol() external view override returns (string memory) {\n        return _symbol;\n    }\n\n    function tokenURI(uint256 tokenId)\n        external\n        view\n        virtual\n        override\n        returns (string memory)\n    {\n        string memory baseURI = \"\";\n        return\n            bytes(baseURI).length > 0\n                ? string(abi.encodePacked(baseURI, tokenId.toString()))\n                : \"\";\n    }\n}\n",
  "sourcePath": "/Users/kimyuri/SSAFY/projects/pjt2/repo/S07P22E206/smart-contracts/src/contracts/tokens/ERC721/extensions/ERC721Metadata.sol",
  "compiler": {
    "name": "solc",
    "version": "0.8.17+commit.8df45f5f.Emscripten.clang"
  },
  "schemaVersion": "3.4.9",
  "updatedAt": "2022-09-16T07:09:26.355Z",
  "devdoc": {
    "kind": "dev",
    "methods": {},
    "version": 1
  },
  "userdoc": {
    "kind": "user",
    "methods": {},
    "version": 1
  }
}