{
  "contractName": "NG",
  "abi": [
    {
      "inputs": [
        {
          "internalType": "string",
          "name": "named",
          "type": "string"
        },
        {
          "internalType": "string",
          "name": "symbolified",
          "type": "string"
        }
      ],
      "stateMutability": "nonpayable",
      "type": "constructor"
    },
    {
      "anonymous": false,
      "inputs": [
        {
          "indexed": true,
          "internalType": "address",
          "name": "owner",
          "type": "address"
        },
        {
          "indexed": true,
          "internalType": "address",
          "name": "approved",
          "type": "address"
        },
        {
          "indexed": true,
          "internalType": "uint256",
          "name": "tokenId",
          "type": "uint256"
        }
      ],
      "name": "Approval",
      "type": "event"
    },
    {
      "anonymous": false,
      "inputs": [
        {
          "indexed": true,
          "internalType": "address",
          "name": "owner",
          "type": "address"
        },
        {
          "indexed": true,
          "internalType": "address",
          "name": "operator",
          "type": "address"
        },
        {
          "indexed": false,
          "internalType": "bool",
          "name": "approved",
          "type": "bool"
        }
      ],
      "name": "ApprovalForAll",
      "type": "event"
    },
    {
      "anonymous": false,
      "inputs": [
        {
          "indexed": true,
          "internalType": "address",
          "name": "from",
          "type": "address"
        },
        {
          "indexed": true,
          "internalType": "address",
          "name": "to",
          "type": "address"
        },
        {
          "indexed": true,
          "internalType": "uint256",
          "name": "tokenId",
          "type": "uint256"
        }
      ],
      "name": "Transfer",
      "type": "event"
    },
    {
      "inputs": [
        {
          "internalType": "address",
          "name": "_to",
          "type": "address"
        },
        {
          "internalType": "uint256",
          "name": "tokenId",
          "type": "uint256"
        }
      ],
      "name": "approve",
      "outputs": [],
      "stateMutability": "nonpayable",
      "type": "function"
    },
    {
      "inputs": [
        {
          "internalType": "address",
          "name": "owner",
          "type": "address"
        }
      ],
      "name": "balanceOf",
      "outputs": [
        {
          "internalType": "uint256",
          "name": "",
          "type": "uint256"
        }
      ],
      "stateMutability": "view",
      "type": "function",
      "constant": true
    },
    {
      "inputs": [
        {
          "internalType": "uint256",
          "name": "tokenId",
          "type": "uint256"
        }
      ],
      "name": "getApproved",
      "outputs": [
        {
          "internalType": "address",
          "name": "",
          "type": "address"
        }
      ],
      "stateMutability": "view",
      "type": "function",
      "constant": true
    },
    {
      "inputs": [
        {
          "internalType": "address",
          "name": "owner",
          "type": "address"
        },
        {
          "internalType": "address",
          "name": "operator",
          "type": "address"
        }
      ],
      "name": "isApprovedForAll",
      "outputs": [
        {
          "internalType": "bool",
          "name": "",
          "type": "bool"
        }
      ],
      "stateMutability": "view",
      "type": "function",
      "constant": true
    },
    {
      "inputs": [],
      "name": "name",
      "outputs": [
        {
          "internalType": "string",
          "name": "",
          "type": "string"
        }
      ],
      "stateMutability": "view",
      "type": "function",
      "constant": true
    },
    {
      "inputs": [
        {
          "internalType": "uint256",
          "name": "",
          "type": "uint256"
        }
      ],
      "name": "ngs",
      "outputs": [
        {
          "internalType": "string",
          "name": "brandNm",
          "type": "string"
        },
        {
          "internalType": "string",
          "name": "productNo",
          "type": "string"
        },
        {
          "internalType": "string",
          "name": "serialNo",
          "type": "string"
        },
        {
          "internalType": "string",
          "name": "mfd",
          "type": "string"
        },
        {
          "internalType": "string",
          "name": "madeIn",
          "type": "string"
        }
      ],
      "stateMutability": "view",
      "type": "function",
      "constant": true
    },
    {
      "inputs": [
        {
          "internalType": "uint256",
          "name": "_tokenId",
          "type": "uint256"
        }
      ],
      "name": "ownerOf",
      "outputs": [
        {
          "internalType": "address",
          "name": "",
          "type": "address"
        }
      ],
      "stateMutability": "view",
      "type": "function",
      "constant": true
    },
    {
      "inputs": [
        {
          "internalType": "address",
          "name": "from",
          "type": "address"
        },
        {
          "internalType": "address",
          "name": "to",
          "type": "address"
        },
        {
          "internalType": "uint256",
          "name": "tokenId",
          "type": "uint256"
        }
      ],
      "name": "safeTransferFrom",
      "outputs": [],
      "stateMutability": "nonpayable",
      "type": "function"
    },
    {
      "inputs": [
        {
          "internalType": "address",
          "name": "from",
          "type": "address"
        },
        {
          "internalType": "address",
          "name": "to",
          "type": "address"
        },
        {
          "internalType": "uint256",
          "name": "tokenId",
          "type": "uint256"
        },
        {
          "internalType": "bytes",
          "name": "data",
          "type": "bytes"
        }
      ],
      "name": "safeTransferFrom",
      "outputs": [],
      "stateMutability": "nonpayable",
      "type": "function"
    },
    {
      "inputs": [
        {
          "internalType": "address",
          "name": "operator",
          "type": "address"
        },
        {
          "internalType": "bool",
          "name": "_approved",
          "type": "bool"
        }
      ],
      "name": "setApprovalForAll",
      "outputs": [],
      "stateMutability": "nonpayable",
      "type": "function"
    },
    {
      "inputs": [
        {
          "internalType": "bytes4",
          "name": "interfaceId",
          "type": "bytes4"
        }
      ],
      "name": "supportsInterface",
      "outputs": [
        {
          "internalType": "bool",
          "name": "",
          "type": "bool"
        }
      ],
      "stateMutability": "view",
      "type": "function",
      "constant": true
    },
    {
      "inputs": [],
      "name": "symbol",
      "outputs": [
        {
          "internalType": "string",
          "name": "",
          "type": "string"
        }
      ],
      "stateMutability": "view",
      "type": "function",
      "constant": true
    },
    {
      "inputs": [
        {
          "internalType": "uint256",
          "name": "index",
          "type": "uint256"
        }
      ],
      "name": "tokenByIndex",
      "outputs": [
        {
          "internalType": "uint256",
          "name": "",
          "type": "uint256"
        }
      ],
      "stateMutability": "view",
      "type": "function",
      "constant": true
    },
    {
      "inputs": [
        {
          "internalType": "address",
          "name": "owner",
          "type": "address"
        },
        {
          "internalType": "uint256",
          "name": "index",
          "type": "uint256"
        }
      ],
      "name": "tokenOfOwnerByIndex",
      "outputs": [
        {
          "internalType": "uint256",
          "name": "",
          "type": "uint256"
        }
      ],
      "stateMutability": "view",
      "type": "function",
      "constant": true
    },
    {
      "inputs": [
        {
          "internalType": "uint256",
          "name": "tokenId",
          "type": "uint256"
        }
      ],
      "name": "tokenURI",
      "outputs": [
        {
          "internalType": "string",
          "name": "",
          "type": "string"
        }
      ],
      "stateMutability": "view",
      "type": "function",
      "constant": true
    },
    {
      "inputs": [],
      "name": "totalSupply",
      "outputs": [
        {
          "internalType": "uint256",
          "name": "",
          "type": "uint256"
        }
      ],
      "stateMutability": "view",
      "type": "function",
      "constant": true
    },
    {
      "inputs": [
        {
          "internalType": "address",
          "name": "_from",
          "type": "address"
        },
        {
          "internalType": "address",
          "name": "_to",
          "type": "address"
        },
        {
          "internalType": "uint256",
          "name": "_tokenId",
          "type": "uint256"
        }
      ],
      "name": "transferFrom",
      "outputs": [],
      "stateMutability": "nonpayable",
      "type": "function"
    },
    {
      "inputs": [
        {
          "internalType": "address",
          "name": "_address",
          "type": "address"
        }
      ],
      "name": "getAccountAuth",
      "outputs": [
        {
          "internalType": "uint8",
          "name": "",
          "type": "uint8"
        }
      ],
      "stateMutability": "view",
      "type": "function",
      "constant": true
    },
    {
      "inputs": [
        {
          "internalType": "address",
          "name": "_address",
          "type": "address"
        }
      ],
      "name": "setBrandAccountAuth",
      "outputs": [],
      "stateMutability": "nonpayable",
      "type": "function"
    },
    {
      "inputs": [
        {
          "internalType": "address",
          "name": "_address",
          "type": "address"
        }
      ],
      "name": "setAdminAccountAuth",
      "outputs": [],
      "stateMutability": "nonpayable",
      "type": "function"
    },
    {
      "inputs": [
        {
          "internalType": "string",
          "name": "_brandNm",
          "type": "string"
        },
        {
          "internalType": "string",
          "name": "_productNo",
          "type": "string"
        },
        {
          "internalType": "string",
          "name": "_serialNo",
          "type": "string"
        },
        {
          "internalType": "string",
          "name": "_mfd",
          "type": "string"
        },
        {
          "internalType": "string",
          "name": "_madeIn",
          "type": "string"
        }
      ],
      "name": "mint",
      "outputs": [],
      "stateMutability": "nonpayable",
      "type": "function"
    }
  ],
  "bytecode": "0x60806040523480156200001157600080fd5b50604051620020c5380380620020c5833981016040819052620000349162000127565b81818181600062000046838262000220565b50600162000055828262000220565b50505050505050620002ec565b634e487b7160e01b600052604160045260246000fd5b600082601f8301126200008a57600080fd5b81516001600160401b0380821115620000a757620000a762000062565b604051601f8301601f19908116603f01168101908282118183101715620000d257620000d262000062565b81604052838152602092508683858801011115620000ef57600080fd5b600091505b83821015620001135785820183015181830184015290820190620000f4565b600093810190920192909252949350505050565b600080604083850312156200013b57600080fd5b82516001600160401b03808211156200015357600080fd5b620001618683870162000078565b935060208501519150808211156200017857600080fd5b50620001878582860162000078565b9150509250929050565b600181811c90821680620001a657607f821691505b602082108103620001c757634e487b7160e01b600052602260045260246000fd5b50919050565b601f8211156200021b57600081815260208120601f850160051c81016020861015620001f65750805b601f850160051c820191505b81811015620002175782815560010162000202565b5050505b505050565b81516001600160401b038111156200023c576200023c62000062565b62000254816200024d845462000191565b84620001cd565b602080601f8311600181146200028c5760008415620002735750858301515b600019600386901b1c1916600185901b17855562000217565b600085815260208120601f198616915b82811015620002bd578886015182559484019460019091019084016200029c565b5085821015620002dc5787850151600019600388901b60f8161c191681555b5050505050600190811b01905550565b611dc980620002fc6000396000f3fe608060405234801561001057600080fd5b50600436106101375760003560e01c80636352211e116100b857806395d89b411161007c57806395d89b41146102b1578063a22cb465146102b9578063b88d4fde146102cc578063c87b56dd146102df578063e985e9c5146102f2578063f4ce94291461032e57600080fd5b80636352211e146102405780636a1869131461025357806370a0823114610266578063783a22901461027957806386833e911461029e57600080fd5b806318160ddd116100ff57806318160ddd146101e257806323b872dd146101f45780632f745c591461020757806342842e0e1461021a5780634f6ccce71461022d57600080fd5b806301ffc9a71461013c57806306fdde0314610164578063081812fc14610179578063095ea7b3146101ba578063100c5631146101cf575b600080fd5b61014f61014a3660046115ae565b610352565b60405190151581526020015b60405180910390f35b61016c610363565b60405161015b919061161b565b6101a261018736600461162e565b6000908152600460205260409020546001600160a01b031690565b6040516001600160a01b03909116815260200161015b565b6101cd6101c8366004611663565b6103f5565b005b6101cd6101dd36600461168d565b61054c565b6006545b60405190815260200161015b565b6101cd6102023660046116a8565b610585565b6101e6610215366004611663565b6105bb565b6101cd6102283660046116a8565b610651565b6101e661023b36600461162e565b61066c565b6101a261024e36600461162e565b6106ea565b6101cd61026136600461168d565b61071f565b6101e661027436600461168d565b610758565b61028c61028736600461168d565b61079c565b60405160ff909116815260200161015b565b6101cd6102ac366004611790565b6107d7565b61016c610ab1565b6101cd6102c7366004611862565b610ac0565b6101cd6102da36600461189e565b610b7a565b61016c6102ed36600461162e565b610bb2565b61014f61030036600461191a565b6001600160a01b03918216600090815260056020908152604080832093909416825291909152205460ff1690565b61034161033c36600461162e565b610bdc565b60405161015b95949392919061194d565b600061035d82610eca565b92915050565b606060008054610372906119ba565b80601f016020809104026020016040519081016040528092919081815260200182805461039e906119ba565b80156103eb5780601f106103c0576101008083540402835291602001916103eb565b820191906000526020600020905b8154815290600101906020018083116103ce57829003601f168201915b5050505050905090565b6000610400826106ea565b9050806001600160a01b0316836001600160a01b0316036104725760405162461bcd60e51b815260206004820152602160248201527f4572726f72202d20617070726f76616c20746f2063757272656e74206f776e656044820152603960f91b60648201526084015b60405180910390fd5b336001600160a01b038216148061048e575061048e8133610300565b6104f05760405162461bcd60e51b815260206004820152602d60248201527f43616c6c6572206973206e6f7420746f6b656e206f776e6572206f722061707060448201526c1c9bdd995908199bdc88185b1b609a1b6064820152608401610469565b60008281526004602052604080822080546001600160a01b0319166001600160a01b0387811691821790925591518593918516917f8c5be1e5ebec7d5bd14f71427d1e84f3dd0314c0f7b2291e5b200ac8c7c3b92591a4505050565b806001600160a01b03811661056057600080fd5b506001600160a01b03166000908152600b60205260409020805460ff19166002179055565b61058f3382610eef565b6105ab5760405162461bcd60e51b8152600401610469906119ee565b6105b6838383610f98565b505050565b60006105c683610758565b82106106145760405162461bcd60e51b815260206004820152601d60248201527f6f776e657220696e646578206973206f7574206f6620626f756e6473210000006044820152606401610469565b6001600160a01b038316600090815260086020526040902080548390811061063e5761063e611a33565b9060005260206000200154905092915050565b6105b683838360405180602001604052806000815250610b7a565b600061067760065490565b82106106c55760405162461bcd60e51b815260206004820152601e60248201527f676c6f62616c20696e646578206973206f7574206f6620626f756e64732100006044820152606401610469565b600682815481106106d8576106d8611a33565b90600052602060002001549050919050565b6000818152600260205260408120546001600160a01b03168061035d5760405162461bcd60e51b815260040161046990611a49565b806001600160a01b03811661073357600080fd5b506001600160a01b03166000908152600b60205260409020805460ff19166001179055565b60006001600160a01b0382166107805760405162461bcd60e51b815260040161046990611a49565b506001600160a01b031660009081526003602052604090205490565b6000816001600160a01b0381166107b257600080fd5b6001600160a01b0383166000908152600b602052604090205460ff1691505b50919050565b84848484846000805b600a54811015610970578680519060200120600a828154811061080557610805611a33565b90600052602060002090600502016000016040516108239190611a8b565b604051809103902014801561087657508580519060200120600a828154811061084e5761084e611a33565b906000526020600020906005020160010160405161086c9190611a8b565b6040518091039020145b80156108c057508480519060200120600a828154811061089857610898611a33565b90600052602060002090600502016002016040516108b69190611a8b565b6040518091039020145b801561090a57508380519060200120600a82815481106108e2576108e2611a33565b90600052602060002090600502016003016040516109009190611a8b565b6040518091039020145b801561095457508280519060200120600a828154811061092c5761092c611a33565b906000526020600020906005020160040160405161094a9190611a8b565b6040518091039020145b1561095e57600191505b8061096881611b17565b9150506107e0565b5080156109bf5760405162461bcd60e51b815260206004820152601c60248201527f4572726f72205f6e67496e666f20616c726561647920657869737473000000006044820152606401610469565b6040805160a0810182528c8152602081018c90529081018a90526060810189905260808101889052600a8054600181018255600091909152815182916005027fc65a7bb8d6351c1cf70c95a316cc6a92839c986682d98bc35f958f4883f9d2a801908190610a2d9082611b7e565b5060208201516001820190610a429082611b7e565b5060408201516002820190610a579082611b7e565b5060608201516003820190610a6c9082611b7e565b5060808201516004820190610a819082611b7e565b5050600a5460009150610a9690600190611c3e565b9050610aa23382611104565b50505050505050505050505050565b606060018054610372906119ba565b336001600160a01b0383168103610b0d5760405162461bcd60e51b815260206004820152601160248201527030b8383937bb32903a379031b0b63632b960791b6044820152606401610469565b6001600160a01b03818116600081815260056020908152604080832094881680845294825291829020805460ff191687151590811790915591519182527f17307eab39ab6107e8899845ad3d59bd9653f200f220920489ca2b5937696c31910160405180910390a3505050565b610b843383610eef565b610ba05760405162461bcd60e51b8152600401610469906119ee565b610bac84848484611164565b50505050565b604080516020810190915260008152606090604051806020016040528060008152505b9392505050565b600a8181548110610bec57600080fd5b9060005260206000209060050201600091509050806000018054610c0f906119ba565b80601f0160208091040260200160405190810160405280929190818152602001828054610c3b906119ba565b8015610c885780601f10610c5d57610100808354040283529160200191610c88565b820191906000526020600020905b815481529060010190602001808311610c6b57829003601f168201915b505050505090806001018054610c9d906119ba565b80601f0160208091040260200160405190810160405280929190818152602001828054610cc9906119ba565b8015610d165780601f10610ceb57610100808354040283529160200191610d16565b820191906000526020600020905b815481529060010190602001808311610cf957829003601f168201915b505050505090806002018054610d2b906119ba565b80601f0160208091040260200160405190810160405280929190818152602001828054610d57906119ba565b8015610da45780601f10610d7957610100808354040283529160200191610da4565b820191906000526020600020905b815481529060010190602001808311610d8757829003601f168201915b505050505090806003018054610db9906119ba565b80601f0160208091040260200160405190810160405280929190818152602001828054610de5906119ba565b8015610e325780601f10610e0757610100808354040283529160200191610e32565b820191906000526020600020905b815481529060010190602001808311610e1557829003601f168201915b505050505090806004018054610e47906119ba565b80601f0160208091040260200160405190810160405280929190818152602001828054610e73906119ba565b8015610ec05780601f10610e9557610100808354040283529160200191610ec0565b820191906000526020600020905b815481529060010190602001808311610ea357829003601f168201915b5050505050905085565b60006001600160e01b0319821663780e9d6360e01b148061035d575061035d8261126d565b6000818152600260205260408120546001600160a01b0316610f4a5760405162461bcd60e51b81526020600482015260146024820152731d1bdad95b88191bdcd9481b9bdd08195e1a5cdd60621b6044820152606401610469565b6000610f55836106ea565b9050806001600160a01b0316846001600160a01b03161480610f9057506000838152600460205260409020546001600160a01b038581169116145b949350505050565b826001600160a01b0316610fab826106ea565b6001600160a01b031614610fd15760405162461bcd60e51b815260040161046990611c51565b6001600160a01b03821661103b5760405162461bcd60e51b815260206004820152602b60248201527f4572726f72202d20455243373231205472616e7366657220746f20746865207a60448201526a65726f206164647265737360a81b6064820152608401610469565b826001600160a01b031661104e826106ea565b6001600160a01b0316146110745760405162461bcd60e51b815260040161046990611c51565b600081815260046020908152604080832080546001600160a01b03199081169091556001600160a01b0387811680865260038552838620805460001901905590871680865283862080546001019055868652600290945282852080549092168417909155905184937fddf252ad1be2c89b69c2b068fc378daa952ba7f163c4a11628f55a4df523b3ef91a4505050565b61110e82826112a2565b6111188282611439565b61116081600680546000838152600760205260408120829055600182018355919091527ff652222313e28459528d920b65115c16c04f3efc82aaedc97be59f3f377c0d3f0155565b5050565b61116f848484610f98565b61117b84848484611494565b610bac5760405162461bcd60e51b815260040161046990611c96565b81156111bd57806111a781611b17565b91506111b69050600a83611cfe565b9150611197565b60008167ffffffffffffffff8111156111d8576111d86116e4565b6040519080825280601f01601f191660200182016040528015611202576020820181803683370190505b5090505b8415610f9057611217600183611c3e565b9150611224600a86611d12565b61122f906030611d26565b60f81b81838151811061124457611244611a33565b60200101906001600160f81b031916908160001a905350611266600a86611cfe565b9450611206565b60006001600160e01b031982166380ac58cd60e01b148061035d57506301ffc9a760e01b6001600160e01b031983161461035d565b6001600160a01b0382166113045760405162461bcd60e51b815260206004820152602360248201527f4552433732313a206d696e74696e6720746f20746865207a65726f206164647260448201526265737360e81b6064820152608401610469565b6000818152600260205260409020546001600160a01b0316156113695760405162461bcd60e51b815260206004820152601c60248201527f4552433732313a20746f6b656e20616c7265616479206d696e746564000000006044820152606401610469565b6000818152600260205260409020546001600160a01b0316156113ce5760405162461bcd60e51b815260206004820152601c60248201527f4552433732313a20746f6b656e20616c7265616479206d696e746564000000006044820152606401610469565b6001600160a01b038216600081815260036020908152604080832080546001019055848352600290915280822080546001600160a01b0319168417905551839291907fddf252ad1be2c89b69c2b068fc378daa952ba7f163c4a11628f55a4df523b3ef908290a45050565b600061144483610758565b6001600160a01b0384166000908152600860205260409020805491925083918390811061147357611473611a33565b60009182526020808320909101929092559283526009905260409091205550565b60006001600160a01b0384163b1561158a57604051630a85bd0160e11b81526001600160a01b0385169063150b7a02906114d8903390899088908890600401611d39565b6020604051808303816000875af1925050508015611513575060408051601f3d908101601f1916820190925261151091810190611d76565b60015b611570573d808015611541576040519150601f19603f3d011682016040523d82523d6000602084013e611546565b606091505b5080516000036115685760405162461bcd60e51b815260040161046990611c96565b805181602001fd5b6001600160e01b031916630a85bd0160e11b149050610f90565b506001949350505050565b6001600160e01b0319811681146115ab57600080fd5b50565b6000602082840312156115c057600080fd5b8135610bd581611595565b60005b838110156115e65781810151838201526020016115ce565b50506000910152565b600081518084526116078160208601602086016115cb565b601f01601f19169290920160200192915050565b602081526000610bd560208301846115ef565b60006020828403121561164057600080fd5b5035919050565b80356001600160a01b038116811461165e57600080fd5b919050565b6000806040838503121561167657600080fd5b61167f83611647565b946020939093013593505050565b60006020828403121561169f57600080fd5b610bd582611647565b6000806000606084860312156116bd57600080fd5b6116c684611647565b92506116d460208501611647565b9150604084013590509250925092565b634e487b7160e01b600052604160045260246000fd5b600067ffffffffffffffff80841115611715576117156116e4565b604051601f8501601f19908116603f0116810190828211818310171561173d5761173d6116e4565b8160405280935085815286868601111561175657600080fd5b858560208301376000602087830101525050509392505050565b600082601f83011261178157600080fd5b610bd5838335602085016116fa565b600080600080600060a086880312156117a857600080fd5b853567ffffffffffffffff808211156117c057600080fd5b6117cc89838a01611770565b965060208801359150808211156117e257600080fd5b6117ee89838a01611770565b9550604088013591508082111561180457600080fd5b61181089838a01611770565b9450606088013591508082111561182657600080fd5b61183289838a01611770565b9350608088013591508082111561184857600080fd5b5061185588828901611770565b9150509295509295909350565b6000806040838503121561187557600080fd5b61187e83611647565b91506020830135801515811461189357600080fd5b809150509250929050565b600080600080608085870312156118b457600080fd5b6118bd85611647565b93506118cb60208601611647565b925060408501359150606085013567ffffffffffffffff8111156118ee57600080fd5b8501601f810187136118ff57600080fd5b61190e878235602084016116fa565b91505092959194509250565b6000806040838503121561192d57600080fd5b61193683611647565b915061194460208401611647565b90509250929050565b60a08152600061196060a08301886115ef565b828103602084015261197281886115ef565b9050828103604084015261198681876115ef565b9050828103606084015261199a81866115ef565b905082810360808401526119ae81856115ef565b98975050505050505050565b600181811c908216806119ce57607f821691505b6020821081036107d157634e487b7160e01b600052602260045260246000fd5b60208082526025908201527f73656e646572206973206e6f7420746f6b656e204f776e6572206f72204170706040820152641c9bdd995960da1b606082015260800190565b634e487b7160e01b600052603260045260246000fd5b60208082526022908201527f6f776e657220717565727920666f72206e6f6e2d6578697374656e7420746f6b60408201526132b760f11b606082015260800190565b6000808354611a99816119ba565b60018281168015611ab15760018114611ac657611af5565b60ff1984168752821515830287019450611af5565b8760005260208060002060005b85811015611aec5781548a820152908401908201611ad3565b50505082870194505b50929695505050505050565b634e487b7160e01b600052601160045260246000fd5b600060018201611b2957611b29611b01565b5060010190565b601f8211156105b657600081815260208120601f850160051c81016020861015611b575750805b601f850160051c820191505b81811015611b7657828155600101611b63565b505050505050565b815167ffffffffffffffff811115611b9857611b986116e4565b611bac81611ba684546119ba565b84611b30565b602080601f831160018114611be15760008415611bc95750858301515b600019600386901b1c1916600185901b178555611b76565b600085815260208120601f198616915b82811015611c1057888601518255948401946001909101908401611bf1565b5085821015611c2e5787850151600019600388901b60f8161c191681555b5050505050600190811b01905550565b8181038181111561035d5761035d611b01565b60208082526025908201527f4552433732313a207472616e736665722066726f6d20696e636f72726563742060408201526437bbb732b960d91b606082015260800190565b60208082526032908201527f4552433732313a207472616e7366657220746f206e6f6e20455243373231526560408201527131b2b4bb32b91034b6b83632b6b2b73a32b960711b606082015260800190565b634e487b7160e01b600052601260045260246000fd5b600082611d0d57611d0d611ce8565b500490565b600082611d2157611d21611ce8565b500690565b8082018082111561035d5761035d611b01565b6001600160a01b0385811682528416602082015260408101839052608060608201819052600090611d6c908301846115ef565b9695505050505050565b600060208284031215611d8857600080fd5b8151610bd58161159556fea264697066735822122083054106589425448b11c828225903b38459c62ad803abc106197516d7fe93fa64736f6c63430008110033",
  "immutableReferences": {},
  "source": "// SPDX-License-Identifier: MIT\npragma solidity ^0.8.0;\n\nimport './tokens/ERC721/ERC721Connector.sol';\n\ncontract NG is ERC721Connector {\n    // struct nft    struct  nft \n    struct NGInfo {\n        string brandNm;\n        string productNo;\n        string serialNo;\n        string mfd;\n        string madeIn;\n    }\n\n    NGInfo[] public ngs;\n    // string[] public ngs;\n\n    // mapping(NGInfo => bool) _ngExists;\n    // mapping(string => bool) _ngExists;\n\n    mapping(address => uint8) _accountsAuth; // : 0, : 1, : 2\n\n    modifier checkZeroAddress(address _address) {\n        require(_address!=address(0));\n        _;\n    }\n\n    function getAccountAuth(address _address) public view checkZeroAddress(_address) returns(uint8) {\n        uint8 _auth = _accountsAuth[_address];\n        return _auth;\n    }\n\n    function setBrandAccountAuth(address _address) public checkZeroAddress(_address) {\n        _accountsAuth[_address] = 1;\n    }\n\n    function setAdminAccountAuth(address _address) public  checkZeroAddress(_address) {\n        _accountsAuth[_address] = 2;\n    }\n\n    modifier ngExists(\n        string memory _brandNm,\n        string memory _productNo,\n        string memory _serialNo,\n        string memory _mfd,\n        string memory _madeIn\n    )\n    {\n        bool check = false;\n        for (uint256 i=0; i<ngs.length; i++) {\n            if (keccak256(bytes(ngs[i].brandNm))==keccak256(bytes(_brandNm)) &&\n            keccak256(bytes(ngs[i].productNo))==keccak256(bytes(_productNo)) &&\n            keccak256(bytes(ngs[i].serialNo))==keccak256(bytes(_serialNo)) &&\n            keccak256(bytes(ngs[i].mfd))==keccak256(bytes(_mfd)) &&\n            keccak256(bytes(ngs[i].madeIn))==keccak256(bytes(_madeIn))) {\n                check = true;\n            }\n        }\n        require(!check, 'Error _ngInfo already exists');\n        _;\n    }\n\n    function mint(\n        string memory _brandNm,\n        string memory _productNo,\n        string memory _serialNo,\n        string memory _mfd,\n        string memory _madeIn\n        ) \n        public \n        ngExists(\n            _brandNm,\n            _productNo,\n            _serialNo,\n            _mfd,\n            _madeIn\n        )\n    {\n        NGInfo memory _ngInfo = NGInfo(_brandNm, _productNo, _serialNo, _mfd, _madeIn);\n        // require(ngs[_ngInfo]!='', 'Error _ngInfo already exists');\n        // require(!_ngExists[_ngInfo], 'Error _ngInfo already exists');\n\n        ngs.push(_ngInfo);\n        uint256 _id = ngs.length - 1;\n        _mint(msg.sender, _id);\n\n        // _ngExists[_ngInfo] = true;\n    }\n\n    // function mint(string memory _ng) public {\n    //     require(!_ngExists[_ng], 'Error -ng already exists');\n\n    //     ngs.push(_ng);\n    //     uint256 _id = ngs.length - 1;\n    //     _mint(msg.sender, _id);\n\n    //     _ngExists[_ng] = true;\n    // }\n\n    constructor(string memory named, string memory symbolified) ERC721Connector(named, symbolified){}\n}\n",
  "sourcePath": "/Users/kimyuri/SSAFY/projects/pjt2/repo/S07P22E206/smart-contracts/src/contracts/NG.sol",
  "compiler": {
    "name": "solc",
    "version": "0.8.17+commit.8df45f5f.Emscripten.clang"
  },
  "schemaVersion": "3.4.9",
  "updatedAt": "2022-09-19T04:32:17.650Z",
  "networkType": "ethereum",
  "devdoc": {
    "kind": "dev",
    "methods": {
      "balanceOf(address)": {
        "details": "Returns the number of tokens in ``owner``'s account."
      },
      "getApproved(uint256)": {
        "details": "Returns the account approved for `tokenId` token. Requirements: - `tokenId` must exist."
      },
      "isApprovedForAll(address,address)": {
        "details": "Returns if the `operator` is allowed to manage all of the assets of `owner`. See {setApprovalForAll}"
      },
      "safeTransferFrom(address,address,uint256)": {
        "details": "Safely transfers `tokenId` token from `from` to `to`, checking first that contract recipients are aware of the ERC721 protocol to prevent tokens from being forever locked. Requirements: - `from` cannot be the zero address. - `to` cannot be the zero address. - `tokenId` token must exist and be owned by `from`. - If the caller is not `from`, it must be have been allowed to move this token by either {approve} or {setApprovalForAll}. - If `to` refers to a smart contract, it must implement {IERC721Receiver-onERC721Received}, which is called upon a safe transfer. Emits a {Transfer} event."
      },
      "safeTransferFrom(address,address,uint256,bytes)": {
        "details": "Safely transfers `tokenId` token from `from` to `to`. Requirements: - `from` cannot be the zero address. - `to` cannot be the zero address. - `tokenId` token must exist and be owned by `from`. - If the caller is not `from`, it must be approved to move this token by either {approve} or {setApprovalForAll}. - If `to` refers to a smart contract, it must implement {IERC721Receiver-onERC721Received}, which is called upon a safe transfer. Emits a {Transfer} event."
      },
      "setApprovalForAll(address,bool)": {
        "details": "Approve or remove `operator` as an operator for the caller. Operators can call {transferFrom} or {safeTransferFrom} for any token owned by the caller. Requirements: - The `operator` cannot be the caller. Emits an {ApprovalForAll} event."
      }
    },
    "version": 1
  },
  "userdoc": {
    "kind": "user",
    "methods": {},
    "version": 1
  }
}