{
  "contractName": "NG",
  "abi": [
    {
      "inputs": [
        {
          "internalType": "string",
          "name": "named",
          "type": "string"
        },
        {
          "internalType": "string",
          "name": "symbolified",
          "type": "string"
        }
      ],
      "stateMutability": "nonpayable",
      "type": "constructor"
    },
    {
      "anonymous": false,
      "inputs": [
        {
          "indexed": true,
          "internalType": "address",
          "name": "owner",
          "type": "address"
        },
        {
          "indexed": true,
          "internalType": "address",
          "name": "approved",
          "type": "address"
        },
        {
          "indexed": true,
          "internalType": "uint256",
          "name": "tokenId",
          "type": "uint256"
        }
      ],
      "name": "Approval",
      "type": "event"
    },
    {
      "anonymous": false,
      "inputs": [
        {
          "indexed": true,
          "internalType": "address",
          "name": "owner",
          "type": "address"
        },
        {
          "indexed": true,
          "internalType": "address",
          "name": "operator",
          "type": "address"
        },
        {
          "indexed": false,
          "internalType": "bool",
          "name": "approved",
          "type": "bool"
        }
      ],
      "name": "ApprovalForAll",
      "type": "event"
    },
    {
      "anonymous": false,
      "inputs": [
        {
          "indexed": true,
          "internalType": "address",
          "name": "from",
          "type": "address"
        },
        {
          "indexed": true,
          "internalType": "address",
          "name": "to",
          "type": "address"
        },
        {
          "indexed": true,
          "internalType": "uint256",
          "name": "tokenId",
          "type": "uint256"
        }
      ],
      "name": "Transfer",
      "type": "event"
    },
    {
      "inputs": [
        {
          "internalType": "address",
          "name": "_from",
          "type": "address"
        },
        {
          "internalType": "address",
          "name": "_to",
          "type": "address"
        },
        {
          "internalType": "uint256",
          "name": "_tokenId",
          "type": "uint256"
        }
      ],
      "name": "_transferNG",
      "outputs": [],
      "stateMutability": "nonpayable",
      "type": "function"
    },
    {
      "inputs": [
        {
          "internalType": "address",
          "name": "_to",
          "type": "address"
        },
        {
          "internalType": "uint256",
          "name": "tokenId",
          "type": "uint256"
        }
      ],
      "name": "approve",
      "outputs": [],
      "stateMutability": "nonpayable",
      "type": "function"
    },
    {
      "inputs": [
        {
          "internalType": "address",
          "name": "owner",
          "type": "address"
        }
      ],
      "name": "balanceOf",
      "outputs": [
        {
          "internalType": "uint256",
          "name": "",
          "type": "uint256"
        }
      ],
      "stateMutability": "view",
      "type": "function",
      "constant": true
    },
    {
      "inputs": [
        {
          "internalType": "uint256",
          "name": "",
          "type": "uint256"
        }
      ],
      "name": "blockNos",
      "outputs": [
        {
          "internalType": "uint256",
          "name": "",
          "type": "uint256"
        }
      ],
      "stateMutability": "view",
      "type": "function",
      "constant": true
    },
    {
      "inputs": [
        {
          "internalType": "uint256",
          "name": "tokenId",
          "type": "uint256"
        }
      ],
      "name": "getApproved",
      "outputs": [
        {
          "internalType": "address",
          "name": "",
          "type": "address"
        }
      ],
      "stateMutability": "view",
      "type": "function",
      "constant": true
    },
    {
      "inputs": [
        {
          "internalType": "uint256",
          "name": "_tokenId",
          "type": "uint256"
        }
      ],
      "name": "getIndexFromTokenId",
      "outputs": [
        {
          "internalType": "uint256",
          "name": "",
          "type": "uint256"
        }
      ],
      "stateMutability": "view",
      "type": "function",
      "constant": true
    },
    {
      "inputs": [
        {
          "internalType": "address",
          "name": "_address",
          "type": "address"
        }
      ],
      "name": "getOwnedTokens",
      "outputs": [
        {
          "internalType": "uint256[]",
          "name": "",
          "type": "uint256[]"
        }
      ],
      "stateMutability": "view",
      "type": "function",
      "constant": true
    },
    {
      "inputs": [
        {
          "internalType": "address",
          "name": "owner",
          "type": "address"
        },
        {
          "internalType": "address",
          "name": "operator",
          "type": "address"
        }
      ],
      "name": "isApprovedForAll",
      "outputs": [
        {
          "internalType": "bool",
          "name": "",
          "type": "bool"
        }
      ],
      "stateMutability": "view",
      "type": "function",
      "constant": true
    },
    {
      "inputs": [],
      "name": "name",
      "outputs": [
        {
          "internalType": "string",
          "name": "",
          "type": "string"
        }
      ],
      "stateMutability": "view",
      "type": "function",
      "constant": true
    },
    {
      "inputs": [
        {
          "internalType": "uint256",
          "name": "",
          "type": "uint256"
        }
      ],
      "name": "ngs",
      "outputs": [
        {
          "internalType": "string",
          "name": "brandNm",
          "type": "string"
        },
        {
          "internalType": "string",
          "name": "productNo",
          "type": "string"
        },
        {
          "internalType": "string",
          "name": "serialNo",
          "type": "string"
        },
        {
          "internalType": "string",
          "name": "mfd",
          "type": "string"
        },
        {
          "internalType": "string",
          "name": "madeIn",
          "type": "string"
        }
      ],
      "stateMutability": "view",
      "type": "function",
      "constant": true
    },
    {
      "inputs": [
        {
          "internalType": "uint256",
          "name": "_tokenId",
          "type": "uint256"
        }
      ],
      "name": "ownerOf",
      "outputs": [
        {
          "internalType": "address",
          "name": "",
          "type": "address"
        }
      ],
      "stateMutability": "view",
      "type": "function",
      "constant": true
    },
    {
      "inputs": [
        {
          "internalType": "address",
          "name": "from",
          "type": "address"
        },
        {
          "internalType": "address",
          "name": "to",
          "type": "address"
        },
        {
          "internalType": "uint256",
          "name": "tokenId",
          "type": "uint256"
        }
      ],
      "name": "safeTransferFrom",
      "outputs": [],
      "stateMutability": "nonpayable",
      "type": "function"
    },
    {
      "inputs": [
        {
          "internalType": "address",
          "name": "from",
          "type": "address"
        },
        {
          "internalType": "address",
          "name": "to",
          "type": "address"
        },
        {
          "internalType": "uint256",
          "name": "tokenId",
          "type": "uint256"
        },
        {
          "internalType": "bytes",
          "name": "data",
          "type": "bytes"
        }
      ],
      "name": "safeTransferFrom",
      "outputs": [],
      "stateMutability": "nonpayable",
      "type": "function"
    },
    {
      "inputs": [
        {
          "internalType": "address",
          "name": "operator",
          "type": "address"
        },
        {
          "internalType": "bool",
          "name": "_approved",
          "type": "bool"
        }
      ],
      "name": "setApprovalForAll",
      "outputs": [],
      "stateMutability": "nonpayable",
      "type": "function"
    },
    {
      "inputs": [
        {
          "internalType": "bytes4",
          "name": "interfaceId",
          "type": "bytes4"
        }
      ],
      "name": "supportsInterface",
      "outputs": [
        {
          "internalType": "bool",
          "name": "",
          "type": "bool"
        }
      ],
      "stateMutability": "view",
      "type": "function",
      "constant": true
    },
    {
      "inputs": [],
      "name": "symbol",
      "outputs": [
        {
          "internalType": "string",
          "name": "",
          "type": "string"
        }
      ],
      "stateMutability": "view",
      "type": "function",
      "constant": true
    },
    {
      "inputs": [
        {
          "internalType": "uint256",
          "name": "index",
          "type": "uint256"
        }
      ],
      "name": "tokenByIndex",
      "outputs": [
        {
          "internalType": "uint256",
          "name": "",
          "type": "uint256"
        }
      ],
      "stateMutability": "view",
      "type": "function",
      "constant": true
    },
    {
      "inputs": [
        {
          "internalType": "address",
          "name": "owner",
          "type": "address"
        },
        {
          "internalType": "uint256",
          "name": "index",
          "type": "uint256"
        }
      ],
      "name": "tokenOfOwnerByIndex",
      "outputs": [
        {
          "internalType": "uint256",
          "name": "",
          "type": "uint256"
        }
      ],
      "stateMutability": "view",
      "type": "function",
      "constant": true
    },
    {
      "inputs": [
        {
          "internalType": "uint256",
          "name": "tokenId",
          "type": "uint256"
        }
      ],
      "name": "tokenURI",
      "outputs": [
        {
          "internalType": "string",
          "name": "",
          "type": "string"
        }
      ],
      "stateMutability": "view",
      "type": "function",
      "constant": true
    },
    {
      "inputs": [],
      "name": "totalSupply",
      "outputs": [
        {
          "internalType": "uint256",
          "name": "",
          "type": "uint256"
        }
      ],
      "stateMutability": "view",
      "type": "function",
      "constant": true
    },
    {
      "inputs": [
        {
          "internalType": "address",
          "name": "_from",
          "type": "address"
        },
        {
          "internalType": "address",
          "name": "_to",
          "type": "address"
        },
        {
          "internalType": "uint256",
          "name": "_tokenId",
          "type": "uint256"
        }
      ],
      "name": "transferFrom",
      "outputs": [],
      "stateMutability": "nonpayable",
      "type": "function"
    },
    {
      "inputs": [
        {
          "internalType": "string",
          "name": "_txnHash",
          "type": "string"
        }
      ],
      "name": "getTokenIdFromTxnHash",
      "outputs": [
        {
          "internalType": "uint256",
          "name": "",
          "type": "uint256"
        }
      ],
      "stateMutability": "view",
      "type": "function",
      "constant": true
    },
    {
      "inputs": [
        {
          "internalType": "string",
          "name": "_txnHash",
          "type": "string"
        },
        {
          "internalType": "uint256",
          "name": "_tokenId",
          "type": "uint256"
        }
      ],
      "name": "setTxnHashToTokenId",
      "outputs": [],
      "stateMutability": "nonpayable",
      "type": "function"
    },
    {
      "inputs": [],
      "name": "getMintedTokens",
      "outputs": [
        {
          "internalType": "uint256[]",
          "name": "",
          "type": "uint256[]"
        }
      ],
      "stateMutability": "view",
      "type": "function",
      "constant": true
    },
    {
      "inputs": [
        {
          "internalType": "uint256",
          "name": "_idx",
          "type": "uint256"
        }
      ],
      "name": "getBlockHash",
      "outputs": [
        {
          "internalType": "bytes32",
          "name": "",
          "type": "bytes32"
        }
      ],
      "stateMutability": "view",
      "type": "function",
      "constant": true
    },
    {
      "inputs": [
        {
          "internalType": "address",
          "name": "_address",
          "type": "address"
        }
      ],
      "name": "getAccountAuth",
      "outputs": [
        {
          "internalType": "uint8",
          "name": "",
          "type": "uint8"
        }
      ],
      "stateMutability": "view",
      "type": "function",
      "constant": true
    },
    {
      "inputs": [
        {
          "internalType": "address",
          "name": "_address",
          "type": "address"
        }
      ],
      "name": "setBrandAccountAuth",
      "outputs": [],
      "stateMutability": "nonpayable",
      "type": "function"
    },
    {
      "inputs": [
        {
          "internalType": "address",
          "name": "_address",
          "type": "address"
        }
      ],
      "name": "setAdminAccountAuth",
      "outputs": [],
      "stateMutability": "nonpayable",
      "type": "function"
    },
    {
      "inputs": [
        {
          "internalType": "uint256",
          "name": "tokenId",
          "type": "uint256"
        }
      ],
      "name": "getTokenHistory",
      "outputs": [
        {
          "internalType": "uint256[]",
          "name": "",
          "type": "uint256[]"
        }
      ],
      "stateMutability": "view",
      "type": "function",
      "constant": true
    },
    {
      "inputs": [
        {
          "internalType": "address",
          "name": "_from",
          "type": "address"
        },
        {
          "internalType": "address",
          "name": "_to",
          "type": "address"
        },
        {
          "internalType": "uint256",
          "name": "_tokenId",
          "type": "uint256"
        }
      ],
      "name": "transferNG",
      "outputs": [],
      "stateMutability": "nonpayable",
      "type": "function"
    },
    {
      "inputs": [
        {
          "internalType": "string",
          "name": "_brandNm",
          "type": "string"
        },
        {
          "internalType": "string",
          "name": "_productNo",
          "type": "string"
        },
        {
          "internalType": "string",
          "name": "_serialNo",
          "type": "string"
        },
        {
          "internalType": "string",
          "name": "_mfd",
          "type": "string"
        },
        {
          "internalType": "string",
          "name": "_madeIn",
          "type": "string"
        }
      ],
      "name": "mint",
      "outputs": [],
      "stateMutability": "nonpayable",
      "type": "function"
    }
  ],
  "bytecode": "0x60806040523480156200001157600080fd5b50604051620026e7380380620026e7833981016040819052620000349162000127565b81818181600062000046838262000220565b50600162000055828262000220565b50505050505050620002ec565b634e487b7160e01b600052604160045260246000fd5b600082601f8301126200008a57600080fd5b81516001600160401b0380821115620000a757620000a762000062565b604051601f8301601f19908116603f01168101908282118183101715620000d257620000d262000062565b81604052838152602092508683858801011115620000ef57600080fd5b600091505b83821015620001135785820183015181830184015290820190620000f4565b600093810190920192909252949350505050565b600080604083850312156200013b57600080fd5b82516001600160401b03808211156200015357600080fd5b620001618683870162000078565b935060208501519150808211156200017857600080fd5b50620001878582860162000078565b9150509250929050565b600181811c90821680620001a657607f821691505b602082108103620001c757634e487b7160e01b600052602260045260246000fd5b50919050565b601f8211156200021b57600081815260208120601f850160051c81016020861015620001f65750805b601f850160051c820191505b81811015620002175782815560010162000202565b5050505b505050565b81516001600160401b038111156200023c576200023c62000062565b62000254816200024d845462000191565b84620001cd565b602080601f8311600181146200028c5760008415620002735750858301515b600019600386901b1c1916600185901b17855562000217565b600085815260208120601f198616915b82811015620002bd578886015182559484019460019091019084016200029c565b5085821015620002dc5787850151600019600388901b60f8161c191681555b5050505050600190811b01905550565b6123eb80620002fc6000396000f3fe608060405234801561001057600080fd5b50600436106101e55760003560e01c8063783a22901161010f578063c0fc4048116100a2578063dc96529011610071578063dc96529014610452578063e985e9c51461045a578063ee82ac5e14610496578063f4ce9429146104a957600080fd5b8063c0fc404814610406578063c87b56dd14610419578063ccfe6d721461042c578063d9d616551461043f57600080fd5b806395d89b41116100de57806395d89b41146103b8578063a22cb465146103c0578063a8a07b36146103d3578063b88d4fde146103f357600080fd5b8063783a22901461035a578063793467051461037f57806386833e91146103925780638d7b0e32146103a557600080fd5b806323b872dd116101875780636352211e116101565780636352211e1461030e5780636a18691314610321578063702cc6971461033457806370a082311461034757600080fd5b806323b872dd146102c25780632f745c59146102d557806342842e0e146102e85780634f6ccce7146102fb57600080fd5b8063095ea7b3116101c3578063095ea7b314610268578063100c56311461027d57806318160ddd146102905780632142ae2c146102a257600080fd5b806301ffc9a7146101ea57806306fdde0314610212578063081812fc14610227575b600080fd5b6101fd6101f8366004611b0e565b6104cd565b60405190151581526020015b60405180910390f35b61021a6104de565b6040516102099190611b7b565b610250610235366004611b8e565b6000908152600460205260409020546001600160a01b031690565b6040516001600160a01b039091168152602001610209565b61027b610276366004611bc3565b610570565b005b61027b61028b366004611bed565b6106c7565b6006545b604051908152602001610209565b6102b56102b0366004611b8e565b610700565b6040516102099190611c08565b61027b6102d0366004611c4c565b610762565b6102946102e3366004611bc3565b610798565b61027b6102f6366004611c4c565b61082e565b610294610309366004611b8e565b610849565b61025061031c366004611b8e565b6108c7565b61027b61032f366004611bed565b6108fc565b610294610342366004611d34565b610935565b610294610355366004611bed565b61095d565b61036d610368366004611bed565b6109a1565b60405160ff9091168152602001610209565b61027b61038d366004611d69565b6109dc565b61027b6103a0366004611dae565b610a01565b61027b6103b3366004611c4c565b610d4c565b61021a610f05565b61027b6103ce366004611e80565b610f14565b6102946103e1366004611b8e565b60009081526007602052604090205490565b61027b610401366004611ebc565b610fce565b61027b610414366004611c4c565b611000565b61021a610427366004611b8e565b611063565b61029461043a366004611b8e565b61108d565b6102b561044d366004611bed565b6110ae565b6102b5611118565b6101fd610468366004611f38565b6001600160a01b03918216600090815260056020908152604080832093909416825291909152205460ff1690565b6102946104a4366004611b8e565b611178565b6104bc6104b7366004611b8e565b6111a2565b604051610209959493929190611f6b565b60006104d882611490565b92915050565b6060600080546104ed90611fd8565b80601f016020809104026020016040519081016040528092919081815260200182805461051990611fd8565b80156105665780601f1061053b57610100808354040283529160200191610566565b820191906000526020600020905b81548152906001019060200180831161054957829003601f168201915b5050505050905090565b600061057b826108c7565b9050806001600160a01b0316836001600160a01b0316036105ed5760405162461bcd60e51b815260206004820152602160248201527f4572726f72202d20617070726f76616c20746f2063757272656e74206f776e656044820152603960f91b60648201526084015b60405180910390fd5b336001600160a01b038216148061060957506106098133610468565b61066b5760405162461bcd60e51b815260206004820152602d60248201527f43616c6c6572206973206e6f7420746f6b656e206f776e6572206f722061707060448201526c1c9bdd995908199bdc88185b1b609a1b60648201526084016105e4565b60008281526004602052604080822080546001600160a01b0319166001600160a01b0387811691821790925591518593918516917f8c5be1e5ebec7d5bd14f71427d1e84f3dd0314c0f7b2291e5b200ac8c7c3b92591a4505050565b806001600160a01b0381166106db57600080fd5b506001600160a01b03166000908152600e60205260409020805460ff19166002179055565b6000818152600d602090815260409182902080548351818402810184019094528084526060939283018282801561075657602002820191906000526020600020905b815481526020019060010190808311610742575b50505050509050919050565b61076c33826114b5565b6107885760405162461bcd60e51b81526004016105e49061200c565b61079383838361155e565b505050565b60006107a38361095d565b82106107f15760405162461bcd60e51b815260206004820152601d60248201527f6f776e657220696e646578206973206f7574206f6620626f756e64732100000060448201526064016105e4565b6001600160a01b038316600090815260086020526040902080548390811061081b5761081b612051565b9060005260206000200154905092915050565b61079383838360405180602001604052806000815250610fce565b600061085460065490565b82106108a25760405162461bcd60e51b815260206004820152601e60248201527f676c6f62616c20696e646578206973206f7574206f6620626f756e647321000060448201526064016105e4565b600682815481106108b5576108b5612051565b90600052602060002001549050919050565b6000818152600260205260408120546001600160a01b0316806104d85760405162461bcd60e51b81526004016105e490612067565b806001600160a01b03811661091057600080fd5b506001600160a01b03166000908152600e60205260409020805460ff19166001179055565b6000600f8260405161094791906120a9565b9081526020016040518091039020549050919050565b60006001600160a01b0382166109855760405162461bcd60e51b81526004016105e490612067565b506001600160a01b031660009081526003602052604090205490565b6000816001600160a01b0381166109b757600080fd5b6001600160a01b0383166000908152600e602052604090205460ff1691505b50919050565b80600f836040516109ed91906120a9565b908152604051908190036020019020555050565b84848484846000805b600a54811015610b9a578680519060200120600a8281548110610a2f57610a2f612051565b9060005260206000209060050201600001604051610a4d91906120c5565b6040518091039020148015610aa057508580519060200120600a8281548110610a7857610a78612051565b9060005260206000209060050201600101604051610a9691906120c5565b6040518091039020145b8015610aea57508480519060200120600a8281548110610ac257610ac2612051565b9060005260206000209060050201600201604051610ae091906120c5565b6040518091039020145b8015610b3457508380519060200120600a8281548110610b0c57610b0c612051565b9060005260206000209060050201600301604051610b2a91906120c5565b6040518091039020145b8015610b7e57508280519060200120600a8281548110610b5657610b56612051565b9060005260206000209060050201600401604051610b7491906120c5565b6040518091039020145b15610b8857600191505b80610b9281612151565b915050610a0a565b508015610be95760405162461bcd60e51b815260206004820152601c60248201527f4572726f72205f6e67496e666f20616c7265616479206578697374730000000060448201526064016105e4565b6040805160a0810182528c8152602081018c90529081018a90526060810189905260808101889052600a8054600181018255600091909152815182916005027fc65a7bb8d6351c1cf70c95a316cc6a92839c986682d98bc35f958f4883f9d2a801908190610c5790826121b8565b5060208201516001820190610c6c90826121b8565b5060408201516002820190610c8190826121b8565b5060608201516003820190610c9690826121b8565b5060808201516004820190610cab90826121b8565b5050600b8054600181810183556000928352437f0175b7a638427703f0dbe7bb9bbf987a2551717b34e79f33b5b1008d1fa01db990920191909155600a54919250610cf591612278565b9050610d0133826116cb565b336000908152600c6020908152604080832080546001808201835591855283852001859055938352600d82528220805493840181558252902043910155505050505050505050505050565b610d57838383610762565b6000818152600960209081526040808320546001600160a01b03871684526008909252909120805482908110610d8f57610d8f612051565b6000918252602082200155805b6001600160a01b038516600090815260086020526040902054610dc190600190612278565b811015610eb7576001600160a01b0385166000908152600860205260409020610deb82600161228b565b81548110610dfb57610dfb612051565b906000526020600020015460086000876001600160a01b03166001600160a01b031681526020019081526020016000208281548110610e3c57610e3c612051565b60009182526020808320909101929092556001600160a01b0387168152600890915260408120805483908110610e7457610e74612051565b600091825260208083209091015480835260099091526040822080549193509091610e9e8361229e565b9190505550508080610eaf90612151565b915050610d9c565b506001600160a01b0384166000908152600860205260409020805480610edf57610edf6122b5565b60019003818190600052602060002001600090559055610eff838361172b565b50505050565b6060600180546104ed90611fd8565b336001600160a01b0383168103610f615760405162461bcd60e51b815260206004820152601160248201527030b8383937bb32903a379031b0b63632b960791b60448201526064016105e4565b6001600160a01b03818116600081815260056020908152604080832094881680845294825291829020805460ff191687151590811790915591519182527f17307eab39ab6107e8899845ad3d59bd9653f200f220920489ca2b5937696c31910160405180910390a3505050565b610fd833836114b5565b610ff45760405162461bcd60e51b81526004016105e49061200c565b610eff84848484611767565b61100b838383610d4c565b600081815260076020526040812054905043600b828154811061103057611030612051565b600091825260209091200155610eff826000908152600d6020908152604082208054600181018255908352912043910155565b604080516020810190915260008152606090604051806020016040528060008152505b9392505050565b600b818154811061109d57600080fd5b600091825260209091200154905081565b6001600160a01b03811660009081526008602090815260409182902080548351818402810184019094528084526060939283018282801561075657602002820191906000526020600020908154815260200190600101908083116107425750505050509050919050565b336000908152600c602090815260409182902080548351818402810184019094528084526060939283018282801561056657602002820191906000526020600020905b81548152602001906001019080831161115b575050505050905090565b600080600b838154811061118e5761118e612051565b600091825260209091200154409392505050565b600a81815481106111b257600080fd5b90600052602060002090600502016000915090508060000180546111d590611fd8565b80601f016020809104026020016040519081016040528092919081815260200182805461120190611fd8565b801561124e5780601f106112235761010080835404028352916020019161124e565b820191906000526020600020905b81548152906001019060200180831161123157829003601f168201915b50505050509080600101805461126390611fd8565b80601f016020809104026020016040519081016040528092919081815260200182805461128f90611fd8565b80156112dc5780601f106112b1576101008083540402835291602001916112dc565b820191906000526020600020905b8154815290600101906020018083116112bf57829003601f168201915b5050505050908060020180546112f190611fd8565b80601f016020809104026020016040519081016040528092919081815260200182805461131d90611fd8565b801561136a5780601f1061133f5761010080835404028352916020019161136a565b820191906000526020600020905b81548152906001019060200180831161134d57829003601f168201915b50505050509080600301805461137f90611fd8565b80601f01602080910402602001604051908101604052809291908181526020018280546113ab90611fd8565b80156113f85780601f106113cd576101008083540402835291602001916113f8565b820191906000526020600020905b8154815290600101906020018083116113db57829003601f168201915b50505050509080600401805461140d90611fd8565b80601f016020809104026020016040519081016040528092919081815260200182805461143990611fd8565b80156114865780601f1061145b57610100808354040283529160200191611486565b820191906000526020600020905b81548152906001019060200180831161146957829003601f168201915b5050505050905085565b60006001600160e01b0319821663780e9d6360e01b14806104d857506104d882611870565b6000818152600260205260408120546001600160a01b03166115105760405162461bcd60e51b81526020600482015260146024820152731d1bdad95b88191bdcd9481b9bdd08195e1a5cdd60621b60448201526064016105e4565b600061151b836108c7565b9050806001600160a01b0316846001600160a01b0316148061155657506000838152600460205260409020546001600160a01b038581169116145b949350505050565b826001600160a01b0316611571826108c7565b6001600160a01b0316146115e45760405162461bcd60e51b815260206004820152603460248201527f547279696e6720746f207472616e73666572206120746f6b656e20746865206160448201527364647265737320646f6573206e6f74206f776e2160601b60648201526084016105e4565b6001600160a01b03821661164e5760405162461bcd60e51b815260206004820152602b60248201527f4572726f72202d20455243373231205472616e7366657220746f20746865207a60448201526a65726f206164647265737360a81b60648201526084016105e4565b6001600160a01b038084166000818152600360209081526040808320805460001901905593861680835284832080546001019055858352600290915283822080546001600160a01b031916821790559251849392917fddf252ad1be2c89b69c2b068fc378daa952ba7f163c4a11628f55a4df523b3ef91a4505050565b6116d582826118a5565b6116df828261172b565b61172781600680546000838152600760205260408120829055600182018355919091527ff652222313e28459528d920b65115c16c04f3efc82aaedc97be59f3f377c0d3f0155565b5050565b6001600160a01b039091166000908152600860209081526040808320805460018101825581855283852001859055549383526009909152902055565b61177284848461155e565b61177e848484846119f4565b610eff5760405162461bcd60e51b81526004016105e4906122cb565b81156117c057806117aa81612151565b91506117b99050600a83612333565b915061179a565b60008167ffffffffffffffff8111156117db576117db611c88565b6040519080825280601f01601f191660200182016040528015611805576020820181803683370190505b5090505b84156115565761181a600183612278565b9150611827600a86612347565b61183290603061228b565b60f81b81838151811061184757611847612051565b60200101906001600160f81b031916908160001a905350611869600a86612333565b9450611809565b60006001600160e01b031982166380ac58cd60e01b14806104d857506301ffc9a760e01b6001600160e01b03198316146104d8565b6001600160a01b0382166119075760405162461bcd60e51b815260206004820152602360248201527f4552433732313a206d696e74696e6720746f20746865207a65726f206164647260448201526265737360e81b60648201526084016105e4565b6000818152600260205260409020546001600160a01b03161561196c5760405162461bcd60e51b815260206004820152601c60248201527f4552433732313a20746f6b656e20616c7265616479206d696e7465640000000060448201526064016105e4565b600081815260026020908152604080832080546001600160a01b0319166001600160a01b0387169081179091558352600390915281208054600192906119b390849061228b565b909155505060405181906001600160a01b038416906000907fddf252ad1be2c89b69c2b068fc378daa952ba7f163c4a11628f55a4df523b3ef908290a45050565b60006001600160a01b0384163b15611aea57604051630a85bd0160e11b81526001600160a01b0385169063150b7a0290611a3890339089908890889060040161235b565b6020604051808303816000875af1925050508015611a73575060408051601f3d908101601f19168201909252611a7091810190612398565b60015b611ad0573d808015611aa1576040519150601f19603f3d011682016040523d82523d6000602084013e611aa6565b606091505b508051600003611ac85760405162461bcd60e51b81526004016105e4906122cb565b805181602001fd5b6001600160e01b031916630a85bd0160e11b149050611556565b506001949350505050565b6001600160e01b031981168114611b0b57600080fd5b50565b600060208284031215611b2057600080fd5b813561108681611af5565b60005b83811015611b46578181015183820152602001611b2e565b50506000910152565b60008151808452611b67816020860160208601611b2b565b601f01601f19169290920160200192915050565b6020815260006110866020830184611b4f565b600060208284031215611ba057600080fd5b5035919050565b80356001600160a01b0381168114611bbe57600080fd5b919050565b60008060408385031215611bd657600080fd5b611bdf83611ba7565b946020939093013593505050565b600060208284031215611bff57600080fd5b61108682611ba7565b6020808252825182820181905260009190848201906040850190845b81811015611c4057835183529284019291840191600101611c24565b50909695505050505050565b600080600060608486031215611c6157600080fd5b611c6a84611ba7565b9250611c7860208501611ba7565b9150604084013590509250925092565b634e487b7160e01b600052604160045260246000fd5b600067ffffffffffffffff80841115611cb957611cb9611c88565b604051601f8501601f19908116603f01168101908282118183101715611ce157611ce1611c88565b81604052809350858152868686011115611cfa57600080fd5b858560208301376000602087830101525050509392505050565b600082601f830112611d2557600080fd5b61108683833560208501611c9e565b600060208284031215611d4657600080fd5b813567ffffffffffffffff811115611d5d57600080fd5b61155684828501611d14565b60008060408385031215611d7c57600080fd5b823567ffffffffffffffff811115611d9357600080fd5b611d9f85828601611d14565b95602094909401359450505050565b600080600080600060a08688031215611dc657600080fd5b853567ffffffffffffffff80821115611dde57600080fd5b611dea89838a01611d14565b96506020880135915080821115611e0057600080fd5b611e0c89838a01611d14565b95506040880135915080821115611e2257600080fd5b611e2e89838a01611d14565b94506060880135915080821115611e4457600080fd5b611e5089838a01611d14565b93506080880135915080821115611e6657600080fd5b50611e7388828901611d14565b9150509295509295909350565b60008060408385031215611e9357600080fd5b611e9c83611ba7565b915060208301358015158114611eb157600080fd5b809150509250929050565b60008060008060808587031215611ed257600080fd5b611edb85611ba7565b9350611ee960208601611ba7565b925060408501359150606085013567ffffffffffffffff811115611f0c57600080fd5b8501601f81018713611f1d57600080fd5b611f2c87823560208401611c9e565b91505092959194509250565b60008060408385031215611f4b57600080fd5b611f5483611ba7565b9150611f6260208401611ba7565b90509250929050565b60a081526000611f7e60a0830188611b4f565b8281036020840152611f908188611b4f565b90508281036040840152611fa48187611b4f565b90508281036060840152611fb88186611b4f565b90508281036080840152611fcc8185611b4f565b98975050505050505050565b600181811c90821680611fec57607f821691505b6020821081036109d657634e487b7160e01b600052602260045260246000fd5b60208082526025908201527f73656e646572206973206e6f7420746f6b656e204f776e6572206f72204170706040820152641c9bdd995960da1b606082015260800190565b634e487b7160e01b600052603260045260246000fd5b60208082526022908201527f6f776e657220717565727920666f72206e6f6e2d6578697374656e7420746f6b60408201526132b760f11b606082015260800190565b600082516120bb818460208701611b2b565b9190910192915050565b60008083546120d381611fd8565b600182811680156120eb57600181146121005761212f565b60ff198416875282151583028701945061212f565b8760005260208060002060005b858110156121265781548a82015290840190820161210d565b50505082870194505b50929695505050505050565b634e487b7160e01b600052601160045260246000fd5b6000600182016121635761216361213b565b5060010190565b601f82111561079357600081815260208120601f850160051c810160208610156121915750805b601f850160051c820191505b818110156121b05782815560010161219d565b505050505050565b815167ffffffffffffffff8111156121d2576121d2611c88565b6121e6816121e08454611fd8565b8461216a565b602080601f83116001811461221b57600084156122035750858301515b600019600386901b1c1916600185901b1785556121b0565b600085815260208120601f198616915b8281101561224a5788860151825594840194600190910190840161222b565b50858210156122685787850151600019600388901b60f8161c191681555b5050505050600190811b01905550565b818103818111156104d8576104d861213b565b808201808211156104d8576104d861213b565b6000816122ad576122ad61213b565b506000190190565b634e487b7160e01b600052603160045260246000fd5b60208082526032908201527f4552433732313a207472616e7366657220746f206e6f6e20455243373231526560408201527131b2b4bb32b91034b6b83632b6b2b73a32b960711b606082015260800190565b634e487b7160e01b600052601260045260246000fd5b6000826123425761234261231d565b500490565b6000826123565761235661231d565b500690565b6001600160a01b038581168252841660208201526040810183905260806060820181905260009061238e90830184611b4f565b9695505050505050565b6000602082840312156123aa57600080fd5b815161108681611af556fea26469706673582212208da218d4221eb288f6f6b422c2906729f0cebf05133e26908ee17e34f914b0ad64736f6c63430008110033",
  "immutableReferences": {},
  "source": "// SPDX-License-Identifier: MIT\npragma solidity ^0.8.0;\n\nimport \"./tokens/ERC721/ERC721Connector.sol\";\n\ncontract NG is ERC721Connector {\n    // struct nft    struct  nft \n    struct NGInfo {\n        string brandNm;\n        string productNo;\n        string serialNo;\n        string mfd;\n        string madeIn;\n    }\n\n    NGInfo[] public ngs;\n    // string[] public ngs;\n\n    uint256[] public blockNos;\n    // string[] public txnHashes;\n\n    // minted account address => token ids\n    mapping(address => uint256[]) private _mintedTokens;\n\n    // mapping for block number (previous txn hash)\n    // tokenId => block numbers\n    mapping(uint256 => uint256[]) private _tokenHistory;\n\n    // mapping(NGInfo => bool) _ngExists;\n    // mapping(string => bool) _ngExists;\n\n    mapping(address => uint8) _accountsAuth; // : 0, : 1, : 2\n\n    // txnhash -> tokenid\n    mapping(string => uint256) private _txnHashToTokenId;\n\n    //ng) input: txnhash, output: tokenId\n    function getTokenIdFromTxnHash(string memory _txnHash) public view returns (uint256) {\n        return _txnHashToTokenId[_txnHash];\n    } \n    //ng) input: txnhash & tokenId\n    //ng) mint, transfer front \n    function setTxnHashToTokenId(string memory _txnHash, uint256 _tokenId) public {\n        _txnHashToTokenId[_txnHash] = _tokenId;\n    }\n\n    //ng) msg.sender     (  )\n    function getMintedTokens() public view returns (uint256[] memory) {\n        return _mintedTokens[msg.sender];\n    }\n\n    // function getTxnHash(uint256 _tokenId) public view returns (string memory) {\n    //     return txnHashes[_tokenId];\n    // }\n\n    // function setTxnHash(uint256 _tokenId, string memory _txnHash) public {\n    //     txnHashes[_tokenId] = _txnHash;\n    // }\n\n    function getBlockHash(uint256 _idx) public view returns (bytes32) {\n        uint256 _blockNo = blockNos[_idx];\n        return blockhash(_blockNo);\n    }\n\n    modifier checkZeroAddress(address _address) {\n        require(_address != address(0));\n        _;\n    }\n\n    function getAccountAuth(address _address)\n        public\n        view\n        checkZeroAddress(_address)\n        returns (uint8)\n    {\n        uint8 _auth = _accountsAuth[_address];\n        return _auth;\n    }\n\n    function setBrandAccountAuth(address _address)\n        public\n        checkZeroAddress(_address)\n    {\n        _accountsAuth[_address] = 1;\n    }\n\n    function setAdminAccountAuth(address _address)\n        public\n        checkZeroAddress(_address)\n    {\n        _accountsAuth[_address] = 2;\n    }\n\n    modifier ngExists(\n        string memory _brandNm,\n        string memory _productNo,\n        string memory _serialNo,\n        string memory _mfd,\n        string memory _madeIn\n    ) {\n        bool check = false;\n        for (uint256 i = 0; i < ngs.length; i++) {\n            if (\n                keccak256(bytes(ngs[i].brandNm)) ==\n                keccak256(bytes(_brandNm)) &&\n                keccak256(bytes(ngs[i].productNo)) ==\n                keccak256(bytes(_productNo)) &&\n                keccak256(bytes(ngs[i].serialNo)) ==\n                keccak256(bytes(_serialNo)) &&\n                keccak256(bytes(ngs[i].mfd)) == keccak256(bytes(_mfd)) &&\n                keccak256(bytes(ngs[i].madeIn)) == keccak256(bytes(_madeIn))\n            ) {\n                check = true;\n            }\n        }\n        require(!check, \"Error _ngInfo already exists\");\n        _;\n    }\n\n    function addTokenHistory(uint256 _tokenId) private {\n        _tokenHistory[_tokenId].push(block.number);\n    }\n\n    function getTokenHistory(uint256 tokenId)\n        public\n        view\n        returns (uint256[] memory)\n    {\n        return _tokenHistory[tokenId];\n    }\n\n    function transferNG(\n        address _from,\n        address _to,\n        uint256 _tokenId\n    ) public {\n        _transferNG(_from, _to, _tokenId);\n        uint256 _index = getIndexFromTokenId(_tokenId);\n        blockNos[_index] = block.number;\n\n        addTokenHistory(_tokenId);\n    }\n\n    function mint(\n        string memory _brandNm,\n        string memory _productNo,\n        string memory _serialNo,\n        string memory _mfd,\n        string memory _madeIn\n    ) public ngExists(_brandNm, _productNo, _serialNo, _mfd, _madeIn) {\n        NGInfo memory _ngInfo = NGInfo(\n            _brandNm,\n            _productNo,\n            _serialNo,\n            _mfd,\n            _madeIn\n        );\n        // require(ngs[_ngInfo]!='', 'Error _ngInfo already exists');\n        // require(!_ngExists[_ngInfo], 'Error _ngInfo already exists');\n\n        ngs.push(_ngInfo);\n        blockNos.push(block.number);\n        uint256 _id = ngs.length - 1;\n        _mint(msg.sender, _id);\n\n        _mintedTokens[msg.sender].push(_id);\n        addTokenHistory(_id);\n        // _ngExists[_ngInfo] = true;\n    }\n\n    // function mint(string memory _ng) public {\n    //     require(!_ngExists[_ng], 'Error -ng already exists');\n\n    //     ngs.push(_ng);\n    //     uint256 _id = ngs.length - 1;\n    //     _mint(msg.sender, _id);\n\n    //     _ngExists[_ng] = true;\n    // }\n\n    constructor(string memory named, string memory symbolified)\n        ERC721Connector(named, symbolified)\n    {}\n}\n",
  "sourcePath": "/Users/kimyuri/SSAFY/projects/pjt2/repo/S07P22E206/smart-contracts/src/contracts/NG.sol",
  "compiler": {
    "name": "solc",
    "version": "0.8.17+commit.8df45f5f.Emscripten.clang"
  },
  "schemaVersion": "3.4.9",
  "updatedAt": "2022-09-22T11:02:01.027Z",
  "networkType": "ethereum",
  "devdoc": {
    "kind": "dev",
    "methods": {
      "balanceOf(address)": {
        "details": "Returns the number of tokens in ``owner``'s account."
      },
      "getApproved(uint256)": {
        "details": "Returns the account approved for `tokenId` token. Requirements: - `tokenId` must exist."
      },
      "isApprovedForAll(address,address)": {
        "details": "Returns if the `operator` is allowed to manage all of the assets of `owner`. See {setApprovalForAll}"
      },
      "safeTransferFrom(address,address,uint256)": {
        "details": "Safely transfers `tokenId` token from `from` to `to`, checking first that contract recipients are aware of the ERC721 protocol to prevent tokens from being forever locked. Requirements: - `from` cannot be the zero address. - `to` cannot be the zero address. - `tokenId` token must exist and be owned by `from`. - If the caller is not `from`, it must be have been allowed to move this token by either {approve} or {setApprovalForAll}. - If `to` refers to a smart contract, it must implement {IERC721Receiver-onERC721Received}, which is called upon a safe transfer. Emits a {Transfer} event."
      },
      "safeTransferFrom(address,address,uint256,bytes)": {
        "details": "Safely transfers `tokenId` token from `from` to `to`. Requirements: - `from` cannot be the zero address. - `to` cannot be the zero address. - `tokenId` token must exist and be owned by `from`. - If the caller is not `from`, it must be approved to move this token by either {approve} or {setApprovalForAll}. - If `to` refers to a smart contract, it must implement {IERC721Receiver-onERC721Received}, which is called upon a safe transfer. Emits a {Transfer} event."
      },
      "setApprovalForAll(address,bool)": {
        "details": "Approve or remove `operator` as an operator for the caller. Operators can call {transferFrom} or {safeTransferFrom} for any token owned by the caller. Requirements: - The `operator` cannot be the caller. Emits an {ApprovalForAll} event."
      }
    },
    "version": 1
  },
  "userdoc": {
    "kind": "user",
    "methods": {},
    "version": 1
  }
}