{
  "contractName": "NG",
  "abi": [
    {
      "inputs": [
        {
          "internalType": "string",
          "name": "named",
          "type": "string"
        },
        {
          "internalType": "string",
          "name": "symbolified",
          "type": "string"
        }
      ],
      "stateMutability": "nonpayable",
      "type": "constructor"
    },
    {
      "anonymous": false,
      "inputs": [
        {
          "indexed": true,
          "internalType": "address",
          "name": "owner",
          "type": "address"
        },
        {
          "indexed": true,
          "internalType": "address",
          "name": "approved",
          "type": "address"
        },
        {
          "indexed": true,
          "internalType": "uint256",
          "name": "tokenId",
          "type": "uint256"
        }
      ],
      "name": "Approval",
      "type": "event"
    },
    {
      "anonymous": false,
      "inputs": [
        {
          "indexed": true,
          "internalType": "address",
          "name": "owner",
          "type": "address"
        },
        {
          "indexed": true,
          "internalType": "address",
          "name": "operator",
          "type": "address"
        },
        {
          "indexed": false,
          "internalType": "bool",
          "name": "approved",
          "type": "bool"
        }
      ],
      "name": "ApprovalForAll",
      "type": "event"
    },
    {
      "anonymous": false,
      "inputs": [
        {
          "indexed": true,
          "internalType": "address",
          "name": "from",
          "type": "address"
        },
        {
          "indexed": true,
          "internalType": "address",
          "name": "to",
          "type": "address"
        },
        {
          "indexed": true,
          "internalType": "uint256",
          "name": "tokenId",
          "type": "uint256"
        }
      ],
      "name": "Transfer",
      "type": "event"
    },
    {
      "inputs": [
        {
          "internalType": "address",
          "name": "_from",
          "type": "address"
        },
        {
          "internalType": "address",
          "name": "_to",
          "type": "address"
        },
        {
          "internalType": "uint256",
          "name": "_tokenId",
          "type": "uint256"
        }
      ],
      "name": "_transferNG",
      "outputs": [],
      "stateMutability": "nonpayable",
      "type": "function"
    },
    {
      "inputs": [
        {
          "internalType": "address",
          "name": "_to",
          "type": "address"
        },
        {
          "internalType": "uint256",
          "name": "tokenId",
          "type": "uint256"
        }
      ],
      "name": "approve",
      "outputs": [],
      "stateMutability": "nonpayable",
      "type": "function"
    },
    {
      "inputs": [
        {
          "internalType": "address",
          "name": "owner",
          "type": "address"
        }
      ],
      "name": "balanceOf",
      "outputs": [
        {
          "internalType": "uint256",
          "name": "",
          "type": "uint256"
        }
      ],
      "stateMutability": "view",
      "type": "function",
      "constant": true
    },
    {
      "inputs": [
        {
          "internalType": "uint256",
          "name": "",
          "type": "uint256"
        }
      ],
      "name": "blockNos",
      "outputs": [
        {
          "internalType": "uint256",
          "name": "",
          "type": "uint256"
        }
      ],
      "stateMutability": "view",
      "type": "function",
      "constant": true
    },
    {
      "inputs": [
        {
          "internalType": "uint256",
          "name": "tokenId",
          "type": "uint256"
        }
      ],
      "name": "getApproved",
      "outputs": [
        {
          "internalType": "address",
          "name": "",
          "type": "address"
        }
      ],
      "stateMutability": "view",
      "type": "function",
      "constant": true
    },
    {
      "inputs": [
        {
          "internalType": "uint256",
          "name": "_tokenId",
          "type": "uint256"
        }
      ],
      "name": "getIndexFromTokenId",
      "outputs": [
        {
          "internalType": "uint256",
          "name": "",
          "type": "uint256"
        }
      ],
      "stateMutability": "view",
      "type": "function",
      "constant": true
    },
    {
      "inputs": [
        {
          "internalType": "address",
          "name": "_address",
          "type": "address"
        }
      ],
      "name": "getOwnedTokens",
      "outputs": [
        {
          "internalType": "uint256[]",
          "name": "",
          "type": "uint256[]"
        }
      ],
      "stateMutability": "view",
      "type": "function",
      "constant": true
    },
    {
      "inputs": [
        {
          "internalType": "address",
          "name": "owner",
          "type": "address"
        },
        {
          "internalType": "address",
          "name": "operator",
          "type": "address"
        }
      ],
      "name": "isApprovedForAll",
      "outputs": [
        {
          "internalType": "bool",
          "name": "",
          "type": "bool"
        }
      ],
      "stateMutability": "view",
      "type": "function",
      "constant": true
    },
    {
      "inputs": [],
      "name": "name",
      "outputs": [
        {
          "internalType": "string",
          "name": "",
          "type": "string"
        }
      ],
      "stateMutability": "view",
      "type": "function",
      "constant": true
    },
    {
      "inputs": [
        {
          "internalType": "uint256",
          "name": "",
          "type": "uint256"
        }
      ],
      "name": "ngs",
      "outputs": [
        {
          "internalType": "string",
          "name": "serialNo",
          "type": "string"
        },
        {
          "components": [
            {
              "internalType": "string",
              "name": "brandNm",
              "type": "string"
            },
            {
              "internalType": "string",
              "name": "productName",
              "type": "string"
            },
            {
              "internalType": "string",
              "name": "productNo",
              "type": "string"
            },
            {
              "internalType": "string",
              "name": "mfd",
              "type": "string"
            },
            {
              "internalType": "string",
              "name": "madeIn",
              "type": "string"
            },
            {
              "internalType": "string",
              "name": "price",
              "type": "string"
            }
          ],
          "internalType": "struct NG.Product",
          "name": "product",
          "type": "tuple"
        }
      ],
      "stateMutability": "view",
      "type": "function",
      "constant": true
    },
    {
      "inputs": [
        {
          "internalType": "uint256",
          "name": "_tokenId",
          "type": "uint256"
        }
      ],
      "name": "ownerOf",
      "outputs": [
        {
          "internalType": "address",
          "name": "",
          "type": "address"
        }
      ],
      "stateMutability": "view",
      "type": "function",
      "constant": true
    },
    {
      "inputs": [
        {
          "internalType": "address",
          "name": "from",
          "type": "address"
        },
        {
          "internalType": "address",
          "name": "to",
          "type": "address"
        },
        {
          "internalType": "uint256",
          "name": "tokenId",
          "type": "uint256"
        }
      ],
      "name": "safeTransferFrom",
      "outputs": [],
      "stateMutability": "nonpayable",
      "type": "function"
    },
    {
      "inputs": [
        {
          "internalType": "address",
          "name": "from",
          "type": "address"
        },
        {
          "internalType": "address",
          "name": "to",
          "type": "address"
        },
        {
          "internalType": "uint256",
          "name": "tokenId",
          "type": "uint256"
        },
        {
          "internalType": "bytes",
          "name": "data",
          "type": "bytes"
        }
      ],
      "name": "safeTransferFrom",
      "outputs": [],
      "stateMutability": "nonpayable",
      "type": "function"
    },
    {
      "inputs": [
        {
          "internalType": "address",
          "name": "operator",
          "type": "address"
        },
        {
          "internalType": "bool",
          "name": "_approved",
          "type": "bool"
        }
      ],
      "name": "setApprovalForAll",
      "outputs": [],
      "stateMutability": "nonpayable",
      "type": "function"
    },
    {
      "inputs": [
        {
          "internalType": "bytes4",
          "name": "interfaceId",
          "type": "bytes4"
        }
      ],
      "name": "supportsInterface",
      "outputs": [
        {
          "internalType": "bool",
          "name": "",
          "type": "bool"
        }
      ],
      "stateMutability": "view",
      "type": "function",
      "constant": true
    },
    {
      "inputs": [],
      "name": "symbol",
      "outputs": [
        {
          "internalType": "string",
          "name": "",
          "type": "string"
        }
      ],
      "stateMutability": "view",
      "type": "function",
      "constant": true
    },
    {
      "inputs": [
        {
          "internalType": "uint256",
          "name": "index",
          "type": "uint256"
        }
      ],
      "name": "tokenByIndex",
      "outputs": [
        {
          "internalType": "uint256",
          "name": "",
          "type": "uint256"
        }
      ],
      "stateMutability": "view",
      "type": "function",
      "constant": true
    },
    {
      "inputs": [
        {
          "internalType": "address",
          "name": "owner",
          "type": "address"
        },
        {
          "internalType": "uint256",
          "name": "index",
          "type": "uint256"
        }
      ],
      "name": "tokenOfOwnerByIndex",
      "outputs": [
        {
          "internalType": "uint256",
          "name": "",
          "type": "uint256"
        }
      ],
      "stateMutability": "view",
      "type": "function",
      "constant": true
    },
    {
      "inputs": [
        {
          "internalType": "uint256",
          "name": "tokenId",
          "type": "uint256"
        }
      ],
      "name": "tokenURI",
      "outputs": [
        {
          "internalType": "string",
          "name": "",
          "type": "string"
        }
      ],
      "stateMutability": "view",
      "type": "function",
      "constant": true
    },
    {
      "inputs": [],
      "name": "totalSupply",
      "outputs": [
        {
          "internalType": "uint256",
          "name": "",
          "type": "uint256"
        }
      ],
      "stateMutability": "view",
      "type": "function",
      "constant": true
    },
    {
      "inputs": [
        {
          "internalType": "address",
          "name": "_from",
          "type": "address"
        },
        {
          "internalType": "address",
          "name": "_to",
          "type": "address"
        },
        {
          "internalType": "uint256",
          "name": "_tokenId",
          "type": "uint256"
        }
      ],
      "name": "transferFrom",
      "outputs": [],
      "stateMutability": "nonpayable",
      "type": "function"
    },
    {
      "inputs": [
        {
          "internalType": "address",
          "name": "caller",
          "type": "address"
        }
      ],
      "name": "getAddressToCategorys",
      "outputs": [
        {
          "components": [
            {
              "internalType": "string",
              "name": "brandNm",
              "type": "string"
            },
            {
              "internalType": "string",
              "name": "productName",
              "type": "string"
            },
            {
              "internalType": "string",
              "name": "productNo",
              "type": "string"
            },
            {
              "internalType": "string",
              "name": "mfd",
              "type": "string"
            },
            {
              "internalType": "string",
              "name": "madeIn",
              "type": "string"
            },
            {
              "internalType": "string",
              "name": "price",
              "type": "string"
            }
          ],
          "internalType": "struct NG.Product[]",
          "name": "",
          "type": "tuple[]"
        }
      ],
      "stateMutability": "view",
      "type": "function",
      "constant": true
    },
    {
      "inputs": [
        {
          "internalType": "address",
          "name": "caller",
          "type": "address"
        },
        {
          "internalType": "string",
          "name": "productNo",
          "type": "string"
        }
      ],
      "name": "getCategoryIndex",
      "outputs": [
        {
          "internalType": "uint256",
          "name": "",
          "type": "uint256"
        }
      ],
      "stateMutability": "view",
      "type": "function",
      "constant": true
    },
    {
      "inputs": [
        {
          "internalType": "address",
          "name": "caller",
          "type": "address"
        },
        {
          "internalType": "uint256",
          "name": "categoryIdx",
          "type": "uint256"
        }
      ],
      "name": "getProductidxToNgs",
      "outputs": [
        {
          "components": [
            {
              "internalType": "string",
              "name": "serialNo",
              "type": "string"
            },
            {
              "components": [
                {
                  "internalType": "string",
                  "name": "brandNm",
                  "type": "string"
                },
                {
                  "internalType": "string",
                  "name": "productName",
                  "type": "string"
                },
                {
                  "internalType": "string",
                  "name": "productNo",
                  "type": "string"
                },
                {
                  "internalType": "string",
                  "name": "mfd",
                  "type": "string"
                },
                {
                  "internalType": "string",
                  "name": "madeIn",
                  "type": "string"
                },
                {
                  "internalType": "string",
                  "name": "price",
                  "type": "string"
                }
              ],
              "internalType": "struct NG.Product",
              "name": "product",
              "type": "tuple"
            }
          ],
          "internalType": "struct NG.NGInfo[]",
          "name": "",
          "type": "tuple[]"
        }
      ],
      "stateMutability": "view",
      "type": "function",
      "constant": true
    },
    {
      "inputs": [
        {
          "internalType": "address",
          "name": "caller",
          "type": "address"
        },
        {
          "internalType": "string",
          "name": "productNo",
          "type": "string"
        }
      ],
      "name": "getProductnoToNgs",
      "outputs": [
        {
          "components": [
            {
              "internalType": "string",
              "name": "serialNo",
              "type": "string"
            },
            {
              "components": [
                {
                  "internalType": "string",
                  "name": "brandNm",
                  "type": "string"
                },
                {
                  "internalType": "string",
                  "name": "productName",
                  "type": "string"
                },
                {
                  "internalType": "string",
                  "name": "productNo",
                  "type": "string"
                },
                {
                  "internalType": "string",
                  "name": "mfd",
                  "type": "string"
                },
                {
                  "internalType": "string",
                  "name": "madeIn",
                  "type": "string"
                },
                {
                  "internalType": "string",
                  "name": "price",
                  "type": "string"
                }
              ],
              "internalType": "struct NG.Product",
              "name": "product",
              "type": "tuple"
            }
          ],
          "internalType": "struct NG.NGInfo[]",
          "name": "",
          "type": "tuple[]"
        }
      ],
      "stateMutability": "view",
      "type": "function",
      "constant": true
    },
    {
      "inputs": [
        {
          "internalType": "string",
          "name": "_txnHash",
          "type": "string"
        }
      ],
      "name": "getTokenIdFromTxnHash",
      "outputs": [
        {
          "internalType": "uint256",
          "name": "",
          "type": "uint256"
        }
      ],
      "stateMutability": "view",
      "type": "function",
      "constant": true
    },
    {
      "inputs": [
        {
          "internalType": "string",
          "name": "_txnHash",
          "type": "string"
        },
        {
          "internalType": "uint256",
          "name": "_tokenId",
          "type": "uint256"
        }
      ],
      "name": "setTxnHashToTokenId",
      "outputs": [],
      "stateMutability": "nonpayable",
      "type": "function"
    },
    {
      "inputs": [],
      "name": "getMintedTokens",
      "outputs": [
        {
          "internalType": "uint256[]",
          "name": "",
          "type": "uint256[]"
        }
      ],
      "stateMutability": "view",
      "type": "function",
      "constant": true
    },
    {
      "inputs": [
        {
          "internalType": "uint256",
          "name": "_idx",
          "type": "uint256"
        }
      ],
      "name": "getBlockHash",
      "outputs": [
        {
          "internalType": "bytes32",
          "name": "",
          "type": "bytes32"
        }
      ],
      "stateMutability": "view",
      "type": "function",
      "constant": true
    },
    {
      "inputs": [
        {
          "internalType": "address",
          "name": "_address",
          "type": "address"
        }
      ],
      "name": "getAccountAuth",
      "outputs": [
        {
          "internalType": "uint8",
          "name": "",
          "type": "uint8"
        }
      ],
      "stateMutability": "view",
      "type": "function",
      "constant": true
    },
    {
      "inputs": [
        {
          "internalType": "address",
          "name": "_address",
          "type": "address"
        }
      ],
      "name": "setBrandAccountAuth",
      "outputs": [],
      "stateMutability": "nonpayable",
      "type": "function"
    },
    {
      "inputs": [
        {
          "internalType": "address",
          "name": "_address",
          "type": "address"
        }
      ],
      "name": "setAdminAccountAuth",
      "outputs": [],
      "stateMutability": "nonpayable",
      "type": "function"
    },
    {
      "inputs": [
        {
          "internalType": "uint256",
          "name": "tokenId",
          "type": "uint256"
        }
      ],
      "name": "getTokenHistory",
      "outputs": [
        {
          "internalType": "uint256[]",
          "name": "",
          "type": "uint256[]"
        }
      ],
      "stateMutability": "view",
      "type": "function",
      "constant": true
    },
    {
      "inputs": [
        {
          "internalType": "address",
          "name": "_from",
          "type": "address"
        },
        {
          "internalType": "address",
          "name": "_to",
          "type": "address"
        },
        {
          "internalType": "uint256",
          "name": "_tokenId",
          "type": "uint256"
        }
      ],
      "name": "transferNG",
      "outputs": [],
      "stateMutability": "nonpayable",
      "type": "function"
    },
    {
      "inputs": [
        {
          "internalType": "string",
          "name": "_brandNm",
          "type": "string"
        },
        {
          "internalType": "string",
          "name": "_productName",
          "type": "string"
        },
        {
          "internalType": "string",
          "name": "_productNo",
          "type": "string"
        },
        {
          "internalType": "string",
          "name": "_mfd",
          "type": "string"
        },
        {
          "internalType": "string",
          "name": "_madeIn",
          "type": "string"
        },
        {
          "internalType": "string",
          "name": "_price",
          "type": "string"
        }
      ],
      "name": "addProduct",
      "outputs": [],
      "stateMutability": "nonpayable",
      "type": "function"
    },
    {
      "inputs": [
        {
          "internalType": "string",
          "name": "_productNo",
          "type": "string"
        },
        {
          "internalType": "string",
          "name": "_serialNo",
          "type": "string"
        }
      ],
      "name": "mint",
      "outputs": [],
      "stateMutability": "nonpayable",
      "type": "function"
    }
  ],
  "bytecode": "0x60806040523480156200001157600080fd5b5060405162003ed238038062003ed2833981016040819052620000349162000127565b81818181600062000046838262000220565b50600162000055828262000220565b50505050505050620002ec565b634e487b7160e01b600052604160045260246000fd5b600082601f8301126200008a57600080fd5b81516001600160401b0380821115620000a757620000a762000062565b604051601f8301601f19908116603f01168101908282118183101715620000d257620000d262000062565b81604052838152602092508683858801011115620000ef57600080fd5b600091505b83821015620001135785820183015181830184015290820190620000f4565b600093810190920192909252949350505050565b600080604083850312156200013b57600080fd5b82516001600160401b03808211156200015357600080fd5b620001618683870162000078565b935060208501519150808211156200017857600080fd5b50620001878582860162000078565b9150509250929050565b600181811c90821680620001a657607f821691505b602082108103620001c757634e487b7160e01b600052602260045260246000fd5b50919050565b601f8211156200021b57600081815260208120601f850160051c81016020861015620001f65750805b601f850160051c820191505b81811015620002175782815560010162000202565b5050505b505050565b81516001600160401b038111156200023c576200023c62000062565b62000254816200024d845462000191565b84620001cd565b602080601f8311600181146200028c5760008415620002735750858301515b600019600386901b1c1916600185901b17855562000217565b600085815260208120601f198616915b82811015620002bd578886015182559484019460019091019084016200029c565b5085821015620002dc5787850151600019600388901b60f8161c191681555b5050505050600190811b01905550565b613bd680620002fc6000396000f3fe608060405234801561001057600080fd5b506004361061021c5760003560e01c8063783a229011610125578063b88d4fde116100ad578063d9d616551161007c578063d9d61655146104ef578063dc96529014610502578063e985e9c51461050a578063ee82ac5e14610546578063f4ce94291461055957600080fd5b8063b88d4fde146104a3578063c0fc4048146104b6578063c87b56dd146104c9578063ccfe6d72146104dc57600080fd5b80638d7b0e32116100f45780638d7b0e321461044257806395d89b4114610455578063a22cb4651461045d578063a8a07b3614610470578063b56559b21461049057600080fd5b8063783a2290146103e4578063793467051461040957806383ac6a9d1461041c5780638aa0fdad1461042f57600080fd5b80633eb7ff58116101a85780636352211e116101775780636352211e146103785780636a1869131461038b578063702cc6971461039e57806370a08231146103b157806371c04cb5146103c457600080fd5b80633eb7ff581461031f57806342842e0e146103325780634f6ccce71461034557806362ffa25d1461035857600080fd5b8063100c5631116101ef578063100c5631146102b457806318160ddd146102c75780632142ae2c146102d957806323b872dd146102f95780632f745c591461030c57600080fd5b806301ffc9a71461022157806306fdde0314610249578063081812fc1461025e578063095ea7b31461029f575b600080fd5b61023461022f3660046130f0565b61057a565b60405190151581526020015b60405180910390f35b61025161058b565b604051610240919061315d565b61028761026c366004613170565b6000908152600460205260409020546001600160a01b031690565b6040516001600160a01b039091168152602001610240565b6102b26102ad3660046131a5565b61061d565b005b6102b26102c23660046131cf565b610774565b6006545b604051908152602001610240565b6102ec6102e7366004613170565b6107ad565b60405161024091906131ea565b6102b261030736600461322e565b61080f565b6102cb61031a3660046131a5565b610845565b6102cb61032d366004613316565b6108db565b6102b261034036600461322e565b610918565b6102cb610353366004613170565b610933565b61036b610366366004613316565b6109b1565b6040516102409190613403565b610287610386366004613170565b610e50565b6102b26103993660046131cf565b610e85565b6102cb6103ac366004613488565b610ffe565b6102cb6103bf3660046131cf565b611026565b6103d76103d23660046131cf565b61106a565b60405161024091906134bd565b6103f76103f23660046131cf565b61144b565b60405160ff9091168152602001610240565b6102b261041736600461351f565b611486565b61036b61042a3660046131a5565b6114ab565b6102b261043d366004613564565b61193b565b6102b261045036600461322e565b611e25565b610251611fde565b6102b261046b3660046135be565b611fed565b6102cb61047e366004613170565b60009081526007602052604090205490565b6102b261049e3660046135fa565b6120a7565b6102b26104b13660046136ef565b61246c565b6102b26104c436600461322e565b61249e565b6102516104d7366004613170565b612501565b6102cb6104ea366004613170565b61252b565b6102ec6104fd3660046131cf565b61254c565b6102ec6125b6565b61023461051836600461376b565b6001600160a01b03918216600090815260056020908152604080832093909416825291909152205460ff1690565b6102cb610554366004613170565b612616565b61056c610567366004613170565b612640565b60405161024092919061379e565b600061058582612a72565b92915050565b60606000805461059a906137c3565b80601f01602080910402602001604051908101604052809291908181526020018280546105c6906137c3565b80156106135780601f106105e857610100808354040283529160200191610613565b820191906000526020600020905b8154815290600101906020018083116105f657829003601f168201915b5050505050905090565b600061062882610e50565b9050806001600160a01b0316836001600160a01b03160361069a5760405162461bcd60e51b815260206004820152602160248201527f4572726f72202d20617070726f76616c20746f2063757272656e74206f776e656044820152603960f91b60648201526084015b60405180910390fd5b336001600160a01b03821614806106b657506106b68133610518565b6107185760405162461bcd60e51b815260206004820152602d60248201527f43616c6c6572206973206e6f7420746f6b656e206f776e6572206f722061707060448201526c1c9bdd995908199bdc88185b1b609a1b6064820152608401610691565b60008281526004602052604080822080546001600160a01b0319166001600160a01b0387811691821790925591518593918516917f8c5be1e5ebec7d5bd14f71427d1e84f3dd0314c0f7b2291e5b200ac8c7c3b92591a4505050565b806001600160a01b03811661078857600080fd5b506001600160a01b03166000908152601160205260409020805460ff19166002179055565b60008181526010602090815260409182902080548351818402810184019094528084526060939283018282801561080357602002820191906000526020600020905b8154815260200190600101908083116107ef575b50505050509050919050565b6108193382612a97565b6108355760405162461bcd60e51b8152600401610691906137f7565b610840838383612b40565b505050565b600061085083611026565b821061089e5760405162461bcd60e51b815260206004820152601d60248201527f6f776e657220696e646578206973206f7574206f6620626f756e6473210000006044820152606401610691565b6001600160a01b03831660009081526008602052604090208054839081106108c8576108c861383c565b9060005260206000200154905092915050565b6001600160a01b0382166000908152600b60205260408082209051610901908490613852565b908152602001604051809103902054905092915050565b6108408383836040518060200160405280600081525061246c565b600061093e60065490565b821061098c5760405162461bcd60e51b815260206004820152601e60248201527f676c6f62616c20696e646578206973206f7574206f6620626f756e64732100006044820152606401610691565b6006828154811061099f5761099f61383c565b90600052602060002001549050919050565b606060006109bf84846108db565b6001600160a01b0385166000908152600c602090815260408083208484528252808320805482518185028101850190935280835294955090939092909184015b82821015610e435783829060005260206000209060070201604051806040016040529081600082018054610a32906137c3565b80601f0160208091040260200160405190810160405280929190818152602001828054610a5e906137c3565b8015610aab5780601f10610a8057610100808354040283529160200191610aab565b820191906000526020600020905b815481529060010190602001808311610a8e57829003601f168201915b50505050508152602001600182016040518060c0016040529081600082018054610ad4906137c3565b80601f0160208091040260200160405190810160405280929190818152602001828054610b00906137c3565b8015610b4d5780601f10610b2257610100808354040283529160200191610b4d565b820191906000526020600020905b815481529060010190602001808311610b3057829003601f168201915b50505050508152602001600182018054610b66906137c3565b80601f0160208091040260200160405190810160405280929190818152602001828054610b92906137c3565b8015610bdf5780601f10610bb457610100808354040283529160200191610bdf565b820191906000526020600020905b815481529060010190602001808311610bc257829003601f168201915b50505050508152602001600282018054610bf8906137c3565b80601f0160208091040260200160405190810160405280929190818152602001828054610c24906137c3565b8015610c715780601f10610c4657610100808354040283529160200191610c71565b820191906000526020600020905b815481529060010190602001808311610c5457829003601f168201915b50505050508152602001600382018054610c8a906137c3565b80601f0160208091040260200160405190810160405280929190818152602001828054610cb6906137c3565b8015610d035780601f10610cd857610100808354040283529160200191610d03565b820191906000526020600020905b815481529060010190602001808311610ce657829003601f168201915b50505050508152602001600482018054610d1c906137c3565b80601f0160208091040260200160405190810160405280929190818152602001828054610d48906137c3565b8015610d955780601f10610d6a57610100808354040283529160200191610d95565b820191906000526020600020905b815481529060010190602001808311610d7857829003601f168201915b50505050508152602001600582018054610dae906137c3565b80601f0160208091040260200160405190810160405280929190818152602001828054610dda906137c3565b8015610e275780601f10610dfc57610100808354040283529160200191610e27565b820191906000526020600020905b815481529060010190602001808311610e0a57829003601f168201915b50505050508152505081525050815260200190600101906109ff565b5050505091505092915050565b6000818152600260205260408120546001600160a01b0316806105855760405162461bcd60e51b81526004016106919061386e565b806001600160a01b038116610e9957600080fd5b33610ef55760405162461bcd60e51b815260206004820152602660248201527f72657175657374696e67206163636f756e74206973206e6f74207a65726f2d6160448201526518d8dbdd5b9d60d21b6064820152608401610691565b3360009081526011602052604090205460ff16600214610f615760405162461bcd60e51b815260206004820152602160248201527f72657175657374696e67206163636f756e74206861766520746f2061757468206044820152601960f91b6064820152608401610691565b6001600160a01b03821660009081526011602052604090205460ff1615610fd95760405162461bcd60e51b815260206004820152602660248201527f7265676973746564206163636f756e742069732063616e2774207265676973746044820152651030b3b0b4b760d11b6064820152608401610691565b506001600160a01b03166000908152601160205260409020805460ff19166001179055565b60006012826040516110109190613852565b9081526020016040518091039020549050919050565b60006001600160a01b03821661104e5760405162461bcd60e51b81526004016106919061386e565b506001600160a01b031660009081526003602052604090205490565b6001600160a01b0381166000908152600a60209081526040808320805482518185028101850190935280835260609492939192909184015b8282101561144057838290600052602060002090600602016040518060c00160405290816000820180546110d5906137c3565b80601f0160208091040260200160405190810160405280929190818152602001828054611101906137c3565b801561114e5780601f106111235761010080835404028352916020019161114e565b820191906000526020600020905b81548152906001019060200180831161113157829003601f168201915b50505050508152602001600182018054611167906137c3565b80601f0160208091040260200160405190810160405280929190818152602001828054611193906137c3565b80156111e05780601f106111b5576101008083540402835291602001916111e0565b820191906000526020600020905b8154815290600101906020018083116111c357829003601f168201915b505050505081526020016002820180546111f9906137c3565b80601f0160208091040260200160405190810160405280929190818152602001828054611225906137c3565b80156112725780601f1061124757610100808354040283529160200191611272565b820191906000526020600020905b81548152906001019060200180831161125557829003601f168201915b5050505050815260200160038201805461128b906137c3565b80601f01602080910402602001604051908101604052809291908181526020018280546112b7906137c3565b80156113045780601f106112d957610100808354040283529160200191611304565b820191906000526020600020905b8154815290600101906020018083116112e757829003601f168201915b5050505050815260200160048201805461131d906137c3565b80601f0160208091040260200160405190810160405280929190818152602001828054611349906137c3565b80156113965780601f1061136b57610100808354040283529160200191611396565b820191906000526020600020905b81548152906001019060200180831161137957829003601f168201915b505050505081526020016005820180546113af906137c3565b80601f01602080910402602001604051908101604052809291908181526020018280546113db906137c3565b80156114285780601f106113fd57610100808354040283529160200191611428565b820191906000526020600020905b81548152906001019060200180831161140b57829003601f168201915b505050505081525050815260200190600101906110a2565b505050509050919050565b6000816001600160a01b03811661146157600080fd5b6001600160a01b03831660009081526011602052604090205460ff1691505b50919050565b806012836040516114979190613852565b908152604051908190036020019020555050565b6001600160a01b0382166000908152600c602090815260408083208484528252808320805482518185028101850190935280835260609492939192909184015b8282101561192f578382906000526020600020906007020160405180604001604052908160008201805461151e906137c3565b80601f016020809104026020016040519081016040528092919081815260200182805461154a906137c3565b80156115975780601f1061156c57610100808354040283529160200191611597565b820191906000526020600020905b81548152906001019060200180831161157a57829003601f168201915b50505050508152602001600182016040518060c00160405290816000820180546115c0906137c3565b80601f01602080910402602001604051908101604052809291908181526020018280546115ec906137c3565b80156116395780601f1061160e57610100808354040283529160200191611639565b820191906000526020600020905b81548152906001019060200180831161161c57829003601f168201915b50505050508152602001600182018054611652906137c3565b80601f016020809104026020016040519081016040528092919081815260200182805461167e906137c3565b80156116cb5780601f106116a0576101008083540402835291602001916116cb565b820191906000526020600020905b8154815290600101906020018083116116ae57829003601f168201915b505050505081526020016002820180546116e4906137c3565b80601f0160208091040260200160405190810160405280929190818152602001828054611710906137c3565b801561175d5780601f106117325761010080835404028352916020019161175d565b820191906000526020600020905b81548152906001019060200180831161174057829003601f168201915b50505050508152602001600382018054611776906137c3565b80601f01602080910402602001604051908101604052809291908181526020018280546117a2906137c3565b80156117ef5780601f106117c4576101008083540402835291602001916117ef565b820191906000526020600020905b8154815290600101906020018083116117d257829003601f168201915b50505050508152602001600482018054611808906137c3565b80601f0160208091040260200160405190810160405280929190818152602001828054611834906137c3565b80156118815780601f1061185657610100808354040283529160200191611881565b820191906000526020600020905b81548152906001019060200180831161186457829003601f168201915b5050505050815260200160058201805461189a906137c3565b80601f01602080910402602001604051908101604052809291908181526020018280546118c6906137c3565b80156119135780601f106118e857610100808354040283529160200191611913565b820191906000526020600020905b8154815290600101906020018083116118f657829003601f168201915b50505050508152505081525050815260200190600101906114eb565b50505050905092915050565b8181600080600061194b3361106a565b905060005b81518110156119a25785805190602001208282815181106119735761197361383c565b602002602001015160400151805190602001200361199057600192505b8061199a816138c6565b915050611950565b50336000908152600b602052604080822090516119c0908890613852565b908152602001604051809103902054905060005b336000908152600c60209081526040808320858452909152902054811015611acb578651602080890191909120336000908152600a9092526040909120805484908110611a2357611a2361383c565b9060005260206000209060060201600201604051611a4191906138df565b6040518091039020148015611aaf57508551602080880191909120336000908152600c8352604080822086835290935291909120805483908110611a8757611a8761383c565b9060005260206000209060070201600001604051611aa591906138df565b6040518091039020145b15611ab957600194505b80611ac3816138c6565b9150506119d4565b508315611b1a5760405162461bcd60e51b815260206004820152601c60248201527f4572726f72205f6e67496e666f20616c726561647920657869737473000000006044820152606401610691565b6000611b26338a6108db565b90506000611b333361106a565b9050600060405180604001604052808b8152602001838581518110611b5a57611b5a61383c565b602090810291909101810151909152336000908152600c8252604080822087835283528120805460018101825590825291902082519293508392600790920201908190611ba790826139a3565b506020820151805160018301908190611bc090826139a3565b5060208201516001820190611bd590826139a3565b5060408201516002820190611bea90826139a3565b5060608201516003820190611bff90826139a3565b5060808201516004820190611c1490826139a3565b5060a08201516005820190611c2990826139a3565b5050600d8054600181018255600091909152845185945060079091027fd7b6990105719101dabeb77144f2a3385c8033acd3af97e9423a695e81ad1eb5019250829150611c7690826139a3565b506020820151805160018301908190611c8f90826139a3565b5060208201516001820190611ca490826139a3565b5060408201516002820190611cb990826139a3565b5060608201516003820190611cce90826139a3565b5060808201516004820190611ce390826139a3565b5060a08201516005820190611cf890826139a3565b5050600e8054600181810183556000928352437fbb7b4a454dc3493923482f07822329ed19e8244eff582cc204f8554c3620c3fd90920191909155600d54919450611d4593509150613a63565b3360009081526011602052604081205491925060ff9091169003611dd15760405162461bcd60e51b815260206004820152603b60248201527f4e47203a206d696e742072657175657374732063616e206f6e6c79207265676960448201527f737465726564206163636f756e747320666f7220636f6d70616e7900000000006064820152608401610691565b611ddb3382612cad565b336000908152600f60209081526040808320805460018082018355918552838520018590559383526010825282208054938401815582529020439101555050505050505050505050565b611e3083838361080f565b6000818152600960209081526040808320546001600160a01b03871684526008909252909120805482908110611e6857611e6861383c565b6000918252602082200155805b6001600160a01b038516600090815260086020526040902054611e9a90600190613a63565b811015611f90576001600160a01b0385166000908152600860205260409020611ec4826001613a76565b81548110611ed457611ed461383c565b906000526020600020015460086000876001600160a01b03166001600160a01b031681526020019081526020016000208281548110611f1557611f1561383c565b60009182526020808320909101929092556001600160a01b0387168152600890915260408120805483908110611f4d57611f4d61383c565b600091825260208083209091015480835260099091526040822080549193509091611f7783613a89565b9190505550508080611f88906138c6565b915050611e75565b506001600160a01b0384166000908152600860205260409020805480611fb857611fb8613aa0565b60019003818190600052602060002001600090559055611fd88383612d0d565b50505050565b60606001805461059a906137c3565b336001600160a01b038316810361203a5760405162461bcd60e51b815260206004820152601160248201527030b8383937bb32903a379031b0b63632b960791b6044820152606401610691565b6001600160a01b03818116600081815260056020908152604080832094881680845294825291829020805460ff191687151590811790915591519182527f17307eab39ab6107e8899845ad3d59bd9653f200f220920489ca2b5937696c31910160405180910390a3505050565b8585858585856000805b336000908152600a60205260409020548110156123045787516020808a0191909120336000908152600a90925260409091208054839081106120f5576120f561383c565b906000526020600020906006020160000160405161211391906138df565b604051809103902014801561217857508651602080890191909120336000908152600a90925260409091208054839081106121505761215061383c565b906000526020600020906006020160010160405161216e91906138df565b6040518091039020145b80156121d457508551602080880191909120336000908152600a90925260409091208054839081106121ac576121ac61383c565b90600052602060002090600602016002016040516121ca91906138df565b6040518091039020145b801561223057508451602080870191909120336000908152600a90925260409091208054839081106122085761220861383c565b906000526020600020906006020160030160405161222691906138df565b6040518091039020145b801561228c57508351602080860191909120336000908152600a90925260409091208054839081106122645761226461383c565b906000526020600020906006020160040160405161228291906138df565b6040518091039020145b80156122e857508251602080850191909120336000908152600a90925260409091208054839081106122c0576122c061383c565b90600052602060002090600602016005016040516122de91906138df565b6040518091039020145b156122f257600191505b806122fc816138c6565b9150506120b1565b5080156123535760405162461bcd60e51b815260206004820152601d60248201527f4572726f722043617465676f727920616c7265616479206578697374730000006044820152606401610691565b6040805160c0810182528e815260208082018f90528183018e9052606082018d9052608082018c905260a082018b9052336000908152600a825283812054600b9092528390209251919290916123aa908f90613852565b908152604080516020928190038301902092909255336000908152600a825291822080546001810182559083529120825183926006029091019081906123f090826139a3565b506020820151600182019061240590826139a3565b506040820151600282019061241a90826139a3565b506060820151600382019061242f90826139a3565b506080820151600482019061244490826139a3565b5060a0820151600582019061245990826139a3565b5050505050505050505050505050505050565b6124763383612a97565b6124925760405162461bcd60e51b8152600401610691906137f7565b611fd884848484612d49565b6124a9838383611e25565b600081815260076020526040812054905043600e82815481106124ce576124ce61383c565b600091825260209091200155611fd882600090815260106020908152604082208054600181018255908352912043910155565b604080516020810190915260008152606090604051806020016040528060008152505b9392505050565b600e818154811061253b57600080fd5b600091825260209091200154905081565b6001600160a01b03811660009081526008602090815260409182902080548351818402810184019094528084526060939283018282801561080357602002820191906000526020600020908154815260200190600101908083116107ef5750505050509050919050565b336000908152600f602090815260409182902080548351818402810184019094528084526060939283018282801561061357602002820191906000526020600020905b8154815260200190600101908083116125f9575050505050905090565b600080600e838154811061262c5761262c61383c565b600091825260209091200154409392505050565b600d818154811061265057600080fd5b9060005260206000209060070201600091509050806000018054612673906137c3565b80601f016020809104026020016040519081016040528092919081815260200182805461269f906137c3565b80156126ec5780601f106126c1576101008083540402835291602001916126ec565b820191906000526020600020905b8154815290600101906020018083116126cf57829003601f168201915b505050505090806001016040518060c0016040529081600082018054612711906137c3565b80601f016020809104026020016040519081016040528092919081815260200182805461273d906137c3565b801561278a5780601f1061275f5761010080835404028352916020019161278a565b820191906000526020600020905b81548152906001019060200180831161276d57829003601f168201915b505050505081526020016001820180546127a3906137c3565b80601f01602080910402602001604051908101604052809291908181526020018280546127cf906137c3565b801561281c5780601f106127f15761010080835404028352916020019161281c565b820191906000526020600020905b8154815290600101906020018083116127ff57829003601f168201915b50505050508152602001600282018054612835906137c3565b80601f0160208091040260200160405190810160405280929190818152602001828054612861906137c3565b80156128ae5780601f10612883576101008083540402835291602001916128ae565b820191906000526020600020905b81548152906001019060200180831161289157829003601f168201915b505050505081526020016003820180546128c7906137c3565b80601f01602080910402602001604051908101604052809291908181526020018280546128f3906137c3565b80156129405780601f1061291557610100808354040283529160200191612940565b820191906000526020600020905b81548152906001019060200180831161292357829003601f168201915b50505050508152602001600482018054612959906137c3565b80601f0160208091040260200160405190810160405280929190818152602001828054612985906137c3565b80156129d25780601f106129a7576101008083540402835291602001916129d2565b820191906000526020600020905b8154815290600101906020018083116129b557829003601f168201915b505050505081526020016005820180546129eb906137c3565b80601f0160208091040260200160405190810160405280929190818152602001828054612a17906137c3565b8015612a645780601f10612a3957610100808354040283529160200191612a64565b820191906000526020600020905b815481529060010190602001808311612a4757829003601f168201915b505050505081525050905082565b60006001600160e01b0319821663780e9d6360e01b1480610585575061058582612e52565b6000818152600260205260408120546001600160a01b0316612af25760405162461bcd60e51b81526020600482015260146024820152731d1bdad95b88191bdcd9481b9bdd08195e1a5cdd60621b6044820152606401610691565b6000612afd83610e50565b9050806001600160a01b0316846001600160a01b03161480612b3857506000838152600460205260409020546001600160a01b038581169116145b949350505050565b826001600160a01b0316612b5382610e50565b6001600160a01b031614612bc65760405162461bcd60e51b815260206004820152603460248201527f547279696e6720746f207472616e73666572206120746f6b656e20746865206160448201527364647265737320646f6573206e6f74206f776e2160601b6064820152608401610691565b6001600160a01b038216612c305760405162461bcd60e51b815260206004820152602b60248201527f4572726f72202d20455243373231205472616e7366657220746f20746865207a60448201526a65726f206164647265737360a81b6064820152608401610691565b6001600160a01b038084166000818152600360209081526040808320805460001901905593861680835284832080546001019055858352600290915283822080546001600160a01b031916821790559251849392917fddf252ad1be2c89b69c2b068fc378daa952ba7f163c4a11628f55a4df523b3ef91a4505050565b612cb78282612e87565b612cc18282612d0d565b612d0981600680546000838152600760205260408120829055600182018355919091527ff652222313e28459528d920b65115c16c04f3efc82aaedc97be59f3f377c0d3f0155565b5050565b6001600160a01b039091166000908152600860209081526040808320805460018101825581855283852001859055549383526009909152902055565b612d54848484612b40565b612d6084848484612fd6565b611fd85760405162461bcd60e51b815260040161069190613ab6565b8115612da25780612d8c816138c6565b9150612d9b9050600a83613b1e565b9150612d7c565b60008167ffffffffffffffff811115612dbd57612dbd61326a565b6040519080825280601f01601f191660200182016040528015612de7576020820181803683370190505b5090505b8415612b3857612dfc600183613a63565b9150612e09600a86613b32565b612e14906030613a76565b60f81b818381518110612e2957612e2961383c565b60200101906001600160f81b031916908160001a905350612e4b600a86613b1e565b9450612deb565b60006001600160e01b031982166380ac58cd60e01b148061058557506301ffc9a760e01b6001600160e01b0319831614610585565b6001600160a01b038216612ee95760405162461bcd60e51b815260206004820152602360248201527f4552433732313a206d696e74696e6720746f20746865207a65726f206164647260448201526265737360e81b6064820152608401610691565b6000818152600260205260409020546001600160a01b031615612f4e5760405162461bcd60e51b815260206004820152601c60248201527f4552433732313a20746f6b656e20616c7265616479206d696e746564000000006044820152606401610691565b600081815260026020908152604080832080546001600160a01b0319166001600160a01b038716908117909155835260039091528120805460019290612f95908490613a76565b909155505060405181906001600160a01b038416906000907fddf252ad1be2c89b69c2b068fc378daa952ba7f163c4a11628f55a4df523b3ef908290a45050565b60006001600160a01b0384163b156130cc57604051630a85bd0160e11b81526001600160a01b0385169063150b7a029061301a903390899088908890600401613b46565b6020604051808303816000875af1925050508015613055575060408051601f3d908101601f1916820190925261305291810190613b83565b60015b6130b2573d808015613083576040519150601f19603f3d011682016040523d82523d6000602084013e613088565b606091505b5080516000036130aa5760405162461bcd60e51b815260040161069190613ab6565b805181602001fd5b6001600160e01b031916630a85bd0160e11b149050612b38565b506001949350505050565b6001600160e01b0319811681146130ed57600080fd5b50565b60006020828403121561310257600080fd5b8135612524816130d7565b60005b83811015613128578181015183820152602001613110565b50506000910152565b6000815180845261314981602086016020860161310d565b601f01601f19169290920160200192915050565b6020815260006125246020830184613131565b60006020828403121561318257600080fd5b5035919050565b80356001600160a01b03811681146131a057600080fd5b919050565b600080604083850312156131b857600080fd5b6131c183613189565b946020939093013593505050565b6000602082840312156131e157600080fd5b61252482613189565b6020808252825182820181905260009190848201906040850190845b8181101561322257835183529284019291840191600101613206565b50909695505050505050565b60008060006060848603121561324357600080fd5b61324c84613189565b925061325a60208501613189565b9150604084013590509250925092565b634e487b7160e01b600052604160045260246000fd5b600067ffffffffffffffff8084111561329b5761329b61326a565b604051601f8501601f19908116603f011681019082821181831017156132c3576132c361326a565b816040528093508581528686860111156132dc57600080fd5b858560208301376000602087830101525050509392505050565b600082601f83011261330757600080fd5b61252483833560208501613280565b6000806040838503121561332957600080fd5b61333283613189565b9150602083013567ffffffffffffffff81111561334e57600080fd5b61335a858286016132f6565b9150509250929050565b6000815160c0845261337960c0850182613131565b9050602083015184820360208601526133928282613131565b915050604083015184820360408601526133ac8282613131565b915050606083015184820360608601526133c68282613131565b915050608083015184820360808601526133e08282613131565b91505060a083015184820360a08601526133fa8282613131565b95945050505050565b60006020808301818452808551808352604092508286019150828160051b87010184880160005b8381101561347a57888303603f190185528151805187855261344e88860182613131565b91890151858303868b01529190506134668183613364565b96890196945050509086019060010161342a565b509098975050505050505050565b60006020828403121561349a57600080fd5b813567ffffffffffffffff8111156134b157600080fd5b612b38848285016132f6565b6000602080830181845280855180835260408601915060408160051b870101925083870160005b8281101561351257603f19888603018452613500858351613364565b945092850192908501906001016134e4565b5092979650505050505050565b6000806040838503121561353257600080fd5b823567ffffffffffffffff81111561354957600080fd5b613555858286016132f6565b95602094909401359450505050565b6000806040838503121561357757600080fd5b823567ffffffffffffffff8082111561358f57600080fd5b61359b868387016132f6565b935060208501359150808211156135b157600080fd5b5061335a858286016132f6565b600080604083850312156135d157600080fd5b6135da83613189565b9150602083013580151581146135ef57600080fd5b809150509250929050565b60008060008060008060c0878903121561361357600080fd5b863567ffffffffffffffff8082111561362b57600080fd5b6136378a838b016132f6565b9750602089013591508082111561364d57600080fd5b6136598a838b016132f6565b9650604089013591508082111561366f57600080fd5b61367b8a838b016132f6565b9550606089013591508082111561369157600080fd5b61369d8a838b016132f6565b945060808901359150808211156136b357600080fd5b6136bf8a838b016132f6565b935060a08901359150808211156136d557600080fd5b506136e289828a016132f6565b9150509295509295509295565b6000806000806080858703121561370557600080fd5b61370e85613189565b935061371c60208601613189565b925060408501359150606085013567ffffffffffffffff81111561373f57600080fd5b8501601f8101871361375057600080fd5b61375f87823560208401613280565b91505092959194509250565b6000806040838503121561377e57600080fd5b61378783613189565b915061379560208401613189565b90509250929050565b6040815260006137b16040830185613131565b82810360208401526133fa8185613364565b600181811c908216806137d757607f821691505b60208210810361148057634e487b7160e01b600052602260045260246000fd5b60208082526025908201527f73656e646572206973206e6f7420746f6b656e204f776e6572206f72204170706040820152641c9bdd995960da1b606082015260800190565b634e487b7160e01b600052603260045260246000fd5b6000825161386481846020870161310d565b9190910192915050565b60208082526022908201527f6f776e657220717565727920666f72206e6f6e2d6578697374656e7420746f6b60408201526132b760f11b606082015260800190565b634e487b7160e01b600052601160045260246000fd5b6000600182016138d8576138d86138b0565b5060010190565b60008083546138ed816137c3565b60018281168015613905576001811461391a57613949565b60ff1984168752821515830287019450613949565b8760005260208060002060005b858110156139405781548a820152908401908201613927565b50505082870194505b50929695505050505050565b601f82111561084057600081815260208120601f850160051c8101602086101561397c5750805b601f850160051c820191505b8181101561399b57828155600101613988565b505050505050565b815167ffffffffffffffff8111156139bd576139bd61326a565b6139d1816139cb84546137c3565b84613955565b602080601f831160018114613a0657600084156139ee5750858301515b600019600386901b1c1916600185901b17855561399b565b600085815260208120601f198616915b82811015613a3557888601518255948401946001909101908401613a16565b5085821015613a535787850151600019600388901b60f8161c191681555b5050505050600190811b01905550565b81810381811115610585576105856138b0565b80820180821115610585576105856138b0565b600081613a9857613a986138b0565b506000190190565b634e487b7160e01b600052603160045260246000fd5b60208082526032908201527f4552433732313a207472616e7366657220746f206e6f6e20455243373231526560408201527131b2b4bb32b91034b6b83632b6b2b73a32b960711b606082015260800190565b634e487b7160e01b600052601260045260246000fd5b600082613b2d57613b2d613b08565b500490565b600082613b4157613b41613b08565b500690565b6001600160a01b0385811682528416602082015260408101839052608060608201819052600090613b7990830184613131565b9695505050505050565b600060208284031215613b9557600080fd5b8151612524816130d756fea2646970667358221220bf57f68123ec1a88c5b6765403e9b328fb54a7c01f998cbc8a4186fc1cf009ea64736f6c63430008110033",
  "immutableReferences": {},
  "source": "// SPDX-License-Identifier: MIT\r\npragma solidity ^0.8.0;\r\n\r\nimport \"./tokens/ERC721/ERC721Connector.sol\";\r\n\r\ncontract NG is ERC721Connector {\r\n    // struct nft    struct  nft \r\n    //   \r\n    struct NGInfo {\r\n        string serialNo;\r\n        Product product;\r\n    }\r\n\r\n    //      struct\r\n    struct Product {\r\n        string brandNm;\r\n        string productName;\r\n        string productNo;\r\n        string mfd;\r\n        string madeIn;\r\n        string price;\r\n    }\r\n\r\n    //    \r\n    mapping(address => Product[]) private brandToProduct;\r\n    //    index\r\n    mapping(address => mapping(string => uint256)) private ProductToIndex;\r\n    //    serial number  \r\n    mapping(address => mapping(uint256 => NGInfo[])) private ProductToNg;\r\n    // tokenId    ngs \r\n    NGInfo[] public ngs;\r\n\r\n    uint256[] public blockNos;\r\n\r\n    // minted account address => token ids\r\n    mapping(address => uint256[]) private _mintedTokens;\r\n\r\n    // mapping for block number (previous txn hash)\r\n    // tokenId => block numbers\r\n    mapping(uint256 => uint256[]) private _tokenHistory;\r\n\r\n    // mapping(NGInfo => bool) _ngExists;\r\n    // mapping(string => bool) _ngExists;\r\n\r\n    mapping(address => uint8) _accountsAuth; // : 0, : 1, : 2\r\n\r\n    // txnhash -> tokenid\r\n    mapping(string => uint256) private _txnHashToTokenId;\r\n\r\n    //       \r\n    function getAddressToCategorys(address caller)\r\n        public\r\n        view\r\n        returns (Product[] memory)\r\n    {\r\n        // return brandToCategory[msg.sender];\r\n        return brandToProduct[caller];\r\n    }\r\n\r\n    //        index \r\n    function getCategoryIndex(address caller, string memory productNo)\r\n        public\r\n        view\r\n        returns (uint256)\r\n    {\r\n        return ProductToIndex[caller][productNo];\r\n    }\r\n\r\n    //      index   \r\n    function getProductidxToNgs(address caller, uint256 categoryIdx)\r\n        public\r\n        view\r\n        returns (NGInfo[] memory)\r\n    {\r\n        return ProductToNg[caller][categoryIdx];\r\n    }\r\n\r\n    //         \r\n    function getProductnoToNgs(address caller, string memory productNo)\r\n        public\r\n        view\r\n        returns (NGInfo[] memory)\r\n    {\r\n        uint256 idx = getCategoryIndex(caller, productNo);\r\n        return ProductToNg[caller][idx];\r\n    }\r\n\r\n    //ng) input: txnhash, output: tokenId\r\n    function getTokenIdFromTxnHash(string memory _txnHash)\r\n        public\r\n        view\r\n        returns (uint256)\r\n    {\r\n        return _txnHashToTokenId[_txnHash];\r\n    }\r\n\r\n    //ng) input: txnhash & tokenId\r\n    //ng) mint, transfer front \r\n    function setTxnHashToTokenId(string memory _txnHash, uint256 _tokenId)\r\n        public\r\n    {\r\n        _txnHashToTokenId[_txnHash] = _tokenId;\r\n    }\r\n\r\n    //ng) msg.sender     (  )\r\n    function getMintedTokens() public view returns (uint256[] memory) {\r\n        return _mintedTokens[msg.sender];\r\n    }\r\n\r\n    // function getTxnHash(uint256 _tokenId) public view returns (string memory) {\r\n    //     return txnHashes[_tokenId];\r\n    // }\r\n\r\n    // function setTxnHash(uint256 _tokenId, string memory _txnHash) public {\r\n    //     txnHashes[_tokenId] = _txnHash;\r\n    // }\r\n\r\n    function getBlockHash(uint256 _idx) public view returns (bytes32) {\r\n        uint256 _blockNo = blockNos[_idx];\r\n        return blockhash(_blockNo);\r\n    }\r\n\r\n    modifier checkZeroAddress(address _address) {\r\n        require(_address != address(0));\r\n        _;\r\n    }\r\n\r\n    function getAccountAuth(address _address)\r\n        public\r\n        view\r\n        checkZeroAddress(_address)\r\n        returns (uint8)\r\n    {\r\n        uint8 _auth = _accountsAuth[_address];\r\n        return _auth;\r\n    }\r\n\r\n    function setBrandAccountAuth(address _address)\r\n        public\r\n        checkZeroAddress(_address)\r\n    {\r\n        //   0 ,       .\r\n        require(\r\n            msg.sender != address(0),\r\n            \"requesting account is not zero-account\"\r\n        );\r\n        require(\r\n            _accountsAuth[msg.sender] == 2,\r\n            \"requesting account have to auth 2\"\r\n        );\r\n\r\n        //      \r\n        require(\r\n            _accountsAuth[_address] == 0,\r\n            \"registed account is can't regist again\"\r\n        );\r\n\r\n        _accountsAuth[_address] = 1;\r\n    }\r\n\r\n    //  ..       ..?\r\n    function setAdminAccountAuth(address _address)\r\n        public\r\n        checkZeroAddress(_address)\r\n    {\r\n        _accountsAuth[_address] = 2;\r\n    }\r\n\r\n    modifier productExists(\r\n        string memory _brandNm,\r\n        string memory _productName,\r\n        string memory _productNo,\r\n        string memory _mfd,\r\n        string memory _madeIn,\r\n        string memory _price\r\n    ) {\r\n        bool check = false;\r\n        for (uint256 i = 0; i < brandToProduct[msg.sender].length; i++) {\r\n            if (\r\n                keccak256(bytes(brandToProduct[msg.sender][i].brandNm)) ==\r\n                keccak256(bytes(_brandNm)) &&\r\n                keccak256(bytes(brandToProduct[msg.sender][i].productName)) ==\r\n                keccak256(bytes(_productName)) &&\r\n                keccak256(bytes(brandToProduct[msg.sender][i].productNo)) ==\r\n                keccak256(bytes(_productNo)) &&\r\n                keccak256(bytes(brandToProduct[msg.sender][i].mfd)) ==\r\n                keccak256(bytes(_mfd)) &&\r\n                keccak256(bytes(brandToProduct[msg.sender][i].madeIn)) ==\r\n                keccak256(bytes(_madeIn)) &&\r\n                keccak256(bytes(brandToProduct[msg.sender][i].price)) ==\r\n                keccak256(bytes(_price))\r\n            ) {\r\n                check = true;\r\n            }\r\n        }\r\n        require(!check, \"Error Category already exists\");\r\n        _;\r\n    }\r\n\r\n    modifier ngExists(string memory _productNo, string memory _serialNo) {\r\n        bool check = false;\r\n        bool hasProduct = false;\r\n        //    \r\n        Product[] memory cates = getAddressToCategorys(msg.sender);\r\n        for (uint256 i = 0; i < cates.length; i++) {\r\n            if (\r\n                keccak256(bytes(cates[i].productNo)) ==\r\n                keccak256(bytes(_productNo))\r\n            ) {\r\n                hasProduct = true;\r\n            }\r\n        }\r\n\r\n        uint256 idx = ProductToIndex[msg.sender][_productNo];\r\n        for (uint256 i = 0; i < ProductToNg[msg.sender][idx].length; i++) {\r\n            if (\r\n                // serialNo  : NFT     \r\n                //       \r\n                keccak256(bytes(brandToProduct[msg.sender][idx].productNo)) ==\r\n                keccak256(bytes(_productNo)) &&\r\n                keccak256(bytes(ProductToNg[msg.sender][idx][i].serialNo)) ==\r\n                keccak256(bytes(_serialNo))\r\n            ) {\r\n                check = true;\r\n            }\r\n        }\r\n        require(!check, \"Error _ngInfo already exists\");\r\n        _;\r\n    }\r\n\r\n    function addTokenHistory(uint256 _tokenId) private {\r\n        _tokenHistory[_tokenId].push(block.number);\r\n    }\r\n\r\n    function getTokenHistory(uint256 tokenId)\r\n        public\r\n        view\r\n        returns (uint256[] memory)\r\n    {\r\n        return _tokenHistory[tokenId];\r\n    }\r\n\r\n    function transferNG(\r\n        address _from,\r\n        address _to,\r\n        uint256 _tokenId\r\n    ) public {\r\n        _transferNG(_from, _to, _tokenId);\r\n        uint256 _index = getIndexFromTokenId(_tokenId);\r\n        blockNos[_index] = block.number;\r\n\r\n        addTokenHistory(_tokenId);\r\n    }\r\n\r\n    function addProduct(\r\n        string memory _brandNm,\r\n        string memory _productName,\r\n        string memory _productNo,\r\n        string memory _mfd,\r\n        string memory _madeIn,\r\n        string memory _price\r\n    )\r\n        public\r\n        productExists(_brandNm, _productName, _productNo, _mfd, _madeIn, _price)\r\n    {\r\n        Product memory category = Product(\r\n            _brandNm,\r\n            _productName,\r\n            _productNo,\r\n            _mfd,\r\n            _madeIn,\r\n            _price\r\n        );\r\n\r\n        ProductToIndex[msg.sender][_productNo] = brandToProduct[msg.sender]\r\n            .length;\r\n\r\n        brandToProduct[msg.sender].push(category);\r\n    }\r\n\r\n    function mint(string memory _productNo, string memory _serialNo)\r\n        public\r\n        ngExists(_productNo, _serialNo)\r\n    {\r\n        uint256 idx = getCategoryIndex(msg.sender, _productNo);\r\n        Product[] memory categotys = getAddressToCategorys(msg.sender);\r\n        NGInfo memory _ngInfo = NGInfo(_serialNo, categotys[idx]);\r\n\r\n        ProductToNg[msg.sender][idx].push(_ngInfo);\r\n        ngs.push(_ngInfo);\r\n        blockNos.push(block.number);\r\n        uint256 _id = ngs.length - 1;\r\n\r\n        // mint  1  2     \r\n        require(\r\n            _accountsAuth[msg.sender] != 0,\r\n            \"NG : mint requests can only registered accounts for company\"\r\n        );\r\n\r\n        _mint(msg.sender, _id);\r\n        _mintedTokens[msg.sender].push(_id);\r\n        addTokenHistory(_id);\r\n        // _ngExists[_ngInfo] = true;\r\n    }\r\n\r\n    constructor(string memory named, string memory symbolified)\r\n        ERC721Connector(named, symbolified)\r\n    {}\r\n}\r\n",
  "sourcePath": "C:\\Users\\SSAFY\\Desktop\\NFT_PJT NG\\S07P22E206\\smart-contracts\\src\\contracts\\NG.sol",
  "compiler": {
    "name": "solc",
    "version": "0.8.17+commit.8df45f5f.Emscripten.clang"
  },
  "schemaVersion": "3.4.9",
  "updatedAt": "2022-09-27T08:46:17.653Z",
  "networkType": "ethereum",
  "devdoc": {
    "kind": "dev",
    "methods": {
      "balanceOf(address)": {
        "details": "Returns the number of tokens in ``owner``'s account."
      },
      "getApproved(uint256)": {
        "details": "Returns the account approved for `tokenId` token. Requirements: - `tokenId` must exist."
      },
      "isApprovedForAll(address,address)": {
        "details": "Returns if the `operator` is allowed to manage all of the assets of `owner`. See {setApprovalForAll}"
      },
      "safeTransferFrom(address,address,uint256)": {
        "details": "Safely transfers `tokenId` token from `from` to `to`, checking first that contract recipients are aware of the ERC721 protocol to prevent tokens from being forever locked. Requirements: - `from` cannot be the zero address. - `to` cannot be the zero address. - `tokenId` token must exist and be owned by `from`. - If the caller is not `from`, it must be have been allowed to move this token by either {approve} or {setApprovalForAll}. - If `to` refers to a smart contract, it must implement {IERC721Receiver-onERC721Received}, which is called upon a safe transfer. Emits a {Transfer} event."
      },
      "safeTransferFrom(address,address,uint256,bytes)": {
        "details": "Safely transfers `tokenId` token from `from` to `to`. Requirements: - `from` cannot be the zero address. - `to` cannot be the zero address. - `tokenId` token must exist and be owned by `from`. - If the caller is not `from`, it must be approved to move this token by either {approve} or {setApprovalForAll}. - If `to` refers to a smart contract, it must implement {IERC721Receiver-onERC721Received}, which is called upon a safe transfer. Emits a {Transfer} event."
      },
      "setApprovalForAll(address,bool)": {
        "details": "Approve or remove `operator` as an operator for the caller. Operators can call {transferFrom} or {safeTransferFrom} for any token owned by the caller. Requirements: - The `operator` cannot be the caller. Emits an {ApprovalForAll} event."
      }
    },
    "version": 1
  },
  "userdoc": {
    "kind": "user",
    "methods": {},
    "version": 1
  }
}