{
  "contractName": "NG",
  "abi": [
    {
      "inputs": [
        {
          "internalType": "string",
          "name": "named",
          "type": "string"
        },
        {
          "internalType": "string",
          "name": "symbolified",
          "type": "string"
        }
      ],
      "stateMutability": "nonpayable",
      "type": "constructor"
    },
    {
      "anonymous": false,
      "inputs": [
        {
          "indexed": true,
          "internalType": "address",
          "name": "owner",
          "type": "address"
        },
        {
          "indexed": true,
          "internalType": "address",
          "name": "approved",
          "type": "address"
        },
        {
          "indexed": true,
          "internalType": "uint256",
          "name": "tokenId",
          "type": "uint256"
        }
      ],
      "name": "Approval",
      "type": "event"
    },
    {
      "anonymous": false,
      "inputs": [
        {
          "indexed": true,
          "internalType": "address",
          "name": "owner",
          "type": "address"
        },
        {
          "indexed": true,
          "internalType": "address",
          "name": "operator",
          "type": "address"
        },
        {
          "indexed": false,
          "internalType": "bool",
          "name": "approved",
          "type": "bool"
        }
      ],
      "name": "ApprovalForAll",
      "type": "event"
    },
    {
      "anonymous": false,
      "inputs": [
        {
          "indexed": true,
          "internalType": "address",
          "name": "from",
          "type": "address"
        },
        {
          "indexed": true,
          "internalType": "address",
          "name": "to",
          "type": "address"
        },
        {
          "indexed": true,
          "internalType": "uint256",
          "name": "tokenId",
          "type": "uint256"
        }
      ],
      "name": "Transfer",
      "type": "event"
    },
    {
      "inputs": [
        {
          "internalType": "address",
          "name": "_to",
          "type": "address"
        },
        {
          "internalType": "uint256",
          "name": "tokenId",
          "type": "uint256"
        }
      ],
      "name": "approve",
      "outputs": [],
      "stateMutability": "nonpayable",
      "type": "function"
    },
    {
      "inputs": [
        {
          "internalType": "address",
          "name": "owner",
          "type": "address"
        }
      ],
      "name": "balanceOf",
      "outputs": [
        {
          "internalType": "uint256",
          "name": "",
          "type": "uint256"
        }
      ],
      "stateMutability": "view",
      "type": "function",
      "constant": true
    },
    {
      "inputs": [
        {
          "internalType": "uint256",
          "name": "tokenId",
          "type": "uint256"
        }
      ],
      "name": "getApproved",
      "outputs": [
        {
          "internalType": "address",
          "name": "",
          "type": "address"
        }
      ],
      "stateMutability": "view",
      "type": "function",
      "constant": true
    },
    {
      "inputs": [
        {
          "internalType": "address",
          "name": "owner",
          "type": "address"
        },
        {
          "internalType": "address",
          "name": "operator",
          "type": "address"
        }
      ],
      "name": "isApprovedForAll",
      "outputs": [
        {
          "internalType": "bool",
          "name": "",
          "type": "bool"
        }
      ],
      "stateMutability": "view",
      "type": "function",
      "constant": true
    },
    {
      "inputs": [],
      "name": "name",
      "outputs": [
        {
          "internalType": "string",
          "name": "",
          "type": "string"
        }
      ],
      "stateMutability": "view",
      "type": "function",
      "constant": true
    },
    {
      "inputs": [
        {
          "internalType": "uint256",
          "name": "",
          "type": "uint256"
        }
      ],
      "name": "ngs",
      "outputs": [
        {
          "internalType": "string",
          "name": "brandNm",
          "type": "string"
        },
        {
          "internalType": "string",
          "name": "productNo",
          "type": "string"
        },
        {
          "internalType": "string",
          "name": "serialNo",
          "type": "string"
        },
        {
          "internalType": "string",
          "name": "mfd",
          "type": "string"
        },
        {
          "internalType": "string",
          "name": "madeIn",
          "type": "string"
        }
      ],
      "stateMutability": "view",
      "type": "function",
      "constant": true
    },
    {
      "inputs": [
        {
          "internalType": "uint256",
          "name": "_tokenId",
          "type": "uint256"
        }
      ],
      "name": "ownerOf",
      "outputs": [
        {
          "internalType": "address",
          "name": "",
          "type": "address"
        }
      ],
      "stateMutability": "view",
      "type": "function",
      "constant": true
    },
    {
      "inputs": [
        {
          "internalType": "address",
          "name": "from",
          "type": "address"
        },
        {
          "internalType": "address",
          "name": "to",
          "type": "address"
        },
        {
          "internalType": "uint256",
          "name": "tokenId",
          "type": "uint256"
        }
      ],
      "name": "safeTransferFrom",
      "outputs": [],
      "stateMutability": "nonpayable",
      "type": "function"
    },
    {
      "inputs": [
        {
          "internalType": "address",
          "name": "from",
          "type": "address"
        },
        {
          "internalType": "address",
          "name": "to",
          "type": "address"
        },
        {
          "internalType": "uint256",
          "name": "tokenId",
          "type": "uint256"
        },
        {
          "internalType": "bytes",
          "name": "data",
          "type": "bytes"
        }
      ],
      "name": "safeTransferFrom",
      "outputs": [],
      "stateMutability": "nonpayable",
      "type": "function"
    },
    {
      "inputs": [
        {
          "internalType": "address",
          "name": "operator",
          "type": "address"
        },
        {
          "internalType": "bool",
          "name": "_approved",
          "type": "bool"
        }
      ],
      "name": "setApprovalForAll",
      "outputs": [],
      "stateMutability": "nonpayable",
      "type": "function"
    },
    {
      "inputs": [
        {
          "internalType": "bytes4",
          "name": "interfaceId",
          "type": "bytes4"
        }
      ],
      "name": "supportsInterface",
      "outputs": [
        {
          "internalType": "bool",
          "name": "",
          "type": "bool"
        }
      ],
      "stateMutability": "view",
      "type": "function",
      "constant": true
    },
    {
      "inputs": [],
      "name": "symbol",
      "outputs": [
        {
          "internalType": "string",
          "name": "",
          "type": "string"
        }
      ],
      "stateMutability": "view",
      "type": "function",
      "constant": true
    },
    {
      "inputs": [
        {
          "internalType": "uint256",
          "name": "index",
          "type": "uint256"
        }
      ],
      "name": "tokenByIndex",
      "outputs": [
        {
          "internalType": "uint256",
          "name": "",
          "type": "uint256"
        }
      ],
      "stateMutability": "view",
      "type": "function",
      "constant": true
    },
    {
      "inputs": [
        {
          "internalType": "address",
          "name": "owner",
          "type": "address"
        },
        {
          "internalType": "uint256",
          "name": "index",
          "type": "uint256"
        }
      ],
      "name": "tokenOfOwnerByIndex",
      "outputs": [
        {
          "internalType": "uint256",
          "name": "",
          "type": "uint256"
        }
      ],
      "stateMutability": "view",
      "type": "function",
      "constant": true
    },
    {
      "inputs": [
        {
          "internalType": "uint256",
          "name": "tokenId",
          "type": "uint256"
        }
      ],
      "name": "tokenURI",
      "outputs": [
        {
          "internalType": "string",
          "name": "",
          "type": "string"
        }
      ],
      "stateMutability": "view",
      "type": "function",
      "constant": true
    },
    {
      "inputs": [],
      "name": "totalSupply",
      "outputs": [
        {
          "internalType": "uint256",
          "name": "",
          "type": "uint256"
        }
      ],
      "stateMutability": "view",
      "type": "function",
      "constant": true
    },
    {
      "inputs": [
        {
          "internalType": "address",
          "name": "_from",
          "type": "address"
        },
        {
          "internalType": "address",
          "name": "_to",
          "type": "address"
        },
        {
          "internalType": "uint256",
          "name": "_tokenId",
          "type": "uint256"
        }
      ],
      "name": "transferFrom",
      "outputs": [],
      "stateMutability": "nonpayable",
      "type": "function"
    },
    {
      "inputs": [
        {
          "internalType": "string",
          "name": "_brandNm",
          "type": "string"
        },
        {
          "internalType": "string",
          "name": "_productNo",
          "type": "string"
        },
        {
          "internalType": "string",
          "name": "_serialNo",
          "type": "string"
        },
        {
          "internalType": "string",
          "name": "_mfd",
          "type": "string"
        },
        {
          "internalType": "string",
          "name": "_madeIn",
          "type": "string"
        }
      ],
      "name": "mint",
      "outputs": [],
      "stateMutability": "nonpayable",
      "type": "function"
    }
  ],
  "bytecode": "0x60806040523480156200001157600080fd5b5060405162001eef38038062001eef833981016040819052620000349162000127565b81818181600062000046838262000220565b50600162000055828262000220565b50505050505050620002ec565b634e487b7160e01b600052604160045260246000fd5b600082601f8301126200008a57600080fd5b81516001600160401b0380821115620000a757620000a762000062565b604051601f8301601f19908116603f01168101908282118183101715620000d257620000d262000062565b81604052838152602092508683858801011115620000ef57600080fd5b600091505b83821015620001135785820183015181830184015290820190620000f4565b600093810190920192909252949350505050565b600080604083850312156200013b57600080fd5b82516001600160401b03808211156200015357600080fd5b620001618683870162000078565b935060208501519150808211156200017857600080fd5b50620001878582860162000078565b9150509250929050565b600181811c90821680620001a657607f821691505b602082108103620001c757634e487b7160e01b600052602260045260246000fd5b50919050565b601f8211156200021b57600081815260208120601f850160051c81016020861015620001f65750805b601f850160051c820191505b81811015620002175782815560010162000202565b5050505b505050565b81516001600160401b038111156200023c576200023c62000062565b62000254816200024d845462000191565b84620001cd565b602080601f8311600181146200028c5760008415620002735750858301515b600019600386901b1c1916600185901b17855562000217565b600085815260208120601f198616915b82811015620002bd578886015182559484019460019091019084016200029c565b5085821015620002dc5787850151600019600388901b60f8161c191681555b5050505050600190811b01905550565b611bf380620002fc6000396000f3fe608060405234801561001057600080fd5b50600436106101165760003560e01c80636352211e116100a2578063a22cb46511610071578063a22cb4651461024d578063b88d4fde14610260578063c87b56dd14610273578063e985e9c514610286578063f4ce9429146102c257600080fd5b80636352211e1461020c57806370a082311461021f57806386833e911461023257806395d89b411461024557600080fd5b806318160ddd116100e957806318160ddd146101ae57806323b872dd146101c05780632f745c59146101d357806342842e0e146101e65780634f6ccce7146101f957600080fd5b806301ffc9a71461011b57806306fdde0314610143578063081812fc14610158578063095ea7b314610199575b600080fd5b61012e610129366004611417565b6102e6565b60405190151581526020015b60405180910390f35b61014b6102f7565b60405161013a9190611484565b610181610166366004611497565b6000908152600460205260409020546001600160a01b031690565b6040516001600160a01b03909116815260200161013a565b6101ac6101a73660046114cc565b610389565b005b6006545b60405190815260200161013a565b6101ac6101ce3660046114f6565b6104e0565b6101b26101e13660046114cc565b610516565b6101ac6101f43660046114f6565b6105ac565b6101b2610207366004611497565b6105c7565b61018161021a366004611497565b610645565b6101b261022d366004611532565b61067a565b6101ac6102403660046115f9565b6106be565b61014b610998565b6101ac61025b3660046116cb565b6109a7565b6101ac61026e366004611707565b610a61565b61014b610281366004611497565b610a99565b61012e610294366004611783565b6001600160a01b03918216600090815260056020908152604080832093909416825291909152205460ff1690565b6102d56102d0366004611497565b610ac3565b60405161013a9594939291906117b6565b60006102f182610db1565b92915050565b60606000805461030690611823565b80601f016020809104026020016040519081016040528092919081815260200182805461033290611823565b801561037f5780601f106103545761010080835404028352916020019161037f565b820191906000526020600020905b81548152906001019060200180831161036257829003601f168201915b5050505050905090565b600061039482610645565b9050806001600160a01b0316836001600160a01b0316036104065760405162461bcd60e51b815260206004820152602160248201527f4572726f72202d20617070726f76616c20746f2063757272656e74206f776e656044820152603960f91b60648201526084015b60405180910390fd5b336001600160a01b038216148061042257506104228133610294565b6104845760405162461bcd60e51b815260206004820152602d60248201527f43616c6c6572206973206e6f7420746f6b656e206f776e6572206f722061707060448201526c1c9bdd995908199bdc88185b1b609a1b60648201526084016103fd565b60008281526004602052604080822080546001600160a01b0319166001600160a01b0387811691821790925591518593918516917f8c5be1e5ebec7d5bd14f71427d1e84f3dd0314c0f7b2291e5b200ac8c7c3b92591a4505050565b6104ea3382610dd6565b6105065760405162461bcd60e51b81526004016103fd9061185d565b610511838383610e7f565b505050565b60006105218361067a565b821061056f5760405162461bcd60e51b815260206004820152601d60248201527f6f776e657220696e646578206973206f7574206f6620626f756e64732100000060448201526064016103fd565b6001600160a01b0383166000908152600860205260409020805483908110610599576105996118a2565b9060005260206000200154905092915050565b61051183838360405180602001604052806000815250610a61565b60006105d260065490565b82106106205760405162461bcd60e51b815260206004820152601e60248201527f676c6f62616c20696e646578206973206f7574206f6620626f756e647321000060448201526064016103fd565b60068281548110610633576106336118a2565b90600052602060002001549050919050565b6000818152600260205260408120546001600160a01b0316806102f15760405162461bcd60e51b81526004016103fd906118b8565b60006001600160a01b0382166106a25760405162461bcd60e51b81526004016103fd906118b8565b506001600160a01b031660009081526003602052604090205490565b84848484846000805b600a54811015610857578680519060200120600a82815481106106ec576106ec6118a2565b906000526020600020906005020160000160405161070a91906118fa565b604051809103902014801561075d57508580519060200120600a8281548110610735576107356118a2565b906000526020600020906005020160010160405161075391906118fa565b6040518091039020145b80156107a757508480519060200120600a828154811061077f5761077f6118a2565b906000526020600020906005020160020160405161079d91906118fa565b6040518091039020145b80156107f157508380519060200120600a82815481106107c9576107c96118a2565b90600052602060002090600502016003016040516107e791906118fa565b6040518091039020145b801561083b57508280519060200120600a8281548110610813576108136118a2565b906000526020600020906005020160040160405161083191906118fa565b6040518091039020145b1561084557600191505b8061084f81611986565b9150506106c7565b5080156108a65760405162461bcd60e51b815260206004820152601c60248201527f4572726f72205f6e67496e666f20616c7265616479206578697374730000000060448201526064016103fd565b6040805160a0810182528c8152602081018c90529081018a90526060810189905260808101889052600a8054600181018255600091909152815182916005027fc65a7bb8d6351c1cf70c95a316cc6a92839c986682d98bc35f958f4883f9d2a80190819061091490826119ed565b506020820151600182019061092990826119ed565b506040820151600282019061093e90826119ed565b506060820151600382019061095390826119ed565b506080820151600482019061096890826119ed565b5050600a546000915061097d90600190611aad565b90506109893382610fec565b50505050505050505050505050565b60606001805461030690611823565b336001600160a01b03831681036109f45760405162461bcd60e51b815260206004820152601160248201527030b8383937bb32903a379031b0b63632b960791b60448201526064016103fd565b6001600160a01b03818116600081815260056020908152604080832094881680845294825291829020805460ff191687151590811790915591519182527f17307eab39ab6107e8899845ad3d59bd9653f200f220920489ca2b5937696c31910160405180910390a3505050565b610a6b3383610dd6565b610a875760405162461bcd60e51b81526004016103fd9061185d565b610a9384848484611070565b50505050565b604080516020810190915260008152606090604051806020016040528060008152505b9392505050565b600a8181548110610ad357600080fd5b9060005260206000209060050201600091509050806000018054610af690611823565b80601f0160208091040260200160405190810160405280929190818152602001828054610b2290611823565b8015610b6f5780601f10610b4457610100808354040283529160200191610b6f565b820191906000526020600020905b815481529060010190602001808311610b5257829003601f168201915b505050505090806001018054610b8490611823565b80601f0160208091040260200160405190810160405280929190818152602001828054610bb090611823565b8015610bfd5780601f10610bd257610100808354040283529160200191610bfd565b820191906000526020600020905b815481529060010190602001808311610be057829003601f168201915b505050505090806002018054610c1290611823565b80601f0160208091040260200160405190810160405280929190818152602001828054610c3e90611823565b8015610c8b5780601f10610c6057610100808354040283529160200191610c8b565b820191906000526020600020905b815481529060010190602001808311610c6e57829003601f168201915b505050505090806003018054610ca090611823565b80601f0160208091040260200160405190810160405280929190818152602001828054610ccc90611823565b8015610d195780601f10610cee57610100808354040283529160200191610d19565b820191906000526020600020905b815481529060010190602001808311610cfc57829003601f168201915b505050505090806004018054610d2e90611823565b80601f0160208091040260200160405190810160405280929190818152602001828054610d5a90611823565b8015610da75780601f10610d7c57610100808354040283529160200191610da7565b820191906000526020600020905b815481529060010190602001808311610d8a57829003601f168201915b5050505050905085565b60006001600160e01b0319821663780e9d6360e01b14806102f157506102f182611179565b6000818152600260205260408120546001600160a01b0316610e315760405162461bcd60e51b81526020600482015260146024820152731d1bdad95b88191bdcd9481b9bdd08195e1a5cdd60621b60448201526064016103fd565b6000610e3c83610645565b9050806001600160a01b0316846001600160a01b03161480610e7757506000838152600460205260409020546001600160a01b038581169116145b949350505050565b826001600160a01b0316610e9282610645565b6001600160a01b031614610f055760405162461bcd60e51b815260206004820152603460248201527f547279696e6720746f207472616e73666572206120746f6b656e20746865206160448201527364647265737320646f6573206e6f74206f776e2160601b60648201526084016103fd565b6001600160a01b038216610f6f5760405162461bcd60e51b815260206004820152602b60248201527f4572726f72202d20455243373231205472616e7366657220746f20746865207a60448201526a65726f206164647265737360a81b60648201526084016103fd565b6001600160a01b038084166000818152600360209081526040808320805460001901905593861680835284832080546001019055858352600290915283822080546001600160a01b031916821790559251849392917fddf252ad1be2c89b69c2b068fc378daa952ba7f163c4a11628f55a4df523b3ef91a4505050565b610ff682826111ae565b6001600160a01b0391909116600090815260086020908152604080832080546001808201835582865284862090910186905590548585526009845282852055600680546007909452918420839055820181559091527ff652222313e28459528d920b65115c16c04f3efc82aaedc97be59f3f377c0d3f0155565b61107b848484610e7f565b611087848484846112fd565b610a935760405162461bcd60e51b81526004016103fd90611ac0565b81156110c957806110b381611986565b91506110c29050600a83611b28565b91506110a3565b60008167ffffffffffffffff8111156110e4576110e461154d565b6040519080825280601f01601f19166020018201604052801561110e576020820181803683370190505b5090505b8415610e7757611123600183611aad565b9150611130600a86611b3c565b61113b906030611b50565b60f81b818381518110611150576111506118a2565b60200101906001600160f81b031916908160001a905350611172600a86611b28565b9450611112565b60006001600160e01b031982166380ac58cd60e01b14806102f157506301ffc9a760e01b6001600160e01b03198316146102f1565b6001600160a01b0382166112105760405162461bcd60e51b815260206004820152602360248201527f4552433732313a206d696e74696e6720746f20746865207a65726f206164647260448201526265737360e81b60648201526084016103fd565b6000818152600260205260409020546001600160a01b0316156112755760405162461bcd60e51b815260206004820152601c60248201527f4552433732313a20746f6b656e20616c7265616479206d696e7465640000000060448201526064016103fd565b600081815260026020908152604080832080546001600160a01b0319166001600160a01b0387169081179091558352600390915281208054600192906112bc908490611b50565b909155505060405181906001600160a01b038416906000907fddf252ad1be2c89b69c2b068fc378daa952ba7f163c4a11628f55a4df523b3ef908290a45050565b60006001600160a01b0384163b156113f357604051630a85bd0160e11b81526001600160a01b0385169063150b7a0290611341903390899088908890600401611b63565b6020604051808303816000875af192505050801561137c575060408051601f3d908101601f1916820190925261137991810190611ba0565b60015b6113d9573d8080156113aa576040519150601f19603f3d011682016040523d82523d6000602084013e6113af565b606091505b5080516000036113d15760405162461bcd60e51b81526004016103fd90611ac0565b805181602001fd5b6001600160e01b031916630a85bd0160e11b149050610e77565b506001949350505050565b6001600160e01b03198116811461141457600080fd5b50565b60006020828403121561142957600080fd5b8135610abc816113fe565b60005b8381101561144f578181015183820152602001611437565b50506000910152565b60008151808452611470816020860160208601611434565b601f01601f19169290920160200192915050565b602081526000610abc6020830184611458565b6000602082840312156114a957600080fd5b5035919050565b80356001600160a01b03811681146114c757600080fd5b919050565b600080604083850312156114df57600080fd5b6114e8836114b0565b946020939093013593505050565b60008060006060848603121561150b57600080fd5b611514846114b0565b9250611522602085016114b0565b9150604084013590509250925092565b60006020828403121561154457600080fd5b610abc826114b0565b634e487b7160e01b600052604160045260246000fd5b600067ffffffffffffffff8084111561157e5761157e61154d565b604051601f8501601f19908116603f011681019082821181831017156115a6576115a661154d565b816040528093508581528686860111156115bf57600080fd5b858560208301376000602087830101525050509392505050565b600082601f8301126115ea57600080fd5b610abc83833560208501611563565b600080600080600060a0868803121561161157600080fd5b853567ffffffffffffffff8082111561162957600080fd5b61163589838a016115d9565b9650602088013591508082111561164b57600080fd5b61165789838a016115d9565b9550604088013591508082111561166d57600080fd5b61167989838a016115d9565b9450606088013591508082111561168f57600080fd5b61169b89838a016115d9565b935060808801359150808211156116b157600080fd5b506116be888289016115d9565b9150509295509295909350565b600080604083850312156116de57600080fd5b6116e7836114b0565b9150602083013580151581146116fc57600080fd5b809150509250929050565b6000806000806080858703121561171d57600080fd5b611726856114b0565b9350611734602086016114b0565b925060408501359150606085013567ffffffffffffffff81111561175757600080fd5b8501601f8101871361176857600080fd5b61177787823560208401611563565b91505092959194509250565b6000806040838503121561179657600080fd5b61179f836114b0565b91506117ad602084016114b0565b90509250929050565b60a0815260006117c960a0830188611458565b82810360208401526117db8188611458565b905082810360408401526117ef8187611458565b905082810360608401526118038186611458565b905082810360808401526118178185611458565b98975050505050505050565b600181811c9082168061183757607f821691505b60208210810361185757634e487b7160e01b600052602260045260246000fd5b50919050565b60208082526025908201527f73656e646572206973206e6f7420746f6b656e204f776e6572206f72204170706040820152641c9bdd995960da1b606082015260800190565b634e487b7160e01b600052603260045260246000fd5b60208082526022908201527f6f776e657220717565727920666f72206e6f6e2d6578697374656e7420746f6b60408201526132b760f11b606082015260800190565b600080835461190881611823565b60018281168015611920576001811461193557611964565b60ff1984168752821515830287019450611964565b8760005260208060002060005b8581101561195b5781548a820152908401908201611942565b50505082870194505b50929695505050505050565b634e487b7160e01b600052601160045260246000fd5b60006001820161199857611998611970565b5060010190565b601f82111561051157600081815260208120601f850160051c810160208610156119c65750805b601f850160051c820191505b818110156119e5578281556001016119d2565b505050505050565b815167ffffffffffffffff811115611a0757611a0761154d565b611a1b81611a158454611823565b8461199f565b602080601f831160018114611a505760008415611a385750858301515b600019600386901b1c1916600185901b1785556119e5565b600085815260208120601f198616915b82811015611a7f57888601518255948401946001909101908401611a60565b5085821015611a9d5787850151600019600388901b60f8161c191681555b5050505050600190811b01905550565b818103818111156102f1576102f1611970565b60208082526032908201527f4552433732313a207472616e7366657220746f206e6f6e20455243373231526560408201527131b2b4bb32b91034b6b83632b6b2b73a32b960711b606082015260800190565b634e487b7160e01b600052601260045260246000fd5b600082611b3757611b37611b12565b500490565b600082611b4b57611b4b611b12565b500690565b808201808211156102f1576102f1611970565b6001600160a01b0385811682528416602082015260408101839052608060608201819052600090611b9690830184611458565b9695505050505050565b600060208284031215611bb257600080fd5b8151610abc816113fe56fea264697066735822122099a9b8765327d2429b982877a50d7b6f31fdf725e4ce04780d879a1fe397a44164736f6c63430008110033",
  "immutableReferences": {},
  "source": "// SPDX-License-Identifier: MIT\npragma solidity ^0.8.0;\n\nimport './tokens/ERC721/ERC721Connector.sol';\n\ncontract NG is ERC721Connector {\n    // struct nft    struct  nft \n    struct NGInfo {\n        string brandNm;\n        string productNo;\n        string serialNo;\n        string mfd;\n        string madeIn;\n    }\n\n    NGInfo[] public ngs;\n    // string[] public ngs;\n\n    // mapping(NGInfo => bool) _ngExists;\n    // mapping(string => bool) _ngExists;\n\n    modifier ngExists(\n        string memory _brandNm,\n        string memory _productNo,\n        string memory _serialNo,\n        string memory _mfd,\n        string memory _madeIn\n    )\n    {\n        bool check = false;\n        for (uint256 i=0; i<ngs.length; i++) {\n            if (keccak256(bytes(ngs[i].brandNm))==keccak256(bytes(_brandNm)) &&\n            keccak256(bytes(ngs[i].productNo))==keccak256(bytes(_productNo)) &&\n            keccak256(bytes(ngs[i].serialNo))==keccak256(bytes(_serialNo)) &&\n            keccak256(bytes(ngs[i].mfd))==keccak256(bytes(_mfd)) &&\n            keccak256(bytes(ngs[i].madeIn))==keccak256(bytes(_madeIn))) {\n                check = true;\n            }\n        }\n        require(!check, 'Error _ngInfo already exists');\n        _;\n    }\n\n    function mint(\n        string memory _brandNm,\n        string memory _productNo,\n        string memory _serialNo,\n        string memory _mfd,\n        string memory _madeIn\n        ) \n        public \n        ngExists(\n            _brandNm,\n            _productNo,\n            _serialNo,\n            _mfd,\n            _madeIn\n        )\n    {\n        NGInfo memory _ngInfo = NGInfo(_brandNm, _productNo, _serialNo, _mfd, _madeIn);\n        // require(ngs[_ngInfo]!='', 'Error _ngInfo already exists');\n        // require(!_ngExists[_ngInfo], 'Error _ngInfo already exists');\n\n        ngs.push(_ngInfo);\n        uint256 _id = ngs.length - 1;\n        _mint(msg.sender, _id);\n\n        // _ngExists[_ngInfo] = true;\n    }\n\n    // function mint(string memory _ng) public {\n    //     require(!_ngExists[_ng], 'Error -ng already exists');\n\n    //     ngs.push(_ng);\n    //     uint256 _id = ngs.length - 1;\n    //     _mint(msg.sender, _id);\n\n    //     _ngExists[_ng] = true;\n    // }\n\n    constructor(string memory named, string memory symbolified) ERC721Connector(named, symbolified){}\n}\n",
  "sourcePath": "/Users/kimyuri/SSAFY/projects/pjt2/repo/S07P22E206/smart-contracts/src/contracts/NG.sol",
  "compiler": {
    "name": "solc",
    "version": "0.8.17+commit.8df45f5f.Emscripten.clang"
  },
  "schemaVersion": "3.4.9",
  "updatedAt": "2022-09-19T01:17:35.725Z",
  "networkType": "ethereum",
  "devdoc": {
    "kind": "dev",
    "methods": {
      "balanceOf(address)": {
        "details": "Returns the number of tokens in ``owner``'s account."
      },
      "getApproved(uint256)": {
        "details": "Returns the account approved for `tokenId` token. Requirements: - `tokenId` must exist."
      },
      "isApprovedForAll(address,address)": {
        "details": "Returns if the `operator` is allowed to manage all of the assets of `owner`. See {setApprovalForAll}"
      },
      "safeTransferFrom(address,address,uint256)": {
        "details": "Safely transfers `tokenId` token from `from` to `to`, checking first that contract recipients are aware of the ERC721 protocol to prevent tokens from being forever locked. Requirements: - `from` cannot be the zero address. - `to` cannot be the zero address. - `tokenId` token must exist and be owned by `from`. - If the caller is not `from`, it must be have been allowed to move this token by either {approve} or {setApprovalForAll}. - If `to` refers to a smart contract, it must implement {IERC721Receiver-onERC721Received}, which is called upon a safe transfer. Emits a {Transfer} event."
      },
      "safeTransferFrom(address,address,uint256,bytes)": {
        "details": "Safely transfers `tokenId` token from `from` to `to`. Requirements: - `from` cannot be the zero address. - `to` cannot be the zero address. - `tokenId` token must exist and be owned by `from`. - If the caller is not `from`, it must be approved to move this token by either {approve} or {setApprovalForAll}. - If `to` refers to a smart contract, it must implement {IERC721Receiver-onERC721Received}, which is called upon a safe transfer. Emits a {Transfer} event."
      },
      "setApprovalForAll(address,bool)": {
        "details": "Approve or remove `operator` as an operator for the caller. Operators can call {transferFrom} or {safeTransferFrom} for any token owned by the caller. Requirements: - The `operator` cannot be the caller. Emits an {ApprovalForAll} event."
      }
    },
    "version": 1
  },
  "userdoc": {
    "kind": "user",
    "methods": {},
    "version": 1
  }
}