{
  "contractName": "NG",
  "abi": [
    {
      "inputs": [
        {
          "internalType": "string",
          "name": "named",
          "type": "string"
        },
        {
          "internalType": "string",
          "name": "symbolified",
          "type": "string"
        }
      ],
      "stateMutability": "nonpayable",
      "type": "constructor"
    },
    {
      "anonymous": false,
      "inputs": [
        {
          "indexed": true,
          "internalType": "address",
          "name": "owner",
          "type": "address"
        },
        {
          "indexed": true,
          "internalType": "address",
          "name": "approved",
          "type": "address"
        },
        {
          "indexed": true,
          "internalType": "uint256",
          "name": "tokenId",
          "type": "uint256"
        }
      ],
      "name": "Approval",
      "type": "event"
    },
    {
      "anonymous": false,
      "inputs": [
        {
          "indexed": true,
          "internalType": "address",
          "name": "owner",
          "type": "address"
        },
        {
          "indexed": true,
          "internalType": "address",
          "name": "operator",
          "type": "address"
        },
        {
          "indexed": false,
          "internalType": "bool",
          "name": "approved",
          "type": "bool"
        }
      ],
      "name": "ApprovalForAll",
      "type": "event"
    },
    {
      "anonymous": false,
      "inputs": [
        {
          "indexed": true,
          "internalType": "address",
          "name": "from",
          "type": "address"
        },
        {
          "indexed": true,
          "internalType": "address",
          "name": "to",
          "type": "address"
        },
        {
          "indexed": true,
          "internalType": "uint256",
          "name": "tokenId",
          "type": "uint256"
        }
      ],
      "name": "Transfer",
      "type": "event"
    },
    {
      "inputs": [
        {
          "internalType": "address",
          "name": "_to",
          "type": "address"
        },
        {
          "internalType": "uint256",
          "name": "tokenId",
          "type": "uint256"
        }
      ],
      "name": "approve",
      "outputs": [],
      "stateMutability": "nonpayable",
      "type": "function"
    },
    {
      "inputs": [
        {
          "internalType": "address",
          "name": "owner",
          "type": "address"
        }
      ],
      "name": "balanceOf",
      "outputs": [
        {
          "internalType": "uint256",
          "name": "",
          "type": "uint256"
        }
      ],
      "stateMutability": "view",
      "type": "function",
      "constant": true
    },
    {
      "inputs": [
        {
          "internalType": "uint256",
          "name": "tokenId",
          "type": "uint256"
        }
      ],
      "name": "getApproved",
      "outputs": [
        {
          "internalType": "address",
          "name": "",
          "type": "address"
        }
      ],
      "stateMutability": "view",
      "type": "function",
      "constant": true
    },
    {
      "inputs": [
        {
          "internalType": "address",
          "name": "owner",
          "type": "address"
        },
        {
          "internalType": "address",
          "name": "operator",
          "type": "address"
        }
      ],
      "name": "isApprovedForAll",
      "outputs": [
        {
          "internalType": "bool",
          "name": "",
          "type": "bool"
        }
      ],
      "stateMutability": "view",
      "type": "function",
      "constant": true
    },
    {
      "inputs": [],
      "name": "name",
      "outputs": [
        {
          "internalType": "string",
          "name": "",
          "type": "string"
        }
      ],
      "stateMutability": "view",
      "type": "function",
      "constant": true
    },
    {
      "inputs": [
        {
          "internalType": "uint256",
          "name": "",
          "type": "uint256"
        }
      ],
      "name": "ngs",
      "outputs": [
        {
          "internalType": "string",
          "name": "",
          "type": "string"
        }
      ],
      "stateMutability": "view",
      "type": "function",
      "constant": true
    },
    {
      "inputs": [
        {
          "internalType": "uint256",
          "name": "_tokenId",
          "type": "uint256"
        }
      ],
      "name": "ownerOf",
      "outputs": [
        {
          "internalType": "address",
          "name": "",
          "type": "address"
        }
      ],
      "stateMutability": "view",
      "type": "function",
      "constant": true
    },
    {
      "inputs": [
        {
          "internalType": "address",
          "name": "from",
          "type": "address"
        },
        {
          "internalType": "address",
          "name": "to",
          "type": "address"
        },
        {
          "internalType": "uint256",
          "name": "tokenId",
          "type": "uint256"
        }
      ],
      "name": "safeTransferFrom",
      "outputs": [],
      "stateMutability": "nonpayable",
      "type": "function"
    },
    {
      "inputs": [
        {
          "internalType": "address",
          "name": "from",
          "type": "address"
        },
        {
          "internalType": "address",
          "name": "to",
          "type": "address"
        },
        {
          "internalType": "uint256",
          "name": "tokenId",
          "type": "uint256"
        },
        {
          "internalType": "bytes",
          "name": "data",
          "type": "bytes"
        }
      ],
      "name": "safeTransferFrom",
      "outputs": [],
      "stateMutability": "nonpayable",
      "type": "function"
    },
    {
      "inputs": [
        {
          "internalType": "address",
          "name": "operator",
          "type": "address"
        },
        {
          "internalType": "bool",
          "name": "_approved",
          "type": "bool"
        }
      ],
      "name": "setApprovalForAll",
      "outputs": [],
      "stateMutability": "nonpayable",
      "type": "function"
    },
    {
      "inputs": [
        {
          "internalType": "bytes4",
          "name": "interfaceId",
          "type": "bytes4"
        }
      ],
      "name": "supportsInterface",
      "outputs": [
        {
          "internalType": "bool",
          "name": "",
          "type": "bool"
        }
      ],
      "stateMutability": "view",
      "type": "function",
      "constant": true
    },
    {
      "inputs": [],
      "name": "symbol",
      "outputs": [
        {
          "internalType": "string",
          "name": "",
          "type": "string"
        }
      ],
      "stateMutability": "view",
      "type": "function",
      "constant": true
    },
    {
      "inputs": [
        {
          "internalType": "uint256",
          "name": "index",
          "type": "uint256"
        }
      ],
      "name": "tokenByIndex",
      "outputs": [
        {
          "internalType": "uint256",
          "name": "",
          "type": "uint256"
        }
      ],
      "stateMutability": "view",
      "type": "function",
      "constant": true
    },
    {
      "inputs": [
        {
          "internalType": "address",
          "name": "owner",
          "type": "address"
        },
        {
          "internalType": "uint256",
          "name": "index",
          "type": "uint256"
        }
      ],
      "name": "tokenOfOwnerByIndex",
      "outputs": [
        {
          "internalType": "uint256",
          "name": "",
          "type": "uint256"
        }
      ],
      "stateMutability": "view",
      "type": "function",
      "constant": true
    },
    {
      "inputs": [
        {
          "internalType": "uint256",
          "name": "tokenId",
          "type": "uint256"
        }
      ],
      "name": "tokenURI",
      "outputs": [
        {
          "internalType": "string",
          "name": "",
          "type": "string"
        }
      ],
      "stateMutability": "view",
      "type": "function",
      "constant": true
    },
    {
      "inputs": [],
      "name": "totalSupply",
      "outputs": [
        {
          "internalType": "uint256",
          "name": "",
          "type": "uint256"
        }
      ],
      "stateMutability": "view",
      "type": "function",
      "constant": true
    },
    {
      "inputs": [
        {
          "internalType": "address",
          "name": "_from",
          "type": "address"
        },
        {
          "internalType": "address",
          "name": "_to",
          "type": "address"
        },
        {
          "internalType": "uint256",
          "name": "_tokenId",
          "type": "uint256"
        }
      ],
      "name": "transferFrom",
      "outputs": [],
      "stateMutability": "nonpayable",
      "type": "function"
    },
    {
      "inputs": [
        {
          "internalType": "string",
          "name": "_ng",
          "type": "string"
        }
      ],
      "name": "mint",
      "outputs": [],
      "stateMutability": "nonpayable",
      "type": "function"
    }
  ],
  "bytecode": "0x60806040523480156200001157600080fd5b506040516200195338038062001953833981016040819052620000349162000127565b81818181600062000046838262000220565b50600162000055828262000220565b50505050505050620002ec565b634e487b7160e01b600052604160045260246000fd5b600082601f8301126200008a57600080fd5b81516001600160401b0380821115620000a757620000a762000062565b604051601f8301601f19908116603f01168101908282118183101715620000d257620000d262000062565b81604052838152602092508683858801011115620000ef57600080fd5b600091505b83821015620001135785820183015181830184015290820190620000f4565b600093810190920192909252949350505050565b600080604083850312156200013b57600080fd5b82516001600160401b03808211156200015357600080fd5b620001618683870162000078565b935060208501519150808211156200017857600080fd5b50620001878582860162000078565b9150509250929050565b600181811c90821680620001a657607f821691505b602082108103620001c757634e487b7160e01b600052602260045260246000fd5b50919050565b601f8211156200021b57600081815260208120601f850160051c81016020861015620001f65750805b601f850160051c820191505b81811015620002175782815560010162000202565b5050505b505050565b81516001600160401b038111156200023c576200023c62000062565b62000254816200024d845462000191565b84620001cd565b602080601f8311600181146200028c5760008415620002735750858301515b600019600386901b1c1916600185901b17855562000217565b600085815260208120601f198616915b82811015620002bd578886015182559484019460019091019084016200029c565b5085821015620002dc5787850151600019600388901b60f8161c191681555b5050505050600190811b01905550565b61165780620002fc6000396000f3fe608060405234801561001057600080fd5b50600436106101165760003560e01c80636352211e116100a2578063b88d4fde11610071578063b88d4fde1461024d578063c87b56dd14610260578063d85d3d2714610273578063e985e9c514610286578063f4ce9429146102c257600080fd5b80636352211e1461020c57806370a082311461021f57806395d89b4114610232578063a22cb4651461023a57600080fd5b806318160ddd116100e957806318160ddd146101ae57806323b872dd146101c05780632f745c59146101d357806342842e0e146101e65780634f6ccce7146101f957600080fd5b806301ffc9a71461011b57806306fdde0314610143578063081812fc14610158578063095ea7b314610199575b600080fd5b61012e610129366004610feb565b6102d5565b60405190151581526020015b60405180910390f35b61014b6102e6565b60405161013a9190611058565b61018161016636600461106b565b6000908152600460205260409020546001600160a01b031690565b6040516001600160a01b03909116815260200161013a565b6101ac6101a73660046110a0565b610378565b005b6006545b60405190815260200161013a565b6101ac6101ce3660046110ca565b6104cf565b6101b26101e13660046110a0565b610505565b6101ac6101f43660046110ca565b61059b565b6101b261020736600461106b565b6105b6565b61018161021a36600461106b565b610634565b6101b261022d366004611106565b610669565b61014b6106ad565b6101ac610248366004611121565b6106bc565b6101ac61025b3660046111e9565b610776565b61014b61026e36600461106b565b6107ae565b6101ac610281366004611265565b6107d8565b61012e6102943660046112ae565b6001600160a01b03918216600090815260056020908152604080832093909416825291909152205460ff1690565b61014b6102d036600461106b565b6108d9565b60006102e082610985565b92915050565b6060600080546102f5906112e1565b80601f0160208091040260200160405190810160405280929190818152602001828054610321906112e1565b801561036e5780601f106103435761010080835404028352916020019161036e565b820191906000526020600020905b81548152906001019060200180831161035157829003601f168201915b5050505050905090565b600061038382610634565b9050806001600160a01b0316836001600160a01b0316036103f55760405162461bcd60e51b815260206004820152602160248201527f4572726f72202d20617070726f76616c20746f2063757272656e74206f776e656044820152603960f91b60648201526084015b60405180910390fd5b336001600160a01b038216148061041157506104118133610294565b6104735760405162461bcd60e51b815260206004820152602d60248201527f43616c6c6572206973206e6f7420746f6b656e206f776e6572206f722061707060448201526c1c9bdd995908199bdc88185b1b609a1b60648201526084016103ec565b60008281526004602052604080822080546001600160a01b0319166001600160a01b0387811691821790925591518593918516917f8c5be1e5ebec7d5bd14f71427d1e84f3dd0314c0f7b2291e5b200ac8c7c3b92591a4505050565b6104d933826109aa565b6104f55760405162461bcd60e51b81526004016103ec9061131b565b610500838383610a53565b505050565b600061051083610669565b821061055e5760405162461bcd60e51b815260206004820152601d60248201527f6f776e657220696e646578206973206f7574206f6620626f756e64732100000060448201526064016103ec565b6001600160a01b038316600090815260086020526040902080548390811061058857610588611360565b9060005260206000200154905092915050565b61050083838360405180602001604052806000815250610776565b60006105c160065490565b821061060f5760405162461bcd60e51b815260206004820152601e60248201527f676c6f62616c20696e646578206973206f7574206f6620626f756e647321000060448201526064016103ec565b6006828154811061062257610622611360565b90600052602060002001549050919050565b6000818152600260205260408120546001600160a01b0316806102e05760405162461bcd60e51b81526004016103ec90611376565b60006001600160a01b0382166106915760405162461bcd60e51b81526004016103ec90611376565b506001600160a01b031660009081526003602052604090205490565b6060600180546102f5906112e1565b336001600160a01b03831681036107095760405162461bcd60e51b815260206004820152601160248201527030b8383937bb32903a379031b0b63632b960791b60448201526064016103ec565b6001600160a01b03818116600081815260056020908152604080832094881680845294825291829020805460ff191687151590811790915591519182527f17307eab39ab6107e8899845ad3d59bd9653f200f220920489ca2b5937696c31910160405180910390a3505050565b61078033836109aa565b61079c5760405162461bcd60e51b81526004016103ec9061131b565b6107a884848484610bc0565b50505050565b604080516020810190915260008152606090604051806020016040528060008152505b9392505050565b600b816040516107e891906113b8565b9081526040519081900360200190205460ff16156108485760405162461bcd60e51b815260206004820152601860248201527f4572726f72202d6e6720616c726561647920657869737473000000000000000060448201526064016103ec565b600a80546001810182556000919091527fc65a7bb8d6351c1cf70c95a316cc6a92839c986682d98bc35f958f4883f9d2a8016108848282611422565b50600a54600090610897906001906114f8565b90506108a33382610cc9565b6001600b836040516108b591906113b8565b908152604051908190036020019020805491151560ff199092169190911790555050565b600a81815481106108e957600080fd5b906000526020600020016000915090508054610904906112e1565b80601f0160208091040260200160405190810160405280929190818152602001828054610930906112e1565b801561097d5780601f106109525761010080835404028352916020019161097d565b820191906000526020600020905b81548152906001019060200180831161096057829003601f168201915b505050505081565b60006001600160e01b0319821663780e9d6360e01b14806102e057506102e082610d4d565b6000818152600260205260408120546001600160a01b0316610a055760405162461bcd60e51b81526020600482015260146024820152731d1bdad95b88191bdcd9481b9bdd08195e1a5cdd60621b60448201526064016103ec565b6000610a1083610634565b9050806001600160a01b0316846001600160a01b03161480610a4b57506000838152600460205260409020546001600160a01b038581169116145b949350505050565b826001600160a01b0316610a6682610634565b6001600160a01b031614610ad95760405162461bcd60e51b815260206004820152603460248201527f547279696e6720746f207472616e73666572206120746f6b656e20746865206160448201527364647265737320646f6573206e6f74206f776e2160601b60648201526084016103ec565b6001600160a01b038216610b435760405162461bcd60e51b815260206004820152602b60248201527f4572726f72202d20455243373231205472616e7366657220746f20746865207a60448201526a65726f206164647265737360a81b60648201526084016103ec565b6001600160a01b038084166000818152600360209081526040808320805460001901905593861680835284832080546001019055858352600290915283822080546001600160a01b031916821790559251849392917fddf252ad1be2c89b69c2b068fc378daa952ba7f163c4a11628f55a4df523b3ef91a4505050565b610bcb848484610a53565b610bd784848484610d82565b6107a85760405162461bcd60e51b81526004016103ec9061150b565b8115610c195780610c038161155d565b9150610c129050600a8361158c565b9150610bf3565b60008167ffffffffffffffff811115610c3457610c3461115d565b6040519080825280601f01601f191660200182016040528015610c5e576020820181803683370190505b5090505b8415610a4b57610c736001836114f8565b9150610c80600a866115a0565b610c8b9060306115b4565b60f81b818381518110610ca057610ca0611360565b60200101906001600160f81b031916908160001a905350610cc2600a8661158c565b9450610c62565b610cd38282610e83565b6001600160a01b0391909116600090815260086020908152604080832080546001808201835582865284862090910186905590548585526009845282852055600680546007909452918420839055820181559091527ff652222313e28459528d920b65115c16c04f3efc82aaedc97be59f3f377c0d3f0155565b60006001600160e01b031982166380ac58cd60e01b14806102e057506301ffc9a760e01b6001600160e01b03198316146102e0565b60006001600160a01b0384163b15610e7857604051630a85bd0160e11b81526001600160a01b0385169063150b7a0290610dc69033908990889088906004016115c7565b6020604051808303816000875af1925050508015610e01575060408051601f3d908101601f19168201909252610dfe91810190611604565b60015b610e5e573d808015610e2f576040519150601f19603f3d011682016040523d82523d6000602084013e610e34565b606091505b508051600003610e565760405162461bcd60e51b81526004016103ec9061150b565b805181602001fd5b6001600160e01b031916630a85bd0160e11b149050610a4b565b506001949350505050565b6001600160a01b038216610ee55760405162461bcd60e51b815260206004820152602360248201527f4552433732313a206d696e74696e6720746f20746865207a65726f206164647260448201526265737360e81b60648201526084016103ec565b6000818152600260205260409020546001600160a01b031615610f4a5760405162461bcd60e51b815260206004820152601c60248201527f4552433732313a20746f6b656e20616c7265616479206d696e7465640000000060448201526064016103ec565b600081815260026020908152604080832080546001600160a01b0319166001600160a01b038716908117909155835260039091528120805460019290610f919084906115b4565b909155505060405181906001600160a01b038416906000907fddf252ad1be2c89b69c2b068fc378daa952ba7f163c4a11628f55a4df523b3ef908290a45050565b6001600160e01b031981168114610fe857600080fd5b50565b600060208284031215610ffd57600080fd5b81356107d181610fd2565b60005b8381101561102357818101518382015260200161100b565b50506000910152565b60008151808452611044816020860160208601611008565b601f01601f19169290920160200192915050565b6020815260006107d1602083018461102c565b60006020828403121561107d57600080fd5b5035919050565b80356001600160a01b038116811461109b57600080fd5b919050565b600080604083850312156110b357600080fd5b6110bc83611084565b946020939093013593505050565b6000806000606084860312156110df57600080fd5b6110e884611084565b92506110f660208501611084565b9150604084013590509250925092565b60006020828403121561111857600080fd5b6107d182611084565b6000806040838503121561113457600080fd5b61113d83611084565b91506020830135801515811461115257600080fd5b809150509250929050565b634e487b7160e01b600052604160045260246000fd5b600067ffffffffffffffff8084111561118e5761118e61115d565b604051601f8501601f19908116603f011681019082821181831017156111b6576111b661115d565b816040528093508581528686860111156111cf57600080fd5b858560208301376000602087830101525050509392505050565b600080600080608085870312156111ff57600080fd5b61120885611084565b935061121660208601611084565b925060408501359150606085013567ffffffffffffffff81111561123957600080fd5b8501601f8101871361124a57600080fd5b61125987823560208401611173565b91505092959194509250565b60006020828403121561127757600080fd5b813567ffffffffffffffff81111561128e57600080fd5b8201601f8101841361129f57600080fd5b610a4b84823560208401611173565b600080604083850312156112c157600080fd5b6112ca83611084565b91506112d860208401611084565b90509250929050565b600181811c908216806112f557607f821691505b60208210810361131557634e487b7160e01b600052602260045260246000fd5b50919050565b60208082526025908201527f73656e646572206973206e6f7420746f6b656e204f776e6572206f72204170706040820152641c9bdd995960da1b606082015260800190565b634e487b7160e01b600052603260045260246000fd5b60208082526022908201527f6f776e657220717565727920666f72206e6f6e2d6578697374656e7420746f6b60408201526132b760f11b606082015260800190565b600082516113ca818460208701611008565b9190910192915050565b601f82111561050057600081815260208120601f850160051c810160208610156113fb5750805b601f850160051c820191505b8181101561141a57828155600101611407565b505050505050565b815167ffffffffffffffff81111561143c5761143c61115d565b6114508161144a84546112e1565b846113d4565b602080601f831160018114611485576000841561146d5750858301515b600019600386901b1c1916600185901b17855561141a565b600085815260208120601f198616915b828110156114b457888601518255948401946001909101908401611495565b50858210156114d25787850151600019600388901b60f8161c191681555b5050505050600190811b01905550565b634e487b7160e01b600052601160045260246000fd5b818103818111156102e0576102e06114e2565b60208082526032908201527f4552433732313a207472616e7366657220746f206e6f6e20455243373231526560408201527131b2b4bb32b91034b6b83632b6b2b73a32b960711b606082015260800190565b60006001820161156f5761156f6114e2565b5060010190565b634e487b7160e01b600052601260045260246000fd5b60008261159b5761159b611576565b500490565b6000826115af576115af611576565b500690565b808201808211156102e0576102e06114e2565b6001600160a01b03858116825284166020820152604081018390526080606082018190526000906115fa9083018461102c565b9695505050505050565b60006020828403121561161657600080fd5b81516107d181610fd256fea2646970667358221220d4f26c0f2057c6a667445a7be63a2d6af6bb2623541c0b656852af0d912b67c864736f6c63430008110033",
  "immutableReferences": {},
  "source": "// SPDX-License-Identifier: MIT\npragma solidity ^0.8.0;\n\nimport './ERC721/ERC721Connector.sol';\n\ncontract NG is ERC721Connector {\n    // struct nft    struct  nft \n    string[] public ngs;\n\n    mapping(string => bool) _ngExists;\n\n    function mint(string memory _ng) public {\n        require(!_ngExists[_ng], 'Error -ng already exists');\n\n        ngs.push(_ng);\n        uint256 _id = ngs.length - 1;\n        _mint(msg.sender, _id);\n\n        _ngExists[_ng] = true;\n    }\n\n    constructor(string memory named, string memory symbolified) ERC721Connector(named, symbolified){}\n}\n",
  "sourcePath": "/Users/kimyuri/SSAFY/projects/pjt2/repo/S07P22E206/smart-contracts/src/contracts/tokens/NG.sol",
  "compiler": {
    "name": "solc",
    "version": "0.8.17+commit.8df45f5f.Emscripten.clang"
  },
  "schemaVersion": "3.4.9",
  "updatedAt": "2022-09-16T07:27:26.338Z",
  "networkType": "ethereum",
  "devdoc": {
    "kind": "dev",
    "methods": {
      "balanceOf(address)": {
        "details": "Returns the number of tokens in ``owner``'s account."
      },
      "getApproved(uint256)": {
        "details": "Returns the account approved for `tokenId` token. Requirements: - `tokenId` must exist."
      },
      "isApprovedForAll(address,address)": {
        "details": "Returns if the `operator` is allowed to manage all of the assets of `owner`. See {setApprovalForAll}"
      },
      "safeTransferFrom(address,address,uint256)": {
        "details": "Safely transfers `tokenId` token from `from` to `to`, checking first that contract recipients are aware of the ERC721 protocol to prevent tokens from being forever locked. Requirements: - `from` cannot be the zero address. - `to` cannot be the zero address. - `tokenId` token must exist and be owned by `from`. - If the caller is not `from`, it must be have been allowed to move this token by either {approve} or {setApprovalForAll}. - If `to` refers to a smart contract, it must implement {IERC721Receiver-onERC721Received}, which is called upon a safe transfer. Emits a {Transfer} event."
      },
      "safeTransferFrom(address,address,uint256,bytes)": {
        "details": "Safely transfers `tokenId` token from `from` to `to`. Requirements: - `from` cannot be the zero address. - `to` cannot be the zero address. - `tokenId` token must exist and be owned by `from`. - If the caller is not `from`, it must be approved to move this token by either {approve} or {setApprovalForAll}. - If `to` refers to a smart contract, it must implement {IERC721Receiver-onERC721Received}, which is called upon a safe transfer. Emits a {Transfer} event."
      },
      "setApprovalForAll(address,bool)": {
        "details": "Approve or remove `operator` as an operator for the caller. Operators can call {transferFrom} or {safeTransferFrom} for any token owned by the caller. Requirements: - The `operator` cannot be the caller. Emits an {ApprovalForAll} event."
      }
    },
    "version": 1
  },
  "userdoc": {
    "kind": "user",
    "methods": {},
    "version": 1
  }
}