{
  "contractName": "NG",
  "abi": [
    {
      "inputs": [
        {
          "internalType": "string",
          "name": "named",
          "type": "string"
        },
        {
          "internalType": "string",
          "name": "symbolified",
          "type": "string"
        }
      ],
      "stateMutability": "nonpayable",
      "type": "constructor"
    },
    {
      "anonymous": false,
      "inputs": [
        {
          "indexed": true,
          "internalType": "address",
          "name": "owner",
          "type": "address"
        },
        {
          "indexed": true,
          "internalType": "address",
          "name": "approved",
          "type": "address"
        },
        {
          "indexed": true,
          "internalType": "uint256",
          "name": "tokenId",
          "type": "uint256"
        }
      ],
      "name": "Approval",
      "type": "event"
    },
    {
      "anonymous": false,
      "inputs": [
        {
          "indexed": true,
          "internalType": "address",
          "name": "owner",
          "type": "address"
        },
        {
          "indexed": true,
          "internalType": "address",
          "name": "operator",
          "type": "address"
        },
        {
          "indexed": false,
          "internalType": "bool",
          "name": "approved",
          "type": "bool"
        }
      ],
      "name": "ApprovalForAll",
      "type": "event"
    },
    {
      "anonymous": false,
      "inputs": [
        {
          "indexed": true,
          "internalType": "address",
          "name": "from",
          "type": "address"
        },
        {
          "indexed": true,
          "internalType": "address",
          "name": "to",
          "type": "address"
        },
        {
          "indexed": true,
          "internalType": "uint256",
          "name": "tokenId",
          "type": "uint256"
        }
      ],
      "name": "Transfer",
      "type": "event"
    },
    {
      "inputs": [
        {
          "internalType": "address",
          "name": "_to",
          "type": "address"
        },
        {
          "internalType": "uint256",
          "name": "tokenId",
          "type": "uint256"
        }
      ],
      "name": "approve",
      "outputs": [],
      "stateMutability": "nonpayable",
      "type": "function"
    },
    {
      "inputs": [
        {
          "internalType": "address",
          "name": "owner",
          "type": "address"
        }
      ],
      "name": "balanceOf",
      "outputs": [
        {
          "internalType": "uint256",
          "name": "",
          "type": "uint256"
        }
      ],
      "stateMutability": "view",
      "type": "function",
      "constant": true
    },
    {
      "inputs": [
        {
          "internalType": "uint256",
          "name": "",
          "type": "uint256"
        }
      ],
      "name": "blockNos",
      "outputs": [
        {
          "internalType": "uint256",
          "name": "",
          "type": "uint256"
        }
      ],
      "stateMutability": "view",
      "type": "function",
      "constant": true
    },
    {
      "inputs": [
        {
          "internalType": "uint256",
          "name": "tokenId",
          "type": "uint256"
        }
      ],
      "name": "getApproved",
      "outputs": [
        {
          "internalType": "address",
          "name": "",
          "type": "address"
        }
      ],
      "stateMutability": "view",
      "type": "function",
      "constant": true
    },
    {
      "inputs": [
        {
          "internalType": "uint256",
          "name": "_tokenId",
          "type": "uint256"
        }
      ],
      "name": "getIndexFromTokenId",
      "outputs": [
        {
          "internalType": "uint256",
          "name": "",
          "type": "uint256"
        }
      ],
      "stateMutability": "view",
      "type": "function",
      "constant": true
    },
    {
      "inputs": [
        {
          "internalType": "address",
          "name": "owner",
          "type": "address"
        },
        {
          "internalType": "address",
          "name": "operator",
          "type": "address"
        }
      ],
      "name": "isApprovedForAll",
      "outputs": [
        {
          "internalType": "bool",
          "name": "",
          "type": "bool"
        }
      ],
      "stateMutability": "view",
      "type": "function",
      "constant": true
    },
    {
      "inputs": [],
      "name": "name",
      "outputs": [
        {
          "internalType": "string",
          "name": "",
          "type": "string"
        }
      ],
      "stateMutability": "view",
      "type": "function",
      "constant": true
    },
    {
      "inputs": [
        {
          "internalType": "uint256",
          "name": "",
          "type": "uint256"
        }
      ],
      "name": "ngs",
      "outputs": [
        {
          "internalType": "string",
          "name": "brandNm",
          "type": "string"
        },
        {
          "internalType": "string",
          "name": "productNo",
          "type": "string"
        },
        {
          "internalType": "string",
          "name": "serialNo",
          "type": "string"
        },
        {
          "internalType": "string",
          "name": "mfd",
          "type": "string"
        },
        {
          "internalType": "string",
          "name": "madeIn",
          "type": "string"
        }
      ],
      "stateMutability": "view",
      "type": "function",
      "constant": true
    },
    {
      "inputs": [
        {
          "internalType": "uint256",
          "name": "_tokenId",
          "type": "uint256"
        }
      ],
      "name": "ownerOf",
      "outputs": [
        {
          "internalType": "address",
          "name": "",
          "type": "address"
        }
      ],
      "stateMutability": "view",
      "type": "function",
      "constant": true
    },
    {
      "inputs": [
        {
          "internalType": "address",
          "name": "from",
          "type": "address"
        },
        {
          "internalType": "address",
          "name": "to",
          "type": "address"
        },
        {
          "internalType": "uint256",
          "name": "tokenId",
          "type": "uint256"
        }
      ],
      "name": "safeTransferFrom",
      "outputs": [],
      "stateMutability": "nonpayable",
      "type": "function"
    },
    {
      "inputs": [
        {
          "internalType": "address",
          "name": "from",
          "type": "address"
        },
        {
          "internalType": "address",
          "name": "to",
          "type": "address"
        },
        {
          "internalType": "uint256",
          "name": "tokenId",
          "type": "uint256"
        },
        {
          "internalType": "bytes",
          "name": "data",
          "type": "bytes"
        }
      ],
      "name": "safeTransferFrom",
      "outputs": [],
      "stateMutability": "nonpayable",
      "type": "function"
    },
    {
      "inputs": [
        {
          "internalType": "address",
          "name": "operator",
          "type": "address"
        },
        {
          "internalType": "bool",
          "name": "_approved",
          "type": "bool"
        }
      ],
      "name": "setApprovalForAll",
      "outputs": [],
      "stateMutability": "nonpayable",
      "type": "function"
    },
    {
      "inputs": [
        {
          "internalType": "bytes4",
          "name": "interfaceId",
          "type": "bytes4"
        }
      ],
      "name": "supportsInterface",
      "outputs": [
        {
          "internalType": "bool",
          "name": "",
          "type": "bool"
        }
      ],
      "stateMutability": "view",
      "type": "function",
      "constant": true
    },
    {
      "inputs": [],
      "name": "symbol",
      "outputs": [
        {
          "internalType": "string",
          "name": "",
          "type": "string"
        }
      ],
      "stateMutability": "view",
      "type": "function",
      "constant": true
    },
    {
      "inputs": [
        {
          "internalType": "uint256",
          "name": "index",
          "type": "uint256"
        }
      ],
      "name": "tokenByIndex",
      "outputs": [
        {
          "internalType": "uint256",
          "name": "",
          "type": "uint256"
        }
      ],
      "stateMutability": "view",
      "type": "function",
      "constant": true
    },
    {
      "inputs": [
        {
          "internalType": "address",
          "name": "owner",
          "type": "address"
        },
        {
          "internalType": "uint256",
          "name": "index",
          "type": "uint256"
        }
      ],
      "name": "tokenOfOwnerByIndex",
      "outputs": [
        {
          "internalType": "uint256",
          "name": "",
          "type": "uint256"
        }
      ],
      "stateMutability": "view",
      "type": "function",
      "constant": true
    },
    {
      "inputs": [
        {
          "internalType": "uint256",
          "name": "tokenId",
          "type": "uint256"
        }
      ],
      "name": "tokenURI",
      "outputs": [
        {
          "internalType": "string",
          "name": "",
          "type": "string"
        }
      ],
      "stateMutability": "view",
      "type": "function",
      "constant": true
    },
    {
      "inputs": [],
      "name": "totalSupply",
      "outputs": [
        {
          "internalType": "uint256",
          "name": "",
          "type": "uint256"
        }
      ],
      "stateMutability": "view",
      "type": "function",
      "constant": true
    },
    {
      "inputs": [
        {
          "internalType": "address",
          "name": "_from",
          "type": "address"
        },
        {
          "internalType": "address",
          "name": "_to",
          "type": "address"
        },
        {
          "internalType": "uint256",
          "name": "_tokenId",
          "type": "uint256"
        }
      ],
      "name": "transferFrom",
      "outputs": [],
      "stateMutability": "nonpayable",
      "type": "function"
    },
    {
      "inputs": [],
      "name": "getBlockNoFromNGInfo",
      "outputs": [
        {
          "internalType": "uint256",
          "name": "",
          "type": "uint256"
        }
      ],
      "stateMutability": "view",
      "type": "function",
      "constant": true
    },
    {
      "inputs": [
        {
          "internalType": "uint256",
          "name": "_idx",
          "type": "uint256"
        }
      ],
      "name": "getTxnHash",
      "outputs": [
        {
          "internalType": "bytes32",
          "name": "",
          "type": "bytes32"
        }
      ],
      "stateMutability": "view",
      "type": "function",
      "constant": true
    },
    {
      "inputs": [
        {
          "internalType": "address",
          "name": "_address",
          "type": "address"
        }
      ],
      "name": "getAccountAuth",
      "outputs": [
        {
          "internalType": "uint8",
          "name": "",
          "type": "uint8"
        }
      ],
      "stateMutability": "view",
      "type": "function",
      "constant": true
    },
    {
      "inputs": [
        {
          "internalType": "address",
          "name": "_address",
          "type": "address"
        }
      ],
      "name": "setBrandAccountAuth",
      "outputs": [],
      "stateMutability": "nonpayable",
      "type": "function"
    },
    {
      "inputs": [
        {
          "internalType": "address",
          "name": "_address",
          "type": "address"
        }
      ],
      "name": "setAdminAccountAuth",
      "outputs": [],
      "stateMutability": "nonpayable",
      "type": "function"
    },
    {
      "inputs": [
        {
          "internalType": "address",
          "name": "_from",
          "type": "address"
        },
        {
          "internalType": "address",
          "name": "_to",
          "type": "address"
        },
        {
          "internalType": "uint256",
          "name": "_tokenId",
          "type": "uint256"
        }
      ],
      "name": "transferNG",
      "outputs": [],
      "stateMutability": "nonpayable",
      "type": "function"
    },
    {
      "inputs": [
        {
          "internalType": "string",
          "name": "_brandNm",
          "type": "string"
        },
        {
          "internalType": "string",
          "name": "_productNo",
          "type": "string"
        },
        {
          "internalType": "string",
          "name": "_serialNo",
          "type": "string"
        },
        {
          "internalType": "string",
          "name": "_mfd",
          "type": "string"
        },
        {
          "internalType": "string",
          "name": "_madeIn",
          "type": "string"
        }
      ],
      "name": "mint",
      "outputs": [],
      "stateMutability": "nonpayable",
      "type": "function"
    }
  ],
  "bytecode": "0x60806040523480156200001157600080fd5b506040516200217b3803806200217b833981016040819052620000349162000127565b81818181600062000046838262000220565b50600162000055828262000220565b50505050505050620002ec565b634e487b7160e01b600052604160045260246000fd5b600082601f8301126200008a57600080fd5b81516001600160401b0380821115620000a757620000a762000062565b604051601f8301601f19908116603f01168101908282118183101715620000d257620000d262000062565b81604052838152602092508683858801011115620000ef57600080fd5b600091505b83821015620001135785820183015181830184015290820190620000f4565b600093810190920192909252949350505050565b600080604083850312156200013b57600080fd5b82516001600160401b03808211156200015357600080fd5b620001618683870162000078565b935060208501519150808211156200017857600080fd5b50620001878582860162000078565b9150509250929050565b600181811c90821680620001a657607f821691505b602082108103620001c757634e487b7160e01b600052602260045260246000fd5b50919050565b601f8211156200021b57600081815260208120601f850160051c81016020861015620001f65750805b601f850160051c820191505b81811015620002175782815560010162000202565b5050505b505050565b81516001600160401b038111156200023c576200023c62000062565b62000254816200024d845462000191565b84620001cd565b602080601f8311600181146200028c5760008415620002735750858301515b600019600386901b1c1916600185901b17855562000217565b600085815260208120601f198616915b82811015620002bd578886015182559484019460019091019084016200029c565b5085821015620002dc5787850151600019600388901b60f8161c191681555b5050505050600190811b01905550565b611e7f80620002fc6000396000f3fe608060405234801561001057600080fd5b506004361061018e5760003560e01c806370a08231116100de578063b88d4fde11610097578063c87b56dd11610071578063c87b56dd14610383578063ccfe6d7214610396578063e985e9c5146103a9578063f4ce9429146103e557600080fd5b8063b88d4fde1461034a578063c0fc40481461035d578063c3c0fc201461037057600080fd5b806370a08231146102c4578063783a2290146102d757806386833e91146102fc57806395d89b411461030f578063a22cb46514610317578063a8a07b361461032a57600080fd5b806318160ddd1161014b57806342842e0e1161012557806342842e0e146102785780634f6ccce71461028b5780636352211e1461029e5780636a186913146102b157600080fd5b806318160ddd1461024a57806323b872dd146102525780632f745c591461026557600080fd5b806301ffc9a71461019357806304ba7b43146101bb57806306fdde03146101cc578063081812fc146101e1578063095ea7b314610222578063100c563114610237575b600080fd5b6101a66101a13660046116a9565b610409565b60405190151581526020015b60405180910390f35b60005b6040519081526020016101b2565b6101d461041a565b6040516101b29190611716565b61020a6101ef366004611729565b6000908152600460205260409020546001600160a01b031690565b6040516001600160a01b0390911681526020016101b2565b61023561023036600461175e565b6104ac565b005b610235610245366004611788565b610603565b6006546101be565b6102356102603660046117a3565b61063c565b6101be61027336600461175e565b610672565b6102356102863660046117a3565b610708565b6101be610299366004611729565b610723565b61020a6102ac366004611729565b6107a1565b6102356102bf366004611788565b6107d6565b6101be6102d2366004611788565b61080f565b6102ea6102e5366004611788565b610853565b60405160ff90911681526020016101b2565b61023561030a36600461188b565b61088e565b6101d4610b9d565b61023561032536600461195d565b610bac565b6101be610338366004611729565b60009081526007602052604090205490565b610235610358366004611999565b610c66565b61023561036b3660046117a3565b610c9e565b6101be61037e366004611729565b610ce0565b6101d4610391366004611729565b610d0a565b6101be6103a4366004611729565b610d34565b6101a66103b7366004611a15565b6001600160a01b03918216600090815260056020908152604080832093909416825291909152205460ff1690565b6103f86103f3366004611729565b610d55565b6040516101b2959493929190611a48565b600061041482611043565b92915050565b60606000805461042990611ab5565b80601f016020809104026020016040519081016040528092919081815260200182805461045590611ab5565b80156104a25780601f10610477576101008083540402835291602001916104a2565b820191906000526020600020905b81548152906001019060200180831161048557829003601f168201915b5050505050905090565b60006104b7826107a1565b9050806001600160a01b0316836001600160a01b0316036105295760405162461bcd60e51b815260206004820152602160248201527f4572726f72202d20617070726f76616c20746f2063757272656e74206f776e656044820152603960f91b60648201526084015b60405180910390fd5b336001600160a01b0382161480610545575061054581336103b7565b6105a75760405162461bcd60e51b815260206004820152602d60248201527f43616c6c6572206973206e6f7420746f6b656e206f776e6572206f722061707060448201526c1c9bdd995908199bdc88185b1b609a1b6064820152608401610520565b60008281526004602052604080822080546001600160a01b0319166001600160a01b0387811691821790925591518593918516917f8c5be1e5ebec7d5bd14f71427d1e84f3dd0314c0f7b2291e5b200ac8c7c3b92591a4505050565b806001600160a01b03811661061757600080fd5b506001600160a01b03166000908152600c60205260409020805460ff19166002179055565b6106463382611068565b6106625760405162461bcd60e51b815260040161052090611ae9565b61066d838383611111565b505050565b600061067d8361080f565b82106106cb5760405162461bcd60e51b815260206004820152601d60248201527f6f776e657220696e646578206973206f7574206f6620626f756e6473210000006044820152606401610520565b6001600160a01b03831660009081526008602052604090208054839081106106f5576106f5611b2e565b9060005260206000200154905092915050565b61066d83838360405180602001604052806000815250610c66565b600061072e60065490565b821061077c5760405162461bcd60e51b815260206004820152601e60248201527f676c6f62616c20696e646578206973206f7574206f6620626f756e64732100006044820152606401610520565b6006828154811061078f5761078f611b2e565b90600052602060002001549050919050565b6000818152600260205260408120546001600160a01b0316806104145760405162461bcd60e51b815260040161052090611b44565b806001600160a01b0381166107ea57600080fd5b506001600160a01b03166000908152600c60205260409020805460ff19166001179055565b60006001600160a01b0382166108375760405162461bcd60e51b815260040161052090611b44565b506001600160a01b031660009081526003602052604090205490565b6000816001600160a01b03811661086957600080fd5b6001600160a01b0383166000908152600c602052604090205460ff1691505b50919050565b84848484846000805b600a54811015610a27578680519060200120600a82815481106108bc576108bc611b2e565b90600052602060002090600502016000016040516108da9190611b86565b604051809103902014801561092d57508580519060200120600a828154811061090557610905611b2e565b90600052602060002090600502016001016040516109239190611b86565b6040518091039020145b801561097757508480519060200120600a828154811061094f5761094f611b2e565b906000526020600020906005020160020160405161096d9190611b86565b6040518091039020145b80156109c157508380519060200120600a828154811061099957610999611b2e565b90600052602060002090600502016003016040516109b79190611b86565b6040518091039020145b8015610a0b57508280519060200120600a82815481106109e3576109e3611b2e565b9060005260206000209060050201600401604051610a019190611b86565b6040518091039020145b15610a1557600191505b80610a1f81611c12565b915050610897565b508015610a765760405162461bcd60e51b815260206004820152601c60248201527f4572726f72205f6e67496e666f20616c726561647920657869737473000000006044820152606401610520565b6040805160a0810182528c8152602081018c90529081018a90526060810189905260808101889052600a8054600181018255600091909152815182916005027fc65a7bb8d6351c1cf70c95a316cc6a92839c986682d98bc35f958f4883f9d2a801908190610ae49082611c79565b5060208201516001820190610af99082611c79565b5060408201516002820190610b0e9082611c79565b5060608201516003820190610b239082611c79565b5060808201516004820190610b389082611c79565b5050600b8054600181810183556000928352437f0175b7a638427703f0dbe7bb9bbf987a2551717b34e79f33b5b1008d1fa01db990920191909155600a54919250610b8291611d39565b9050610b8e338261127e565b50505050505050505050505050565b60606001805461042990611ab5565b336001600160a01b0383168103610bf95760405162461bcd60e51b815260206004820152601160248201527030b8383937bb32903a379031b0b63632b960791b6044820152606401610520565b6001600160a01b03818116600081815260056020908152604080832094881680845294825291829020805460ff191687151590811790915591519182527f17307eab39ab6107e8899845ad3d59bd9653f200f220920489ca2b5937696c31910160405180910390a3505050565b610c703383611068565b610c8c5760405162461bcd60e51b815260040161052090611ae9565b610c9884848484611302565b50505050565b610ca983838361063c565b600081815260076020526040812054905043600b8281548110610cce57610cce611b2e565b60009182526020909120015550505050565b600080600b8381548110610cf657610cf6611b2e565b600091825260209091200154409392505050565b604080516020810190915260008152606090604051806020016040528060008152505b9392505050565b600b8181548110610d4457600080fd5b600091825260209091200154905081565b600a8181548110610d6557600080fd5b9060005260206000209060050201600091509050806000018054610d8890611ab5565b80601f0160208091040260200160405190810160405280929190818152602001828054610db490611ab5565b8015610e015780601f10610dd657610100808354040283529160200191610e01565b820191906000526020600020905b815481529060010190602001808311610de457829003601f168201915b505050505090806001018054610e1690611ab5565b80601f0160208091040260200160405190810160405280929190818152602001828054610e4290611ab5565b8015610e8f5780601f10610e6457610100808354040283529160200191610e8f565b820191906000526020600020905b815481529060010190602001808311610e7257829003601f168201915b505050505090806002018054610ea490611ab5565b80601f0160208091040260200160405190810160405280929190818152602001828054610ed090611ab5565b8015610f1d5780601f10610ef257610100808354040283529160200191610f1d565b820191906000526020600020905b815481529060010190602001808311610f0057829003601f168201915b505050505090806003018054610f3290611ab5565b80601f0160208091040260200160405190810160405280929190818152602001828054610f5e90611ab5565b8015610fab5780601f10610f8057610100808354040283529160200191610fab565b820191906000526020600020905b815481529060010190602001808311610f8e57829003601f168201915b505050505090806004018054610fc090611ab5565b80601f0160208091040260200160405190810160405280929190818152602001828054610fec90611ab5565b80156110395780601f1061100e57610100808354040283529160200191611039565b820191906000526020600020905b81548152906001019060200180831161101c57829003601f168201915b5050505050905085565b60006001600160e01b0319821663780e9d6360e01b148061041457506104148261140b565b6000818152600260205260408120546001600160a01b03166110c35760405162461bcd60e51b81526020600482015260146024820152731d1bdad95b88191bdcd9481b9bdd08195e1a5cdd60621b6044820152606401610520565b60006110ce836107a1565b9050806001600160a01b0316846001600160a01b0316148061110957506000838152600460205260409020546001600160a01b038581169116145b949350505050565b826001600160a01b0316611124826107a1565b6001600160a01b0316146111975760405162461bcd60e51b815260206004820152603460248201527f547279696e6720746f207472616e73666572206120746f6b656e20746865206160448201527364647265737320646f6573206e6f74206f776e2160601b6064820152608401610520565b6001600160a01b0382166112015760405162461bcd60e51b815260206004820152602b60248201527f4572726f72202d20455243373231205472616e7366657220746f20746865207a60448201526a65726f206164647265737360a81b6064820152608401610520565b6001600160a01b038084166000818152600360209081526040808320805460001901905593861680835284832080546001019055858352600290915283822080546001600160a01b031916821790559251849392917fddf252ad1be2c89b69c2b068fc378daa952ba7f163c4a11628f55a4df523b3ef91a4505050565b6112888282611440565b6001600160a01b0391909116600090815260086020908152604080832080546001808201835582865284862090910186905590548585526009845282852055600680546007909452918420839055820181559091527ff652222313e28459528d920b65115c16c04f3efc82aaedc97be59f3f377c0d3f0155565b61130d848484611111565b6113198484848461158f565b610c985760405162461bcd60e51b815260040161052090611d4c565b811561135b578061134581611c12565b91506113549050600a83611db4565b9150611335565b60008167ffffffffffffffff811115611376576113766117df565b6040519080825280601f01601f1916602001820160405280156113a0576020820181803683370190505b5090505b8415611109576113b5600183611d39565b91506113c2600a86611dc8565b6113cd906030611ddc565b60f81b8183815181106113e2576113e2611b2e565b60200101906001600160f81b031916908160001a905350611404600a86611db4565b94506113a4565b60006001600160e01b031982166380ac58cd60e01b148061041457506301ffc9a760e01b6001600160e01b0319831614610414565b6001600160a01b0382166114a25760405162461bcd60e51b815260206004820152602360248201527f4552433732313a206d696e74696e6720746f20746865207a65726f206164647260448201526265737360e81b6064820152608401610520565b6000818152600260205260409020546001600160a01b0316156115075760405162461bcd60e51b815260206004820152601c60248201527f4552433732313a20746f6b656e20616c7265616479206d696e746564000000006044820152606401610520565b600081815260026020908152604080832080546001600160a01b0319166001600160a01b03871690811790915583526003909152812080546001929061154e908490611ddc565b909155505060405181906001600160a01b038416906000907fddf252ad1be2c89b69c2b068fc378daa952ba7f163c4a11628f55a4df523b3ef908290a45050565b60006001600160a01b0384163b1561168557604051630a85bd0160e11b81526001600160a01b0385169063150b7a02906115d3903390899088908890600401611def565b6020604051808303816000875af192505050801561160e575060408051601f3d908101601f1916820190925261160b91810190611e2c565b60015b61166b573d80801561163c576040519150601f19603f3d011682016040523d82523d6000602084013e611641565b606091505b5080516000036116635760405162461bcd60e51b815260040161052090611d4c565b805181602001fd5b6001600160e01b031916630a85bd0160e11b149050611109565b506001949350505050565b6001600160e01b0319811681146116a657600080fd5b50565b6000602082840312156116bb57600080fd5b8135610d2d81611690565b60005b838110156116e15781810151838201526020016116c9565b50506000910152565b600081518084526117028160208601602086016116c6565b601f01601f19169290920160200192915050565b602081526000610d2d60208301846116ea565b60006020828403121561173b57600080fd5b5035919050565b80356001600160a01b038116811461175957600080fd5b919050565b6000806040838503121561177157600080fd5b61177a83611742565b946020939093013593505050565b60006020828403121561179a57600080fd5b610d2d82611742565b6000806000606084860312156117b857600080fd5b6117c184611742565b92506117cf60208501611742565b9150604084013590509250925092565b634e487b7160e01b600052604160045260246000fd5b600067ffffffffffffffff80841115611810576118106117df565b604051601f8501601f19908116603f01168101908282118183101715611838576118386117df565b8160405280935085815286868601111561185157600080fd5b858560208301376000602087830101525050509392505050565b600082601f83011261187c57600080fd5b610d2d838335602085016117f5565b600080600080600060a086880312156118a357600080fd5b853567ffffffffffffffff808211156118bb57600080fd5b6118c789838a0161186b565b965060208801359150808211156118dd57600080fd5b6118e989838a0161186b565b955060408801359150808211156118ff57600080fd5b61190b89838a0161186b565b9450606088013591508082111561192157600080fd5b61192d89838a0161186b565b9350608088013591508082111561194357600080fd5b506119508882890161186b565b9150509295509295909350565b6000806040838503121561197057600080fd5b61197983611742565b91506020830135801515811461198e57600080fd5b809150509250929050565b600080600080608085870312156119af57600080fd5b6119b885611742565b93506119c660208601611742565b925060408501359150606085013567ffffffffffffffff8111156119e957600080fd5b8501601f810187136119fa57600080fd5b611a09878235602084016117f5565b91505092959194509250565b60008060408385031215611a2857600080fd5b611a3183611742565b9150611a3f60208401611742565b90509250929050565b60a081526000611a5b60a08301886116ea565b8281036020840152611a6d81886116ea565b90508281036040840152611a8181876116ea565b90508281036060840152611a9581866116ea565b90508281036080840152611aa981856116ea565b98975050505050505050565b600181811c90821680611ac957607f821691505b60208210810361088857634e487b7160e01b600052602260045260246000fd5b60208082526025908201527f73656e646572206973206e6f7420746f6b656e204f776e6572206f72204170706040820152641c9bdd995960da1b606082015260800190565b634e487b7160e01b600052603260045260246000fd5b60208082526022908201527f6f776e657220717565727920666f72206e6f6e2d6578697374656e7420746f6b60408201526132b760f11b606082015260800190565b6000808354611b9481611ab5565b60018281168015611bac5760018114611bc157611bf0565b60ff1984168752821515830287019450611bf0565b8760005260208060002060005b85811015611be75781548a820152908401908201611bce565b50505082870194505b50929695505050505050565b634e487b7160e01b600052601160045260246000fd5b600060018201611c2457611c24611bfc565b5060010190565b601f82111561066d57600081815260208120601f850160051c81016020861015611c525750805b601f850160051c820191505b81811015611c7157828155600101611c5e565b505050505050565b815167ffffffffffffffff811115611c9357611c936117df565b611ca781611ca18454611ab5565b84611c2b565b602080601f831160018114611cdc5760008415611cc45750858301515b600019600386901b1c1916600185901b178555611c71565b600085815260208120601f198616915b82811015611d0b57888601518255948401946001909101908401611cec565b5085821015611d295787850151600019600388901b60f8161c191681555b5050505050600190811b01905550565b8181038181111561041457610414611bfc565b60208082526032908201527f4552433732313a207472616e7366657220746f206e6f6e20455243373231526560408201527131b2b4bb32b91034b6b83632b6b2b73a32b960711b606082015260800190565b634e487b7160e01b600052601260045260246000fd5b600082611dc357611dc3611d9e565b500490565b600082611dd757611dd7611d9e565b500690565b8082018082111561041457610414611bfc565b6001600160a01b0385811682528416602082015260408101839052608060608201819052600090611e22908301846116ea565b9695505050505050565b600060208284031215611e3e57600080fd5b8151610d2d8161169056fea26469706673582212201965247cace7e69fddcbf37b1817a1dd386ad9a97606b133dc24aece1c49c87c64736f6c63430008110033",
  "immutableReferences": {},
  "source": "// SPDX-License-Identifier: MIT\npragma solidity ^0.8.0;\n\nimport './tokens/ERC721/ERC721Connector.sol';\n\ncontract NG is ERC721Connector {\n    // struct nft    struct  nft \n    struct NGInfo {\n        string brandNm;\n        string productNo;\n        string serialNo;\n        string mfd;\n        string madeIn;\n    }\n\n    NGInfo[] public ngs;\n    // string[] public ngs;\n\n    uint256[] public blockNos;\n\n    // mapping(NGInfo => bool) _ngExists;\n    // mapping(string => bool) _ngExists;\n\n    mapping(address => uint8) _accountsAuth; // : 0, : 1, : 2\n\n    function getBlockNoFromNGInfo() public view returns(uint256) {\n\n    }\n\n    function getTxnHash(uint256 _idx) public view returns(bytes32) {\n        uint _blockNo = blockNos[_idx];\n        return blockhash(_blockNo);\n    }\n\n    modifier checkZeroAddress(address _address) {\n        require(_address!=address(0));\n        _;\n    }\n\n    function getAccountAuth(address _address) public view checkZeroAddress(_address) returns(uint8) {\n        uint8 _auth = _accountsAuth[_address];\n        return _auth;\n    }\n\n    function setBrandAccountAuth(address _address) public checkZeroAddress(_address) {\n        _accountsAuth[_address] = 1;\n    }\n\n    function setAdminAccountAuth(address _address) public  checkZeroAddress(_address) {\n        _accountsAuth[_address] = 2;\n    }\n\n    modifier ngExists(\n        string memory _brandNm,\n        string memory _productNo,\n        string memory _serialNo,\n        string memory _mfd,\n        string memory _madeIn\n    )\n    {\n        bool check = false;\n        for (uint256 i=0; i<ngs.length; i++) {\n            if (keccak256(bytes(ngs[i].brandNm))==keccak256(bytes(_brandNm)) &&\n            keccak256(bytes(ngs[i].productNo))==keccak256(bytes(_productNo)) &&\n            keccak256(bytes(ngs[i].serialNo))==keccak256(bytes(_serialNo)) &&\n            keccak256(bytes(ngs[i].mfd))==keccak256(bytes(_mfd)) &&\n            keccak256(bytes(ngs[i].madeIn))==keccak256(bytes(_madeIn))) {\n                check = true;\n            }\n        }\n        require(!check, 'Error _ngInfo already exists');\n        _;\n    }\n\n    function transferNG(\n        address _from,\n        address _to,\n        uint256 _tokenId\n    ) public {\n        transferFrom(_from, _to, _tokenId);\n        uint256 _index = getIndexFromTokenId(_tokenId);\n        blockNos[_index] = block.number;\n    }\n\n    function mint(\n        string memory _brandNm,\n        string memory _productNo,\n        string memory _serialNo,\n        string memory _mfd,\n        string memory _madeIn\n        ) \n        public \n        ngExists(\n            _brandNm,\n            _productNo,\n            _serialNo,\n            _mfd,\n            _madeIn\n        )\n    {\n        NGInfo memory _ngInfo = NGInfo(_brandNm, _productNo, _serialNo, _mfd, _madeIn);\n        // require(ngs[_ngInfo]!='', 'Error _ngInfo already exists');\n        // require(!_ngExists[_ngInfo], 'Error _ngInfo already exists');\n\n        ngs.push(_ngInfo);\n        blockNos.push(block.number);\n        uint256 _id = ngs.length - 1;\n        _mint(msg.sender, _id);\n\n        // _ngExists[_ngInfo] = true;\n    }\n\n    // function mint(string memory _ng) public {\n    //     require(!_ngExists[_ng], 'Error -ng already exists');\n\n    //     ngs.push(_ng);\n    //     uint256 _id = ngs.length - 1;\n    //     _mint(msg.sender, _id);\n\n    //     _ngExists[_ng] = true;\n    // }\n\n    constructor(string memory named, string memory symbolified) ERC721Connector(named, symbolified){}\n}\n",
  "sourcePath": "/Users/kimyuri/SSAFY/projects/pjt2/repo/S07P22E206/smart-contracts/src/contracts/NG.sol",
  "compiler": {
    "name": "solc",
    "version": "0.8.17+commit.8df45f5f.Emscripten.clang"
  },
  "schemaVersion": "3.4.9",
  "updatedAt": "2022-09-20T07:25:41.138Z",
  "networkType": "ethereum",
  "devdoc": {
    "kind": "dev",
    "methods": {
      "balanceOf(address)": {
        "details": "Returns the number of tokens in ``owner``'s account."
      },
      "getApproved(uint256)": {
        "details": "Returns the account approved for `tokenId` token. Requirements: - `tokenId` must exist."
      },
      "isApprovedForAll(address,address)": {
        "details": "Returns if the `operator` is allowed to manage all of the assets of `owner`. See {setApprovalForAll}"
      },
      "safeTransferFrom(address,address,uint256)": {
        "details": "Safely transfers `tokenId` token from `from` to `to`, checking first that contract recipients are aware of the ERC721 protocol to prevent tokens from being forever locked. Requirements: - `from` cannot be the zero address. - `to` cannot be the zero address. - `tokenId` token must exist and be owned by `from`. - If the caller is not `from`, it must be have been allowed to move this token by either {approve} or {setApprovalForAll}. - If `to` refers to a smart contract, it must implement {IERC721Receiver-onERC721Received}, which is called upon a safe transfer. Emits a {Transfer} event."
      },
      "safeTransferFrom(address,address,uint256,bytes)": {
        "details": "Safely transfers `tokenId` token from `from` to `to`. Requirements: - `from` cannot be the zero address. - `to` cannot be the zero address. - `tokenId` token must exist and be owned by `from`. - If the caller is not `from`, it must be approved to move this token by either {approve} or {setApprovalForAll}. - If `to` refers to a smart contract, it must implement {IERC721Receiver-onERC721Received}, which is called upon a safe transfer. Emits a {Transfer} event."
      },
      "setApprovalForAll(address,bool)": {
        "details": "Approve or remove `operator` as an operator for the caller. Operators can call {transferFrom} or {safeTransferFrom} for any token owned by the caller. Requirements: - The `operator` cannot be the caller. Emits an {ApprovalForAll} event."
      }
    },
    "version": 1
  },
  "userdoc": {
    "kind": "user",
    "methods": {},
    "version": 1
  }
}