{
  "contractName": "NG",
  "abi": [
    {
      "inputs": [
        {
          "internalType": "string",
          "name": "named",
          "type": "string"
        },
        {
          "internalType": "string",
          "name": "symbolified",
          "type": "string"
        }
      ],
      "stateMutability": "nonpayable",
      "type": "constructor"
    },
    {
      "anonymous": false,
      "inputs": [
        {
          "indexed": true,
          "internalType": "address",
          "name": "owner",
          "type": "address"
        },
        {
          "indexed": true,
          "internalType": "address",
          "name": "approved",
          "type": "address"
        },
        {
          "indexed": true,
          "internalType": "uint256",
          "name": "tokenId",
          "type": "uint256"
        }
      ],
      "name": "Approval",
      "type": "event"
    },
    {
      "anonymous": false,
      "inputs": [
        {
          "indexed": true,
          "internalType": "address",
          "name": "owner",
          "type": "address"
        },
        {
          "indexed": true,
          "internalType": "address",
          "name": "operator",
          "type": "address"
        },
        {
          "indexed": false,
          "internalType": "bool",
          "name": "approved",
          "type": "bool"
        }
      ],
      "name": "ApprovalForAll",
      "type": "event"
    },
    {
      "anonymous": false,
      "inputs": [
        {
          "indexed": true,
          "internalType": "address",
          "name": "from",
          "type": "address"
        },
        {
          "indexed": true,
          "internalType": "address",
          "name": "to",
          "type": "address"
        },
        {
          "indexed": true,
          "internalType": "uint256",
          "name": "tokenId",
          "type": "uint256"
        }
      ],
      "name": "Transfer",
      "type": "event"
    },
    {
      "inputs": [
        {
          "internalType": "address",
          "name": "_from",
          "type": "address"
        },
        {
          "internalType": "address",
          "name": "_to",
          "type": "address"
        },
        {
          "internalType": "uint256",
          "name": "_tokenId",
          "type": "uint256"
        }
      ],
      "name": "_transferNG",
      "outputs": [],
      "stateMutability": "nonpayable",
      "type": "function"
    },
    {
      "inputs": [
        {
          "internalType": "address",
          "name": "_to",
          "type": "address"
        },
        {
          "internalType": "uint256",
          "name": "tokenId",
          "type": "uint256"
        }
      ],
      "name": "approve",
      "outputs": [],
      "stateMutability": "nonpayable",
      "type": "function"
    },
    {
      "inputs": [
        {
          "internalType": "address",
          "name": "owner",
          "type": "address"
        }
      ],
      "name": "balanceOf",
      "outputs": [
        {
          "internalType": "uint256",
          "name": "",
          "type": "uint256"
        }
      ],
      "stateMutability": "view",
      "type": "function",
      "constant": true
    },
    {
      "inputs": [
        {
          "internalType": "uint256",
          "name": "",
          "type": "uint256"
        }
      ],
      "name": "blockNos",
      "outputs": [
        {
          "internalType": "uint256",
          "name": "",
          "type": "uint256"
        }
      ],
      "stateMutability": "view",
      "type": "function",
      "constant": true
    },
    {
      "inputs": [
        {
          "internalType": "uint256",
          "name": "tokenId",
          "type": "uint256"
        }
      ],
      "name": "getApproved",
      "outputs": [
        {
          "internalType": "address",
          "name": "",
          "type": "address"
        }
      ],
      "stateMutability": "view",
      "type": "function",
      "constant": true
    },
    {
      "inputs": [
        {
          "internalType": "uint256",
          "name": "_tokenId",
          "type": "uint256"
        }
      ],
      "name": "getIndexFromTokenId",
      "outputs": [
        {
          "internalType": "uint256",
          "name": "",
          "type": "uint256"
        }
      ],
      "stateMutability": "view",
      "type": "function",
      "constant": true
    },
    {
      "inputs": [
        {
          "internalType": "address",
          "name": "_address",
          "type": "address"
        }
      ],
      "name": "getOwnedTokens",
      "outputs": [
        {
          "internalType": "uint256[]",
          "name": "",
          "type": "uint256[]"
        }
      ],
      "stateMutability": "view",
      "type": "function",
      "constant": true
    },
    {
      "inputs": [
        {
          "internalType": "address",
          "name": "owner",
          "type": "address"
        },
        {
          "internalType": "address",
          "name": "operator",
          "type": "address"
        }
      ],
      "name": "isApprovedForAll",
      "outputs": [
        {
          "internalType": "bool",
          "name": "",
          "type": "bool"
        }
      ],
      "stateMutability": "view",
      "type": "function",
      "constant": true
    },
    {
      "inputs": [],
      "name": "name",
      "outputs": [
        {
          "internalType": "string",
          "name": "",
          "type": "string"
        }
      ],
      "stateMutability": "view",
      "type": "function",
      "constant": true
    },
    {
      "inputs": [
        {
          "internalType": "uint256",
          "name": "",
          "type": "uint256"
        }
      ],
      "name": "ngs",
      "outputs": [
        {
          "internalType": "string",
          "name": "brandNm",
          "type": "string"
        },
        {
          "internalType": "string",
          "name": "productNo",
          "type": "string"
        },
        {
          "internalType": "string",
          "name": "serialNo",
          "type": "string"
        },
        {
          "internalType": "string",
          "name": "mfd",
          "type": "string"
        },
        {
          "internalType": "string",
          "name": "madeIn",
          "type": "string"
        }
      ],
      "stateMutability": "view",
      "type": "function",
      "constant": true
    },
    {
      "inputs": [
        {
          "internalType": "uint256",
          "name": "_tokenId",
          "type": "uint256"
        }
      ],
      "name": "ownerOf",
      "outputs": [
        {
          "internalType": "address",
          "name": "",
          "type": "address"
        }
      ],
      "stateMutability": "view",
      "type": "function",
      "constant": true
    },
    {
      "inputs": [
        {
          "internalType": "address",
          "name": "from",
          "type": "address"
        },
        {
          "internalType": "address",
          "name": "to",
          "type": "address"
        },
        {
          "internalType": "uint256",
          "name": "tokenId",
          "type": "uint256"
        }
      ],
      "name": "safeTransferFrom",
      "outputs": [],
      "stateMutability": "nonpayable",
      "type": "function"
    },
    {
      "inputs": [
        {
          "internalType": "address",
          "name": "from",
          "type": "address"
        },
        {
          "internalType": "address",
          "name": "to",
          "type": "address"
        },
        {
          "internalType": "uint256",
          "name": "tokenId",
          "type": "uint256"
        },
        {
          "internalType": "bytes",
          "name": "data",
          "type": "bytes"
        }
      ],
      "name": "safeTransferFrom",
      "outputs": [],
      "stateMutability": "nonpayable",
      "type": "function"
    },
    {
      "inputs": [
        {
          "internalType": "address",
          "name": "operator",
          "type": "address"
        },
        {
          "internalType": "bool",
          "name": "_approved",
          "type": "bool"
        }
      ],
      "name": "setApprovalForAll",
      "outputs": [],
      "stateMutability": "nonpayable",
      "type": "function"
    },
    {
      "inputs": [
        {
          "internalType": "bytes4",
          "name": "interfaceId",
          "type": "bytes4"
        }
      ],
      "name": "supportsInterface",
      "outputs": [
        {
          "internalType": "bool",
          "name": "",
          "type": "bool"
        }
      ],
      "stateMutability": "view",
      "type": "function",
      "constant": true
    },
    {
      "inputs": [],
      "name": "symbol",
      "outputs": [
        {
          "internalType": "string",
          "name": "",
          "type": "string"
        }
      ],
      "stateMutability": "view",
      "type": "function",
      "constant": true
    },
    {
      "inputs": [
        {
          "internalType": "uint256",
          "name": "index",
          "type": "uint256"
        }
      ],
      "name": "tokenByIndex",
      "outputs": [
        {
          "internalType": "uint256",
          "name": "",
          "type": "uint256"
        }
      ],
      "stateMutability": "view",
      "type": "function",
      "constant": true
    },
    {
      "inputs": [
        {
          "internalType": "address",
          "name": "owner",
          "type": "address"
        },
        {
          "internalType": "uint256",
          "name": "index",
          "type": "uint256"
        }
      ],
      "name": "tokenOfOwnerByIndex",
      "outputs": [
        {
          "internalType": "uint256",
          "name": "",
          "type": "uint256"
        }
      ],
      "stateMutability": "view",
      "type": "function",
      "constant": true
    },
    {
      "inputs": [
        {
          "internalType": "uint256",
          "name": "tokenId",
          "type": "uint256"
        }
      ],
      "name": "tokenURI",
      "outputs": [
        {
          "internalType": "string",
          "name": "",
          "type": "string"
        }
      ],
      "stateMutability": "view",
      "type": "function",
      "constant": true
    },
    {
      "inputs": [],
      "name": "totalSupply",
      "outputs": [
        {
          "internalType": "uint256",
          "name": "",
          "type": "uint256"
        }
      ],
      "stateMutability": "view",
      "type": "function",
      "constant": true
    },
    {
      "inputs": [
        {
          "internalType": "address",
          "name": "_from",
          "type": "address"
        },
        {
          "internalType": "address",
          "name": "_to",
          "type": "address"
        },
        {
          "internalType": "uint256",
          "name": "_tokenId",
          "type": "uint256"
        }
      ],
      "name": "transferFrom",
      "outputs": [],
      "stateMutability": "nonpayable",
      "type": "function"
    },
    {
      "inputs": [
        {
          "internalType": "string",
          "name": "_txnHash",
          "type": "string"
        }
      ],
      "name": "getTokenIdFromTxnHash",
      "outputs": [
        {
          "internalType": "uint256",
          "name": "",
          "type": "uint256"
        }
      ],
      "stateMutability": "view",
      "type": "function",
      "constant": true
    },
    {
      "inputs": [
        {
          "internalType": "string",
          "name": "_txnHash",
          "type": "string"
        },
        {
          "internalType": "uint256",
          "name": "_tokenId",
          "type": "uint256"
        }
      ],
      "name": "setTxnHashToTokenId",
      "outputs": [],
      "stateMutability": "nonpayable",
      "type": "function"
    },
    {
      "inputs": [],
      "name": "getMintedTokens",
      "outputs": [
        {
          "internalType": "uint256[]",
          "name": "",
          "type": "uint256[]"
        }
      ],
      "stateMutability": "view",
      "type": "function",
      "constant": true
    },
    {
      "inputs": [
        {
          "internalType": "uint256",
          "name": "_idx",
          "type": "uint256"
        }
      ],
      "name": "getBlockHash",
      "outputs": [
        {
          "internalType": "bytes32",
          "name": "",
          "type": "bytes32"
        }
      ],
      "stateMutability": "view",
      "type": "function",
      "constant": true
    },
    {
      "inputs": [
        {
          "internalType": "address",
          "name": "_address",
          "type": "address"
        }
      ],
      "name": "getAccountAuth",
      "outputs": [
        {
          "internalType": "uint8",
          "name": "",
          "type": "uint8"
        }
      ],
      "stateMutability": "view",
      "type": "function",
      "constant": true
    },
    {
      "inputs": [
        {
          "internalType": "address",
          "name": "_address",
          "type": "address"
        }
      ],
      "name": "setBrandAccountAuth",
      "outputs": [],
      "stateMutability": "nonpayable",
      "type": "function"
    },
    {
      "inputs": [
        {
          "internalType": "address",
          "name": "_address",
          "type": "address"
        }
      ],
      "name": "setAdminAccountAuth",
      "outputs": [],
      "stateMutability": "nonpayable",
      "type": "function"
    },
    {
      "inputs": [
        {
          "internalType": "uint256",
          "name": "tokenId",
          "type": "uint256"
        }
      ],
      "name": "getTokenHistory",
      "outputs": [
        {
          "internalType": "uint256[]",
          "name": "",
          "type": "uint256[]"
        }
      ],
      "stateMutability": "view",
      "type": "function",
      "constant": true
    },
    {
      "inputs": [
        {
          "internalType": "address",
          "name": "_from",
          "type": "address"
        },
        {
          "internalType": "address",
          "name": "_to",
          "type": "address"
        },
        {
          "internalType": "uint256",
          "name": "_tokenId",
          "type": "uint256"
        }
      ],
      "name": "transferNG",
      "outputs": [],
      "stateMutability": "nonpayable",
      "type": "function"
    },
    {
      "inputs": [
        {
          "internalType": "string",
          "name": "_brandNm",
          "type": "string"
        },
        {
          "internalType": "string",
          "name": "_productNo",
          "type": "string"
        },
        {
          "internalType": "string",
          "name": "_serialNo",
          "type": "string"
        },
        {
          "internalType": "string",
          "name": "_mfd",
          "type": "string"
        },
        {
          "internalType": "string",
          "name": "_madeIn",
          "type": "string"
        }
      ],
      "name": "mint",
      "outputs": [],
      "stateMutability": "nonpayable",
      "type": "function"
    }
  ],
  "bytecode": "0x60806040523480156200001157600080fd5b50604051620028b2380380620028b2833981016040819052620000349162000127565b81818181600062000046838262000220565b50600162000055828262000220565b50505050505050620002ec565b634e487b7160e01b600052604160045260246000fd5b600082601f8301126200008a57600080fd5b81516001600160401b0380821115620000a757620000a762000062565b604051601f8301601f19908116603f01168101908282118183101715620000d257620000d262000062565b81604052838152602092508683858801011115620000ef57600080fd5b600091505b83821015620001135785820183015181830184015290820190620000f4565b600093810190920192909252949350505050565b600080604083850312156200013b57600080fd5b82516001600160401b03808211156200015357600080fd5b620001618683870162000078565b935060208501519150808211156200017857600080fd5b50620001878582860162000078565b9150509250929050565b600181811c90821680620001a657607f821691505b602082108103620001c757634e487b7160e01b600052602260045260246000fd5b50919050565b601f8211156200021b57600081815260208120601f850160051c81016020861015620001f65750805b601f850160051c820191505b81811015620002175782815560010162000202565b5050505b505050565b81516001600160401b038111156200023c576200023c62000062565b62000254816200024d845462000191565b84620001cd565b602080601f8311600181146200028c5760008415620002735750858301515b600019600386901b1c1916600185901b17855562000217565b600085815260208120601f198616915b82811015620002bd578886015182559484019460019091019084016200029c565b5085821015620002dc5787850151600019600388901b60f8161c191681555b5050505050600190811b01905550565b6125b680620002fc6000396000f3fe608060405234801561001057600080fd5b50600436106101e55760003560e01c8063783a22901161010f578063c0fc4048116100a2578063dc96529011610071578063dc96529014610452578063e985e9c51461045a578063ee82ac5e14610496578063f4ce9429146104a957600080fd5b8063c0fc404814610406578063c87b56dd14610419578063ccfe6d721461042c578063d9d616551461043f57600080fd5b806395d89b41116100de57806395d89b41146103b8578063a22cb465146103c0578063a8a07b36146103d3578063b88d4fde146103f357600080fd5b8063783a22901461035a578063793467051461037f57806386833e91146103925780638d7b0e32146103a557600080fd5b806323b872dd116101875780636352211e116101565780636352211e1461030e5780636a18691314610321578063702cc6971461033457806370a082311461034757600080fd5b806323b872dd146102c25780632f745c59146102d557806342842e0e146102e85780634f6ccce7146102fb57600080fd5b8063095ea7b3116101c3578063095ea7b314610268578063100c56311461027d57806318160ddd146102905780632142ae2c146102a257600080fd5b806301ffc9a7146101ea57806306fdde0314610212578063081812fc14610227575b600080fd5b6101fd6101f8366004611cd9565b6104cd565b60405190151581526020015b60405180910390f35b61021a6104de565b6040516102099190611d46565b610250610235366004611d59565b6000908152600460205260409020546001600160a01b031690565b6040516001600160a01b039091168152602001610209565b61027b610276366004611d8e565b610570565b005b61027b61028b366004611db8565b6106c7565b6006545b604051908152602001610209565b6102b56102b0366004611d59565b610700565b6040516102099190611dd3565b61027b6102d0366004611e17565b610762565b6102946102e3366004611d8e565b610798565b61027b6102f6366004611e17565b61082e565b610294610309366004611d59565b610849565b61025061031c366004611d59565b6108c7565b61027b61032f366004611db8565b6108fc565b610294610342366004611eff565b610a75565b610294610355366004611db8565b610a9d565b61036d610368366004611db8565b610ae1565b60405160ff9091168152602001610209565b61027b61038d366004611f34565b610b1c565b61027b6103a0366004611f79565b610b41565b61027b6103b3366004611e17565b610f17565b61021a6110d0565b61027b6103ce36600461204b565b6110df565b6102946103e1366004611d59565b60009081526007602052604090205490565b61027b610401366004612087565b611199565b61027b610414366004611e17565b6111cb565b61021a610427366004611d59565b61122e565b61029461043a366004611d59565b611258565b6102b561044d366004611db8565b611279565b6102b56112e3565b6101fd610468366004612103565b6001600160a01b03918216600090815260056020908152604080832093909416825291909152205460ff1690565b6102946104a4366004611d59565b611343565b6104bc6104b7366004611d59565b61136d565b604051610209959493929190612136565b60006104d88261165b565b92915050565b6060600080546104ed906121a3565b80601f0160208091040260200160405190810160405280929190818152602001828054610519906121a3565b80156105665780601f1061053b57610100808354040283529160200191610566565b820191906000526020600020905b81548152906001019060200180831161054957829003601f168201915b5050505050905090565b600061057b826108c7565b9050806001600160a01b0316836001600160a01b0316036105ed5760405162461bcd60e51b815260206004820152602160248201527f4572726f72202d20617070726f76616c20746f2063757272656e74206f776e656044820152603960f91b60648201526084015b60405180910390fd5b336001600160a01b038216148061060957506106098133610468565b61066b5760405162461bcd60e51b815260206004820152602d60248201527f43616c6c6572206973206e6f7420746f6b656e206f776e6572206f722061707060448201526c1c9bdd995908199bdc88185b1b609a1b60648201526084016105e4565b60008281526004602052604080822080546001600160a01b0319166001600160a01b0387811691821790925591518593918516917f8c5be1e5ebec7d5bd14f71427d1e84f3dd0314c0f7b2291e5b200ac8c7c3b92591a4505050565b806001600160a01b0381166106db57600080fd5b506001600160a01b03166000908152600e60205260409020805460ff19166002179055565b6000818152600d602090815260409182902080548351818402810184019094528084526060939283018282801561075657602002820191906000526020600020905b815481526020019060010190808311610742575b50505050509050919050565b61076c3382611680565b6107885760405162461bcd60e51b81526004016105e4906121d7565b610793838383611729565b505050565b60006107a383610a9d565b82106107f15760405162461bcd60e51b815260206004820152601d60248201527f6f776e657220696e646578206973206f7574206f6620626f756e64732100000060448201526064016105e4565b6001600160a01b038316600090815260086020526040902080548390811061081b5761081b61221c565b9060005260206000200154905092915050565b61079383838360405180602001604052806000815250611199565b600061085460065490565b82106108a25760405162461bcd60e51b815260206004820152601e60248201527f676c6f62616c20696e646578206973206f7574206f6620626f756e647321000060448201526064016105e4565b600682815481106108b5576108b561221c565b90600052602060002001549050919050565b6000818152600260205260408120546001600160a01b0316806104d85760405162461bcd60e51b81526004016105e490612232565b806001600160a01b03811661091057600080fd5b3361096c5760405162461bcd60e51b815260206004820152602660248201527f72657175657374696e67206163636f756e74206973206e6f74207a65726f2d6160448201526518d8dbdd5b9d60d21b60648201526084016105e4565b336000908152600e602052604090205460ff166002146109d85760405162461bcd60e51b815260206004820152602160248201527f72657175657374696e67206163636f756e74206861766520746f2061757468206044820152601960f91b60648201526084016105e4565b6001600160a01b0382166000908152600e602052604090205460ff1615610a505760405162461bcd60e51b815260206004820152602660248201527f7265676973746564206163636f756e742069732063616e2774207265676973746044820152651030b3b0b4b760d11b60648201526084016105e4565b506001600160a01b03166000908152600e60205260409020805460ff19166001179055565b6000600f82604051610a879190612274565b9081526020016040518091039020549050919050565b60006001600160a01b038216610ac55760405162461bcd60e51b81526004016105e490612232565b506001600160a01b031660009081526003602052604090205490565b6000816001600160a01b038116610af757600080fd5b6001600160a01b0383166000908152600e602052604090205460ff1691505b50919050565b80600f83604051610b2d9190612274565b908152604051908190036020019020555050565b84848484846000805b600a54811015610cda578680519060200120600a8281548110610b6f57610b6f61221c565b9060005260206000209060050201600001604051610b8d9190612290565b6040518091039020148015610be057508580519060200120600a8281548110610bb857610bb861221c565b9060005260206000209060050201600101604051610bd69190612290565b6040518091039020145b8015610c2a57508480519060200120600a8281548110610c0257610c0261221c565b9060005260206000209060050201600201604051610c209190612290565b6040518091039020145b8015610c7457508380519060200120600a8281548110610c4c57610c4c61221c565b9060005260206000209060050201600301604051610c6a9190612290565b6040518091039020145b8015610cbe57508280519060200120600a8281548110610c9657610c9661221c565b9060005260206000209060050201600401604051610cb49190612290565b6040518091039020145b15610cc857600191505b80610cd28161231c565b915050610b4a565b508015610d295760405162461bcd60e51b815260206004820152601c60248201527f4572726f72205f6e67496e666f20616c7265616479206578697374730000000060448201526064016105e4565b6040805160a0810182528c815260208082018d90528183018c9052606082018b9052608082018a9052336000908152600e90915291822054909160ff9091169003610ddc5760405162461bcd60e51b815260206004820152603b60248201527f4e47203a206d696e742072657175657374732063616e206f6e6c79207265676960448201527f737465726564206163636f756e747320666f7220636f6d70616e79000000000060648201526084016105e4565b600a8054600181018255600091909152815182916005027fc65a7bb8d6351c1cf70c95a316cc6a92839c986682d98bc35f958f4883f9d2a801908190610e229082612383565b5060208201516001820190610e379082612383565b5060408201516002820190610e4c9082612383565b5060608201516003820190610e619082612383565b5060808201516004820190610e769082612383565b5050600b8054600181810183556000928352437f0175b7a638427703f0dbe7bb9bbf987a2551717b34e79f33b5b1008d1fa01db990920191909155600a54919250610ec091612443565b9050610ecc3382611896565b336000908152600c6020908152604080832080546001808201835591855283852001859055938352600d82528220805493840181558252902043910155505050505050505050505050565b610f22838383610762565b6000818152600960209081526040808320546001600160a01b03871684526008909252909120805482908110610f5a57610f5a61221c565b6000918252602082200155805b6001600160a01b038516600090815260086020526040902054610f8c90600190612443565b811015611082576001600160a01b0385166000908152600860205260409020610fb6826001612456565b81548110610fc657610fc661221c565b906000526020600020015460086000876001600160a01b03166001600160a01b0316815260200190815260200160002082815481106110075761100761221c565b60009182526020808320909101929092556001600160a01b038716815260089091526040812080548390811061103f5761103f61221c565b60009182526020808320909101548083526009909152604082208054919350909161106983612469565b919050555050808061107a9061231c565b915050610f67565b506001600160a01b03841660009081526008602052604090208054806110aa576110aa612480565b600190038181906000526020600020016000905590556110ca83836118f6565b50505050565b6060600180546104ed906121a3565b336001600160a01b038316810361112c5760405162461bcd60e51b815260206004820152601160248201527030b8383937bb32903a379031b0b63632b960791b60448201526064016105e4565b6001600160a01b03818116600081815260056020908152604080832094881680845294825291829020805460ff191687151590811790915591519182527f17307eab39ab6107e8899845ad3d59bd9653f200f220920489ca2b5937696c31910160405180910390a3505050565b6111a33383611680565b6111bf5760405162461bcd60e51b81526004016105e4906121d7565b6110ca84848484611932565b6111d6838383610f17565b600081815260076020526040812054905043600b82815481106111fb576111fb61221c565b6000918252602090912001556110ca826000908152600d6020908152604082208054600181018255908352912043910155565b604080516020810190915260008152606090604051806020016040528060008152505b9392505050565b600b818154811061126857600080fd5b600091825260209091200154905081565b6001600160a01b03811660009081526008602090815260409182902080548351818402810184019094528084526060939283018282801561075657602002820191906000526020600020908154815260200190600101908083116107425750505050509050919050565b336000908152600c602090815260409182902080548351818402810184019094528084526060939283018282801561056657602002820191906000526020600020905b815481526020019060010190808311611326575050505050905090565b600080600b83815481106113595761135961221c565b600091825260209091200154409392505050565b600a818154811061137d57600080fd5b90600052602060002090600502016000915090508060000180546113a0906121a3565b80601f01602080910402602001604051908101604052809291908181526020018280546113cc906121a3565b80156114195780601f106113ee57610100808354040283529160200191611419565b820191906000526020600020905b8154815290600101906020018083116113fc57829003601f168201915b50505050509080600101805461142e906121a3565b80601f016020809104026020016040519081016040528092919081815260200182805461145a906121a3565b80156114a75780601f1061147c576101008083540402835291602001916114a7565b820191906000526020600020905b81548152906001019060200180831161148a57829003601f168201915b5050505050908060020180546114bc906121a3565b80601f01602080910402602001604051908101604052809291908181526020018280546114e8906121a3565b80156115355780601f1061150a57610100808354040283529160200191611535565b820191906000526020600020905b81548152906001019060200180831161151857829003601f168201915b50505050509080600301805461154a906121a3565b80601f0160208091040260200160405190810160405280929190818152602001828054611576906121a3565b80156115c35780601f10611598576101008083540402835291602001916115c3565b820191906000526020600020905b8154815290600101906020018083116115a657829003601f168201915b5050505050908060040180546115d8906121a3565b80601f0160208091040260200160405190810160405280929190818152602001828054611604906121a3565b80156116515780601f1061162657610100808354040283529160200191611651565b820191906000526020600020905b81548152906001019060200180831161163457829003601f168201915b5050505050905085565b60006001600160e01b0319821663780e9d6360e01b14806104d857506104d882611a3b565b6000818152600260205260408120546001600160a01b03166116db5760405162461bcd60e51b81526020600482015260146024820152731d1bdad95b88191bdcd9481b9bdd08195e1a5cdd60621b60448201526064016105e4565b60006116e6836108c7565b9050806001600160a01b0316846001600160a01b0316148061172157506000838152600460205260409020546001600160a01b038581169116145b949350505050565b826001600160a01b031661173c826108c7565b6001600160a01b0316146117af5760405162461bcd60e51b815260206004820152603460248201527f547279696e6720746f207472616e73666572206120746f6b656e20746865206160448201527364647265737320646f6573206e6f74206f776e2160601b60648201526084016105e4565b6001600160a01b0382166118195760405162461bcd60e51b815260206004820152602b60248201527f4572726f72202d20455243373231205472616e7366657220746f20746865207a60448201526a65726f206164647265737360a81b60648201526084016105e4565b6001600160a01b038084166000818152600360209081526040808320805460001901905593861680835284832080546001019055858352600290915283822080546001600160a01b031916821790559251849392917fddf252ad1be2c89b69c2b068fc378daa952ba7f163c4a11628f55a4df523b3ef91a4505050565b6118a08282611a70565b6118aa82826118f6565b6118f281600680546000838152600760205260408120829055600182018355919091527ff652222313e28459528d920b65115c16c04f3efc82aaedc97be59f3f377c0d3f0155565b5050565b6001600160a01b039091166000908152600860209081526040808320805460018101825581855283852001859055549383526009909152902055565b61193d848484611729565b61194984848484611bbf565b6110ca5760405162461bcd60e51b81526004016105e490612496565b811561198b57806119758161231c565b91506119849050600a836124fe565b9150611965565b60008167ffffffffffffffff8111156119a6576119a6611e53565b6040519080825280601f01601f1916602001820160405280156119d0576020820181803683370190505b5090505b8415611721576119e5600183612443565b91506119f2600a86612512565b6119fd906030612456565b60f81b818381518110611a1257611a1261221c565b60200101906001600160f81b031916908160001a905350611a34600a866124fe565b94506119d4565b60006001600160e01b031982166380ac58cd60e01b14806104d857506301ffc9a760e01b6001600160e01b03198316146104d8565b6001600160a01b038216611ad25760405162461bcd60e51b815260206004820152602360248201527f4552433732313a206d696e74696e6720746f20746865207a65726f206164647260448201526265737360e81b60648201526084016105e4565b6000818152600260205260409020546001600160a01b031615611b375760405162461bcd60e51b815260206004820152601c60248201527f4552433732313a20746f6b656e20616c7265616479206d696e7465640000000060448201526064016105e4565b600081815260026020908152604080832080546001600160a01b0319166001600160a01b038716908117909155835260039091528120805460019290611b7e908490612456565b909155505060405181906001600160a01b038416906000907fddf252ad1be2c89b69c2b068fc378daa952ba7f163c4a11628f55a4df523b3ef908290a45050565b60006001600160a01b0384163b15611cb557604051630a85bd0160e11b81526001600160a01b0385169063150b7a0290611c03903390899088908890600401612526565b6020604051808303816000875af1925050508015611c3e575060408051601f3d908101601f19168201909252611c3b91810190612563565b60015b611c9b573d808015611c6c576040519150601f19603f3d011682016040523d82523d6000602084013e611c71565b606091505b508051600003611c935760405162461bcd60e51b81526004016105e490612496565b805181602001fd5b6001600160e01b031916630a85bd0160e11b149050611721565b506001949350505050565b6001600160e01b031981168114611cd657600080fd5b50565b600060208284031215611ceb57600080fd5b813561125181611cc0565b60005b83811015611d11578181015183820152602001611cf9565b50506000910152565b60008151808452611d32816020860160208601611cf6565b601f01601f19169290920160200192915050565b6020815260006112516020830184611d1a565b600060208284031215611d6b57600080fd5b5035919050565b80356001600160a01b0381168114611d8957600080fd5b919050565b60008060408385031215611da157600080fd5b611daa83611d72565b946020939093013593505050565b600060208284031215611dca57600080fd5b61125182611d72565b6020808252825182820181905260009190848201906040850190845b81811015611e0b57835183529284019291840191600101611def565b50909695505050505050565b600080600060608486031215611e2c57600080fd5b611e3584611d72565b9250611e4360208501611d72565b9150604084013590509250925092565b634e487b7160e01b600052604160045260246000fd5b600067ffffffffffffffff80841115611e8457611e84611e53565b604051601f8501601f19908116603f01168101908282118183101715611eac57611eac611e53565b81604052809350858152868686011115611ec557600080fd5b858560208301376000602087830101525050509392505050565b600082601f830112611ef057600080fd5b61125183833560208501611e69565b600060208284031215611f1157600080fd5b813567ffffffffffffffff811115611f2857600080fd5b61172184828501611edf565b60008060408385031215611f4757600080fd5b823567ffffffffffffffff811115611f5e57600080fd5b611f6a85828601611edf565b95602094909401359450505050565b600080600080600060a08688031215611f9157600080fd5b853567ffffffffffffffff80821115611fa957600080fd5b611fb589838a01611edf565b96506020880135915080821115611fcb57600080fd5b611fd789838a01611edf565b95506040880135915080821115611fed57600080fd5b611ff989838a01611edf565b9450606088013591508082111561200f57600080fd5b61201b89838a01611edf565b9350608088013591508082111561203157600080fd5b5061203e88828901611edf565b9150509295509295909350565b6000806040838503121561205e57600080fd5b61206783611d72565b91506020830135801515811461207c57600080fd5b809150509250929050565b6000806000806080858703121561209d57600080fd5b6120a685611d72565b93506120b460208601611d72565b925060408501359150606085013567ffffffffffffffff8111156120d757600080fd5b8501601f810187136120e857600080fd5b6120f787823560208401611e69565b91505092959194509250565b6000806040838503121561211657600080fd5b61211f83611d72565b915061212d60208401611d72565b90509250929050565b60a08152600061214960a0830188611d1a565b828103602084015261215b8188611d1a565b9050828103604084015261216f8187611d1a565b905082810360608401526121838186611d1a565b905082810360808401526121978185611d1a565b98975050505050505050565b600181811c908216806121b757607f821691505b602082108103610b1657634e487b7160e01b600052602260045260246000fd5b60208082526025908201527f73656e646572206973206e6f7420746f6b656e204f776e6572206f72204170706040820152641c9bdd995960da1b606082015260800190565b634e487b7160e01b600052603260045260246000fd5b60208082526022908201527f6f776e657220717565727920666f72206e6f6e2d6578697374656e7420746f6b60408201526132b760f11b606082015260800190565b60008251612286818460208701611cf6565b9190910192915050565b600080835461229e816121a3565b600182811680156122b657600181146122cb576122fa565b60ff19841687528215158302870194506122fa565b8760005260208060002060005b858110156122f15781548a8201529084019082016122d8565b50505082870194505b50929695505050505050565b634e487b7160e01b600052601160045260246000fd5b60006001820161232e5761232e612306565b5060010190565b601f82111561079357600081815260208120601f850160051c8101602086101561235c5750805b601f850160051c820191505b8181101561237b57828155600101612368565b505050505050565b815167ffffffffffffffff81111561239d5761239d611e53565b6123b1816123ab84546121a3565b84612335565b602080601f8311600181146123e657600084156123ce5750858301515b600019600386901b1c1916600185901b17855561237b565b600085815260208120601f198616915b82811015612415578886015182559484019460019091019084016123f6565b50858210156124335787850151600019600388901b60f8161c191681555b5050505050600190811b01905550565b818103818111156104d8576104d8612306565b808201808211156104d8576104d8612306565b60008161247857612478612306565b506000190190565b634e487b7160e01b600052603160045260246000fd5b60208082526032908201527f4552433732313a207472616e7366657220746f206e6f6e20455243373231526560408201527131b2b4bb32b91034b6b83632b6b2b73a32b960711b606082015260800190565b634e487b7160e01b600052601260045260246000fd5b60008261250d5761250d6124e8565b500490565b600082612521576125216124e8565b500690565b6001600160a01b038581168252841660208201526040810183905260806060820181905260009061255990830184611d1a565b9695505050505050565b60006020828403121561257557600080fd5b815161125181611cc056fea26469706673582212205ede298b3ea56c27ce5ea80e17d526b7cb7461a1cd0edbb481f440ff8b14be2064736f6c63430008110033",
  "immutableReferences": {},
  "source": "// SPDX-License-Identifier: MIT\r\npragma solidity ^0.8.0;\r\n\r\nimport \"./tokens/ERC721/ERC721Connector.sol\";\r\n\r\ncontract NG is ERC721Connector {\r\n    // struct nft    struct  nft \r\n    struct NGInfo {\r\n        string brandNm;\r\n        string productNo;\r\n        string serialNo;\r\n        string mfd;\r\n        string madeIn;\r\n    }\r\n\r\n    NGInfo[] public ngs;\r\n    // string[] public ngs;\r\n\r\n    uint256[] public blockNos;\r\n    // string[] public txnHashes;\r\n\r\n    // minted account address => token ids\r\n    mapping(address => uint256[]) private _mintedTokens;\r\n\r\n    // mapping for block number (previous txn hash)\r\n    // tokenId => block numbers\r\n    mapping(uint256 => uint256[]) private _tokenHistory;\r\n\r\n    // mapping(NGInfo => bool) _ngExists;\r\n    // mapping(string => bool) _ngExists;\r\n\r\n    mapping(address => uint8) _accountsAuth; // : 0, : 1, : 2\r\n\r\n    // txnhash -> tokenid\r\n    mapping(string => uint256) private _txnHashToTokenId;\r\n\r\n    //ng) input: txnhash, output: tokenId\r\n    function getTokenIdFromTxnHash(string memory _txnHash)\r\n        public\r\n        view\r\n        returns (uint256)\r\n    {\r\n        return _txnHashToTokenId[_txnHash];\r\n    }\r\n\r\n    //ng) input: txnhash & tokenId\r\n    //ng) mint, transfer front \r\n    function setTxnHashToTokenId(string memory _txnHash, uint256 _tokenId)\r\n        public\r\n    {\r\n        _txnHashToTokenId[_txnHash] = _tokenId;\r\n    }\r\n\r\n    //ng) msg.sender     (  )\r\n    function getMintedTokens() public view returns (uint256[] memory) {\r\n        return _mintedTokens[msg.sender];\r\n    }\r\n\r\n    // function getTxnHash(uint256 _tokenId) public view returns (string memory) {\r\n    //     return txnHashes[_tokenId];\r\n    // }\r\n\r\n    // function setTxnHash(uint256 _tokenId, string memory _txnHash) public {\r\n    //     txnHashes[_tokenId] = _txnHash;\r\n    // }\r\n\r\n    function getBlockHash(uint256 _idx) public view returns (bytes32) {\r\n        uint256 _blockNo = blockNos[_idx];\r\n        return blockhash(_blockNo);\r\n    }\r\n\r\n    modifier checkZeroAddress(address _address) {\r\n        require(_address != address(0));\r\n        _;\r\n    }\r\n\r\n    function getAccountAuth(address _address)\r\n        public\r\n        view\r\n        checkZeroAddress(_address)\r\n        returns (uint8)\r\n    {\r\n        uint8 _auth = _accountsAuth[_address];\r\n        return _auth;\r\n    }\r\n\r\n    function setBrandAccountAuth(address _address)\r\n        public\r\n        checkZeroAddress(_address)\r\n    {\r\n        //   0 ,       .\r\n        require(\r\n            msg.sender != address(0),\r\n            \"requesting account is not zero-account\"\r\n        );\r\n        require(\r\n            _accountsAuth[msg.sender] == 2,\r\n            \"requesting account have to auth 2\"\r\n        );\r\n\r\n        //      \r\n        require(\r\n            _accountsAuth[_address] == 0,\r\n            \"registed account is can't regist again\"\r\n        );\r\n\r\n        _accountsAuth[_address] = 1;\r\n    }\r\n\r\n    //  ..       ..?\r\n    function setAdminAccountAuth(address _address)\r\n        public\r\n        checkZeroAddress(_address)\r\n    {\r\n        _accountsAuth[_address] = 2;\r\n    }\r\n\r\n    modifier ngExists(\r\n        string memory _brandNm,\r\n        string memory _productNo,\r\n        string memory _serialNo,\r\n        string memory _mfd,\r\n        string memory _madeIn\r\n    ) {\r\n        bool check = false;\r\n        for (uint256 i = 0; i < ngs.length; i++) {\r\n            if (\r\n                keccak256(bytes(ngs[i].brandNm)) ==\r\n                keccak256(bytes(_brandNm)) &&\r\n                keccak256(bytes(ngs[i].productNo)) ==\r\n                keccak256(bytes(_productNo)) &&\r\n                keccak256(bytes(ngs[i].serialNo)) ==\r\n                keccak256(bytes(_serialNo)) &&\r\n                keccak256(bytes(ngs[i].mfd)) == keccak256(bytes(_mfd)) &&\r\n                keccak256(bytes(ngs[i].madeIn)) == keccak256(bytes(_madeIn))\r\n            ) {\r\n                check = true;\r\n            }\r\n        }\r\n        require(!check, \"Error _ngInfo already exists\");\r\n        _;\r\n    }\r\n\r\n    function addTokenHistory(uint256 _tokenId) private {\r\n        _tokenHistory[_tokenId].push(block.number);\r\n    }\r\n\r\n    function getTokenHistory(uint256 tokenId)\r\n        public\r\n        view\r\n        returns (uint256[] memory)\r\n    {\r\n        return _tokenHistory[tokenId];\r\n    }\r\n\r\n    function transferNG(\r\n        address _from,\r\n        address _to,\r\n        uint256 _tokenId\r\n    ) public {\r\n        _transferNG(_from, _to, _tokenId);\r\n        uint256 _index = getIndexFromTokenId(_tokenId);\r\n        blockNos[_index] = block.number;\r\n\r\n        addTokenHistory(_tokenId);\r\n    }\r\n\r\n    function mint(\r\n        string memory _brandNm,\r\n        string memory _productNo,\r\n        string memory _serialNo,\r\n        string memory _mfd,\r\n        string memory _madeIn\r\n    ) public ngExists(_brandNm, _productNo, _serialNo, _mfd, _madeIn) {\r\n        NGInfo memory _ngInfo = NGInfo(\r\n            _brandNm,\r\n            _productNo,\r\n            _serialNo,\r\n            _mfd,\r\n            _madeIn\r\n        );\r\n        // require(ngs[_ngInfo]!='', 'Error _ngInfo already exists');\r\n        // require(!_ngExists[_ngInfo], 'Error _ngInfo already exists');\r\n        // mint  1  2     \r\n        require(\r\n            _accountsAuth[msg.sender] != 0,\r\n            \"NG : mint requests can only registered accounts for company\"\r\n        );\r\n\r\n        ngs.push(_ngInfo);\r\n        blockNos.push(block.number);\r\n        uint256 _id = ngs.length - 1;\r\n        _mint(msg.sender, _id);\r\n\r\n        _mintedTokens[msg.sender].push(_id);\r\n        addTokenHistory(_id);\r\n        // _ngExists[_ngInfo] = true;\r\n    }\r\n\r\n    // function mint(string memory _ng) public {\r\n    //     require(!_ngExists[_ng], 'Error -ng already exists');\r\n\r\n    //     ngs.push(_ng);\r\n    //     uint256 _id = ngs.length - 1;\r\n    //     _mint(msg.sender, _id);\r\n\r\n    //     _ngExists[_ng] = true;\r\n    // }\r\n\r\n    constructor(string memory named, string memory symbolified)\r\n        ERC721Connector(named, symbolified)\r\n    {}\r\n}\r\n",
  "sourcePath": "C:\\Users\\SSAFY\\Desktop\\NFT_PJT NG\\S07P22E206\\smart-contracts\\src\\contracts\\NG.sol",
  "compiler": {
    "name": "solc",
    "version": "0.8.17+commit.8df45f5f.Emscripten.clang"
  },
  "schemaVersion": "3.4.9",
  "updatedAt": "2022-09-23T09:05:18.471Z",
  "networkType": "ethereum",
  "devdoc": {
    "kind": "dev",
    "methods": {
      "balanceOf(address)": {
        "details": "Returns the number of tokens in ``owner``'s account."
      },
      "getApproved(uint256)": {
        "details": "Returns the account approved for `tokenId` token. Requirements: - `tokenId` must exist."
      },
      "isApprovedForAll(address,address)": {
        "details": "Returns if the `operator` is allowed to manage all of the assets of `owner`. See {setApprovalForAll}"
      },
      "safeTransferFrom(address,address,uint256)": {
        "details": "Safely transfers `tokenId` token from `from` to `to`, checking first that contract recipients are aware of the ERC721 protocol to prevent tokens from being forever locked. Requirements: - `from` cannot be the zero address. - `to` cannot be the zero address. - `tokenId` token must exist and be owned by `from`. - If the caller is not `from`, it must be have been allowed to move this token by either {approve} or {setApprovalForAll}. - If `to` refers to a smart contract, it must implement {IERC721Receiver-onERC721Received}, which is called upon a safe transfer. Emits a {Transfer} event."
      },
      "safeTransferFrom(address,address,uint256,bytes)": {
        "details": "Safely transfers `tokenId` token from `from` to `to`. Requirements: - `from` cannot be the zero address. - `to` cannot be the zero address. - `tokenId` token must exist and be owned by `from`. - If the caller is not `from`, it must be approved to move this token by either {approve} or {setApprovalForAll}. - If `to` refers to a smart contract, it must implement {IERC721Receiver-onERC721Received}, which is called upon a safe transfer. Emits a {Transfer} event."
      },
      "setApprovalForAll(address,bool)": {
        "details": "Approve or remove `operator` as an operator for the caller. Operators can call {transferFrom} or {safeTransferFrom} for any token owned by the caller. Requirements: - The `operator` cannot be the caller. Emits an {ApprovalForAll} event."
      }
    },
    "version": 1
  },
  "userdoc": {
    "kind": "user",
    "methods": {},
    "version": 1
  }
}