{
  "contractName": "NG",
  "abi": [
    {
      "inputs": [
        {
          "internalType": "string",
          "name": "named",
          "type": "string"
        },
        {
          "internalType": "string",
          "name": "symbolified",
          "type": "string"
        }
      ],
      "stateMutability": "nonpayable",
      "type": "constructor"
    },
    {
      "anonymous": false,
      "inputs": [
        {
          "indexed": true,
          "internalType": "address",
          "name": "owner",
          "type": "address"
        },
        {
          "indexed": true,
          "internalType": "address",
          "name": "approved",
          "type": "address"
        },
        {
          "indexed": true,
          "internalType": "uint256",
          "name": "tokenId",
          "type": "uint256"
        }
      ],
      "name": "Approval",
      "type": "event"
    },
    {
      "anonymous": false,
      "inputs": [
        {
          "indexed": true,
          "internalType": "address",
          "name": "owner",
          "type": "address"
        },
        {
          "indexed": true,
          "internalType": "address",
          "name": "operator",
          "type": "address"
        },
        {
          "indexed": false,
          "internalType": "bool",
          "name": "approved",
          "type": "bool"
        }
      ],
      "name": "ApprovalForAll",
      "type": "event"
    },
    {
      "anonymous": false,
      "inputs": [
        {
          "indexed": true,
          "internalType": "address",
          "name": "from",
          "type": "address"
        },
        {
          "indexed": true,
          "internalType": "address",
          "name": "to",
          "type": "address"
        },
        {
          "indexed": true,
          "internalType": "uint256",
          "name": "tokenId",
          "type": "uint256"
        }
      ],
      "name": "Transfer",
      "type": "event"
    },
    {
      "inputs": [
        {
          "internalType": "address",
          "name": "_from",
          "type": "address"
        },
        {
          "internalType": "address",
          "name": "_to",
          "type": "address"
        },
        {
          "internalType": "uint256",
          "name": "_tokenId",
          "type": "uint256"
        }
      ],
      "name": "_transferNG",
      "outputs": [],
      "stateMutability": "nonpayable",
      "type": "function"
    },
    {
      "inputs": [
        {
          "internalType": "address",
          "name": "_to",
          "type": "address"
        },
        {
          "internalType": "uint256",
          "name": "tokenId",
          "type": "uint256"
        }
      ],
      "name": "approve",
      "outputs": [],
      "stateMutability": "nonpayable",
      "type": "function"
    },
    {
      "inputs": [
        {
          "internalType": "address",
          "name": "owner",
          "type": "address"
        }
      ],
      "name": "balanceOf",
      "outputs": [
        {
          "internalType": "uint256",
          "name": "",
          "type": "uint256"
        }
      ],
      "stateMutability": "view",
      "type": "function",
      "constant": true
    },
    {
      "inputs": [
        {
          "internalType": "uint256",
          "name": "",
          "type": "uint256"
        }
      ],
      "name": "blockNos",
      "outputs": [
        {
          "internalType": "uint256",
          "name": "",
          "type": "uint256"
        }
      ],
      "stateMutability": "view",
      "type": "function",
      "constant": true
    },
    {
      "inputs": [
        {
          "internalType": "uint256",
          "name": "tokenId",
          "type": "uint256"
        }
      ],
      "name": "getApproved",
      "outputs": [
        {
          "internalType": "address",
          "name": "",
          "type": "address"
        }
      ],
      "stateMutability": "view",
      "type": "function",
      "constant": true
    },
    {
      "inputs": [
        {
          "internalType": "uint256",
          "name": "_tokenId",
          "type": "uint256"
        }
      ],
      "name": "getIndexFromTokenId",
      "outputs": [
        {
          "internalType": "uint256",
          "name": "",
          "type": "uint256"
        }
      ],
      "stateMutability": "view",
      "type": "function",
      "constant": true
    },
    {
      "inputs": [
        {
          "internalType": "address",
          "name": "_address",
          "type": "address"
        }
      ],
      "name": "getOwnedTokens",
      "outputs": [
        {
          "internalType": "uint256[]",
          "name": "",
          "type": "uint256[]"
        }
      ],
      "stateMutability": "view",
      "type": "function",
      "constant": true
    },
    {
      "inputs": [
        {
          "internalType": "address",
          "name": "owner",
          "type": "address"
        },
        {
          "internalType": "address",
          "name": "operator",
          "type": "address"
        }
      ],
      "name": "isApprovedForAll",
      "outputs": [
        {
          "internalType": "bool",
          "name": "",
          "type": "bool"
        }
      ],
      "stateMutability": "view",
      "type": "function",
      "constant": true
    },
    {
      "inputs": [],
      "name": "name",
      "outputs": [
        {
          "internalType": "string",
          "name": "",
          "type": "string"
        }
      ],
      "stateMutability": "view",
      "type": "function",
      "constant": true
    },
    {
      "inputs": [
        {
          "internalType": "uint256",
          "name": "",
          "type": "uint256"
        }
      ],
      "name": "ngs",
      "outputs": [
        {
          "internalType": "string",
          "name": "brandNm",
          "type": "string"
        },
        {
          "internalType": "string",
          "name": "productNo",
          "type": "string"
        },
        {
          "internalType": "string",
          "name": "serialNo",
          "type": "string"
        },
        {
          "internalType": "string",
          "name": "mfd",
          "type": "string"
        },
        {
          "internalType": "string",
          "name": "madeIn",
          "type": "string"
        }
      ],
      "stateMutability": "view",
      "type": "function",
      "constant": true
    },
    {
      "inputs": [
        {
          "internalType": "uint256",
          "name": "_tokenId",
          "type": "uint256"
        }
      ],
      "name": "ownerOf",
      "outputs": [
        {
          "internalType": "address",
          "name": "",
          "type": "address"
        }
      ],
      "stateMutability": "view",
      "type": "function",
      "constant": true
    },
    {
      "inputs": [
        {
          "internalType": "address",
          "name": "from",
          "type": "address"
        },
        {
          "internalType": "address",
          "name": "to",
          "type": "address"
        },
        {
          "internalType": "uint256",
          "name": "tokenId",
          "type": "uint256"
        }
      ],
      "name": "safeTransferFrom",
      "outputs": [],
      "stateMutability": "nonpayable",
      "type": "function"
    },
    {
      "inputs": [
        {
          "internalType": "address",
          "name": "from",
          "type": "address"
        },
        {
          "internalType": "address",
          "name": "to",
          "type": "address"
        },
        {
          "internalType": "uint256",
          "name": "tokenId",
          "type": "uint256"
        },
        {
          "internalType": "bytes",
          "name": "data",
          "type": "bytes"
        }
      ],
      "name": "safeTransferFrom",
      "outputs": [],
      "stateMutability": "nonpayable",
      "type": "function"
    },
    {
      "inputs": [
        {
          "internalType": "address",
          "name": "operator",
          "type": "address"
        },
        {
          "internalType": "bool",
          "name": "_approved",
          "type": "bool"
        }
      ],
      "name": "setApprovalForAll",
      "outputs": [],
      "stateMutability": "nonpayable",
      "type": "function"
    },
    {
      "inputs": [
        {
          "internalType": "bytes4",
          "name": "interfaceId",
          "type": "bytes4"
        }
      ],
      "name": "supportsInterface",
      "outputs": [
        {
          "internalType": "bool",
          "name": "",
          "type": "bool"
        }
      ],
      "stateMutability": "view",
      "type": "function",
      "constant": true
    },
    {
      "inputs": [],
      "name": "symbol",
      "outputs": [
        {
          "internalType": "string",
          "name": "",
          "type": "string"
        }
      ],
      "stateMutability": "view",
      "type": "function",
      "constant": true
    },
    {
      "inputs": [
        {
          "internalType": "uint256",
          "name": "index",
          "type": "uint256"
        }
      ],
      "name": "tokenByIndex",
      "outputs": [
        {
          "internalType": "uint256",
          "name": "",
          "type": "uint256"
        }
      ],
      "stateMutability": "view",
      "type": "function",
      "constant": true
    },
    {
      "inputs": [
        {
          "internalType": "address",
          "name": "owner",
          "type": "address"
        },
        {
          "internalType": "uint256",
          "name": "index",
          "type": "uint256"
        }
      ],
      "name": "tokenOfOwnerByIndex",
      "outputs": [
        {
          "internalType": "uint256",
          "name": "",
          "type": "uint256"
        }
      ],
      "stateMutability": "view",
      "type": "function",
      "constant": true
    },
    {
      "inputs": [
        {
          "internalType": "uint256",
          "name": "tokenId",
          "type": "uint256"
        }
      ],
      "name": "tokenURI",
      "outputs": [
        {
          "internalType": "string",
          "name": "",
          "type": "string"
        }
      ],
      "stateMutability": "view",
      "type": "function",
      "constant": true
    },
    {
      "inputs": [],
      "name": "totalSupply",
      "outputs": [
        {
          "internalType": "uint256",
          "name": "",
          "type": "uint256"
        }
      ],
      "stateMutability": "view",
      "type": "function",
      "constant": true
    },
    {
      "inputs": [
        {
          "internalType": "address",
          "name": "_from",
          "type": "address"
        },
        {
          "internalType": "address",
          "name": "_to",
          "type": "address"
        },
        {
          "internalType": "uint256",
          "name": "_tokenId",
          "type": "uint256"
        }
      ],
      "name": "transferFrom",
      "outputs": [],
      "stateMutability": "nonpayable",
      "type": "function"
    },
    {
      "inputs": [
        {
          "internalType": "string",
          "name": "_txnHash",
          "type": "string"
        }
      ],
      "name": "getNGFromTxnHash",
      "outputs": [
        {
          "components": [
            {
              "internalType": "string",
              "name": "brandNm",
              "type": "string"
            },
            {
              "internalType": "string",
              "name": "productNo",
              "type": "string"
            },
            {
              "internalType": "string",
              "name": "serialNo",
              "type": "string"
            },
            {
              "internalType": "string",
              "name": "mfd",
              "type": "string"
            },
            {
              "internalType": "string",
              "name": "madeIn",
              "type": "string"
            }
          ],
          "internalType": "struct NG.NGInfo",
          "name": "",
          "type": "tuple"
        }
      ],
      "stateMutability": "view",
      "type": "function",
      "constant": true
    },
    {
      "inputs": [
        {
          "internalType": "string",
          "name": "_txnHash",
          "type": "string"
        },
        {
          "internalType": "uint256",
          "name": "_tokenId",
          "type": "uint256"
        }
      ],
      "name": "setTxnHashToTokenId",
      "outputs": [],
      "stateMutability": "nonpayable",
      "type": "function"
    },
    {
      "inputs": [],
      "name": "getMintedTokens",
      "outputs": [
        {
          "internalType": "uint256[]",
          "name": "",
          "type": "uint256[]"
        }
      ],
      "stateMutability": "view",
      "type": "function",
      "constant": true
    },
    {
      "inputs": [
        {
          "internalType": "uint256",
          "name": "_idx",
          "type": "uint256"
        }
      ],
      "name": "getBlockHash",
      "outputs": [
        {
          "internalType": "bytes32",
          "name": "",
          "type": "bytes32"
        }
      ],
      "stateMutability": "view",
      "type": "function",
      "constant": true
    },
    {
      "inputs": [
        {
          "internalType": "address",
          "name": "_address",
          "type": "address"
        }
      ],
      "name": "getAccountAuth",
      "outputs": [
        {
          "internalType": "uint8",
          "name": "",
          "type": "uint8"
        }
      ],
      "stateMutability": "view",
      "type": "function",
      "constant": true
    },
    {
      "inputs": [
        {
          "internalType": "address",
          "name": "_address",
          "type": "address"
        }
      ],
      "name": "setBrandAccountAuth",
      "outputs": [],
      "stateMutability": "nonpayable",
      "type": "function"
    },
    {
      "inputs": [
        {
          "internalType": "address",
          "name": "_address",
          "type": "address"
        }
      ],
      "name": "setAdminAccountAuth",
      "outputs": [],
      "stateMutability": "nonpayable",
      "type": "function"
    },
    {
      "inputs": [
        {
          "internalType": "uint256",
          "name": "tokenId",
          "type": "uint256"
        }
      ],
      "name": "getTokenHistory",
      "outputs": [
        {
          "internalType": "uint256[]",
          "name": "",
          "type": "uint256[]"
        }
      ],
      "stateMutability": "view",
      "type": "function",
      "constant": true
    },
    {
      "inputs": [
        {
          "internalType": "address",
          "name": "_from",
          "type": "address"
        },
        {
          "internalType": "address",
          "name": "_to",
          "type": "address"
        },
        {
          "internalType": "uint256",
          "name": "_tokenId",
          "type": "uint256"
        }
      ],
      "name": "transferNG",
      "outputs": [],
      "stateMutability": "nonpayable",
      "type": "function"
    },
    {
      "inputs": [
        {
          "internalType": "string",
          "name": "_brandNm",
          "type": "string"
        },
        {
          "internalType": "string",
          "name": "_productNo",
          "type": "string"
        },
        {
          "internalType": "string",
          "name": "_serialNo",
          "type": "string"
        },
        {
          "internalType": "string",
          "name": "_mfd",
          "type": "string"
        },
        {
          "internalType": "string",
          "name": "_madeIn",
          "type": "string"
        }
      ],
      "name": "mint",
      "outputs": [],
      "stateMutability": "nonpayable",
      "type": "function"
    }
  ],
  "bytecode": "0x60806040523480156200001157600080fd5b5060405162002ac438038062002ac4833981016040819052620000349162000127565b81818181600062000046838262000220565b50600162000055828262000220565b50505050505050620002ec565b634e487b7160e01b600052604160045260246000fd5b600082601f8301126200008a57600080fd5b81516001600160401b0380821115620000a757620000a762000062565b604051601f8301601f19908116603f01168101908282118183101715620000d257620000d262000062565b81604052838152602092508683858801011115620000ef57600080fd5b600091505b83821015620001135785820183015181830184015290820190620000f4565b600093810190920192909252949350505050565b600080604083850312156200013b57600080fd5b82516001600160401b03808211156200015357600080fd5b620001618683870162000078565b935060208501519150808211156200017857600080fd5b50620001878582860162000078565b9150509250929050565b600181811c90821680620001a657607f821691505b602082108103620001c757634e487b7160e01b600052602260045260246000fd5b50919050565b601f8211156200021b57600081815260208120601f850160051c81016020861015620001f65750805b601f850160051c820191505b81811015620002175782815560010162000202565b5050505b505050565b81516001600160401b038111156200023c576200023c62000062565b62000254816200024d845462000191565b84620001cd565b602080601f8311600181146200028c5760008415620002735750858301515b600019600386901b1c1916600185901b17855562000217565b600085815260208120601f198616915b82811015620002bd578886015182559484019460019091019084016200029c565b5085821015620002dc5787850151600019600388901b60f8161c191681555b5050505050600190811b01905550565b6127c880620002fc6000396000f3fe608060405234801561001057600080fd5b50600436106101e55760003560e01c8063793467051161010f578063c0fc4048116100a2578063dc96529011610071578063dc9652901461045f578063e985e9c514610467578063ee82ac5e146104a3578063f4ce9429146104b657600080fd5b8063c0fc404814610413578063c87b56dd14610426578063ccfe6d7214610439578063d9d616551461044c57600080fd5b806396dae44e116100de57806396dae44e146103ad578063a22cb465146103cd578063a8a07b36146103e0578063b88d4fde1461040057600080fd5b8063793467051461036c57806386833e911461037f5780638d7b0e321461039257806395d89b41146103a557600080fd5b806323b872dd116101875780636352211e116101565780636352211e1461030e5780636a1869131461032157806370a0823114610334578063783a22901461034757600080fd5b806323b872dd146102c25780632f745c59146102d557806342842e0e146102e85780634f6ccce7146102fb57600080fd5b8063095ea7b3116101c3578063095ea7b314610268578063100c56311461027d57806318160ddd146102905780632142ae2c146102a257600080fd5b806301ffc9a7146101ea57806306fdde0314610212578063081812fc14610227575b600080fd5b6101fd6101f8366004611e50565b6104da565b60405190151581526020015b60405180910390f35b61021a6104eb565b6040516102099190611ebd565b610250610235366004611ed0565b6000908152600460205260409020546001600160a01b031690565b6040516001600160a01b039091168152602001610209565b61027b610276366004611f05565b61057d565b005b61027b61028b366004611f2f565b6106d4565b6006545b604051908152602001610209565b6102b56102b0366004611ed0565b61070d565b6040516102099190611f4a565b61027b6102d0366004611f8e565b61076f565b6102946102e3366004611f05565b6107a5565b61027b6102f6366004611f8e565b61083b565b610294610309366004611ed0565b610856565b61025061031c366004611ed0565b6108d4565b61027b61032f366004611f2f565b610909565b610294610342366004611f2f565b610942565b61035a610355366004611f2f565b610986565b60405160ff9091168152602001610209565b61027b61037a366004612076565b6109c1565b61027b61038d3660046120bb565b6109e6565b61027b6103a0366004611f8e565b610d31565b61021a610eea565b6103c06103bb36600461218d565b610ef9565b60405161020991906121c2565b61027b6103db36600461225d565b611256565b6102946103ee366004611ed0565b60009081526007602052604090205490565b61027b61040e366004612299565b611310565b61027b610421366004611f8e565b611342565b61021a610434366004611ed0565b6113a5565b610294610447366004611ed0565b6113cf565b6102b561045a366004611f2f565b6113f0565b6102b561145a565b6101fd610475366004612315565b6001600160a01b03918216600090815260056020908152604080832093909416825291909152205460ff1690565b6102946104b1366004611ed0565b6114ba565b6104c96104c4366004611ed0565b6114e4565b604051610209959493929190612348565b60006104e5826117d2565b92915050565b6060600080546104fa906123b5565b80601f0160208091040260200160405190810160405280929190818152602001828054610526906123b5565b80156105735780601f1061054857610100808354040283529160200191610573565b820191906000526020600020905b81548152906001019060200180831161055657829003601f168201915b5050505050905090565b6000610588826108d4565b9050806001600160a01b0316836001600160a01b0316036105fa5760405162461bcd60e51b815260206004820152602160248201527f4572726f72202d20617070726f76616c20746f2063757272656e74206f776e656044820152603960f91b60648201526084015b60405180910390fd5b336001600160a01b038216148061061657506106168133610475565b6106785760405162461bcd60e51b815260206004820152602d60248201527f43616c6c6572206973206e6f7420746f6b656e206f776e6572206f722061707060448201526c1c9bdd995908199bdc88185b1b609a1b60648201526084016105f1565b60008281526004602052604080822080546001600160a01b0319166001600160a01b0387811691821790925591518593918516917f8c5be1e5ebec7d5bd14f71427d1e84f3dd0314c0f7b2291e5b200ac8c7c3b92591a4505050565b806001600160a01b0381166106e857600080fd5b506001600160a01b03166000908152600e60205260409020805460ff19166002179055565b6000818152600d602090815260409182902080548351818402810184019094528084526060939283018282801561076357602002820191906000526020600020905b81548152602001906001019080831161074f575b50505050509050919050565b61077933826117f7565b6107955760405162461bcd60e51b81526004016105f1906123e9565b6107a08383836118a0565b505050565b60006107b083610942565b82106107fe5760405162461bcd60e51b815260206004820152601d60248201527f6f776e657220696e646578206973206f7574206f6620626f756e64732100000060448201526064016105f1565b6001600160a01b03831660009081526008602052604090208054839081106108285761082861242e565b9060005260206000200154905092915050565b6107a083838360405180602001604052806000815250611310565b600061086160065490565b82106108af5760405162461bcd60e51b815260206004820152601e60248201527f676c6f62616c20696e646578206973206f7574206f6620626f756e647321000060448201526064016105f1565b600682815481106108c2576108c261242e565b90600052602060002001549050919050565b6000818152600260205260408120546001600160a01b0316806104e55760405162461bcd60e51b81526004016105f190612444565b806001600160a01b03811661091d57600080fd5b506001600160a01b03166000908152600e60205260409020805460ff19166001179055565b60006001600160a01b03821661096a5760405162461bcd60e51b81526004016105f190612444565b506001600160a01b031660009081526003602052604090205490565b6000816001600160a01b03811661099c57600080fd5b6001600160a01b0383166000908152600e602052604090205460ff1691505b50919050565b80600f836040516109d29190612486565b908152604051908190036020019020555050565b84848484846000805b600a54811015610b7f578680519060200120600a8281548110610a1457610a1461242e565b9060005260206000209060050201600001604051610a3291906124a2565b6040518091039020148015610a8557508580519060200120600a8281548110610a5d57610a5d61242e565b9060005260206000209060050201600101604051610a7b91906124a2565b6040518091039020145b8015610acf57508480519060200120600a8281548110610aa757610aa761242e565b9060005260206000209060050201600201604051610ac591906124a2565b6040518091039020145b8015610b1957508380519060200120600a8281548110610af157610af161242e565b9060005260206000209060050201600301604051610b0f91906124a2565b6040518091039020145b8015610b6357508280519060200120600a8281548110610b3b57610b3b61242e565b9060005260206000209060050201600401604051610b5991906124a2565b6040518091039020145b15610b6d57600191505b80610b778161252e565b9150506109ef565b508015610bce5760405162461bcd60e51b815260206004820152601c60248201527f4572726f72205f6e67496e666f20616c7265616479206578697374730000000060448201526064016105f1565b6040805160a0810182528c8152602081018c90529081018a90526060810189905260808101889052600a8054600181018255600091909152815182916005027fc65a7bb8d6351c1cf70c95a316cc6a92839c986682d98bc35f958f4883f9d2a801908190610c3c9082612595565b5060208201516001820190610c519082612595565b5060408201516002820190610c669082612595565b5060608201516003820190610c7b9082612595565b5060808201516004820190610c909082612595565b5050600b8054600181810183556000928352437f0175b7a638427703f0dbe7bb9bbf987a2551717b34e79f33b5b1008d1fa01db990920191909155600a54919250610cda91612655565b9050610ce63382611a0d565b336000908152600c6020908152604080832080546001808201835591855283852001859055938352600d82528220805493840181558252902043910155505050505050505050505050565b610d3c83838361076f565b6000818152600960209081526040808320546001600160a01b03871684526008909252909120805482908110610d7457610d7461242e565b6000918252602082200155805b6001600160a01b038516600090815260086020526040902054610da690600190612655565b811015610e9c576001600160a01b0385166000908152600860205260409020610dd0826001612668565b81548110610de057610de061242e565b906000526020600020015460086000876001600160a01b03166001600160a01b031681526020019081526020016000208281548110610e2157610e2161242e565b60009182526020808320909101929092556001600160a01b0387168152600890915260408120805483908110610e5957610e5961242e565b600091825260208083209091015480835260099091526040822080549193509091610e838361267b565b9190505550508080610e949061252e565b915050610d81565b506001600160a01b0384166000908152600860205260409020805480610ec457610ec4612692565b60019003818190600052602060002001600090559055610ee48383611a6d565b50505050565b6060600180546104fa906123b5565b610f2b6040518060a0016040528060608152602001606081526020016060815260200160608152602001606081525090565b600a600f83604051610f3d9190612486565b90815260200160405180910390205481548110610f5c57610f5c61242e565b90600052602060002090600502016040518060a0016040529081600082018054610f85906123b5565b80601f0160208091040260200160405190810160405280929190818152602001828054610fb1906123b5565b8015610ffe5780601f10610fd357610100808354040283529160200191610ffe565b820191906000526020600020905b815481529060010190602001808311610fe157829003601f168201915b50505050508152602001600182018054611017906123b5565b80601f0160208091040260200160405190810160405280929190818152602001828054611043906123b5565b80156110905780601f1061106557610100808354040283529160200191611090565b820191906000526020600020905b81548152906001019060200180831161107357829003601f168201915b505050505081526020016002820180546110a9906123b5565b80601f01602080910402602001604051908101604052809291908181526020018280546110d5906123b5565b80156111225780601f106110f757610100808354040283529160200191611122565b820191906000526020600020905b81548152906001019060200180831161110557829003601f168201915b5050505050815260200160038201805461113b906123b5565b80601f0160208091040260200160405190810160405280929190818152602001828054611167906123b5565b80156111b45780601f10611189576101008083540402835291602001916111b4565b820191906000526020600020905b81548152906001019060200180831161119757829003601f168201915b505050505081526020016004820180546111cd906123b5565b80601f01602080910402602001604051908101604052809291908181526020018280546111f9906123b5565b80156112465780601f1061121b57610100808354040283529160200191611246565b820191906000526020600020905b81548152906001019060200180831161122957829003601f168201915b5050505050815250509050919050565b336001600160a01b03831681036112a35760405162461bcd60e51b815260206004820152601160248201527030b8383937bb32903a379031b0b63632b960791b60448201526064016105f1565b6001600160a01b03818116600081815260056020908152604080832094881680845294825291829020805460ff191687151590811790915591519182527f17307eab39ab6107e8899845ad3d59bd9653f200f220920489ca2b5937696c31910160405180910390a3505050565b61131a33836117f7565b6113365760405162461bcd60e51b81526004016105f1906123e9565b610ee484848484611aa9565b61134d838383610d31565b600081815260076020526040812054905043600b82815481106113725761137261242e565b600091825260209091200155610ee4826000908152600d6020908152604082208054600181018255908352912043910155565b604080516020810190915260008152606090604051806020016040528060008152505b9392505050565b600b81815481106113df57600080fd5b600091825260209091200154905081565b6001600160a01b038116600090815260086020908152604091829020805483518184028101840190945280845260609392830182828015610763576020028201919060005260206000209081548152602001906001019080831161074f5750505050509050919050565b336000908152600c602090815260409182902080548351818402810184019094528084526060939283018282801561057357602002820191906000526020600020905b81548152602001906001019080831161149d575050505050905090565b600080600b83815481106114d0576114d061242e565b600091825260209091200154409392505050565b600a81815481106114f457600080fd5b9060005260206000209060050201600091509050806000018054611517906123b5565b80601f0160208091040260200160405190810160405280929190818152602001828054611543906123b5565b80156115905780601f1061156557610100808354040283529160200191611590565b820191906000526020600020905b81548152906001019060200180831161157357829003601f168201915b5050505050908060010180546115a5906123b5565b80601f01602080910402602001604051908101604052809291908181526020018280546115d1906123b5565b801561161e5780601f106115f35761010080835404028352916020019161161e565b820191906000526020600020905b81548152906001019060200180831161160157829003601f168201915b505050505090806002018054611633906123b5565b80601f016020809104026020016040519081016040528092919081815260200182805461165f906123b5565b80156116ac5780601f10611681576101008083540402835291602001916116ac565b820191906000526020600020905b81548152906001019060200180831161168f57829003601f168201915b5050505050908060030180546116c1906123b5565b80601f01602080910402602001604051908101604052809291908181526020018280546116ed906123b5565b801561173a5780601f1061170f5761010080835404028352916020019161173a565b820191906000526020600020905b81548152906001019060200180831161171d57829003601f168201915b50505050509080600401805461174f906123b5565b80601f016020809104026020016040519081016040528092919081815260200182805461177b906123b5565b80156117c85780601f1061179d576101008083540402835291602001916117c8565b820191906000526020600020905b8154815290600101906020018083116117ab57829003601f168201915b5050505050905085565b60006001600160e01b0319821663780e9d6360e01b14806104e557506104e582611bb2565b6000818152600260205260408120546001600160a01b03166118525760405162461bcd60e51b81526020600482015260146024820152731d1bdad95b88191bdcd9481b9bdd08195e1a5cdd60621b60448201526064016105f1565b600061185d836108d4565b9050806001600160a01b0316846001600160a01b0316148061189857506000838152600460205260409020546001600160a01b038581169116145b949350505050565b826001600160a01b03166118b3826108d4565b6001600160a01b0316146119265760405162461bcd60e51b815260206004820152603460248201527f547279696e6720746f207472616e73666572206120746f6b656e20746865206160448201527364647265737320646f6573206e6f74206f776e2160601b60648201526084016105f1565b6001600160a01b0382166119905760405162461bcd60e51b815260206004820152602b60248201527f4572726f72202d20455243373231205472616e7366657220746f20746865207a60448201526a65726f206164647265737360a81b60648201526084016105f1565b6001600160a01b038084166000818152600360209081526040808320805460001901905593861680835284832080546001019055858352600290915283822080546001600160a01b031916821790559251849392917fddf252ad1be2c89b69c2b068fc378daa952ba7f163c4a11628f55a4df523b3ef91a4505050565b611a178282611be7565b611a218282611a6d565b611a6981600680546000838152600760205260408120829055600182018355919091527ff652222313e28459528d920b65115c16c04f3efc82aaedc97be59f3f377c0d3f0155565b5050565b6001600160a01b039091166000908152600860209081526040808320805460018101825581855283852001859055549383526009909152902055565b611ab48484846118a0565b611ac084848484611d36565b610ee45760405162461bcd60e51b81526004016105f1906126a8565b8115611b025780611aec8161252e565b9150611afb9050600a83612710565b9150611adc565b60008167ffffffffffffffff811115611b1d57611b1d611fca565b6040519080825280601f01601f191660200182016040528015611b47576020820181803683370190505b5090505b841561189857611b5c600183612655565b9150611b69600a86612724565b611b74906030612668565b60f81b818381518110611b8957611b8961242e565b60200101906001600160f81b031916908160001a905350611bab600a86612710565b9450611b4b565b60006001600160e01b031982166380ac58cd60e01b14806104e557506301ffc9a760e01b6001600160e01b03198316146104e5565b6001600160a01b038216611c495760405162461bcd60e51b815260206004820152602360248201527f4552433732313a206d696e74696e6720746f20746865207a65726f206164647260448201526265737360e81b60648201526084016105f1565b6000818152600260205260409020546001600160a01b031615611cae5760405162461bcd60e51b815260206004820152601c60248201527f4552433732313a20746f6b656e20616c7265616479206d696e7465640000000060448201526064016105f1565b600081815260026020908152604080832080546001600160a01b0319166001600160a01b038716908117909155835260039091528120805460019290611cf5908490612668565b909155505060405181906001600160a01b038416906000907fddf252ad1be2c89b69c2b068fc378daa952ba7f163c4a11628f55a4df523b3ef908290a45050565b60006001600160a01b0384163b15611e2c57604051630a85bd0160e11b81526001600160a01b0385169063150b7a0290611d7a903390899088908890600401612738565b6020604051808303816000875af1925050508015611db5575060408051601f3d908101601f19168201909252611db291810190612775565b60015b611e12573d808015611de3576040519150601f19603f3d011682016040523d82523d6000602084013e611de8565b606091505b508051600003611e0a5760405162461bcd60e51b81526004016105f1906126a8565b805181602001fd5b6001600160e01b031916630a85bd0160e11b149050611898565b506001949350505050565b6001600160e01b031981168114611e4d57600080fd5b50565b600060208284031215611e6257600080fd5b81356113c881611e37565b60005b83811015611e88578181015183820152602001611e70565b50506000910152565b60008151808452611ea9816020860160208601611e6d565b601f01601f19169290920160200192915050565b6020815260006113c86020830184611e91565b600060208284031215611ee257600080fd5b5035919050565b80356001600160a01b0381168114611f0057600080fd5b919050565b60008060408385031215611f1857600080fd5b611f2183611ee9565b946020939093013593505050565b600060208284031215611f4157600080fd5b6113c882611ee9565b6020808252825182820181905260009190848201906040850190845b81811015611f8257835183529284019291840191600101611f66565b50909695505050505050565b600080600060608486031215611fa357600080fd5b611fac84611ee9565b9250611fba60208501611ee9565b9150604084013590509250925092565b634e487b7160e01b600052604160045260246000fd5b600067ffffffffffffffff80841115611ffb57611ffb611fca565b604051601f8501601f19908116603f0116810190828211818310171561202357612023611fca565b8160405280935085815286868601111561203c57600080fd5b858560208301376000602087830101525050509392505050565b600082601f83011261206757600080fd5b6113c883833560208501611fe0565b6000806040838503121561208957600080fd5b823567ffffffffffffffff8111156120a057600080fd5b6120ac85828601612056565b95602094909401359450505050565b600080600080600060a086880312156120d357600080fd5b853567ffffffffffffffff808211156120eb57600080fd5b6120f789838a01612056565b9650602088013591508082111561210d57600080fd5b61211989838a01612056565b9550604088013591508082111561212f57600080fd5b61213b89838a01612056565b9450606088013591508082111561215157600080fd5b61215d89838a01612056565b9350608088013591508082111561217357600080fd5b5061218088828901612056565b9150509295509295909350565b60006020828403121561219f57600080fd5b813567ffffffffffffffff8111156121b657600080fd5b61189884828501612056565b602081526000825160a060208401526121de60c0840182611e91565b90506020840151601f19808584030160408601526121fc8383611e91565b925060408601519150808584030160608601526122198383611e91565b925060608601519150808584030160808601526122368383611e91565b925060808601519150808584030160a0860152506122548282611e91565b95945050505050565b6000806040838503121561227057600080fd5b61227983611ee9565b91506020830135801515811461228e57600080fd5b809150509250929050565b600080600080608085870312156122af57600080fd5b6122b885611ee9565b93506122c660208601611ee9565b925060408501359150606085013567ffffffffffffffff8111156122e957600080fd5b8501601f810187136122fa57600080fd5b61230987823560208401611fe0565b91505092959194509250565b6000806040838503121561232857600080fd5b61233183611ee9565b915061233f60208401611ee9565b90509250929050565b60a08152600061235b60a0830188611e91565b828103602084015261236d8188611e91565b905082810360408401526123818187611e91565b905082810360608401526123958186611e91565b905082810360808401526123a98185611e91565b98975050505050505050565b600181811c908216806123c957607f821691505b6020821081036109bb57634e487b7160e01b600052602260045260246000fd5b60208082526025908201527f73656e646572206973206e6f7420746f6b656e204f776e6572206f72204170706040820152641c9bdd995960da1b606082015260800190565b634e487b7160e01b600052603260045260246000fd5b60208082526022908201527f6f776e657220717565727920666f72206e6f6e2d6578697374656e7420746f6b60408201526132b760f11b606082015260800190565b60008251612498818460208701611e6d565b9190910192915050565b60008083546124b0816123b5565b600182811680156124c857600181146124dd5761250c565b60ff198416875282151583028701945061250c565b8760005260208060002060005b858110156125035781548a8201529084019082016124ea565b50505082870194505b50929695505050505050565b634e487b7160e01b600052601160045260246000fd5b60006001820161254057612540612518565b5060010190565b601f8211156107a057600081815260208120601f850160051c8101602086101561256e5750805b601f850160051c820191505b8181101561258d5782815560010161257a565b505050505050565b815167ffffffffffffffff8111156125af576125af611fca565b6125c3816125bd84546123b5565b84612547565b602080601f8311600181146125f857600084156125e05750858301515b600019600386901b1c1916600185901b17855561258d565b600085815260208120601f198616915b8281101561262757888601518255948401946001909101908401612608565b50858210156126455787850151600019600388901b60f8161c191681555b5050505050600190811b01905550565b818103818111156104e5576104e5612518565b808201808211156104e5576104e5612518565b60008161268a5761268a612518565b506000190190565b634e487b7160e01b600052603160045260246000fd5b60208082526032908201527f4552433732313a207472616e7366657220746f206e6f6e20455243373231526560408201527131b2b4bb32b91034b6b83632b6b2b73a32b960711b606082015260800190565b634e487b7160e01b600052601260045260246000fd5b60008261271f5761271f6126fa565b500490565b600082612733576127336126fa565b500690565b6001600160a01b038581168252841660208201526040810183905260806060820181905260009061276b90830184611e91565b9695505050505050565b60006020828403121561278757600080fd5b81516113c881611e3756fea264697066735822122030727922a0ebeb34225d55e1f85e57e8463c1d6438b4ba42c294035be5963cb564736f6c63430008110033",
  "immutableReferences": {},
  "source": "// SPDX-License-Identifier: MIT\r\npragma solidity ^0.8.0;\r\n\r\nimport \"./tokens/ERC721/ERC721Connector.sol\";\r\n\r\ncontract NG is ERC721Connector {\r\n    // struct nft    struct  nft \r\n    struct NGInfo {\r\n        string brandNm;\r\n        string productNo;\r\n        string serialNo;\r\n        string mfd;\r\n        string madeIn;\r\n    }\r\n\r\n    NGInfo[] public ngs;\r\n    // string[] public ngs;\r\n\r\n    uint256[] public blockNos;\r\n    // string[] public txnHashes;\r\n\r\n    // minted account address => token ids\r\n    mapping(address => uint256[]) private _mintedTokens;\r\n\r\n    // mapping for block number (previous txn hash)\r\n    // tokenId => block numbers\r\n    mapping(uint256 => uint256[]) private _tokenHistory;\r\n\r\n    // mapping(NGInfo => bool) _ngExists;\r\n    // mapping(string => bool) _ngExists;\r\n\r\n    mapping(address => uint8) _accountsAuth; // : 0, : 1, : 2\r\n\r\n    // txnhash -> tokenid\r\n    mapping(string => uint256) private _txnHashToTokenId;\r\n\r\n    //ng) input: txnhash, output: NG\r\n    function getNGFromTxnHash(string memory _txnHash) public view returns (NGInfo memory) {\r\n        return ngs[_txnHashToTokenId[_txnHash]];\r\n    } \r\n    //ng) input: txnhash & tokenId\r\n    //ng) mint, transfer front \r\n    function setTxnHashToTokenId(string memory _txnHash, uint256 _tokenId) public {\r\n        _txnHashToTokenId[_txnHash] = _tokenId;\r\n    }\r\n\r\n    //ng) msg.sender     (  )\r\n    function getMintedTokens() public view returns (uint256[] memory) {\r\n        return _mintedTokens[msg.sender];\r\n    }\r\n\r\n    // function getTxnHash(uint256 _tokenId) public view returns (string memory) {\r\n    //     return txnHashes[_tokenId];\r\n    // }\r\n\r\n    // function setTxnHash(uint256 _tokenId, string memory _txnHash) public {\r\n    //     txnHashes[_tokenId] = _txnHash;\r\n    // }\r\n\r\n    function getBlockHash(uint256 _idx) public view returns (bytes32) {\r\n        uint256 _blockNo = blockNos[_idx];\r\n        return blockhash(_blockNo);\r\n    }\r\n\r\n    modifier checkZeroAddress(address _address) {\r\n        require(_address != address(0));\r\n        _;\r\n    }\r\n\r\n    function getAccountAuth(address _address)\r\n        public\r\n        view\r\n        checkZeroAddress(_address)\r\n        returns (uint8)\r\n    {\r\n        uint8 _auth = _accountsAuth[_address];\r\n        return _auth;\r\n    }\r\n\r\n    function setBrandAccountAuth(address _address)\r\n        public\r\n        checkZeroAddress(_address)\r\n    {\r\n        _accountsAuth[_address] = 1;\r\n    }\r\n\r\n    function setAdminAccountAuth(address _address)\r\n        public\r\n        checkZeroAddress(_address)\r\n    {\r\n        _accountsAuth[_address] = 2;\r\n    }\r\n\r\n    modifier ngExists(\r\n        string memory _brandNm,\r\n        string memory _productNo,\r\n        string memory _serialNo,\r\n        string memory _mfd,\r\n        string memory _madeIn\r\n    ) {\r\n        bool check = false;\r\n        for (uint256 i = 0; i < ngs.length; i++) {\r\n            if (\r\n                keccak256(bytes(ngs[i].brandNm)) ==\r\n                keccak256(bytes(_brandNm)) &&\r\n                keccak256(bytes(ngs[i].productNo)) ==\r\n                keccak256(bytes(_productNo)) &&\r\n                keccak256(bytes(ngs[i].serialNo)) ==\r\n                keccak256(bytes(_serialNo)) &&\r\n                keccak256(bytes(ngs[i].mfd)) == keccak256(bytes(_mfd)) &&\r\n                keccak256(bytes(ngs[i].madeIn)) == keccak256(bytes(_madeIn))\r\n            ) {\r\n                check = true;\r\n            }\r\n        }\r\n        require(!check, \"Error _ngInfo already exists\");\r\n        _;\r\n    }\r\n\r\n    function addTokenHistory(uint256 _tokenId) private {\r\n        _tokenHistory[_tokenId].push(block.number);\r\n    }\r\n\r\n    function getTokenHistory(uint256 tokenId)\r\n        public\r\n        view\r\n        returns (uint256[] memory)\r\n    {\r\n        return _tokenHistory[tokenId];\r\n    }\r\n\r\n    function transferNG(\r\n        address _from,\r\n        address _to,\r\n        uint256 _tokenId\r\n    ) public {\r\n        _transferNG(_from, _to, _tokenId);\r\n        uint256 _index = getIndexFromTokenId(_tokenId);\r\n        blockNos[_index] = block.number;\r\n\r\n        addTokenHistory(_tokenId);\r\n    }\r\n\r\n    function mint(\r\n        string memory _brandNm,\r\n        string memory _productNo,\r\n        string memory _serialNo,\r\n        string memory _mfd,\r\n        string memory _madeIn\r\n    ) public ngExists(_brandNm, _productNo, _serialNo, _mfd, _madeIn) {\r\n        NGInfo memory _ngInfo = NGInfo(\r\n            _brandNm,\r\n            _productNo,\r\n            _serialNo,\r\n            _mfd,\r\n            _madeIn\r\n        );\r\n        // require(ngs[_ngInfo]!='', 'Error _ngInfo already exists');\r\n        // require(!_ngExists[_ngInfo], 'Error _ngInfo already exists');\r\n\r\n        ngs.push(_ngInfo);\r\n        blockNos.push(block.number);\r\n        uint256 _id = ngs.length - 1;\r\n        _mint(msg.sender, _id);\r\n\r\n        _mintedTokens[msg.sender].push(_id);\r\n        addTokenHistory(_id);\r\n        // _ngExists[_ngInfo] = true;\r\n    }\r\n\r\n    // function mint(string memory _ng) public {\r\n    //     require(!_ngExists[_ng], 'Error -ng already exists');\r\n\r\n    //     ngs.push(_ng);\r\n    //     uint256 _id = ngs.length - 1;\r\n    //     _mint(msg.sender, _id);\r\n\r\n    //     _ngExists[_ng] = true;\r\n    // }\r\n\r\n    constructor(string memory named, string memory symbolified)\r\n        ERC721Connector(named, symbolified)\r\n    {}\r\n}\r\n",
  "sourcePath": "C:\\Users\\SSAFY\\projects\\pjt2\\repo\\S07P22E206\\smart-contracts\\src\\contracts\\NG.sol",
  "compiler": {
    "name": "solc",
    "version": "0.8.17+commit.8df45f5f.Emscripten.clang"
  },
  "schemaVersion": "3.4.9",
  "updatedAt": "2022-09-22T07:03:07.214Z",
  "networkType": "ethereum",
  "devdoc": {
    "kind": "dev",
    "methods": {
      "balanceOf(address)": {
        "details": "Returns the number of tokens in ``owner``'s account."
      },
      "getApproved(uint256)": {
        "details": "Returns the account approved for `tokenId` token. Requirements: - `tokenId` must exist."
      },
      "isApprovedForAll(address,address)": {
        "details": "Returns if the `operator` is allowed to manage all of the assets of `owner`. See {setApprovalForAll}"
      },
      "safeTransferFrom(address,address,uint256)": {
        "details": "Safely transfers `tokenId` token from `from` to `to`, checking first that contract recipients are aware of the ERC721 protocol to prevent tokens from being forever locked. Requirements: - `from` cannot be the zero address. - `to` cannot be the zero address. - `tokenId` token must exist and be owned by `from`. - If the caller is not `from`, it must be have been allowed to move this token by either {approve} or {setApprovalForAll}. - If `to` refers to a smart contract, it must implement {IERC721Receiver-onERC721Received}, which is called upon a safe transfer. Emits a {Transfer} event."
      },
      "safeTransferFrom(address,address,uint256,bytes)": {
        "details": "Safely transfers `tokenId` token from `from` to `to`. Requirements: - `from` cannot be the zero address. - `to` cannot be the zero address. - `tokenId` token must exist and be owned by `from`. - If the caller is not `from`, it must be approved to move this token by either {approve} or {setApprovalForAll}. - If `to` refers to a smart contract, it must implement {IERC721Receiver-onERC721Received}, which is called upon a safe transfer. Emits a {Transfer} event."
      },
      "setApprovalForAll(address,bool)": {
        "details": "Approve or remove `operator` as an operator for the caller. Operators can call {transferFrom} or {safeTransferFrom} for any token owned by the caller. Requirements: - The `operator` cannot be the caller. Emits an {ApprovalForAll} event."
      }
    },
    "version": 1
  },
  "userdoc": {
    "kind": "user",
    "methods": {},
    "version": 1
  }
}