{
  "contractName": "NG",
  "abi": [
    {
      "inputs": [
        {
          "internalType": "string",
          "name": "named",
          "type": "string"
        },
        {
          "internalType": "string",
          "name": "symbolified",
          "type": "string"
        }
      ],
      "stateMutability": "nonpayable",
      "type": "constructor"
    },
    {
      "anonymous": false,
      "inputs": [
        {
          "indexed": true,
          "internalType": "address",
          "name": "owner",
          "type": "address"
        },
        {
          "indexed": true,
          "internalType": "address",
          "name": "approved",
          "type": "address"
        },
        {
          "indexed": true,
          "internalType": "uint256",
          "name": "tokenId",
          "type": "uint256"
        }
      ],
      "name": "Approval",
      "type": "event"
    },
    {
      "anonymous": false,
      "inputs": [
        {
          "indexed": true,
          "internalType": "address",
          "name": "owner",
          "type": "address"
        },
        {
          "indexed": true,
          "internalType": "address",
          "name": "operator",
          "type": "address"
        },
        {
          "indexed": false,
          "internalType": "bool",
          "name": "approved",
          "type": "bool"
        }
      ],
      "name": "ApprovalForAll",
      "type": "event"
    },
    {
      "anonymous": false,
      "inputs": [
        {
          "indexed": true,
          "internalType": "address",
          "name": "from",
          "type": "address"
        },
        {
          "indexed": true,
          "internalType": "address",
          "name": "to",
          "type": "address"
        },
        {
          "indexed": true,
          "internalType": "uint256",
          "name": "tokenId",
          "type": "uint256"
        }
      ],
      "name": "Transfer",
      "type": "event"
    },
    {
      "inputs": [
        {
          "internalType": "address",
          "name": "_from",
          "type": "address"
        },
        {
          "internalType": "address",
          "name": "_to",
          "type": "address"
        },
        {
          "internalType": "uint256",
          "name": "_tokenId",
          "type": "uint256"
        }
      ],
      "name": "_transferNG",
      "outputs": [],
      "stateMutability": "nonpayable",
      "type": "function"
    },
    {
      "inputs": [
        {
          "internalType": "address",
          "name": "_to",
          "type": "address"
        },
        {
          "internalType": "uint256",
          "name": "tokenId",
          "type": "uint256"
        }
      ],
      "name": "approve",
      "outputs": [],
      "stateMutability": "nonpayable",
      "type": "function"
    },
    {
      "inputs": [
        {
          "internalType": "address",
          "name": "owner",
          "type": "address"
        }
      ],
      "name": "balanceOf",
      "outputs": [
        {
          "internalType": "uint256",
          "name": "",
          "type": "uint256"
        }
      ],
      "stateMutability": "view",
      "type": "function",
      "constant": true
    },
    {
      "inputs": [
        {
          "internalType": "uint256",
          "name": "",
          "type": "uint256"
        }
      ],
      "name": "blockNos",
      "outputs": [
        {
          "internalType": "uint256",
          "name": "",
          "type": "uint256"
        }
      ],
      "stateMutability": "view",
      "type": "function",
      "constant": true
    },
    {
      "inputs": [
        {
          "internalType": "uint256",
          "name": "tokenId",
          "type": "uint256"
        }
      ],
      "name": "getApproved",
      "outputs": [
        {
          "internalType": "address",
          "name": "",
          "type": "address"
        }
      ],
      "stateMutability": "view",
      "type": "function",
      "constant": true
    },
    {
      "inputs": [
        {
          "internalType": "uint256",
          "name": "_tokenId",
          "type": "uint256"
        }
      ],
      "name": "getIndexFromTokenId",
      "outputs": [
        {
          "internalType": "uint256",
          "name": "",
          "type": "uint256"
        }
      ],
      "stateMutability": "view",
      "type": "function",
      "constant": true
    },
    {
      "inputs": [
        {
          "internalType": "address",
          "name": "_address",
          "type": "address"
        }
      ],
      "name": "getOwnedTokens",
      "outputs": [
        {
          "internalType": "uint256[]",
          "name": "",
          "type": "uint256[]"
        }
      ],
      "stateMutability": "view",
      "type": "function",
      "constant": true
    },
    {
      "inputs": [
        {
          "internalType": "address",
          "name": "owner",
          "type": "address"
        },
        {
          "internalType": "address",
          "name": "operator",
          "type": "address"
        }
      ],
      "name": "isApprovedForAll",
      "outputs": [
        {
          "internalType": "bool",
          "name": "",
          "type": "bool"
        }
      ],
      "stateMutability": "view",
      "type": "function",
      "constant": true
    },
    {
      "inputs": [],
      "name": "name",
      "outputs": [
        {
          "internalType": "string",
          "name": "",
          "type": "string"
        }
      ],
      "stateMutability": "view",
      "type": "function",
      "constant": true
    },
    {
      "inputs": [
        {
          "internalType": "uint256",
          "name": "",
          "type": "uint256"
        }
      ],
      "name": "ngs",
      "outputs": [
        {
          "internalType": "string",
          "name": "serialNo",
          "type": "string"
        },
        {
          "components": [
            {
              "internalType": "string",
              "name": "brandNm",
              "type": "string"
            },
            {
              "internalType": "string",
              "name": "productName",
              "type": "string"
            },
            {
              "internalType": "string",
              "name": "productNo",
              "type": "string"
            },
            {
              "internalType": "string",
              "name": "mfd",
              "type": "string"
            },
            {
              "internalType": "string",
              "name": "madeIn",
              "type": "string"
            }
          ],
          "internalType": "struct NG.Product",
          "name": "product",
          "type": "tuple"
        }
      ],
      "stateMutability": "view",
      "type": "function",
      "constant": true
    },
    {
      "inputs": [
        {
          "internalType": "uint256",
          "name": "_tokenId",
          "type": "uint256"
        }
      ],
      "name": "ownerOf",
      "outputs": [
        {
          "internalType": "address",
          "name": "",
          "type": "address"
        }
      ],
      "stateMutability": "view",
      "type": "function",
      "constant": true
    },
    {
      "inputs": [
        {
          "internalType": "address",
          "name": "from",
          "type": "address"
        },
        {
          "internalType": "address",
          "name": "to",
          "type": "address"
        },
        {
          "internalType": "uint256",
          "name": "tokenId",
          "type": "uint256"
        }
      ],
      "name": "safeTransferFrom",
      "outputs": [],
      "stateMutability": "nonpayable",
      "type": "function"
    },
    {
      "inputs": [
        {
          "internalType": "address",
          "name": "from",
          "type": "address"
        },
        {
          "internalType": "address",
          "name": "to",
          "type": "address"
        },
        {
          "internalType": "uint256",
          "name": "tokenId",
          "type": "uint256"
        },
        {
          "internalType": "bytes",
          "name": "data",
          "type": "bytes"
        }
      ],
      "name": "safeTransferFrom",
      "outputs": [],
      "stateMutability": "nonpayable",
      "type": "function"
    },
    {
      "inputs": [
        {
          "internalType": "address",
          "name": "operator",
          "type": "address"
        },
        {
          "internalType": "bool",
          "name": "_approved",
          "type": "bool"
        }
      ],
      "name": "setApprovalForAll",
      "outputs": [],
      "stateMutability": "nonpayable",
      "type": "function"
    },
    {
      "inputs": [
        {
          "internalType": "bytes4",
          "name": "interfaceId",
          "type": "bytes4"
        }
      ],
      "name": "supportsInterface",
      "outputs": [
        {
          "internalType": "bool",
          "name": "",
          "type": "bool"
        }
      ],
      "stateMutability": "view",
      "type": "function",
      "constant": true
    },
    {
      "inputs": [],
      "name": "symbol",
      "outputs": [
        {
          "internalType": "string",
          "name": "",
          "type": "string"
        }
      ],
      "stateMutability": "view",
      "type": "function",
      "constant": true
    },
    {
      "inputs": [
        {
          "internalType": "uint256",
          "name": "index",
          "type": "uint256"
        }
      ],
      "name": "tokenByIndex",
      "outputs": [
        {
          "internalType": "uint256",
          "name": "",
          "type": "uint256"
        }
      ],
      "stateMutability": "view",
      "type": "function",
      "constant": true
    },
    {
      "inputs": [
        {
          "internalType": "address",
          "name": "owner",
          "type": "address"
        },
        {
          "internalType": "uint256",
          "name": "index",
          "type": "uint256"
        }
      ],
      "name": "tokenOfOwnerByIndex",
      "outputs": [
        {
          "internalType": "uint256",
          "name": "",
          "type": "uint256"
        }
      ],
      "stateMutability": "view",
      "type": "function",
      "constant": true
    },
    {
      "inputs": [
        {
          "internalType": "uint256",
          "name": "tokenId",
          "type": "uint256"
        }
      ],
      "name": "tokenURI",
      "outputs": [
        {
          "internalType": "string",
          "name": "",
          "type": "string"
        }
      ],
      "stateMutability": "view",
      "type": "function",
      "constant": true
    },
    {
      "inputs": [],
      "name": "totalSupply",
      "outputs": [
        {
          "internalType": "uint256",
          "name": "",
          "type": "uint256"
        }
      ],
      "stateMutability": "view",
      "type": "function",
      "constant": true
    },
    {
      "inputs": [
        {
          "internalType": "address",
          "name": "_from",
          "type": "address"
        },
        {
          "internalType": "address",
          "name": "_to",
          "type": "address"
        },
        {
          "internalType": "uint256",
          "name": "_tokenId",
          "type": "uint256"
        }
      ],
      "name": "transferFrom",
      "outputs": [],
      "stateMutability": "nonpayable",
      "type": "function"
    },
    {
      "inputs": [
        {
          "internalType": "address",
          "name": "caller",
          "type": "address"
        }
      ],
      "name": "getAddressToCategorys",
      "outputs": [
        {
          "components": [
            {
              "internalType": "string",
              "name": "brandNm",
              "type": "string"
            },
            {
              "internalType": "string",
              "name": "productName",
              "type": "string"
            },
            {
              "internalType": "string",
              "name": "productNo",
              "type": "string"
            },
            {
              "internalType": "string",
              "name": "mfd",
              "type": "string"
            },
            {
              "internalType": "string",
              "name": "madeIn",
              "type": "string"
            }
          ],
          "internalType": "struct NG.Product[]",
          "name": "",
          "type": "tuple[]"
        }
      ],
      "stateMutability": "view",
      "type": "function",
      "constant": true
    },
    {
      "inputs": [
        {
          "internalType": "address",
          "name": "caller",
          "type": "address"
        },
        {
          "internalType": "string",
          "name": "productNo",
          "type": "string"
        }
      ],
      "name": "getCategoryIndex",
      "outputs": [
        {
          "internalType": "uint256",
          "name": "",
          "type": "uint256"
        }
      ],
      "stateMutability": "view",
      "type": "function",
      "constant": true
    },
    {
      "inputs": [
        {
          "internalType": "address",
          "name": "caller",
          "type": "address"
        },
        {
          "internalType": "uint256",
          "name": "categoryIdx",
          "type": "uint256"
        }
      ],
      "name": "getProductidxToNgs",
      "outputs": [
        {
          "components": [
            {
              "internalType": "string",
              "name": "serialNo",
              "type": "string"
            },
            {
              "components": [
                {
                  "internalType": "string",
                  "name": "brandNm",
                  "type": "string"
                },
                {
                  "internalType": "string",
                  "name": "productName",
                  "type": "string"
                },
                {
                  "internalType": "string",
                  "name": "productNo",
                  "type": "string"
                },
                {
                  "internalType": "string",
                  "name": "mfd",
                  "type": "string"
                },
                {
                  "internalType": "string",
                  "name": "madeIn",
                  "type": "string"
                }
              ],
              "internalType": "struct NG.Product",
              "name": "product",
              "type": "tuple"
            }
          ],
          "internalType": "struct NG.NGInfo[]",
          "name": "",
          "type": "tuple[]"
        }
      ],
      "stateMutability": "view",
      "type": "function",
      "constant": true
    },
    {
      "inputs": [
        {
          "internalType": "address",
          "name": "caller",
          "type": "address"
        },
        {
          "internalType": "string",
          "name": "productNo",
          "type": "string"
        }
      ],
      "name": "getProductnoToNgs",
      "outputs": [
        {
          "components": [
            {
              "internalType": "string",
              "name": "serialNo",
              "type": "string"
            },
            {
              "components": [
                {
                  "internalType": "string",
                  "name": "brandNm",
                  "type": "string"
                },
                {
                  "internalType": "string",
                  "name": "productName",
                  "type": "string"
                },
                {
                  "internalType": "string",
                  "name": "productNo",
                  "type": "string"
                },
                {
                  "internalType": "string",
                  "name": "mfd",
                  "type": "string"
                },
                {
                  "internalType": "string",
                  "name": "madeIn",
                  "type": "string"
                }
              ],
              "internalType": "struct NG.Product",
              "name": "product",
              "type": "tuple"
            }
          ],
          "internalType": "struct NG.NGInfo[]",
          "name": "",
          "type": "tuple[]"
        }
      ],
      "stateMutability": "view",
      "type": "function",
      "constant": true
    },
    {
      "inputs": [
        {
          "internalType": "string",
          "name": "_txnHash",
          "type": "string"
        }
      ],
      "name": "getTokenIdFromTxnHash",
      "outputs": [
        {
          "internalType": "uint256",
          "name": "",
          "type": "uint256"
        }
      ],
      "stateMutability": "view",
      "type": "function",
      "constant": true
    },
    {
      "inputs": [
        {
          "internalType": "string",
          "name": "_txnHash",
          "type": "string"
        },
        {
          "internalType": "uint256",
          "name": "_tokenId",
          "type": "uint256"
        }
      ],
      "name": "setTxnHashToTokenId",
      "outputs": [],
      "stateMutability": "nonpayable",
      "type": "function"
    },
    {
      "inputs": [],
      "name": "getMintedTokens",
      "outputs": [
        {
          "internalType": "uint256[]",
          "name": "",
          "type": "uint256[]"
        }
      ],
      "stateMutability": "view",
      "type": "function",
      "constant": true
    },
    {
      "inputs": [
        {
          "internalType": "uint256",
          "name": "_idx",
          "type": "uint256"
        }
      ],
      "name": "getBlockHash",
      "outputs": [
        {
          "internalType": "bytes32",
          "name": "",
          "type": "bytes32"
        }
      ],
      "stateMutability": "view",
      "type": "function",
      "constant": true
    },
    {
      "inputs": [
        {
          "internalType": "address",
          "name": "_address",
          "type": "address"
        }
      ],
      "name": "getAccountAuth",
      "outputs": [
        {
          "internalType": "uint8",
          "name": "",
          "type": "uint8"
        }
      ],
      "stateMutability": "view",
      "type": "function",
      "constant": true
    },
    {
      "inputs": [
        {
          "internalType": "address",
          "name": "_address",
          "type": "address"
        }
      ],
      "name": "setBrandAccountAuth",
      "outputs": [],
      "stateMutability": "nonpayable",
      "type": "function"
    },
    {
      "inputs": [
        {
          "internalType": "address",
          "name": "_address",
          "type": "address"
        }
      ],
      "name": "setAdminAccountAuth",
      "outputs": [],
      "stateMutability": "nonpayable",
      "type": "function"
    },
    {
      "inputs": [
        {
          "internalType": "uint256",
          "name": "tokenId",
          "type": "uint256"
        }
      ],
      "name": "getTokenHistory",
      "outputs": [
        {
          "components": [
            {
              "internalType": "uint256",
              "name": "blockNumber",
              "type": "uint256"
            },
            {
              "internalType": "uint256",
              "name": "year",
              "type": "uint256"
            },
            {
              "internalType": "uint256",
              "name": "month",
              "type": "uint256"
            }
          ],
          "internalType": "struct NG.History[]",
          "name": "",
          "type": "tuple[]"
        }
      ],
      "stateMutability": "view",
      "type": "function",
      "constant": true
    },
    {
      "inputs": [
        {
          "internalType": "address",
          "name": "_from",
          "type": "address"
        },
        {
          "internalType": "address",
          "name": "_to",
          "type": "address"
        },
        {
          "internalType": "uint256",
          "name": "_tokenId",
          "type": "uint256"
        },
        {
          "internalType": "uint256",
          "name": "_year",
          "type": "uint256"
        },
        {
          "internalType": "uint256",
          "name": "_month",
          "type": "uint256"
        }
      ],
      "name": "transferNG",
      "outputs": [],
      "stateMutability": "nonpayable",
      "type": "function"
    },
    {
      "inputs": [
        {
          "internalType": "string",
          "name": "_brandNm",
          "type": "string"
        },
        {
          "internalType": "string",
          "name": "_productName",
          "type": "string"
        },
        {
          "internalType": "string",
          "name": "_productNo",
          "type": "string"
        },
        {
          "internalType": "string",
          "name": "_mfd",
          "type": "string"
        },
        {
          "internalType": "string",
          "name": "_madeIn",
          "type": "string"
        }
      ],
      "name": "addProduct",
      "outputs": [],
      "stateMutability": "nonpayable",
      "type": "function"
    },
    {
      "inputs": [
        {
          "internalType": "string",
          "name": "_productNo",
          "type": "string"
        },
        {
          "internalType": "string",
          "name": "_serialNo",
          "type": "string"
        },
        {
          "internalType": "uint256",
          "name": "_year",
          "type": "uint256"
        },
        {
          "internalType": "uint256",
          "name": "_month",
          "type": "uint256"
        }
      ],
      "name": "mint",
      "outputs": [],
      "stateMutability": "nonpayable",
      "type": "function"
    }
  ],
  "bytecode": "0x60806040523480156200001157600080fd5b5060405162003d0838038062003d08833981016040819052620000349162000127565b81818181600062000046838262000220565b50600162000055828262000220565b50505050505050620002ec565b634e487b7160e01b600052604160045260246000fd5b600082601f8301126200008a57600080fd5b81516001600160401b0380821115620000a757620000a762000062565b604051601f8301601f19908116603f01168101908282118183101715620000d257620000d262000062565b81604052838152602092508683858801011115620000ef57600080fd5b600091505b83821015620001135785820183015181830184015290820190620000f4565b600093810190920192909252949350505050565b600080604083850312156200013b57600080fd5b82516001600160401b03808211156200015357600080fd5b620001618683870162000078565b935060208501519150808211156200017857600080fd5b50620001878582860162000078565b9150509250929050565b600181811c90821680620001a657607f821691505b602082108103620001c757634e487b7160e01b600052602260045260246000fd5b50919050565b601f8211156200021b57600081815260208120601f850160051c81016020861015620001f65750805b601f850160051c820191505b81811015620002175782815560010162000202565b5050505b505050565b81516001600160401b038111156200023c576200023c62000062565b62000254816200024d845462000191565b84620001cd565b602080601f8311600181146200028c5760008415620002735750858301515b600019600386901b1c1916600185901b17855562000217565b600085815260208120601f198616915b82811015620002bd578886015182559484019460019091019084016200029c565b5085821015620002dc5787850151600019600388901b60f8161c191681555b5050505050600190811b01905550565b613a0c80620002fc6000396000f3fe608060405234801561001057600080fd5b506004361061021c5760003560e01c8063783a229011610125578063b9a918ce116100ad578063dc9652901161007c578063dc965290146104fc578063e985e9c514610504578063ee82ac5e14610540578063ef6da8d414610553578063f4ce94291461056657600080fd5b8063b9a918ce146104a3578063c87b56dd146104b6578063ccfe6d72146104c9578063d9d61655146104dc57600080fd5b80638d7b0e32116100f45780638d7b0e321461044257806395d89b4114610455578063a22cb4651461045d578063a8a07b3614610470578063b88d4fde1461049057600080fd5b8063783a2290146103e4578063793467051461040957806383ac6a9d1461041c5780638a7f1b5b1461042f57600080fd5b80633eb7ff58116101a85780636352211e116101775780636352211e146103785780636a1869131461038b578063702cc6971461039e57806370a08231146103b157806371c04cb5146103c457600080fd5b80633eb7ff581461031f57806342842e0e146103325780634f6ccce71461034557806362ffa25d1461035857600080fd5b8063100c5631116101ef578063100c5631146102b457806318160ddd146102c75780632142ae2c146102d957806323b872dd146102f95780632f745c591461030c57600080fd5b806301ffc9a71461022157806306fdde0314610249578063081812fc1461025e578063095ea7b31461029f575b600080fd5b61023461022f366004612e4e565b610587565b60405190151581526020015b60405180910390f35b610251610598565b6040516102409190612ebb565b61028761026c366004612ece565b6000908152600460205260409020546001600160a01b031690565b6040516001600160a01b039091168152602001610240565b6102b26102ad366004612f03565b61062a565b005b6102b26102c2366004612f2d565b610781565b6006545b604051908152602001610240565b6102ec6102e7366004612ece565b6107ba565b6040516102409190612f48565b6102b2610307366004612fa1565b61084a565b6102cb61031a366004612f03565b610880565b6102cb61032d366004613089565b610916565b6102b2610340366004612fa1565b610953565b6102cb610353366004612ece565b61096e565b61036b610366366004613089565b6109ec565b604051610240919061315c565b610287610386366004612ece565b610df9565b6102b2610399366004612f2d565b610e2e565b6102cb6103ac3660046131e1565b610fa7565b6102cb6103bf366004612f2d565b610fcf565b6103d76103d2366004612f2d565b611013565b6040516102409190613216565b6103f76103f2366004612f2d565b611357565b60405160ff9091168152602001610240565b6102b2610417366004613278565b611392565b61036b61042a366004612f03565b6113b7565b6102b261043d3660046132bd565b6117b5565b6102b2610450366004612fa1565b611804565b6102516119bd565b6102b261046b36600461330a565b6119cc565b6102cb61047e366004612ece565b60009081526007602052604090205490565b6102b261049e366004613346565b611a86565b6102b26104b13660046133c2565b611ab8565b6102516104c4366004612ece565b611f15565b6102cb6104d7366004612ece565b611f3f565b6104ef6104ea366004612f2d565b611f60565b6040516102409190613436565b6104ef611fcc565b61023461051236600461347a565b6001600160a01b03918216600090815260056020908152604080832093909416825291909152205460ff1690565b6102cb61054e366004612ece565b61202c565b6102b26105613660046134ad565b612056565b610579610574366004612ece565b6123d9565b60405161024092919061357f565b600061059282612779565b92915050565b6060600080546105a7906135a4565b80601f01602080910402602001604051908101604052809291908181526020018280546105d3906135a4565b80156106205780601f106105f557610100808354040283529160200191610620565b820191906000526020600020905b81548152906001019060200180831161060357829003601f168201915b5050505050905090565b600061063582610df9565b9050806001600160a01b0316836001600160a01b0316036106a75760405162461bcd60e51b815260206004820152602160248201527f4572726f72202d20617070726f76616c20746f2063757272656e74206f776e656044820152603960f91b60648201526084015b60405180910390fd5b336001600160a01b03821614806106c357506106c38133610512565b6107255760405162461bcd60e51b815260206004820152602d60248201527f43616c6c6572206973206e6f7420746f6b656e206f776e6572206f722061707060448201526c1c9bdd995908199bdc88185b1b609a1b606482015260840161069e565b60008281526004602052604080822080546001600160a01b0319166001600160a01b0387811691821790925591518593918516917f8c5be1e5ebec7d5bd14f71427d1e84f3dd0314c0f7b2291e5b200ac8c7c3b92591a4505050565b806001600160a01b03811661079557600080fd5b506001600160a01b03166000908152601160205260409020805460ff19166002179055565b606060106000838152602001908152602001600020805480602002602001604051908101604052809291908181526020016000905b8282101561083f57838290600052602060002090600302016040518060600160405290816000820154815260200160018201548152602001600282015481525050815260200190600101906107ef565b505050509050919050565b610854338261279e565b6108705760405162461bcd60e51b815260040161069e906135d8565b61087b838383612847565b505050565b600061088b83610fcf565b82106108d95760405162461bcd60e51b815260206004820152601d60248201527f6f776e657220696e646578206973206f7574206f6620626f756e647321000000604482015260640161069e565b6001600160a01b03831660009081526008602052604090208054839081106109035761090361361d565b9060005260206000200154905092915050565b6001600160a01b0382166000908152600d6020526040808220905161093c908490613633565b908152602001604051809103902054905092915050565b61087b83838360405180602001604052806000815250611a86565b600061097960065490565b82106109c75760405162461bcd60e51b815260206004820152601e60248201527f676c6f62616c20696e646578206973206f7574206f6620626f756e6473210000604482015260640161069e565b600682815481106109da576109da61361d565b90600052602060002001549050919050565b606060006109fa8484610916565b6001600160a01b0385166000908152600e602090815260408083208484528252808320805482518185028101850190935280835294955090939092909184015b82821015610dec5783829060005260206000209060060201604051806040016040529081600082018054610a6d906135a4565b80601f0160208091040260200160405190810160405280929190818152602001828054610a99906135a4565b8015610ae65780601f10610abb57610100808354040283529160200191610ae6565b820191906000526020600020905b815481529060010190602001808311610ac957829003601f168201915b50505050508152602001600182016040518060a0016040529081600082018054610b0f906135a4565b80601f0160208091040260200160405190810160405280929190818152602001828054610b3b906135a4565b8015610b885780601f10610b5d57610100808354040283529160200191610b88565b820191906000526020600020905b815481529060010190602001808311610b6b57829003601f168201915b50505050508152602001600182018054610ba1906135a4565b80601f0160208091040260200160405190810160405280929190818152602001828054610bcd906135a4565b8015610c1a5780601f10610bef57610100808354040283529160200191610c1a565b820191906000526020600020905b815481529060010190602001808311610bfd57829003601f168201915b50505050508152602001600282018054610c33906135a4565b80601f0160208091040260200160405190810160405280929190818152602001828054610c5f906135a4565b8015610cac5780601f10610c8157610100808354040283529160200191610cac565b820191906000526020600020905b815481529060010190602001808311610c8f57829003601f168201915b50505050508152602001600382018054610cc5906135a4565b80601f0160208091040260200160405190810160405280929190818152602001828054610cf1906135a4565b8015610d3e5780601f10610d1357610100808354040283529160200191610d3e565b820191906000526020600020905b815481529060010190602001808311610d2157829003601f168201915b50505050508152602001600482018054610d57906135a4565b80601f0160208091040260200160405190810160405280929190818152602001828054610d83906135a4565b8015610dd05780601f10610da557610100808354040283529160200191610dd0565b820191906000526020600020905b815481529060010190602001808311610db357829003601f168201915b5050505050815250508152505081526020019060010190610a3a565b5050505091505092915050565b6000818152600260205260408120546001600160a01b0316806105925760405162461bcd60e51b815260040161069e9061364f565b806001600160a01b038116610e4257600080fd5b33610e9e5760405162461bcd60e51b815260206004820152602660248201527f72657175657374696e67206163636f756e74206973206e6f74207a65726f2d6160448201526518d8dbdd5b9d60d21b606482015260840161069e565b3360009081526011602052604090205460ff16600214610f0a5760405162461bcd60e51b815260206004820152602160248201527f72657175657374696e67206163636f756e74206861766520746f2061757468206044820152601960f91b606482015260840161069e565b6001600160a01b03821660009081526011602052604090205460ff1615610f825760405162461bcd60e51b815260206004820152602660248201527f7265676973746564206163636f756e742069732063616e2774207265676973746044820152651030b3b0b4b760d11b606482015260840161069e565b506001600160a01b03166000908152601160205260409020805460ff19166001179055565b6000601282604051610fb99190613633565b9081526020016040518091039020549050919050565b60006001600160a01b038216610ff75760405162461bcd60e51b815260040161069e9061364f565b506001600160a01b031660009081526003602052604090205490565b6001600160a01b0381166000908152600c60209081526040808320805482518185028101850190935280835260609492939192909184015b8282101561083f57838290600052602060002090600502016040518060a001604052908160008201805461107e906135a4565b80601f01602080910402602001604051908101604052809291908181526020018280546110aa906135a4565b80156110f75780601f106110cc576101008083540402835291602001916110f7565b820191906000526020600020905b8154815290600101906020018083116110da57829003601f168201915b50505050508152602001600182018054611110906135a4565b80601f016020809104026020016040519081016040528092919081815260200182805461113c906135a4565b80156111895780601f1061115e57610100808354040283529160200191611189565b820191906000526020600020905b81548152906001019060200180831161116c57829003601f168201915b505050505081526020016002820180546111a2906135a4565b80601f01602080910402602001604051908101604052809291908181526020018280546111ce906135a4565b801561121b5780601f106111f05761010080835404028352916020019161121b565b820191906000526020600020905b8154815290600101906020018083116111fe57829003601f168201915b50505050508152602001600382018054611234906135a4565b80601f0160208091040260200160405190810160405280929190818152602001828054611260906135a4565b80156112ad5780601f10611282576101008083540402835291602001916112ad565b820191906000526020600020905b81548152906001019060200180831161129057829003601f168201915b505050505081526020016004820180546112c6906135a4565b80601f01602080910402602001604051908101604052809291908181526020018280546112f2906135a4565b801561133f5780601f106113145761010080835404028352916020019161133f565b820191906000526020600020905b81548152906001019060200180831161132257829003601f168201915b5050505050815250508152602001906001019061104b565b6000816001600160a01b03811661136d57600080fd5b6001600160a01b03831660009081526011602052604090205460ff1691505b50919050565b806012836040516113a39190613633565b908152604051908190036020019020555050565b6001600160a01b0382166000908152600e602090815260408083208484528252808320805482518185028101850190935280835260609492939192909184015b828210156117a9578382906000526020600020906006020160405180604001604052908160008201805461142a906135a4565b80601f0160208091040260200160405190810160405280929190818152602001828054611456906135a4565b80156114a35780601f10611478576101008083540402835291602001916114a3565b820191906000526020600020905b81548152906001019060200180831161148657829003601f168201915b50505050508152602001600182016040518060a00160405290816000820180546114cc906135a4565b80601f01602080910402602001604051908101604052809291908181526020018280546114f8906135a4565b80156115455780601f1061151a57610100808354040283529160200191611545565b820191906000526020600020905b81548152906001019060200180831161152857829003601f168201915b5050505050815260200160018201805461155e906135a4565b80601f016020809104026020016040519081016040528092919081815260200182805461158a906135a4565b80156115d75780601f106115ac576101008083540402835291602001916115d7565b820191906000526020600020905b8154815290600101906020018083116115ba57829003601f168201915b505050505081526020016002820180546115f0906135a4565b80601f016020809104026020016040519081016040528092919081815260200182805461161c906135a4565b80156116695780601f1061163e57610100808354040283529160200191611669565b820191906000526020600020905b81548152906001019060200180831161164c57829003601f168201915b50505050508152602001600382018054611682906135a4565b80601f01602080910402602001604051908101604052809291908181526020018280546116ae906135a4565b80156116fb5780601f106116d0576101008083540402835291602001916116fb565b820191906000526020600020905b8154815290600101906020018083116116de57829003601f168201915b50505050508152602001600482018054611714906135a4565b80601f0160208091040260200160405190810160405280929190818152602001828054611740906135a4565b801561178d5780601f106117625761010080835404028352916020019161178d565b820191906000526020600020905b81548152906001019060200180831161177057829003601f168201915b50505050508152505081525050815260200190600101906113f7565b50505050905092915050565b6117c0858585611804565b600083815260076020526040812054905043600b82815481106117e5576117e561361d565b6000918252602090912001556117fc8484846129b4565b505050505050565b61180f83838361084a565b6000818152600960209081526040808320546001600160a01b038716845260089092529091208054829081106118475761184761361d565b6000918252602082200155805b6001600160a01b038516600090815260086020526040902054611879906001906136a7565b81101561196f576001600160a01b03851660009081526008602052604090206118a38260016136ba565b815481106118b3576118b361361d565b906000526020600020015460086000876001600160a01b03166001600160a01b0316815260200190815260200160002082815481106118f4576118f461361d565b60009182526020808320909101929092556001600160a01b038716815260089091526040812080548390811061192c5761192c61361d565b600091825260208083209091015480835260099091526040822080549193509091611956836136cd565b9190505550508080611967906136e4565b915050611854565b506001600160a01b0384166000908152600860205260409020805480611997576119976136fd565b600190038181906000526020600020016000905590556119b78383612a09565b50505050565b6060600180546105a7906135a4565b336001600160a01b0383168103611a195760405162461bcd60e51b815260206004820152601160248201527030b8383937bb32903a379031b0b63632b960791b604482015260640161069e565b6001600160a01b03818116600081815260056020908152604080832094881680845294825291829020805460ff191687151590811790915591519182527f17307eab39ab6107e8899845ad3d59bd9653f200f220920489ca2b5937696c31910160405180910390a3505050565b611a90338361279e565b611aac5760405162461bcd60e51b815260040161069e906135d8565b6119b784848484612a47565b83836000806000611ac833611013565b905060005b8151811015611b1f578580519060200120828281518110611af057611af061361d565b6020026020010151604001518051906020012003611b0d57600192505b80611b17816136e4565b915050611acd565b50336000908152600d60205260408082209051611b3d908890613633565b908152602001604051809103902054905060005b336000908152600e60209081526040808320858452909152902054811015611c48578651602080890191909120336000908152600c9092526040909120805484908110611ba057611ba061361d565b9060005260206000209060050201600201604051611bbe9190613713565b6040518091039020148015611c2c57508551602080880191909120336000908152600e8352604080822086835290935291909120805483908110611c0457611c0461361d565b9060005260206000209060060201600001604051611c229190613713565b6040518091039020145b15611c3657600194505b80611c40816136e4565b915050611b51565b508315611c975760405162461bcd60e51b815260206004820152601c60248201527f4572726f72205f6e67496e666f20616c72656164792065786973747300000000604482015260640161069e565b6000611ca3338c610916565b90506000611cb033611013565b9050600060405180604001604052808d8152602001838581518110611cd757611cd761361d565b602090810291909101810151909152336000908152600e8252604080822087835283528120805460018101825590825291902082519293508392600690920201908190611d2490826137cf565b506020820151805160018301908190611d3d90826137cf565b5060208201516001820190611d5290826137cf565b5060408201516002820190611d6790826137cf565b5060608201516003820190611d7c90826137cf565b5060808201516004820190611d9190826137cf565b5050600a8054600181018255600091909152845185945060069091027fc65a7bb8d6351c1cf70c95a316cc6a92839c986682d98bc35f958f4883f9d2a8019250829150611dde90826137cf565b506020820151805160018301908190611df790826137cf565b5060208201516001820190611e0c90826137cf565b5060408201516002820190611e2190826137cf565b5060608201516003820190611e3690826137cf565b5060808201516004820190611e4b90826137cf565b5050600b8054600181810183556000928352437f0175b7a638427703f0dbe7bb9bbf987a2551717b34e79f33b5b1008d1fa01db990920191909155600a54919450611e98935091506136a7565b3360009081526011602052604081205491925060ff9091169003611ece5760405162461bcd60e51b815260040161069e9061388f565b611ed83382612a7a565b336000908152600f6020908152604082208054600181018255908352912001819055611f05818d8d6129b4565b5050505050505050505050505050565b604080516020810190915260008152606090604051806020016040528060008152505b9392505050565b600b8181548110611f4f57600080fd5b600091825260209091200154905081565b6001600160a01b038116600090815260086020908152604091829020805483518184028101840190945280845260609392830182828015611fc057602002820191906000526020600020905b815481526020019060010190808311611fac575b50505050509050919050565b336000908152600f602090815260409182902080548351818402810184019094528084526060939283018282801561062057602002820191906000526020600020905b81548152602001906001019080831161200f575050505050905090565b600080600b83815481106120425761204261361d565b600091825260209091200154409392505050565b84848484846000805b336000908152600c6020526040902054811015612256578651602080890191909120336000908152600c90925260409091208054839081106120a3576120a361361d565b90600052602060002090600502016000016040516120c19190613713565b604051809103902014801561212657508551602080880191909120336000908152600c90925260409091208054839081106120fe576120fe61361d565b906000526020600020906005020160010160405161211c9190613713565b6040518091039020145b801561218257508451602080870191909120336000908152600c909252604090912080548390811061215a5761215a61361d565b90600052602060002090600502016002016040516121789190613713565b6040518091039020145b80156121de57508351602080860191909120336000908152600c90925260409091208054839081106121b6576121b661361d565b90600052602060002090600502016003016040516121d49190613713565b6040518091039020145b801561223a57508251602080850191909120336000908152600c90925260409091208054839081106122125761221261361d565b90600052602060002090600502016004016040516122309190613713565b6040518091039020145b1561224457600191505b8061224e816136e4565b91505061205f565b5080156122a55760405162461bcd60e51b815260206004820152601d60248201527f4572726f722043617465676f727920616c726561647920657869737473000000604482015260640161069e565b6040805160a0810182528c815260208082018d90528183018c9052606082018b9052608082018a9052336000908152601190915291822054909160ff90911690036123025760405162461bcd60e51b815260040161069e9061388f565b336000908152600c6020908152604080832054600d90925291829020915190919061232e908d90613633565b908152604080516020928190038301902092909255336000908152600c8252918220805460018101825590835291208251839260050290910190819061237490826137cf565b506020820151600182019061238990826137cf565b506040820151600282019061239e90826137cf565b50606082015160038201906123b390826137cf565b50608082015160048201906123c890826137cf565b505050505050505050505050505050565b600a81815481106123e957600080fd5b906000526020600020906006020160009150905080600001805461240c906135a4565b80601f0160208091040260200160405190810160405280929190818152602001828054612438906135a4565b80156124855780601f1061245a57610100808354040283529160200191612485565b820191906000526020600020905b81548152906001019060200180831161246857829003601f168201915b505050505090806001016040518060a00160405290816000820180546124aa906135a4565b80601f01602080910402602001604051908101604052809291908181526020018280546124d6906135a4565b80156125235780601f106124f857610100808354040283529160200191612523565b820191906000526020600020905b81548152906001019060200180831161250657829003601f168201915b5050505050815260200160018201805461253c906135a4565b80601f0160208091040260200160405190810160405280929190818152602001828054612568906135a4565b80156125b55780601f1061258a576101008083540402835291602001916125b5565b820191906000526020600020905b81548152906001019060200180831161259857829003601f168201915b505050505081526020016002820180546125ce906135a4565b80601f01602080910402602001604051908101604052809291908181526020018280546125fa906135a4565b80156126475780601f1061261c57610100808354040283529160200191612647565b820191906000526020600020905b81548152906001019060200180831161262a57829003601f168201915b50505050508152602001600382018054612660906135a4565b80601f016020809104026020016040519081016040528092919081815260200182805461268c906135a4565b80156126d95780601f106126ae576101008083540402835291602001916126d9565b820191906000526020600020905b8154815290600101906020018083116126bc57829003601f168201915b505050505081526020016004820180546126f2906135a4565b80601f016020809104026020016040519081016040528092919081815260200182805461271e906135a4565b801561276b5780601f106127405761010080835404028352916020019161276b565b820191906000526020600020905b81548152906001019060200180831161274e57829003601f168201915b505050505081525050905082565b60006001600160e01b0319821663780e9d6360e01b1480610592575061059282612bb0565b6000818152600260205260408120546001600160a01b03166127f95760405162461bcd60e51b81526020600482015260146024820152731d1bdad95b88191bdcd9481b9bdd08195e1a5cdd60621b604482015260640161069e565b600061280483610df9565b9050806001600160a01b0316846001600160a01b0316148061283f57506000838152600460205260409020546001600160a01b038581169116145b949350505050565b826001600160a01b031661285a82610df9565b6001600160a01b0316146128cd5760405162461bcd60e51b815260206004820152603460248201527f547279696e6720746f207472616e73666572206120746f6b656e20746865206160448201527364647265737320646f6573206e6f74206f776e2160601b606482015260840161069e565b6001600160a01b0382166129375760405162461bcd60e51b815260206004820152602b60248201527f4572726f72202d20455243373231205472616e7366657220746f20746865207a60448201526a65726f206164647265737360a81b606482015260840161069e565b6001600160a01b038084166000818152600360209081526040808320805460001901905593861680835284832080546001019055858352600290915283822080546001600160a01b031916821790559251849392917fddf252ad1be2c89b69c2b068fc378daa952ba7f163c4a11628f55a4df523b3ef91a4505050565b6040805160608101825243815260208082019485528183019384526000958652601081529185208054600181810183559187529290952090516003909202019081559151928201929092559051600290910155565b6001600160a01b0390911660009081526008602081815260408084208054868652600984529185208290559282526001810183559183529091200155565b612a52848484612847565b612a5e84848484612be5565b6119b75760405162461bcd60e51b815260040161069e906138ec565b612a848282612ce6565b612a8e8282612a09565b612ad681600680546000838152600760205260408120829055600182018355919091527ff652222313e28459528d920b65115c16c04f3efc82aaedc97be59f3f377c0d3f0155565b5050565b8115612b005780612aea816136e4565b9150612af99050600a83613954565b9150612ada565b60008167ffffffffffffffff811115612b1b57612b1b612fdd565b6040519080825280601f01601f191660200182016040528015612b45576020820181803683370190505b5090505b841561283f57612b5a6001836136a7565b9150612b67600a86613968565b612b729060306136ba565b60f81b818381518110612b8757612b8761361d565b60200101906001600160f81b031916908160001a905350612ba9600a86613954565b9450612b49565b60006001600160e01b031982166380ac58cd60e01b148061059257506301ffc9a760e01b6001600160e01b0319831614610592565b60006001600160a01b0384163b15612cdb57604051630a85bd0160e11b81526001600160a01b0385169063150b7a0290612c2990339089908890889060040161397c565b6020604051808303816000875af1925050508015612c64575060408051601f3d908101601f19168201909252612c61918101906139b9565b60015b612cc1573d808015612c92576040519150601f19603f3d011682016040523d82523d6000602084013e612c97565b606091505b508051600003612cb95760405162461bcd60e51b815260040161069e906138ec565b805181602001fd5b6001600160e01b031916630a85bd0160e11b14905061283f565b506001949350505050565b6001600160a01b038216612d485760405162461bcd60e51b815260206004820152602360248201527f4552433732313a206d696e74696e6720746f20746865207a65726f206164647260448201526265737360e81b606482015260840161069e565b6000818152600260205260409020546001600160a01b031615612dad5760405162461bcd60e51b815260206004820152601c60248201527f4552433732313a20746f6b656e20616c7265616479206d696e74656400000000604482015260640161069e565b600081815260026020908152604080832080546001600160a01b0319166001600160a01b038716908117909155835260039091528120805460019290612df49084906136ba565b909155505060405181906001600160a01b038416906000907fddf252ad1be2c89b69c2b068fc378daa952ba7f163c4a11628f55a4df523b3ef908290a45050565b6001600160e01b031981168114612e4b57600080fd5b50565b600060208284031215612e6057600080fd5b8135611f3881612e35565b60005b83811015612e86578181015183820152602001612e6e565b50506000910152565b60008151808452612ea7816020860160208601612e6b565b601f01601f19169290920160200192915050565b602081526000611f386020830184612e8f565b600060208284031215612ee057600080fd5b5035919050565b80356001600160a01b0381168114612efe57600080fd5b919050565b60008060408385031215612f1657600080fd5b612f1f83612ee7565b946020939093013593505050565b600060208284031215612f3f57600080fd5b611f3882612ee7565b602080825282518282018190526000919060409081850190868401855b82811015612f945781518051855286810151878601528501518585015260609093019290850190600101612f65565b5091979650505050505050565b600080600060608486031215612fb657600080fd5b612fbf84612ee7565b9250612fcd60208501612ee7565b9150604084013590509250925092565b634e487b7160e01b600052604160045260246000fd5b600067ffffffffffffffff8084111561300e5761300e612fdd565b604051601f8501601f19908116603f0116810190828211818310171561303657613036612fdd565b8160405280935085815286868601111561304f57600080fd5b858560208301376000602087830101525050509392505050565b600082601f83011261307a57600080fd5b611f3883833560208501612ff3565b6000806040838503121561309c57600080fd5b6130a583612ee7565b9150602083013567ffffffffffffffff8111156130c157600080fd5b6130cd85828601613069565b9150509250929050565b6000815160a084526130ec60a0850182612e8f565b9050602083015184820360208601526131058282612e8f565b9150506040830151848203604086015261311f8282612e8f565b915050606083015184820360608601526131398282612e8f565b915050608083015184820360808601526131538282612e8f565b95945050505050565b60006020808301818452808551808352604092508286019150828160051b87010184880160005b838110156131d357888303603f19018552815180518785526131a788860182612e8f565b91890151858303868b01529190506131bf81836130d7565b968901969450505090860190600101613183565b509098975050505050505050565b6000602082840312156131f357600080fd5b813567ffffffffffffffff81111561320a57600080fd5b61283f84828501613069565b6000602080830181845280855180835260408601915060408160051b870101925083870160005b8281101561326b57603f198886030184526132598583516130d7565b9450928501929085019060010161323d565b5092979650505050505050565b6000806040838503121561328b57600080fd5b823567ffffffffffffffff8111156132a257600080fd5b6132ae85828601613069565b95602094909401359450505050565b600080600080600060a086880312156132d557600080fd5b6132de86612ee7565b94506132ec60208701612ee7565b94979496505050506040830135926060810135926080909101359150565b6000806040838503121561331d57600080fd5b61332683612ee7565b91506020830135801515811461333b57600080fd5b809150509250929050565b6000806000806080858703121561335c57600080fd5b61336585612ee7565b935061337360208601612ee7565b925060408501359150606085013567ffffffffffffffff81111561339657600080fd5b8501601f810187136133a757600080fd5b6133b687823560208401612ff3565b91505092959194509250565b600080600080608085870312156133d857600080fd5b843567ffffffffffffffff808211156133f057600080fd5b6133fc88838901613069565b9550602087013591508082111561341257600080fd5b5061341f87828801613069565b949794965050505060408301359260600135919050565b6020808252825182820181905260009190848201906040850190845b8181101561346e57835183529284019291840191600101613452565b50909695505050505050565b6000806040838503121561348d57600080fd5b61349683612ee7565b91506134a460208401612ee7565b90509250929050565b600080600080600060a086880312156134c557600080fd5b853567ffffffffffffffff808211156134dd57600080fd5b6134e989838a01613069565b965060208801359150808211156134ff57600080fd5b61350b89838a01613069565b9550604088013591508082111561352157600080fd5b61352d89838a01613069565b9450606088013591508082111561354357600080fd5b61354f89838a01613069565b9350608088013591508082111561356557600080fd5b5061357288828901613069565b9150509295509295909350565b6040815260006135926040830185612e8f565b828103602084015261315381856130d7565b600181811c908216806135b857607f821691505b60208210810361138c57634e487b7160e01b600052602260045260246000fd5b60208082526025908201527f73656e646572206973206e6f7420746f6b656e204f776e6572206f72204170706040820152641c9bdd995960da1b606082015260800190565b634e487b7160e01b600052603260045260246000fd5b60008251613645818460208701612e6b565b9190910192915050565b60208082526022908201527f6f776e657220717565727920666f72206e6f6e2d6578697374656e7420746f6b60408201526132b760f11b606082015260800190565b634e487b7160e01b600052601160045260246000fd5b8181038181111561059257610592613691565b8082018082111561059257610592613691565b6000816136dc576136dc613691565b506000190190565b6000600182016136f6576136f6613691565b5060010190565b634e487b7160e01b600052603160045260246000fd5b6000808354613721816135a4565b60018281168015613739576001811461374e5761377d565b60ff198416875282151583028701945061377d565b8760005260208060002060005b858110156137745781548a82015290840190820161375b565b50505082870194505b50929695505050505050565b601f82111561087b57600081815260208120601f850160051c810160208610156137b05750805b601f850160051c820191505b818110156117fc578281556001016137bc565b815167ffffffffffffffff8111156137e9576137e9612fdd565b6137fd816137f784546135a4565b84613789565b602080601f831160018114613832576000841561381a5750858301515b600019600386901b1c1916600185901b1785556117fc565b600085815260208120601f198616915b8281101561386157888601518255948401946001909101908401613842565b508582101561387f5787850151600019600388901b60f8161c191681555b5050505050600190811b01905550565b6020808252603b908201527f4e47203a206d696e742072657175657374732063616e206f6e6c79207265676960408201527f737465726564206163636f756e747320666f7220636f6d70616e790000000000606082015260800190565b60208082526032908201527f4552433732313a207472616e7366657220746f206e6f6e20455243373231526560408201527131b2b4bb32b91034b6b83632b6b2b73a32b960711b606082015260800190565b634e487b7160e01b600052601260045260246000fd5b6000826139635761396361393e565b500490565b6000826139775761397761393e565b500690565b6001600160a01b03858116825284166020820152604081018390526080606082018190526000906139af90830184612e8f565b9695505050505050565b6000602082840312156139cb57600080fd5b8151611f3881612e3556fea26469706673582212203179622da9d33189409a72f7fb00985f5604570ad87794f79f7177a84eb51eb664736f6c63430008110033",
  "immutableReferences": {},
  "source": "// SPDX-License-Identifier: MIT\npragma solidity ^0.8.0;\n\nimport \"./tokens/ERC721/ERC721Connector.sol\";\n\ncontract NG is ERC721Connector {\n    // struct nft    struct  nft \n    //   \n    struct NGInfo {\n        string serialNo;\n        Product product;\n    }\n\n    //      struct\n    struct Product {\n        string brandNm;\n        string productName;\n        string productNo;\n        string mfd;\n        string madeIn;\n    }\n\n    //   transaction     struct\n    struct History {\n        uint256 blockNumber;\n        uint256 year;\n        uint256 month;\n    }\n\n    //  ng block   \n    // tokenId    ngs \n    NGInfo[] public ngs;\n    uint256[] public blockNos;\n\n    //    \n    mapping(address => Product[]) private brandToProduct;\n    //    index\n    mapping(address => mapping(string => uint256)) private ProductToIndex;\n    //    serial number  \n    mapping(address => mapping(uint256 => NGInfo[])) private ProductToNg;\n    // minted account address => token ids\n    mapping(address => uint256[]) private _mintedTokens;\n\n    // mapping for block number (previous txn hash)\n    // tokenId => History struct array\n    // mapping(uint256 => uint256[]) private _tokenHistory;\n    mapping(uint256 => History[]) private _tokenHistory;\n\n    mapping(address => uint8) _accountsAuth; // : 0, : 1, : 2\n\n    // txnhash -> tokenid\n    mapping(string => uint256) private _txnHashToTokenId;\n\n    //       \n    function getAddressToCategorys(address caller)\n        public\n        view\n        returns (Product[] memory)\n    {\n        // return brandToCategory[msg.sender];\n        return brandToProduct[caller];\n    }\n\n    //        index \n    function getCategoryIndex(address caller, string memory productNo)\n        public\n        view\n        returns (uint256)\n    {\n        return ProductToIndex[caller][productNo];\n    }\n\n    //      index   \n    function getProductidxToNgs(address caller, uint256 categoryIdx)\n        public\n        view\n        returns (NGInfo[] memory)\n    {\n        return ProductToNg[caller][categoryIdx];\n    }\n\n    //         \n    function getProductnoToNgs(address caller, string memory productNo)\n        public\n        view\n        returns (NGInfo[] memory)\n    {\n        uint256 idx = getCategoryIndex(caller, productNo);\n        return ProductToNg[caller][idx];\n    }\n\n    //ng) input: txnhash, output: tokenId\n    function getTokenIdFromTxnHash(string memory _txnHash)\n        public\n        view\n        returns (uint256)\n    {\n        return _txnHashToTokenId[_txnHash];\n    }\n\n    //ng) input: txnhash & tokenId\n    //ng) mint, transfer front \n    function setTxnHashToTokenId(string memory _txnHash, uint256 _tokenId)\n        public\n    {\n        _txnHashToTokenId[_txnHash] = _tokenId;\n    }\n\n    //ng) msg.sender     (  )\n    function getMintedTokens() public view returns (uint256[] memory) {\n        return _mintedTokens[msg.sender];\n    }\n\n    function getBlockHash(uint256 _idx) public view returns (bytes32) {\n        uint256 _blockNo = blockNos[_idx];\n        return blockhash(_blockNo);\n    }\n\n    modifier checkZeroAddress(address _address) {\n        require(_address != address(0));\n        _;\n    }\n\n    function getAccountAuth(address _address)\n        public\n        view\n        checkZeroAddress(_address)\n        returns (uint8)\n    {\n        uint8 _auth = _accountsAuth[_address];\n        return _auth;\n    }\n\n    function setBrandAccountAuth(address _address)\n        public\n        checkZeroAddress(_address)\n    {\n        //   0 ,       .\n        require(\n            msg.sender != address(0),\n            \"requesting account is not zero-account\"\n        );\n        require(\n            _accountsAuth[msg.sender] == 2,\n            \"requesting account have to auth 2\"\n        );\n\n        //      \n        require(\n            _accountsAuth[_address] == 0,\n            \"registed account is can't regist again\"\n        );\n\n        _accountsAuth[_address] = 1;\n    }\n\n    //  ..       ..?\n    function setAdminAccountAuth(address _address)\n        public\n        checkZeroAddress(_address)\n    {\n        _accountsAuth[_address] = 2;\n    }\n\n    modifier productExists(\n        string memory _brandNm,\n        string memory _productName,\n        string memory _productNo,\n        string memory _mfd,\n        string memory _madeIn\n    ) {\n        bool check = false;\n        for (uint256 i = 0; i < brandToProduct[msg.sender].length; i++) {\n            if (\n                keccak256(bytes(brandToProduct[msg.sender][i].brandNm)) ==\n                keccak256(bytes(_brandNm)) &&\n                keccak256(bytes(brandToProduct[msg.sender][i].productName)) ==\n                keccak256(bytes(_productName)) &&\n                keccak256(bytes(brandToProduct[msg.sender][i].productNo)) ==\n                keccak256(bytes(_productNo)) &&\n                keccak256(bytes(brandToProduct[msg.sender][i].mfd)) ==\n                keccak256(bytes(_mfd)) &&\n                keccak256(bytes(brandToProduct[msg.sender][i].madeIn)) ==\n                keccak256(bytes(_madeIn))\n            ) {\n                check = true;\n            }\n        }\n        require(!check, \"Error Category already exists\");\n        _;\n    }\n\n    modifier ngExists(string memory _productNo, string memory _serialNo) {\n        bool check = false;\n        bool hasProduct = false;\n        //    \n        Product[] memory cates = getAddressToCategorys(msg.sender);\n        for (uint256 i = 0; i < cates.length; i++) {\n            if (\n                keccak256(bytes(cates[i].productNo)) ==\n                keccak256(bytes(_productNo))\n            ) {\n                hasProduct = true;\n            }\n        }\n\n        uint256 idx = ProductToIndex[msg.sender][_productNo];\n        for (uint256 i = 0; i < ProductToNg[msg.sender][idx].length; i++) {\n            if (\n                // serialNo  : NFT     \n                //       \n                keccak256(bytes(brandToProduct[msg.sender][idx].productNo)) ==\n                keccak256(bytes(_productNo)) &&\n                keccak256(bytes(ProductToNg[msg.sender][idx][i].serialNo)) ==\n                keccak256(bytes(_serialNo))\n            ) {\n                check = true;\n            }\n        }\n        require(!check, \"Error _ngInfo already exists\");\n        _;\n    }\n\n    function addTokenHistory(\n        uint256 _tokenId,\n        uint256 year,\n        uint256 month\n    ) private {\n        History memory history = History(block.number, year, month);\n\n        _tokenHistory[_tokenId].push(history);\n    }\n\n    function getTokenHistory(uint256 tokenId)\n        public\n        view\n        returns (History[] memory)\n    {\n        return _tokenHistory[tokenId];\n    }\n\n    function transferNG(\n        address _from,\n        address _to,\n        uint256 _tokenId,\n        uint256 _year,\n        uint256 _month\n    ) public {\n        _transferNG(_from, _to, _tokenId);\n        uint256 _index = getIndexFromTokenId(_tokenId);\n        blockNos[_index] = block.number;\n\n        addTokenHistory(_tokenId, _year, _month);\n    }\n\n    function addProduct(\n        string memory _brandNm,\n        string memory _productName,\n        string memory _productNo,\n        string memory _mfd,\n        string memory _madeIn\n    ) public productExists(_brandNm, _productName, _productNo, _mfd, _madeIn) {\n        Product memory category = Product(\n            _brandNm,\n            _productName,\n            _productNo,\n            _mfd,\n            _madeIn\n        );\n\n        // product   1  2     \n        require(\n            _accountsAuth[msg.sender] != 0,\n            \"NG : mint requests can only registered accounts for company\"\n        );\n\n        ProductToIndex[msg.sender][_productNo] = brandToProduct[msg.sender]\n            .length;\n\n        brandToProduct[msg.sender].push(category);\n    }\n\n    function mint(\n        string memory _productNo,\n        string memory _serialNo,\n        uint256 _year,\n        uint256 _month\n    ) public ngExists(_productNo, _serialNo) {\n        uint256 idx = getCategoryIndex(msg.sender, _productNo);\n        Product[] memory categotys = getAddressToCategorys(msg.sender);\n        NGInfo memory _ngInfo = NGInfo(_serialNo, categotys[idx]);\n\n        ProductToNg[msg.sender][idx].push(_ngInfo);\n        ngs.push(_ngInfo);\n        blockNos.push(block.number);\n        uint256 _id = ngs.length - 1;\n\n        // mint  1  2     \n        require(\n            _accountsAuth[msg.sender] != 0,\n            \"NG : mint requests can only registered accounts for company\"\n        );\n\n        _mint(msg.sender, _id);\n        _mintedTokens[msg.sender].push(_id);\n        addTokenHistory(_id, _year, _month);\n    }\n\n    constructor(string memory named, string memory symbolified)\n        ERC721Connector(named, symbolified)\n    {}\n}\n",
  "sourcePath": "/Users/kimyuri/SSAFY/projects/pjt2/repo/S07P22E206/smart-contracts/src/contracts/NG.sol",
  "compiler": {
    "name": "solc",
    "version": "0.8.17+commit.8df45f5f.Emscripten.clang"
  },
  "schemaVersion": "3.4.9",
  "updatedAt": "2022-10-05T12:26:55.079Z",
  "networkType": "ethereum",
  "devdoc": {
    "kind": "dev",
    "methods": {
      "balanceOf(address)": {
        "details": "Returns the number of tokens in ``owner``'s account."
      },
      "getApproved(uint256)": {
        "details": "Returns the account approved for `tokenId` token. Requirements: - `tokenId` must exist."
      },
      "isApprovedForAll(address,address)": {
        "details": "Returns if the `operator` is allowed to manage all of the assets of `owner`. See {setApprovalForAll}"
      },
      "safeTransferFrom(address,address,uint256)": {
        "details": "Safely transfers `tokenId` token from `from` to `to`, checking first that contract recipients are aware of the ERC721 protocol to prevent tokens from being forever locked. Requirements: - `from` cannot be the zero address. - `to` cannot be the zero address. - `tokenId` token must exist and be owned by `from`. - If the caller is not `from`, it must be have been allowed to move this token by either {approve} or {setApprovalForAll}. - If `to` refers to a smart contract, it must implement {IERC721Receiver-onERC721Received}, which is called upon a safe transfer. Emits a {Transfer} event."
      },
      "safeTransferFrom(address,address,uint256,bytes)": {
        "details": "Safely transfers `tokenId` token from `from` to `to`. Requirements: - `from` cannot be the zero address. - `to` cannot be the zero address. - `tokenId` token must exist and be owned by `from`. - If the caller is not `from`, it must be approved to move this token by either {approve} or {setApprovalForAll}. - If `to` refers to a smart contract, it must implement {IERC721Receiver-onERC721Received}, which is called upon a safe transfer. Emits a {Transfer} event."
      },
      "setApprovalForAll(address,bool)": {
        "details": "Approve or remove `operator` as an operator for the caller. Operators can call {transferFrom} or {safeTransferFrom} for any token owned by the caller. Requirements: - The `operator` cannot be the caller. Emits an {ApprovalForAll} event."
      }
    },
    "version": 1
  },
  "userdoc": {
    "kind": "user",
    "methods": {},
    "version": 1
  }
}